:020000040800F2
:1000000000500020C12C0008590E00085B0E0008AB
:100010005D0E00085F0E0008610E00080000000081
:10002000000000000000000000000000630E000857
:10003000650E000800000000670E0008690E000849
:10004000092D0008092D0008092D0008092D0008B8
:10005000092D0008092D0008092D0008092D0008A8
:10006000092D0008092D0008092D0008092D000898
:10007000092D0008092D0008092D0008092D000888
:10008000092D0008092D0008092D0008092D000878
:10009000092D0008092D0008092D0008092D000868
:1000A000092D0008092D0008092D0008092D000858
:1000B000092D0008092D0008092D0008092D000848
:1000C000092D0008092D0008092D0008092D000838
:1000D000092D0008092D0008092D0008092D000828
:1000E000092D0008092D0008092D00080000000056
:1000F0000000000000000000000000000000000000
:0C01000000000000000000005FF808F1A3
:1001100010B5054C237833B9044B13B10448AFF341
:1001200000800123237010BDE001002000000000CA
:100130004058000808B5034B1BB103490348AFF30F
:10014000008008BD00000000E401002040580008C5
:10015000034613F8012B002AFBD1181A0138704707
:1001600081F0004102E000BF83F0004330B54FEA68
:1001700041044FEA430594EA050F08BF90EA020FD5
:100180001FBF54EA000C55EA020C7FEA645C7FEA68
:10019000655C00F0E2804FEA5454D4EB5555B8BF8B
:1001A0006D420CDD2C4480EA020281EA030382EAFC
:1001B000000083EA010180EA020281EA0303362D8E
:1001C00088BF30BD11F0004F4FEA01314FF4801C61
:1001D0004CEA113102D0404261EB410113F0004F73
:1001E0004FEA03334CEA133302D0524263EB43032A
:1001F00094EA050F00F0A780A4F10104D5F1200EC8
:100200000DDB02FA0EFC22FA05F2801841F1000122
:1002100003FA0EF2801843FA05F359410EE0A5F1F6
:1002200020050EF1200E012A03FA0EFC28BF4CF027
:10023000020C43FA05F3C01851EBE37101F00045DD
:1002400007D54FF0000EDCF1000C7EEB00006EEBEA
:100250000101B1F5801F1BD3B1F5001F0CD3490874
:100260005FEA30004FEA3C0C04F101044FEA4452CB
:1002700012F5800F80F09A80BCF1004F08BF5FEA52
:10028000500C50F1000041EB045141EA050130BD32
:100290005FEA4C0C404141EB0101013C28BFB1F544
:1002A000801FE9D291F0000F04BF01460020B1FA8F
:1002B00081F308BF2033A3F10B03B3F120020CDA62
:1002C0000C3208DD02F1140CC2F10C0201FA0CF040
:1002D00021FA02F10CE002F11402D8BFC2F1200CA5
:1002E00001FA02F120FA0CFCDCBF41EA0C0190405B
:1002F000E41AA2BF01EB0451294330BD6FEA0404A4
:100300001F3C1CDA0C340EDC04F11404C4F120028E
:1003100020FA04F001FA02F340EA030021FA04F3A0
:1003200045EA030130BDC4F10C04C4F1200220FAF7
:1003300002F001FA04F340EA0300294630BD21FA35
:1003400004F0294630BD94F0000F83F4801306BFFB
:1003500081F480110134013D4EE77FEA645C18BFEF
:100360007FEA655C29D094EA050F08BF90EA020F86
:1003700005D054EA000C04BF1946104630BD91EA7E
:10038000030F1EBF0021002030BD5FEA545C05D181
:100390004000494128BF41F0004130BD14F58004C0
:1003A0003CBF01F5801130BD01F0004545F0FE4134
:1003B00041F470014FF0000030BD7FEA645C1ABF69
:1003C000194610467FEA655C1CBF0B46024650EAA0
:1003D000013406BF52EA033591EA030F41F40021CC
:1003E00030BD00BF90F0000F04BF0021704730B552
:1003F0004FF4806404F132044FF000054FF0000127
:1004000050E700BF90F0000F04BF0021704730B5E7
:100410004FF4806404F1320410F0004548BF4042BC
:100420004FF000013EE700BF42004FEAE2014FEA11
:1004300031014FEA02701FBF12F07F4393F07F4FEC
:1004400081F06051704732F07F4208BF704793F0EF
:100450007F4F04BF41F40021704730B54FF4607402
:1004600001F0004521F000411CE700BF50EA010205
:1004700008BF704730B54FF000050AE050EA0102AE
:1004800008BF704730B511F0004502D5404261EB1E
:1004900041014FF4806404F132045FEA915C3FF45F
:1004A000D8AE4FF003025FEADC0C18BF03325FEAFC
:1004B000DC0C18BF033202EBDC02C2F1200300FAAD
:1004C00003FC20FA02F001FA03FE40EA0E0021FAD2
:1004D00002F11444BDE600BF70B54FF0FF0C4CF4C0
:1004E000E06C1CEA11541DBF1CEA135594EA0C0F72
:1004F00095EA0C0F00F0DEF82C4481EA030621EAAD
:100500004C5123EA4C5350EA013518BF52EA0335E7
:1005100041F4801143F4801338D0A0FB02CE4FF099
:100520000005E1FB02E506F00042E0FB03E54FF0C9
:100530000006E1FB03569CF0000F18BF4EF0010EC1
:10054000A4F1FF04B6F5007F64F5407404D25FEABD
:100550004E0E6D4146EB060642EAC62141EA555170
:100560004FEAC52040EA5E504FEACE2EB4F1FD0CB2
:1005700088BFBCF5E06F1ED8BEF1004F08BF5FEA30
:10058000500E50F1000041EB045170BD06F00046E2
:1005900046EA010140EA020081EA0301B4EB5C048F
:1005A000C2BFD4EB0C0541EA045170BD41F4801187
:1005B0004FF0000E013C00F3AB8014F1360FDEBFAC
:1005C000002001F0004170BDC4F10004203C35DA88
:1005D0000C341BDC04F11404C4F1200500FA05F30B
:1005E00020FA04F001FA05F240EA020001F00042AC
:1005F00021F0004110EBD37021FA04F642EB060122
:100600005EEA430E08BF20EAD37070BDC4F10C044B
:10061000C4F1200500FA04F320FA05F001FA04F20F
:1006200040EA020001F0004110EBD37041F10001FB
:100630005EEA430E08BF20EAD37070BDC4F1200506
:1006400000FA05F24EEA020E20FA04F301FA05F26E
:1006500043EA020321FA04F001F0004121FA04F216
:1006600020EA020000EBD3705EEA430E08BF20EAE6
:10067000D37070BD94F0000F0FD101F00046400020
:1006800041EB010111F4801F08BF013CF7D041EAA2
:10069000060195F0000F18BF704703F000465200A6
:1006A00043EB030313F4801F08BF013DF7D043EA77
:1006B0000603704794EA0C0F0CEA135518BF95EA2D
:1006C0000C0F0CD050EA410618BF52EA4306D1D1B4
:1006D00081EA030101F000414FF0000070BD50EAD3
:1006E000410606BF1046194652EA430619D094EA5D
:1006F0000C0F02D150EA013613D195EA0C0F05D147
:1007000052EA03361CBF104619460AD181EA03019A
:1007100001F0004141F0FE4141F470014FF0000052
:1007200070BD41F0FE4141F4780170BD70B54FF0ED
:10073000FF0C4CF4E06C1CEA11541DBF1CEA13556D
:1007400094EA0C0F95EA0C0F00F0A7F8A4EB05044F
:1007500081EA030E52EA03354FEA013100F0888046
:100760004FEA03334FF0805545EA131343EA12630F
:100770004FEA022245EA111545EA10654FEA0026C4
:100780000EF000419D4208BF964244F1FD0404F57D
:10079000407402D25B084FEA3202B61A65EB0305D9
:1007A0005B084FEA32024FF480104FF4002CB6EB96
:1007B000020E75EB030E22BFB61A754640EA0C0016
:1007C0005B084FEA3202B6EB020E75EB030E22BF56
:1007D000B61A754640EA5C005B084FEA3202B6EB97
:1007E000020E75EB030E22BFB61A754640EA9C0056
:1007F0005B084FEA3202B6EB020E75EB030E22BF26
:10080000B61A754640EADC0055EA060E18D04FEAE3
:10081000051545EA16754FEA06164FEAC30343EA83
:1008200052734FEAC2025FEA1C1CC0D111F4801F50
:100830000BD141EA00014FF000004FF0004CB6E749
:1008400011F4801F04BF01430020B4F1FD0C88BFE8
:10085000BCF5E06F3FF6AFAEB5EB030C04BFB6EBF3
:10086000020C5FEA500C50F1000041EB045170BDE6
:100870000EF0004E4EEA113114EB5C04C2BFD4EB13
:100880000C0541EA045170BD41F480114FF0000E97
:10089000013C90E645EA060E8DE60CEA135594EA13
:1008A0000C0F08BF95EA0C0F3FF43BAF94EA0C0F16
:1008B0000AD150EA01347FF434AF95EA0C0F7FF48B
:1008C00025AF104619462CE795EA0C0F06D152EADF
:1008D00003353FF4FDAE1046194622E750EA4106C3
:1008E00018BF52EA43067FF4C5AE50EA41047FF4D4
:1008F0000DAF52EA43057FF4EBAE12E74FF0FF3C39
:1009000006E000BF4FF0010C02E000BF4FF0010C09
:100910004DF804CD4FEA410C7FEA6C5C4FEA430C82
:1009200018BF7FEA6C5C1BD001B050EA410C0CBFD1
:1009300052EA430C91EA030F02BF90EA020F002033
:10094000704710F1000F91EA030F58BF994208BF9A
:1009500090422CBFD8176FEAE37040F00100704757
:100960004FEA410C7FEA6C5C02D150EA013C07D1AE
:100970004FEA430C7FEA6C5CD6D152EA033CD3D0F9
:100980005DF8040B704700BF8446104662468C46F3
:100990001946634600E000BF01B5FFF7B7FF002826
:1009A00048BF10F1000F01BD4DF808EDFFF7F4FF4F
:1009B0000CBF012000205DF808FB00BF4DF808EDDA
:1009C000FFF7EAFF34BF012000205DF808FB00BFFD
:1009D0004DF808EDFFF7E0FF94BF012000205DF81F
:1009E00008FB00BF4DF808EDFFF7CEFF94BF0120D4
:1009F00000205DF808FB00BF4DF808EDFFF7C4FFCD
:100A000034BF012000205DF808FB00BF4FEA410C15
:100A10007FEA6C5C02D150EA013C0AD14FEA430CF8
:100A20007FEA6C5C02D152EA033C02D14FF0000035
:100A300070474FF0010070474FEA410212F5001273
:100A400015D211D56FF47873B3EB625212D94FEA15
:100A5000C12343F0004343EA505311F0004F23FAFF
:100A600002F018BF404270474FF00000704750EA54
:100A7000013005D111F0004008BF6FF00040704711
:100A80004FF00000704700BF4A0011D212F500126B
:100A900011D20DD56FF47873B3EB62520ED44FEAD6
:100AA000C12343F0004343EA505323FA02F0704756
:100AB0004FF00000704750EA013002D14FF0FF3094
:100AC00070474FF00000704710B5D8B9B4291BD853
:100AD0000846FFF797FC00221B4BFFF727FE18A3E1
:100AE000D3E90023FFF7F8FC0022184BFFF73EFB89
:100AF0000022174BFFF738FB164B1C68FFF7C4FFAB
:100B0000606301E0012800D010BDB429FCD808467C
:100B1000FFF778FC00220C4BFFF708FE00220E4B7B
:100B2000FFF7DAFC00220D4BFFF720FB0022084BF9
:100B3000FFF71AFB074B1C68FFF7A6FFA063E3E76C
:100B40000000000000C0524000806640008042402B
:100B50000000F03F600200200000594000003940D2
:100B600010B5D8B91E4C204601F086FF3221204630
:100B700001F0D6FD204601F095FE1A4B1860FFF7F4
:100B800031FC0022184BFFF7A7FC13A3D3E9002385
:100B9000FFF7A2FC154BC3E9000110BD144C204621
:100BA00001F06AFF3221204601F0BAFD204601F033
:100BB00079FE0C4B5860FFF715FC00220A4BFFF73B
:100BC0008BFC05A3D3E90023FFF786FC074BC3E9A1
:100BD0000201E2E7AFF300806666666666660A4079
:100BE000A8020020FC0100200000303F0802002085
:100BF000D802002072B6FEE700B595B02822002189
:100C00000DEB020002F0A6F800230593069307936C
:100C100008930993019302930393049301220A9288
:100C20004FF480330B930E920222119212934FF4E1
:100C3000E01313930AA800F0E5FCC8B90F2305934D
:100C400002210691002307934FF4806208920993D2
:100C500005A800F017FF68B9022301934FF4004381
:100C6000039301A800F0EAFF30B915B05DF804FB6A
:100C7000FFF7C0FFFFF7BEFFFFF7BCFF000000005B
:100C80002DE9F04383B000F06FFCFFF7B5FF00F0F3
:100C90009DF801F057FA01F019FC01F097FC01F002
:100CA000C1FC454C0021204600F06AFB042120468F
:100CB00000F066FB5A210020FFF706FF1E210120ED
:100CC000FFF702FF642000F073FC1E255A243BE06E
:100CD00031A3D3E9002330463946FFF78DFE18B122
:100CE000B32C01D80134E4B2344BD3E902892CA3EC
:100CF000D3E9002340464946FFF760FE00283AD07A
:100D0000812D38D80135EDB2DFF8B480CDE9006728
:100D1000D8F8002021462B4802F084FC274BD3E969
:100D20000223CDE90023D8F804202946264802F002
:100D300079FC21460020FFF7C7FE29460120FFF776
:100D4000C3FE0A2000F034FC0020FFF709FF012059
:100D5000FFF706FF194BD3E9006713A3D3E900237C
:100D600030463946FFF72AFE0028B1D0002CAFD01C
:100D7000013CE4B2B8E70EA3D3E90023404649465C
:100D8000FFF73AFE0028BFD01E2DBDD9013DEDB2C0
:100D9000BAE700BFAFF30080CDCCCCCCCCCCFC3FCD
:100DA000333333333333FF3F5C8FC2F5285CFB3F73
:100DB00085EB51B81E85014060020020080200202A
:100DC000FC010020585800087C58000830B589B054
:100DD000002404940594069407941D4B9A6942F0EC
:100DE00010029A619A6902F010020092009A9A69C0
:100DF00042F020029A619A6902F020020192019A5F
:100E00009A6942F004029A619A6902F0040202921D
:100E1000029A9A6942F008029A619B6903F00803FA
:100E20000393039B0B4D01224FF40051284601F020
:100E300023F94FF4005304930123059306940223EE
:100E4000079304A9284601F005F809B030BD00BF9A
:100E50000010024000100140FEE7FEE7FEE7FEE75B
:100E6000FEE770477047704708B500F08FFB08BD7C
:100E700082B00E4B9A6942F001029A619A6902F0BF
:100E800001020092009ADA6942F08052DA61DB696D
:100E900003F080530193019B054A536823F0E063FC
:100EA00043F00073536002B0704700BF001002406F
:100EB0000000014070B4036A23F001030362036A77
:100EC0004668826922F073020C6844EA020523F046
:100ED00002028B6813430D4CA04209D00B4CA04278
:100EE0000DD0466085614A684263036270BC7047FA
:100EF00023F00803CA68134323F00403EEE726F443
:100F000040764A6932438E691643EAE7002C014075
:100F100030B4036A23F480730362036A4568C269CC
:100F200022F073020C68224323F400738C6843EAB6
:100F300004230F4CA04209D00D4CA0420ED04560B6
:100F4000C2614A68C263036230BC704723F4006325
:100F5000CC6843EA042323F48063EDE725F440558D
:100F60004C6945EA04158C6945EA0415E7E700BFBA
:100F7000002C014030B4036A23F480530362036AF7
:100F80004468C26922F4E6420D6842EA052223F46D
:100F900000538D6843EA0533074DA84206D04460EC
:100FA000C2614A680264036230BC704724F4804422
:100FB0004D6944EA8514F2E7002C014010B4036A3D
:100FC000046A24F001040462846924F0F00C4CEA01
:100FD000021223F00A030B438261036210BC7047C4
:100FE00010B4046A24F0100404628469036A24F4CF
:100FF000704C4CEA023223F0A00343EA01138261F1
:10100000036210BC7047836823F070030B4343F006
:10101000070383607047704703681B4A90420AD0F9
:10102000B0F1804F07D0A2F59432904203D002F580
:101030008062904203D123F070034A681343124A3E
:1010400090420AD0B0F1804F07D0A2F5943290427E
:1010500003D002F58062904203D123F44073CA6842
:10106000134323F080034A69134303608B68C36210
:101070000B688362044B984202D00123436170479E
:101080000B690363F9E700BF002C014040B310B5C2
:10109000044690F83D30F3B1022384F83D302146F8
:1010A00051F8040BFFF7B8FF012384F8463084F8A9
:1010B0003E3084F83F3084F8403084F8413084F882
:1010C000423084F8433084F8443084F8453084F862
:1010D0003D30002010BD80F83C3001F0B9F9DBE76D
:1010E0000120704740B310B5044690F83D30F3B18D
:1010F000022384F83D30214651F8040BFFF78CFFA2
:10110000012384F8463084F83E3084F83F3084F878
:10111000403084F8413084F8423084F8433084F819
:10112000443084F8453084F83D30002010BD80F80C
:101130003C30FFF770FFDBE70120704730B4036AF3
:1011400023F010030362036A4468826922F4E642D2
:101150000D6842EA052223F020038D6843EA051357
:101160000E4DA84209D00D4DA8420ED044608261B8
:101170004A688263036230BC704723F08003CD6805
:1011800043EA051323F04003EDE724F440644D697E
:1011900044EA85048D6944EA8504E7E7002C0140B0
:1011A00038B590F83C30012B60D004460D46012341
:1011B00080F83C300C2A1AD8DFE802F00719191918
:1011C0001D1919193119191944000068FFF772FE29
:1011D0002268936943F0080393612268936923F0BE
:1011E000040393612268936929690B43936100208A
:1011F00084F83C0038BD0068FFF7A0FF22689369BF
:1012000043F4006393612268936923F480639361DC
:1012100022689369296943EA01239361E7E700683B
:10122000FFF776FE2268D36943F00803D361226892
:10123000D36923F00403D3612268D36929690B437E
:10124000D361D4E70068FFF795FE2268D36943F4C1
:101250000063D3612268D36923F48063D361226879
:10126000D369296943EA0123D361C0E70220C1E7BA
:1012700010B4846824F47F4C42EA03220A4342EA11
:101280000C02826010BC704790F83C30012B66D095
:1012900010B50446012380F83C30022380F83D302D
:1012A0000268936823F47F4323F0770393600B680D
:1012B000602B40D022D8402B47D00BD9502B0ED1D9
:1012C000CA6849680068FFF779FE50212068FFF777
:1012D0009AFE04E0202B0CD008D9302B09D0012332
:1012E00084F83D30002084F83C0010BD0BB1102B79
:1012F000F5D119462068FFF786FEF0E7702B0ED077
:10130000B3F5005FEBD1CB684A6889680068FFF7E6
:10131000AFFF2268936843F480439360DFE7CB68B4
:101320004A6889680068FFF7A3FF2268936843F062
:1013300077039360D3E7CA6849680068FFF750FEF7
:1013400060212068FFF75FFEC9E7CA684968006846
:10135000FFF734FE40212068FFF755FEBFE702206B
:10136000704701F01F01012303FA01FC036A23EA1D
:101370000C030362036A02FA01F10B430362704734
:1013800010B50446084651BB94F83E30DBB2013B31
:1013900018BF0123002B5BD1002839D1022384F828
:1013A0003E30012201462068FFF7DBFF23682A4A0E
:1013B00093423DD02368284A93423ED0B3F1804FF8
:1013C0003BD0A2F59432934237D002F5806293422B
:1013D00033D01A6842F001021A60002039E0042973
:1013E00008D008290DD094F84130DBB2013B18BF7A
:1013F0000123CFE794F83F30DBB2013B18BF012354
:10140000C8E794F84030DBB2013B18BF0123C1E7C5
:10141000042805D0082807D0022384F84130C0E70B
:10142000022384F83F30BCE7022384F84030B8E759
:101430005A6C42F400425A64BCE79A6802F0070210
:10144000062A07D01A6842F001021A60002000E064
:10145000012010BD0020FCE7002C014090F83C303A
:10146000012B2CD010B4012380F83C30022380F8EB
:101470003D3003685A689C6822F0700C0A6842EAA2
:101480000C025A6003680F4A93420AD0B3F1804FAE
:1014900007D0A2F59432934203D002F580629342C2
:1014A00004D124F080044A6814439C60012380F82E
:1014B0003D30002380F83C30184610BC70470220B5
:1014C000704700BF002C014090F83C30012B22D027
:1014D000012380F83C30CB6823F440738A681343BF
:1014E00023F480634A68134323F400630A681343B8
:1014F00023F480530A69134323F400534A691343C6
:1015000023F48043CA69134302685364002380F8BC
:101510003C301846704702207047000010B5044662
:101520000E4B18784FF47A73B3FBF0F30C4A106843
:10153000B0FBF3F000F0F0FD68B90F2C01D90120E9
:101540000AE0002221464FF0FF3000F0ADFD054BD0
:101550001C60002000E0012010BD00BF0000002042
:10156000080000200400002008B5074A136843F073
:1015700010031360032000F085FD0020FFF7CEFF6D
:10158000FFF776FC002008BD00200240034A1168E6
:10159000034B1B780B441360704700BF18020020F8
:1015A00000000020014B1868704700BF180200209F
:1015B00038B50446FFF7F6FF0546B4F1FF3F02D009
:1015C000044B1B781C44FFF7EDFF401BA042FAD3ED
:1015D00038BD00BF0000002082B0084B1B68084ADD
:1015E000A2FB03235B0A00FB03F3019300BF019BF3
:1015F0005A1E0192002BF9D102B07047080000205A
:10160000D34D6210002800F0F18170B582B004461D
:10161000036813F0010F2CD0994B5B6803F00C03A7
:10162000042B1DD0964B5B6803F00C03082B12D0E3
:101630006368B3F5803F41D0002B55D103F180435F
:1016400003F504331A6822F480321A601A6822F40F
:1016500080221A6037E08A4B5B6813F4803FE7D042
:10166000874B1B6813F4003F03D06368002B00F026
:10167000BF81236813F0020F75D0814B5B6813F0B4
:101680000C0F5FD07E4B5B6803F00C03082B54D02B
:101690002369002B00F08A807A4B01221A60FFF741
:1016A00081FF0546764B1B6813F0020F75D1FFF7DB
:1016B00079FF401B0228F5D903209EE1704A136888
:1016C00043F480331360636843B3FFF76BFF054651
:1016D0006B4B1B6813F4003FCBD1FFF763FF401B3C
:1016E0006428F5D9032088E1B3F5A02F09D0644B15
:1016F0001A6822F480321A601A6822F480221A6072
:10170000E1E703F18043A3F53C331A6842F48022F9
:101710001A601A6842F480321A60D4E7FFF742FF79
:101720000546574B1B6813F4003FA2D0FFF73AFF62
:10173000401B6428F5D903205FE1514B5B6813F42B
:10174000803FA5D14E4B1B6813F0020F03D02369D5
:10175000012B40F04F814A4A136823F0F803616976
:1017600043EAC1031360236813F0080F33D0A36961
:10177000002B5CD0434B0122C3F88024FFF712FFFB
:1017800005463F4B5B6A13F0020F21D1FFF70AFFBA
:10179000401B0228F5D903202FE1394A136823F0B2
:1017A000F803616943EAC1031360DCE7354B0022AB
:1017B0001A60FFF7F7FE0546314B1B6813F0020F66
:1017C000D1D0FFF7EFFE401B0228F5D9032014E12A
:1017D0000120FFF701FF236813F0040F00F096804B
:1017E000274BDB6913F0805F34D1254BDA6942F077
:1017F0008052DA61DB6903F080530193019B01257C
:10180000214B1B6813F4807F26D0E368012B3DD069
:10181000002B53D103F1804303F504331A6A22F0FD
:1018200001021A621A6A22F004021A6233E0154BAE
:101830000022C3F88024FFF7B5FE0546104B5B6A13
:1018400013F0020FC7D0FFF7ADFE401B0228F5D9F9
:101850000320D2E00025D3E70B4A136843F48073DA
:101860001360FFF79FFE0646074B1B6813F4807F4B
:10187000CBD1FFF797FE801B6428F5D90320BCE08D
:101880000010024000004242007000405F4A136AAC
:1018900043F001031362E36833B3FFF783FE0646A8
:1018A0005A4B1B6A13F0020F2FD1FFF77BFE801BF0
:1018B00041F288339842F3D903209EE0052B09D0EA
:1018C000524B1A6A22F001021A621A6A22F00402CA
:1018D0001A62E0E74D4B1A6A42F004021A621A6A71
:1018E00042F001021A62D6E7FFF75CFE0646474B5C
:1018F0001B6A13F0020F08D0FFF754FE801B41F261
:1019000088339842F3D9032077E0E5B9E369002BE7
:1019100072D03E4A526802F00C02082A56D0022BBE
:1019200017D03B4B00221A66FFF73CFE0446374BAC
:101930001B6813F0007F47D0FFF734FE001B02281E
:10194000F5D9032059E0314AD36923F08053D3619C
:10195000DCE72F4B00221A66FFF724FE05462B4BCF
:101960001B6813F0007F06D0FFF71CFE401B022807
:10197000F5D9032041E0236AB3F5803F1AD023490B
:101980004B6823F47413226A606A024313434B606A
:101990001F4B01221A66FFF705FE04461B4B1B680E
:1019A00013F0007F0ED1FFF7FDFD001B0228F5D9D3
:1019B000032022E0154A536823F40033A1680B4347
:1019C0005360DCE7002018E0002016E0012B16D061
:1019D0000E4B5B6803F48031226A914211D103F40B
:1019E0007013626A93420ED1002006E00120704716
:1019F000012002E0012000E0002002B070BD0120C3
:101A0000FBE70120F9E70120F7E700BF00100240E3
:101A10000000424286B0174B0FCB0DF1180C0CE9B9
:101A20000F0040F20123ADF80430134B5B6803F064
:101A30000C02082A02D0114806B07047C3F3834253
:101A400018326A4412F8100C13F4803F0DD00A4B80
:101A50005B68C3F3404318336B4413F8143C074AE4
:101A600002FB00F0B0FBF3F0E6E7054B03FB00F0F0
:101A7000E2E700BFA05800080010024000127A0000
:101A800000093D00002800F0A08070B50D46044616
:101A9000524B1B6803F007038B420BD24F4A13686B
:101AA00023F007030B431360136803F007038B4213
:101AB00040F08D80236813F0020F17D013F0040F4D
:101AC00004D0474A536843F4E0635360236813F03B
:101AD000080F04D0424A536843F460535360404AAD
:101AE000536823F0F003A1680B435360236813F09D
:101AF000010F31D06368012B20D0022B25D0384A4A
:101B0000126812F0020F64D035494A6822F00302CD
:101B100013434B60FFF746FD0646314B5B6803F00D
:101B20000C036268B3EB820F16D0FFF73BFD801BFE
:101B300041F288339842F0D9032045E0284A1268E0
:101B400012F4003FE0D101203EE0254A126812F075
:101B5000007FD9D1012037E0204B1B6803F0070339
:101B6000AB420AD91D4A136823F007032B431360C5
:101B7000136803F00703AB422DD1236813F0040F61
:101B800006D0174A536823F4E063E1680B435360BF
:101B9000236813F0080F07D0114A536823F46053E9
:101BA000216943EAC1035360FFF734FF0C4B5B68C4
:101BB000C3F303130B4AD35CD8400B4B18600B4B99
:101BC0001868FFF7ABFC002070BD012070470120B2
:101BD000FAE70120F8E70120F6E700BF0020024005
:101BE00000100240B4580008080000200400002043
:101BF000014B1868704700BF0800002008B5FFF7C8
:101C0000F7FF044B5B68C3F30223034AD35CD8405D
:101C100008BD00BF00100240C458000808B5FFF717
:101C2000E7FF044B5B68C3F3C223034AD35CD8408D
:101C300008BD00BF00100240C458000870B582B053
:101C40000446036813F0010F36D03F4BDB6913F0F5
:101C5000805F49D13C4BDA6942F08052DA61DB693E
:101C600003F080530193019B0125384B1B6813F44B
:101C7000807F3BD0344B1B6A13F4407313D06268EF
:101C800002F440729A420ED02F4A136A23F4407035
:101C90002F490126C1F840640026C1F84064106253
:101CA00013F0010F36D1284A136A23F44073616898
:101CB0000B431362002D3ED1236813F0020F06D0B0
:101CC000214A536823F44043A1680B4353602368BF
:101CD00013F0100F34D01C4A536823F48003E168DA
:101CE0000B43536000202CE00025BEE7174A136821
:101CF00043F480731360FFF755FC0646134B1B68D3
:101D000013F4807FB6D1FFF74DFC801B6428F5D912
:101D1000032016E0FFF746FC06460B4B1B6A13F048
:101D2000020FC0D1FFF73EFC801B41F2883398427E
:101D3000F3D9032005E0D36923F08053D361BBE7D7
:101D4000002002B070BD00BF0010024000700040D3
:101D50000000424200B587B08446394B0FCB0DF1ED
:101D6000180E0EE90F0040F20123ADF80430BCF16B
:101D7000020F56D0BCF1100F06D0BCF1010F2ED0CF
:101D8000002007B05DF804FB2E4B5A68186810F06D
:101D90008070F6D0C2F3834318336B4413F8100CF1
:101DA00012F4803F17D0274B5B68C3F340431833CE
:101DB0006B4413F8142C244BB3FBF2F303FB00F039
:101DC000204B5B6813F4800FDBD140001F4BA3FB5B
:101DD00000304008D5E71E4B03FB00F0F0E7194B3D
:101DE0001B6A40F202321A40B2F5817F24D003F41C
:101DF0004073B3F5007F04D0B3F5407F09D00020D5
:101E0000BFE7104A526A12F0020FF5D049F640407F
:101E1000B7E70C4B186810F40030B2D04FF22440F2
:101E2000AFE7FFF7FBFE074B5B68C3F3813301337A
:101E30005B00B0FBF3F0A4E74FF40040A1E700BF64
:101E4000A05800080010024000127A00ABAAAAAA0B
:101E500000093D0070B582B00024A446A6E0804D84
:101E6000AA4210D007D97F4DAA420CD005F5803583
:101E7000AA4208D013E0A5F58015AA4203D005F5C3
:101E80007025AA4207D18A68002A58D0012A51D069
:101E90004361082403E0A5F58015AA42F3D0BEF102
:101EA000FF0F4ED80646BEF1FF0F4CD84FEA8C020A
:101EB00033680F25954023EA050304FA02F2134321
:101EC00033604B6813F0805F6ED0674B9A6942F0C5
:101ED00001029A619B6903F001030193019B4FEAA0
:101EE0009C02951C614B53F825600CF003039D0088
:101EF0000F23AB4026EA03065D4B984229D003F539
:101F00008063984200F08E8003F58063984200F071
:101F10008B8003F58063984219D004231AE0CC68C3
:101F2000BDE7CC680434BAE7CC680834B7E7CC68BE
:101F30000C34B4E703610824B1E70024AFE70424BC
:101F4000ADE7061DAFE7ACF108029200B0E703234E
:101F500000E00023AB4033430232444D45F82230C9
:101F60004B6813F4803F61D0424A136843EA0E0382
:101F700013604B6813F4003F5ED03E4A536843EA57
:101F80000E0353604B6813F4801F5BD0394A93688B
:101F900043EA0E0393604B6813F4001F58D0354A90
:101FA000D36843EA0E03D3600CF1010C0A6832FADD
:101FB0000CF353D0012303FA0CF302EA030E33EAC5
:101FC0000202F1D14A68122A3FF649AF122A3FF6BF
:101FD00066AF01A555F822F0871E00081F1F0008F4
:101FE000291F00083B1F00089F1E00089F1E0008B5
:101FF0009F1E00089F1E00089F1E00089F1E0008CD
:102000009F1E00089F1E00089F1E00089F1E0008BC
:102010009F1E00089F1E00089F1E0008231F000827
:102020002F1F0008012395E7022393E7114A136845
:1020300023EA0E0313609CE70E4A536823EA0E035B
:1020400053609FE70B4A936823EA0E039360A2E76D
:10205000084AD36823EA0E03D360A5E702B070BD37
:10206000000022100000311000100240000001406A
:1020700000080140000401400AB1016170470904F1
:1020800001617047074AD36823F4E0631B041B0C0B
:10209000000200F4E060034343F0BF6343F4003305
:1020A000D360704700ED00E000B5194BDB68C3F367
:1020B0000223C3F1070CBCF1040F28BF4FF0040C3E
:1020C00003F1040EBEF1060F18D9033B4FF0FF3E9B
:1020D0000EFA0CFC21EA0C0199400EFA03F322EAF5
:1020E0000303194300280BDB0901C9B200F160406A
:1020F00000F5614080F800135DF804FB0023E5E77C
:1021000000F00F000901C9B2024B1954F4E700BFF7
:1021100000ED00E014ED00E00138B0F1807F0BD25B
:102120004FF0E0235861054AF02182F82310002087
:10213000986107221A6170470120704700ED00E0A6
:102140007047000008B50A480A4B03604FF4E133BA
:10215000436000238360C36003610C22426183619A
:10216000C36100F0D9F800B908BDFEF743FDFBE7F5
:102170001C0200200038014010B586B000230293F5
:1021800003930493059302681A4B9A4201D006B058
:1021900010BD03F558439A6942F480429A619A69E6
:1021A00002F480420092009A9A6942F008029A6111
:1021B0009B6903F008030193019B402302930223D0
:1021C0000393032305930C4C02A92046FFF742FE1C
:1021D0008023029300230393049302A92046FFF770
:1021E00039FE064A536843F0E06343F0040353604A
:1021F000CDE700BF00380140000C01400000014065
:1022000010B514464FF6FF7392B2024800F0B3F8CF
:10221000204610BD1C02002010B504460268136958
:1022200023F44053C1680B4313618368026913436D
:1022300042691A430168CB6823F4B05323F00C03BE
:102240001343CB600268536923F4407381690B43E5
:1022500053610268134B9A4220D0FFF7CFFC02462D
:1022600002EB820202EB820263689B00B2FBF3F294
:102270000D48A0FB02314909642303FB11231B0114
:102280003233A0FB03235B0903F0F00202EB0112DF
:1022900003F00F03216813448B6010BDFFF7BEFCF1
:1022A0000246DDE7003801401F85EB512DE9F84378
:1022B00005460F4616469946DDF820802C682468AE
:1022C00037EA04030CBF4FF0010C4FF0000CB4458B
:1022D0001FD1B8F1FF3FF1D0B8F1000F05D0FFF7E3
:1022E00061F9A0EB09004045E8D92A68D36823F4D6
:1022F000D073D3602A68536923F00103536120230C
:1023000085F83D3085F83E30002385F83C300320C9
:1023100000E00020BDE8F88358B310B5044690F8FB
:102320003D300BB3242384F83D302268D36823F476
:102330000053D3602046FFF76FFF2268136923F430
:10234000904313612268536923F02A035361226882
:10235000D36843F40053D36000202064202384F822
:102360003D3084F83E3010BD80F83C30FFF704FF6C
:10237000D8E7012070472DE9F04182B01E4690F861
:102380003D30DBB2202B54D104460D469046002947
:1023900053D0002A53D090F83C30012B51D0012368
:1023A00080F83C3000230364212380F83D30FFF7A0
:1023B000F9F80746A4F82480A4F82680A368B3F5AA
:1023C000805F05D04FF00008002384F83C3012E015
:1023D000236913B14FF00008F6E7A8460025F3E79C
:1023E00038F8023B2268C3F308035360E28C92B2D0
:1023F000013A92B2E284E38C9BB273B100963B4601
:10240000002280212046FFF751FFE0B9002DE7D0E0
:1024100015F8012B23685A60E8E700963B46002236
:1024200040212046FFF742FF78B9202384F83D3051
:1024300000E0022002B0BDE8F0810120FAE70120AF
:10244000F8E70220F6E70320F4E70320F2E70000B4
:102450000268094B9A4200D0704782B003F564438A
:102460009A6942F400629A619B6903F400630193E4
:10247000019B02B0704700BF002C014000B587B03F
:102480000023029303930493059302680D4B9A4231
:1024900002D007B05DF804FB03F564439A6942F08B
:1024A00004029A619B6903F004030193019B4FF4BA
:1024B0004073029302230393059302A90248FFF796
:1024C000C9FCE6E7002C01400008014010B596B0B9
:1024D0000024129413941494159410941194099454
:1024E0000A940B940C940D940E940F942022214680
:1024F00001A800F02FFC3348334B036040F29F5398
:102500004360846040F2E733C360046144618461E6
:10251000FEF7BCFD00283FD14FF48053129312A95F
:102520002848FEF7B1FE002839D12648FEF7DAFD2B
:10253000002837D100231093119310A92148FEF7EA
:102540008DFF002831D16023099363230A93002271
:102550000B920C920D920E920F9209A91948FEF758
:102560001FFE28BB042209A91648FEF719FE10BB5E
:102570000023019302930393049305934FF40052B5
:102580000692089301A90F48FEF79EFFB0B90D48C7
:10259000FFF774FF16B010BDFEF72CFBBCE7FEF78B
:1025A00029FBC2E7FEF726FBC4E7FEF723FBCAE7D9
:1025B000FEF720FBD6E7FEF71DFBD9E7FEF71AFB77
:1025C000E5E700BF60020020002C014000B585B0A7
:1025D00000230193029303931048114A0260836021
:1025E000037303754FF46022C261436001230361EA
:1025F00000F0E2FA60B900230193012202920393F2
:1026000001A9064800F052F928B905B05DF804FBAD
:10261000FEF7F0FAEFE7FEF7EDFAF6E7A802002082
:102620000024014000B585B0002301930293039379
:102630001048114A02608360037303754FF46022EF
:10264000C26143600123036100F0B6FA60B901235F
:10265000019302930023039301A9064800F026F991
:1026600028B905B05DF804FBFEF7C4FAEFE7FEF702
:10267000C1FAF6E7D80200200028014000B589B071
:10268000002304930593069307930368204A93421B
:1026900005D0204A93421ED009B05DF804FB1E4BC2
:1026A0009A6942F400729A619A6902F40072009287
:1026B000009A9A6942F004029A619B6903F004034C
:1026C0000193019B012304930323059304A9134859
:1026D000FFF7C0FBE0E7104B9A6942F480629A6111
:1026E0009A6902F480620292029A9A6942F00402A4
:1026F0009A619B6903F004030393039B02230493F1
:102700000323059304A90548FFF7A4FBC4E700BF12
:102710000024014000280140001002400008014050
:10272000F0B583B005460C4600230193FEF73AFF4F
:102730002B689A6812F4807F23D107465A6812F4F6
:10274000807F03D1DB6A13F4700F29D0504B1E68D1
:102750000220FFF7FFFAB6FBF0F62B6819694D4A25
:10276000114236D1D96802F15C42114231D1196966
:10277000494A114240D1DA68484B1A423ED02920DA
:1027800041E0AB6A43F02003AB62002385F82430BC
:10279000012003B0F0BD2B681B6813F0020F0FD0AF
:1027A0002B681B6813F0020F4FD1B4F1FF3FF7D035
:1027B000002CF0D0FEF7F6FEC31BA342F0D9EAE7E7
:1027C000AB6A43F00403AB62002385F82430032096
:1027D000DFE71969304A114204D1D96802F16E422B
:1027E00011420DD019692E4A0A405AB9DA682C4BA9
:1027F00013405BB1FC2006E0292004E0142002E035
:10280000542000E0FC2000FB06F607E05420FAE725
:10281000019BB34210D3019B01330193019BB3424F
:1028200013D2B4F1FF3FF6D0002CF1D0FEF7BAFE80
:10283000C01BA042EFD9EBE7AB6A43F00403AB62E5
:10284000002385F824300320A3E72B686FF01202E1
:102850001A60AB6A43F40073AB622B689B6803F4A5
:102860006023B3F5602F01D0002092E7287B60B988
:10287000AB6A23F48073AB62AB6A13F4805F88D1D8
:10288000AB6A43F00103AB6283E7002081E700BF3E
:1028900008000020244992249224491292244900DD
:1028A000499224000368D86C7047000030B482B0AD
:1028B0000022019290F82420012A00F09180034622
:1028C000012280F824204A68062A2DD80468606B0B
:1028D00002EB8202053A4FF01F0C0CFA02FC20EAD0
:1028E0000C000D6805FA02F2024362630A68092AC5
:1028F0003AD91C68E06802EB42021E3A4FF0070C1E
:102900000CFA02FC20EA0C008D6805FA02F2024380
:10291000E2600A68103A012A36D90020002283F8C2
:10292000242002B030BC70470C2A0ED80568286BF2
:1029300002EB8202233A1F24944020EA04000C6830
:1029400004FA02F202432A63D0E70568E86A02EB60
:102950008202413A1F24944020EA04000C6804FAE1
:1029600002F20243EA62C1E71C68206902EB4202FC
:102970004FF0070C0CFA02FC20EA0C008D6805FAF7
:1029800002F202432261C4E71A681648824205D067
:102990009A6A42F020029A620120BFE7906810F420
:1029A000000F1BD1906840F4000090600A68102A64
:1029B00001D00020B2E70C4A12680C49A1FB0212B8
:1029C000920C02EB82025200019202E0019A013A5B
:1029D0000192019A002AF9D100209FE700209DE78B
:1029E00002209EE7002401400800002083DE1B43F4
:1029F00030B583B00023019303689A6812F0010F89
:102A000033D104469A6842F001029A60184B1B6861
:102A1000184AA2FB03239B0C019302E0019B013B9C
:102A20000193019B002BF9D1FEF7BCFD05462368FD
:102A30009B6813F0010F16D1FEF7B4FD431B022B68
:102A4000F5D923689B6813F0010FF0D1A36A43F016
:102A50001003A362E36A43F00103E362002384F8F6
:102A60002430012002E0002000E0002003B030BD4F
:102A70000800002083DE1B4390F82430012B68D02F
:102A800010B50446012380F82430FFF7B1FF002879
:102A90005BD1A36A23F4407323F0010343F48073F2
:102AA000A36223682C4A934227D0A26A22F48012A0
:102AB000A2625A6812F4806F05D0A26A22F44052D2
:102AC00042F48052A262A26A12F4805F2BD0E26AC2
:102AD00022F00602E262002284F824206FF0020253
:102AE0001A6023689A6802F46022B2F5602F1DD044
:102AF0009A6842F480129A602AE0A2F580625268D5
:102B000012F4702FD1D0A26A42F48012A262134A4A
:102B1000526812F4806FD6D0A26A22F4405242F476
:102B20008052A262CFE70022E262D4E70A4A9342CF
:102B300004D09A6842F4A0029A6009E0A2F580628B
:102B4000526812F4702FD3D1F3E7002384F82430B5
:102B500010BD0220704700BF002801400024014042
:102B600038B503689A6812F0010F01D1002038BD12
:102B700004469A6822F001029A60FEF713FD0546AA
:102B800023689B6813F0010F13D0FEF70BFD431B66
:102B9000022BF5D923689B6813F0010FF0D0A36ACC
:102BA00043F01003A362E36A43F00103E3620120F0
:102BB000DDE70020DBE7000000287BD070B504468D
:102BC000836A002B4DD02046FFF7CAFFA36A13F09B
:102BD000100369D1002867D1A26A22F4885222F03A
:102BE000020242F00202A2626268E1690A43217BAA
:102BF00042EA4102A568B5F5807F02D0012D36D0AA
:102C00001D46267D012E35D02668716821F4694164
:102C1000294371602568AE68274931401143A96096
:102C2000A168B1F5807F01D0012902D12369013B60
:102C30001B052568E96A21F470010B43EB622368E8
:102C400099681E4B0B409A4225D0A36A23F01203C9
:102C500043F01003A362E36A43F00103E36201203F
:102C600027E0C36280F82430FFF708FDABE74FF49C
:102C70008075C6E731B9A169013945EA413141F4AE
:102C80000065C1E7A16A41F02001A162E16A41F05B
:102C90000101E162B8E70023E362A36A23F00303C2
:102CA00043F00103A36204E0A36A43F01003A362AC
:102CB000012070BD01207047FDF7E1FFFE0E1FFFF0
:102CC0000C480D490D4A002302E0D458C450043387
:102CD000C4188C42F9D30A4A0A4C002301E013605D
:102CE0000432A242FBD3FFF72BFA00F00FF8FDF7F6
:102CF000C7FF704700000020DC010020F45C0008E2
:102D0000E00100201C030020FEE7000070B5002653
:102D10000C4D0D4C641BA410A64209D102F090FD8D
:102D200000260A4D0A4C641BA410A64205D170BDB2
:102D300055F8043B98470136EEE755F8043B9847B1
:102D40000136F2E7EC5C0008EC5C0008EC5C000883
:102D5000F05C000803460244934200D1704703F838
:102D6000011BF9E7002B2DE9F0471F46BBBF03F11C
:102D700000431F4600232D2388B01446129A109D4D
:102D80001370149BDDF84CA023F02008B8F1460F17
:102D900005D0B8F1450F00D10135022300E003232F
:102DA00007AA049206AACDE902A2CDE9003522467F
:102DB0003B4600F0DDFCB8F1470F064602D1119BFF
:102DC000DB0722D5B8F1460F06EB050910D13378A1
:102DD000302B0AD10022002320463946FDF7E4FDBE
:102DE00018B9C5F10105CAF80050DAF80030994465
:102DF0000022002320463946FDF7D6FD08B1CDF864
:102E00001C903022079B4B4507D33046079B159AF1
:102E10009B1B136008B0BDE8F087591C07911A701E
:102E2000F0E70346F7B5002903F8022BB6BF2D22C1
:102E30002B224942092942702BDD0DF10704A446DB
:102E40000A2791FBF7F60A46A64607FB1615632AE2
:102E500005F13005314604F1FF340EF8015CF0DC79
:102E60003031AEF1020504F8011C2946441C6145CD
:102E70000AD30DF10902A2EB0E02654588BF0022BC
:102E80001344181A03B0F0BD11F8012B04F8012FF8
:102E9000EDE7302330318370C170031DF1E700008E
:102EA0002DE9F04F91B00C46DDF8688016461F46BC
:102EB000054601F041FB036818460993FDF748F900
:102EC00000230E93D8F800300A90073323F007034D
:102ED00003F1080294F81890D4F800B0C8F8002064
:102EE000D3E90023C4E91223D4E9128A2AF000436B
:102EF0000B934FF0FF3240469C4B0B99FDF786FD3C
:102F000070BB4FF0FF324046984B0B99FDF760FDC8
:102F100030BB0022002340465146FDF74FFD10B163
:102F20002D2384F84330924B9248B9F1470F94BF58
:102F30009846804603234FF0000A23612BF00403D8
:102F4000236033462146284600970FAA00F0D4F9A3
:102F5000013040F090804FF0FF3011B0BDE8F08FAD
:102F60004246534640465146FDF750FD48B1BAF13E
:102F7000000FB8BF2D238048B8BF84F843307F4B83
:102F8000D3E7636809F0DF015A1C42D1062363606E
:102F9000002206920EAACDE904920DAA4BF480639A
:102FA00003920DF13302CDE901322360636842469A
:102FB0000093284653460B91FFF7D4FE0B998046A9
:102FC00047290D9908D1C81C02DB6368994240DD8E
:102FD000A9F102095FFA89F9B9F1650F1FD84A46CC
:102FE000013904F150000D91FFF71BFF0E9A824644
:102FF0001318012A236102DC2268D20701D50133AC
:1030000023619DF83330002B9BD02D2384F843306F
:1030100097E74729BCD1002BBAD10123B7E7B9F113
:10302000660F18D1002963680BDD216113B922688E
:10303000D00702D501330B4423614FF0000AA1658C
:10304000DFE713B92268D20701D50233F4E7012381
:10305000F2E74FF067090E9B994205DB2368216177
:10306000D807EAD54B1CE7E70029CCBF0122C1F104
:1030700002021344E0E723685A0507D42369424655
:1030800031462846B84701302BD164E7B9F1650FC6
:1030900040F2DD80D4E9120100220023FDF784FC18
:1030A000002833D0012331462846354AB84701303D
:1030B0003FF451AFDDE90D239A4202DB2368D807C4
:1030C0000FD5DDE9092331462846B84701303FF4E2
:1030D00042AF4FF0000804F11A090E9B013B434533
:1030E00009DC23689B0700F10281E0680F9B98428E
:1030F000B8BF184631E701234A4631462846B8474B
:1031000001303FF428AF08F10108E6E70D9B002BE2
:1031100038DC012331462846194AB84701303FF4CC
:103120001AAFDDE90D23134302D12368D907D8D59F
:10313000DDE9092331462846B84701303FF40BAF9B
:103140004FF0000904F11A0A0D9B5B424B4501DC6C
:103150000E9B94E70123524631462846B84701307A
:103160003FF4F9AE09F10109EEE700BFFFFFEF7F81
:10317000D0580008D4580008DC580008D858000877
:10318000E05800080E9AA36D9A42A8BF1A46002A7A
:10319000914637DC4FF0000B29EAE97904F11A0275
:1031A000D4F858A0AAEB09035B4533DCDDE90D2315
:1031B0009A423BDB2368DA0738D40E9B0D99A3EBC8
:1031C0000A02A3EB01099145A8BF9146B9F1000F8E
:1031D00034DC4FF0000829EAE97904F11A0ADDE944
:1031E0000D239B1AA3EB090343457FF77AAF012315
:1031F000524631462846B84701303FF4ACAE08F19C
:103200000108ECE71346314642462846B8470130EC
:10321000C0D1A0E60123314628460B92B8470130C1
:103220003FF499AE0B9A0BF1010BB9E73146DDE99A
:1032300009232846B8470130BFD18CE64B463146BA
:10324000284608EB0A02B8470130C2D183E60E9A3D
:10325000012A01DCDB0737D50123424631462846E7
:10326000B84701303FF477AEDDE9092331462846FF
:10327000B84701303FF46FAED4E9120100220023B9
:10328000FDF792FBD8B90E9B08F10102013B3146D4
:103290002846B84701300ED15DE601234A46314643
:1032A0002846B84701303FF456AE08F101080E9B9E
:1032B000013B4345F1DC534604F15002E0E64FF098
:1032C000000804F11A09F2E701234246DFE701236F
:1032D0004A4631462846B84701303FF43CAE08F133
:1032E0000108E3680F995B1A4345F0DCFDE64FF0F7
:1032F000000804F11909F4E72DE9F047164699464C
:103300008A680B6907469342B8BF1346336091F849
:1033100043200C46DDF820800AB101333360236876
:10332000990642BF336802333360256815F00605FD
:1033300006D104F1190AE36832689B1AAB4228DC13
:1033400094F84320131E226818BF012392062DD43F
:103350004946384604F14302C047013020D0236873
:10336000E56803F00603042B18BF002532684FF010
:103370000006A36808BFAD1A226908BF25EAE575F3
:103380009342C4BF9B1AED181A34B5421AD10020DB
:1033900008E00123524649463846C047013003D170
:1033A0004FF0FF30BDE8F0870135C4E73020E11869
:1033B00081F843005A1C94F845102244023382F8E5
:1033C0004310C5E70123224649463846C04701302D
:1033D000E6D00136D9E700002DE9FF470F7E914680
:1033E000782F80460C469A460C9D01F1430207D87F
:1033F000622F0AD8002F00F0D980582F00F0A48047
:1034000004F1420584F842703AE0A7F16303152BFA
:10341000F6D801A151F823F0713400088534000872
:1034200001340008013400080134000801340008A8
:103430008534000801340008013400080134000814
:103440000134000893350008B534000875350008CC
:103450000134000801340008B535000801340008C3
:10346000B534000801340008013400087D35000837
:103470002B681A1D1B682A6004F1420584F842304B
:103480000123A4E020682968060601F104030AD597
:103490000E682B60002E03DA2D23764284F8433029
:1034A0000A235E4819E00E6810F0400F2B6018BF29
:1034B00036B2EFE72B682068191D2960010601D597
:1034C0001E6802E04606FBD51E886F2F0CBF08233E
:1034D0000A235248002184F843106568002DA8BFD4
:1034E0002168A560A4BF21F0040121600EB9002D60
:1034F0004DD01546B6FBF3F103FB1167C75D05F828
:10350000017D3746BB420E46F4D9082B0BD1236808
:10351000DE0708D5236961689942DEBF302305F8CC
:10352000013C05F1FF35521B22614B4621464046C6
:10353000CDF800A003AAFFF7DFFE01304CD14FF019
:10354000FF3004B0BDE8F087344881F84570296841
:10355000236851F8046B29601D0614D5DF0744BFAA
:1035600043F0200323601EB9236823F02003236067
:103570001023AFE7236843F0200323607823284813
:1035800084F84530E3E7590648BFB6B2E6E715468A
:10359000BBE72B682668181D6169286035061B6823
:1035A00001D5196002E07006FBD51980002315468D
:1035B0002361BAE72B6800211A1D2A601D68626822
:1035C000284600F0C9FF08B1401B606063682361B2
:1035D000002384F84330A8E72A4649464046236939
:1035E000D0470130ABD023689B0713D4E068039B1E
:1035F0009842B8BF1846A4E70123324649464046E0
:10360000D04701309BD00135E36803995B1AAB4288
:10361000F2DCEBE7002504F11906F5E7E2580008B3
:10362000F35800080FB40A4B13B51C6824B1A36902
:1036300013B9204600F0E2FE05AB2046049AA168CB
:10364000019301F03FFC02B0BDE8104004B07047A8
:103650000C0000202DE9F74F03690C690746A342CF
:10366000C0F28280013C00F1140501F1140805EB61
:103670008403019358F8243055F8242001339A42EA
:10368000B2FBF3F64FEA840B08EB840931D34FF019
:10369000000E4046AC46F24650F8042B93B206FBAF
:1036A00003E3120C4FEA134E9BB206FB02E2AAEBB5
:1036B0000303DCF800A04FEA124E1FFA8AFA5344C3
:1036C000DCF800A092B2C2EB1A4202EB23429BB29A
:1036D00043EA024381454FEA224A4CF8043BDBD2DD
:1036E00055F80B302BB9019B043B9D421A462FD352
:1036F0003C61384601F0CAF9002825DB28464FF026
:10370000000C013658F8041BD0F800E08BB2ACEB8B
:1037100003031FFA8EF213440A0CC2EB1E4202EBA3
:1037200023429BB243EA0243C1454FEA224C40F890
:10373000043BE7D255F8242005EB840322B9043B6F
:103740009D421A460AD33C61304603B0BDE8F08F73
:103750001268043B002ACBD1013CC6E71268043B47
:10376000002AF0D1013CEBE70020EEE7000000006A
:103770002DE9F04F16461F46446A99B00546CDE93B
:103780000467DDF8948074B9102000F0DDFE024675
:10379000686220B9EA21A84BA84801F0E9FDC0E918
:1037A00001440460C4606B6A196851B15A6801230E
:1037B00093404A608B60284600F02AFF00226B6A23
:1037C0001A603B1EAFBF0023012223F00043059384
:1037D000A8BFC8F80030DDF81490994BB8BFC8F8FE
:1037E000002033EA090319D142F20F73249A1360BF
:1037F000C9F31303334300F07F85269B53B9914BE4
:1038000022E0914B03930833269A1360039819B072
:10381000BDE8F08F8B4B03930333F5E7DDE9043408
:10382000CDE90C34DDE90C0100220023FDF7BCF8E2
:10383000804658B10123249A1360269B002B00F088
:10384000588582481860431E0393DFE716AB019347
:1038500017AB00932846DDE90C2301F0BFF9C9F34B
:103860000A548346002C7FD0DDE90C010D9BA4F2A5
:10387000FF34C3F3130343F07F5141F44011CDF8FB
:103880004C800022724BFCF76FFC65A3D3E9002348
:10389000FCF722FE64A3D3E90023FCF767FC06468D
:1038A00020460F46FCF7AEFD61A3D3E90023FCF7E9
:1038B00013FE02460B4630463946FCF757FC0646D7
:1038C0000F46FDF7B9F800228246002330463946FC
:1038D000FDF774F848B15046FCF794FD32463B467C
:1038E000FDF762F808B90AF1FF3ABAF1160F58D895
:1038F000DDE90C01574B03EBCA03D3E90023FDF7C5
:103900005DF800284FD000230AF1FF3A0F93169B71
:103910001C1B631E099349BFC4F1010300230693D6
:10392000002354BF06930993BAF1000F3DDB099BB6
:10393000CDF838A05344099300230A93229B092B06
:1039400000F28C80052BC4BF043B2293229BC8BF8E
:103950000024A3F10203D8BF0124032B00F28A80C4
:10396000DFE803F02D4F4D5BDDE916431C4404F204
:103970003243202BC3BFC3F1400304F2124009FAC3
:1039800003F3C3F12003C6BF26FA00F0184306FA7A
:1039900003F0FCF727FD0123A1F1F871013C13931B
:1039A0006FE70123B2E70F90B1E7069BA3EB0A0391
:1039B0000693CAF100030A9300230E93BEE7002387
:1039C0000B93239B002B58DC4FF001094B46CDF89D
:1039D0002090CDF88C900022686A4260042202F1A7
:1039E00014069E4241684ED9284600F0D1FD03904E
:1039F00000284CD102464FF4D571174BCCE6012379
:103A0000DEE700230B93239B0AEB030909F1010373
:103A1000012B0893B8BF0123DDE70123F2E700BFC4
:103A200061436F63A787D23FB3C8608B288AC63FC4
:103A3000FB799F501344D33F1159000828590008BF
:103A40000000F07F0D59000804590008E1580008F3
:103A50000000F83FC05A0008A659000801240023BE
:103A60000B9422934FF0FF3900221223CDF82090BF
:103A70002392B0E701230B93F4E7DDF88C904B46DB
:103A8000CDF82090A7E7013141605200A7E76B6AAB
:103A9000039A1A60089B0E2B00F2A880002C00F0FD
:103AA000A580BAF1000F34DD9A4A0AF00F0302EB49
:103AB000C3031AF4807FD3E90034CDE910344FEA10
:103AC0002A1416D0DDE90C01934B0327D3E9082310
:103AD000FCF72CFECDE9040104F00F048E4E54B91E
:103AE000DDE91023DDE90401FCF720FECDE9040146
:103AF00029E00227F2E7E10708D5DDE91001D6E960
:103B00000023FCF7E9FCCDE9100101376410083609
:103B1000E5E700F0A580DDE90C01CAF100047D4B6A
:103B200004F00F0203EBC203D3E90023FCF7D4FC3B
:103B300002270023CDE90401774E2411002C40F028
:103B40008480002BD2D10F9B002B00F08B80DDE90D
:103B50000434CDE91034DDE9100100226F4BFCF78D
:103B60002DFF00287ED0089B002B7BD0B9F1000FE1
:103B700038DDDDE910010022694BFCF7ADFC4C4655
:103B8000CDE904010AF1FF3801373846FCF73AFC69
:103B9000DDE90423FCF7A0FC0022624BFCF7E6FA07
:103BA000A1F15076CDE910011196002C5DD1DDE92F
:103BB000040100225C4BFCF7D7FA02460B46CDE924
:103BC00004233346109AFCF717FF002840F09C822C
:103BD000DDE90401109A06F10043FCF7EFFE00282E
:103BE00040F09082DDE90C34CDE90434179B002BC2
:103BF000C0F25281BAF10E0F00F34E81454B03EB38
:103C0000CA03D3E90034CDE90634239B002B80F2AC
:103C1000DB80089B002B00F3D78040F07282DDE947
:103C200006010022404BFCF757FCDDE90423FCF7BA
:103C3000D9FE089C2646002840F048823123039F85
:103C40000AF1010A07F8013B44E2E20705D5D6E98B
:103C50000023FCF741FC01230137641008366DE7AF
:103C6000022770E7D046089C8FE70399294B21442F
:103C700012910B9903EBC403DDE9106753E90223AA
:103C8000002955D000202949FCF750FD3B4632461B
:103C9000FCF76AFACDE91001039FDDE90401FCF7A6
:103CA000CBFE0446FCF7AEFB02460B46DDE9040101
:103CB000FCF75AFA02460B463034CDE90423DDE91D
:103CC000102307F8014BFCF779FE002874D1DDE9D9
:103CD000042300201149FCF747FADDE91023FCF723
:103CE0006DFE002840F0B780129B9F423FF47AAFF0
:103CF000DDE9100100220A4BFCF7EEFB0022CDE9C2
:103D00001001DDE90401064BFCF7E6FBCDE90401F7
:103D1000C3E700BFC05A0008985A00080000F03FEF
:103D20000000244000001C40000014400000E03F60
:103D300030463946FCF7D0FB129BCDE91001039CBD
:103D40001493DDE90401FCF777FE1590FCF75AFBAC
:103D500002460B46DDE90401FCF706FA159B064610
:103D6000303304F8013B129B0F469C424FF0000297
:103D700024D1DDE91001B04BFCF7F8F902460B46FF
:103D800030463946FCF738FE002863D1DDE91023C0
:103D90000020A949FCF7E8F902460B4630463946AF
:103DA000FCF70CFE00283FF41DAF149F7B1E1493FC
:103DB00017F8013C302BF8D0C2463BE09F4BFCF794
:103DC0008BFBCDE90401BCE7039FDDE90489DDE954
:103DD000062340464946FCF7A9FCFCF72DFE0446A5
:103DE000FCF710FBDDE90623FCF776FB02460B46E9
:103DF00040464946FCF7B8F904F1300607F8016B74
:103E0000039EDDF820C0BE1BB44502460B4636D1EA
:103E1000FCF7ACF9DDE9062380468946FCF7ECFDAA
:103E200058BBDDE9062340464946FCF7BDFD08B115
:103E3000E10722D42846594600F0EAFB00233B70F4
:103E4000249B0AF101001860269B002B3FF4DEAC96
:103E50001F60DBE427463B461F4613F8012D392A35
:103E600007D1039A9A42F7D13022039908F1010849
:103E70000A701A7801321A709EE7D046EBE70022EA
:103E80006E4BFCF729FB0022002380468946FCF795
:103E90008BFD00289BD0CDE70B9A002A00F0D08044
:103EA000229A012A00F3AE80139A002A00F0A6801D
:103EB00003F233430A9C069F069A01211A44069294
:103EC000099A28461A44099200F058FC0646002F29
:103ED0000CDD099B002B09DDBB42A8BF3B46069ABF
:103EE000FF1AD21A0692099AD31A09930A9BF3B1C0
:103EF0000B9B002B00F0A880002C10DD31462246E1
:103F0000284600F0F9FC5A4601460646284600F0CD
:103F10004BFC80465946284600F07AFBC3460A9B74
:103F20001A1B04D05946284600F0E6FC83460121BE
:103F3000284600F023FC0E9B0446002B40F38680AD
:103F40001A460146284600F0D7FC229B0446012B66
:103F50007FDD4FF00008236904EB8303186900F04C
:103F6000BFFBC0F12000099B184410F01F0000F0B7
:103F70009280C0F12003042B40F38A80C0F11C0022
:103F8000069B074403440693099B03440993069B3D
:103F9000002B05DD59461A46284600F007FD8346EA
:103FA000099B002B05DD21461A46284600F0FEFC41
:103FB00004460F9B002B70D02146584600F066FD4A
:103FC00000286ADA002359460A22284600F042FBFC
:103FD0000B9B83460AF1FF3A002B00F09481314697
:103FE00000230A22284600F035FBB9F1000F0646EF
:103FF00000F39380229B022B57DC8EE0169BC3F1CB
:10400000360357E7089B5C1E0A9BA342B7BF0A9B77
:104010001C1BE21A0E9BBEBF0A949B180E93089BB2
:10402000B8BF0024002BBBBF069B089A069F9F1AAF
:10403000ACBF089B00233FE70000E03F00002440A6
:104040000A9C069F0B9E42E70A9A6BE7229B012B74
:1040500019DC049BBBB9059BC3F313039BB9059BF8
:1040600023F000431B0D1B0583B14FF00108069B95
:1040700001330693099B013309930E9B002B7FF4B8
:104080006AAF01206FE74FF00008F6E79846F4E7C3
:104090003FF47DAF18461C3072E7089B002B36DCDE
:1040A000229B022B33DDDDF82090B9F1000F0DD1FA
:1040B00021464B460522284600F0CCFA014604462C
:1040C000584600F0E3FC00283FF7B8AD239B039F60
:1040D0006FEA030A4FF000082146284600F098FADC
:1040E000002E3FF4A7AEB8F1000F05D0B04503D0C5
:1040F0004146284600F08CFA3146284600F088FAFE
:1041000098E600242646E1E7C246264696E50B9B44
:10411000DDF82090002B00F0FD80002F05DD3146FA
:104120003A46284600F042FC0646B8F1000F5CD043
:104130002846716800F02CFA074628B9024640F27A
:10414000EA217F4BFFF728BB326906F10C010232EE
:1041500092000C3000F00EFA01223946284600F099
:1041600025FCB0460646039B01330893039B4B4452
:104170000A93049B03F001030993089B2146013B2A
:1041800058460493FFF766FA0346414630330690DB
:1041900058460B9300F07AFC324681462146284669
:1041A00000F090FCC26807460B9B02BB01465846D4
:1041B00000F06CFC02460B9B39462846CDE90B32D9
:1041C00000F026FA229B0C9A089F43EA0201099B01
:1041D0000B430B9B0DD1392B29D0B9F1000F01DD19
:1041E000069B3133049A137076E73046B9E7012213
:1041F000E2E7B9F1000F06DB229941EA09090999C2
:1042000059EA010120D1002AECDD59460122284655
:10421000089300F0CBFB2146834600F037FC0028D2
:10422000089B02DCDED1DA07DCD5392BD8D1392363
:10423000049A13703B461F4617F8012C013B392A9C
:1042400050D001321A7047E7002A03DD392BEED037
:104250000133C7E7089A0A9902F8013C8A422AD03A
:10426000594600230A22284600F0F4F9B045834657
:104270004FF000034FF00A024146284607D100F0F4
:10428000E9F980460646089B0133089375E700F07C
:10429000E1F93146804600230A22284600F0DAF987
:1042A0000646F0E7B9F1000FCCBF4F4601274FF0AB
:1042B0000008039A1744594601222846089300F043
:1042C00075FB2146834600F0E1FB0028B2DC02D1F9
:1042D000089BDB07AED43B461F4613F8012D302A5E
:1042E000FAD0F9E6039A9A42A5D131230AF1010ADC
:1042F00079E7144BFFF7A8BA269B002B7FF481AA1D
:10430000114BFFF7A1BAB9F1000F03DC229B022B7E
:104310003FF7CBAE039F21465846FFF79BF9039A20
:1043200000F1300307F8013BBA1A9145BADD59464E
:1043300000230A22284600F08DF98346EBE700BFF0
:10434000A6590008E058000804590008002310B5D9
:104350000446C0E90033C0E90433836081814366C9
:10436000C2818361194608225C30FEF7F3FC054BDD
:1043700024626362044BA362044BE362044B236335
:1043800010BD00BF45510008675100089F5100084B
:10439000C3510008014900F0AFB800BFD154000874
:1043A000682270B54D1E55430E4605F1740100F0AC
:1043B000EDFC044640B10021C0E900160C30A060BD
:1043C00005F16802FEF7C6FC204670BD014800F00A
:1043D000B8B800BF09030020014800F0B3B800BF1F
:1043E00009030020014800F0ACB800BF0A03002018
:1043F000014800F0A7B800BF0A03002010B504462A
:10440000FFF7F0FFA3691BB1BDE81040FFF7F0BF55
:10441000C4E912332365134B134A1B68A262A342FB
:1044200008BF0123204608BFA36100F01FF86060A9
:10443000204600F01BF8A060204600F017F800228C
:104440000421E0606068FFF781FF01220921A06874
:10445000FFF77CFF02221221E068FFF777FF0123BC
:10446000A361D1E7CC58000895430008F8B507468A
:10447000FFF7ACFF1E4B1E68B36913B93046FFF758
:10448000BDFF4836D6E90134013B03D533680BB391
:104490003668F7E7B4F90C50D5B9164B04F158005B
:1044A000E360656600F04CF8FFF796FF08222946A6
:1044B000C4E90155C4E904552560A56104F15C0017
:1044C000FEF748FCC4E90D55C4E912552046F8BD75
:1044D0006834D9E704213846FFF762FF04463060AC
:1044E0000028D5D1FFF778FF0C233B60EEE700BF33
:1044F000CC5800080100FFFF2DE9F8430646884626
:10450000002700F14804D4E90195B9F1010905D566
:104510002468002CF7D13846BDE8F883AB89012B1D
:1045200007D9B5F90E30013303D029463046C047CC
:1045300007436835E9E70000004870476001002044
:104540007047704770470000024B0146186800F042
:104550001DBC00BF0C000020034610B5C9B20244C8
:104560009342184601D1002003E0047801338C42C5
:10457000F6D110BD0A44914200F1FF3300D17047DB
:1045800010B511F8014B914203F8014FF9D110BD5C
:1045900070B5466A04460D4676B91020FFF7D4FF81
:1045A0000246606220B96621174B184800F0E0FE11
:1045B000C0E901660660C660666AF36883B1636A33
:1045C000DB6853F82500B8B9012101FA05F6721D20
:1045D0002046920000F05EFB60B1C0E901560EE09B
:1045E00021220421204600F055FB636AF060DB685D
:1045F000002BE4D1002070BD026843F82520002381
:10460000C0E90333F7E700BF11590008185A000842
:1046100070B5466A05460C4676B91020FFF794FF40
:104620000246686220B98A21084B094800F0A0FEC2
:10463000C0E901660660C6603CB16B6A6268DB680F
:1046400053F82210216043F8224070BD1159000830
:10465000185A00082DE9F04107460C461E46002076
:104660000D6901F1140CDCF80030013099B202FB45
:1046700001611E0C0B0C02FB063389B201EB0341F6
:1046800085424FEA13464CF8041BECDC0EB3A368DA
:10469000AB4219DC616838460131FFF779FF80468B
:1046A00028B90246B5210C4B0C4800F061FE226986
:1046B00004F10C01023292000C30FFF75BFF21463F
:1046C0003846FFF7A5FF444604EB850301355E61DC
:1046D00025612046BDE8F081A6590008185A000857
:1046E000020C12040346CAB90304102013F07F4FD2
:1046F00004BF1B02083013F0704F04BF1B010430CD
:1047000013F0404F04BF9B000230002B05DB13F079
:10471000804F00F1010008BF202070470020E5E72E
:104720000368024613F007000BD0D90721D498077D
:1047300049BF5B089B08012013605CBF0220136027
:10474000704799B209B910201B0CD9B209B90830C9
:104750001B0A190704BF1B090430990704BF9B08F3
:104760000230D90703D45B0800F1010003D01360C5
:1047700070470020704720207047000010B50C469D
:104780000121FFF705FF024628B94FF4A071044B41
:10479000044800F0EDFD01234461036110BD00BF3A
:1047A000A6590008185A00082DE9F04F91460A69E9
:1047B000D9F810300C469A42BEBF0B464C4699467B
:1047C0002769D9F810A0A368616807EB0A06B3420D
:1047D00085B0B8BF0131FFF7DBFE30B9024640F2C9
:1047E0005D11434B434800F0C3FD00F114052B4617
:1047F000002205EB8608434521D304F1140303EBA3
:10480000870709F1140303EB8A0202923A1B153A57
:1048100022F00302043204F115018F4238BF042252
:104820000192029A03939A420CD8002E03DD58F8A5
:10483000043D002B59D0066105B0BDE8F08F43F868
:10484000042BD8E7B3F800A0BAF1000F23D0A94693
:104850004FF0000C04F1140E5EF8042BD9F8001090
:104860001FFA82FB89B20AFB0B116144D9F800C020
:10487000120C4FEA1C4C0AFB02C202EB114289B235
:1048800041EA024177454FEA124C49F8041BE3D84C
:10489000019A45F802C0039A0433B2F80290B9F1C4
:1048A000000F20D0AE464FF0000A296804F1140C26
:1048B000BCF800B0BEF8022089B209FB0B2292447A
:1048C00041EA0A414EF8041B5CF8042BBEF80010C4
:1048D000120C09FB0211674501EB1A414FEA114A1C
:1048E000E6D8019AA95004359BE7013E9DE700BF39
:1048F000A6590008185A00082DE9F843154612F089
:10490000030206460F4607D0254C013A002354F80F
:104910002220FFF79FFE0746AD103DD0746A7CB998
:104920001020FFF711FE0246706228B94FF4D771CC
:104930001C4B1D4800F01CFDC0E901440460C4602C
:10494000D6F82480D8F808404CB940F2712130469E
:10495000FFF714FF00230446C8F8080003604FF077
:104960000009EB070AD5394622463046FFF71CFFFF
:10497000804639463046FFF74BFE47466D100BD058
:10498000206838B9224621463046FFF70DFF2060E7
:10499000C0F800900446E4E73846BDE8F88300BF5D
:1049A000885B000811590008185A00082DE9F047E3
:1049B0000C46074691462369496803EB6218A368D1
:1049C0004FEA621A08F10106B3420BDB3846FFF7E3
:1049D000DFFD054648B9024640F2D911294B2A4865
:1049E00000F0C6FC01315B00EEE7002300F114018A
:1049F00000F110021846534537DB20692AEAEA7AAB
:104A000004F1140319F01F0901EB8A0103EB800084
:104A10002FD08A464FF0000CC9F1200E1A6802FA16
:104A200009F242EA0C024AF8042B53F8042B98428C
:104A300022FA0EFCF2D8031B153B23F003030433C8
:104A400004F11502904238BF042341F803C0BCF1C1
:104A5000000F01D008F10206013E384621462E61C2
:104A6000FFF7D6FD2846BDE8F08742F8040F013372
:104A7000C1E7043953F8042B984241F8042FF9D8C0
:104A8000EAE700BFA6590008185A000803460A6959
:104A9000006930B5801A0DD11433143103EB820450
:104AA00001EB820154F8045D51F8042D954202D0C7
:104AB00004D3012030BDA342F4D3FBE74FF0FF3015
:104AC000F8E700002DE9F84F0D4607461146284645
:104AD0001446FFF7DBFF061E11D131463846FFF7BB
:104AE00057FD024628B940F232213A4B3A4800F0CD
:104AF0003FFC0123C0E904361046BDE8F88FA4BF8F
:104B000023462C4638466168A6BF1D46002601266E
:104B1000FFF73EFD024618B94FF410712D4BE5E743
:104B200002F11408C2464FF0000C2769C6602E69D6
:104B300004F1140005F1140900EB870E09EB860659
:104B4000103454F804BF59F8043B1FFA8BF18C441D
:104B500099B21B0CACEB0101C3EB1B4303EB2143EC
:104B600089B24FEA234C4E4541EA03434AF8043BDD
:104B7000E7D8731B153B23F0030315350433AE420E
:104B800038BF0423184443441E46054675450ED3DA
:104B90000EF10301091A21F003010338864538BFDD
:104BA0000021194451F8043D8BB11761A4E755F871
:104BB000048B1FFA88F161440C1404EB184489B289
:104BC00041EA04414FEA244C46F8041BDEE7013F6A
:104BD000E8E700BFA6590008185A00082DE9F3417C
:104BE0000121DDE9087690461D46FFF7D1FC044619
:104BF00030B9024640F20A31244B254800F0B8FB98
:104C0000C5F31303C5F30A552DBB0193B8F1000397
:104C100026D068460093FFF783FD0099F0B1019A12
:104C2000C0F1200302FA03F30B43C2406361019217
:104C3000019B002B14BF02210121A3612161C5B199
:104C4000A5F233450544C0F135003D603060204693
:104C500002B0BDE8F08143F48013D6E76161E7E775
:104C600001A8FFF75DFD0121019B216163612030F7
:104C7000E5E704EB8103A0F2324038601869FFF7E2
:104C80002FFDC0EB41113160E1E700BFA6590008DC
:104C9000185A000870B5A1FB025434B9294600F037
:104CA00075F8064628B9304670BD0C220026026011
:104CB000F9E72A462146FEF74DF8F4E738B50546F0
:104CC000002940D051F8043C0C1F002BB8BFE41859
:104CD00000F0D6FC1C4A136833B9636014602846A0
:104CE000BDE8384000F0D2BCA34208D920682118A2
:104CF0008B4201BF19685B6809182160EDE71A460D
:104D00005B680BB1A342FAD911685018A0420BD1CD
:104D100020680144501883421160E0D118685B6834
:104D2000014411605360DAE702D90C232B60D6E707
:104D3000206821188B4201BF19685B68091821603F
:104D400063605460CBE738BD0C03002070B50E4E95
:104D50000C463168054611B900F0E4F9306021468F
:104D6000284600F0DFF9431C0AD0C41C24F00304D9
:104D7000A04207D0211A284600F0D4F9013001D111
:104D80004FF0FF34204670BD100300202DE9F041A4
:104D9000CD1C25F0030508350C2D38BF0C25002D42
:104DA000074601DBA94205D90C2300263B603046AB
:104DB000BDE8F0812E4E00F063FC33681C4634BB26
:104DC00029463846FFF7C2FF431C04464DD13468DC
:104DD0002646002E40D123683146384604EB0308AE
:104DE00000F0A0F980453AD1216803356D1A25F00D
:104DF000030508350C2D38BF0C2538462946FFF72A
:104E0000A5FF01302BD023682B4423600EE02268DD
:104E1000521B1ED40B2A16D96119A342256018BF54
:104E20005960636808BF316062514B60384604F1D5
:104E30000B0600F02BFC26F00706231DF21AB6D055
:104E40009B1BA350B3E76268A3420CBF32605A6059
:104E5000ECE723466468B2E734467668B9E70C238A
:104E600038463B6000F012FCA1E72560DEE700BF9A
:104E70000C030020936810B4013B002B936007DA09
:104E80009469A34201DB0A2902D110BC00F09EB94B
:104E90001368581C10601970084610BC7047F8B5AC
:104EA00006460F461446D518AC4201D1002007E053
:104EB0003A46304614F8011BFFF7DCFF431CF3D1E0
:104EC000F8BD00002DE9F04F0D4614469846064601
:104ED0009DB018B183690BB9FFF790FA894B9D42D9
:104EE0001BD175686B6ED90705D4AB899A0502D4BE
:104EF000A86DFFF726FBAB891B0701D52B69EBB922
:104F00002946304600F0C6F9C0B16B6EDC070ED5FD
:104F10004FF0FF301DB0BDE8F08F7B4B9D4201D1BB
:104F2000B568DFE7794B9D4208BFF568DAE7AB89E2
:104F30009805EDD4A86DFFF705FBE9E70023099379
:104F400020238DF8293030234FF00109CDF80C8053
:104F5000DFF8BC818DF82A3023469A4613F8012BDE
:104F60000AB1252AF9D1BAEB040B0BD05B462246D5
:104F700029463046FFF793FF013000F0AA80099AD6
:104F80005A4409929AF80030002B00F0A2800023C6
:104F90004FF0FF32CDE905230AF1010A049307938C
:104FA0008DF853301A935446052214F8011B5848C3
:104FB000FFF7D2FA049AD8B9D10644BF20238DF85E
:104FC0005330130744BF2B238DF853309AF8003029
:104FD0002A2B15D0544600204FF00A0C079A214680
:104FE00011F8013B303B092B4ED9B0B1079214E0C8
:104FF000A0EB080309FA03F31343A2460493D2E794
:10500000039B191D1B680391002BBBBF5B4242F041
:10501000020207930793B8BF049223782E2B0CD17A
:1050200063782A2B35D1039B02341A1D1B68039227
:10503000002BB8BF4FF0FF330593DFF8D8A0032251
:1050400050462178FFF788FA40B14023A0EB0A00D0
:1050500003FA00F0049B01340343049314F8011B8A
:1050600006222D488DF82810FFF776FA00283FD049
:105070002A4B1BBB039B073323F00703083303931F
:10508000099B3B44099367E70C4601200CFB023265
:10509000A5E700234FF00A0C19460134059320467A
:1050A00010F8012B303A092A03D9002BC5D00591FD
:1050B000C3E7044601230CFB0121F0E703AB009397
:1050C0002A463046164B04A9FDF7EAFE0746781C2F
:1050D000D6D16B6ED90705D4AB899A0502D4A86DD9
:1050E000FFF730FAAB895B063FF512AF099811E77D
:1050F00003AB00932A463046094B04A9FEF76CF92E
:10510000E4E700BFD8590008F8590008B85900086A
:10511000945B00089A5B00089E5B0008A12E0008C3
:105120009F4E000838B50023054D044608462B6005
:1051300000F076FB431C02D12B6803B1236038BD1D
:105140001403002010B50C46B1F90E1000F0A4FABB
:105150000028ABBF636DA3891B1823F48053ACBF39
:105160006365A38110BD2DE9F0411F468B8905467B
:10517000DB050C46164605D502230022B1F90E10B8
:1051800000F0F4F9A389324623F48053A381284622
:105190003B46B4F90E10BDE8F04100F069B810B517
:1051A0000C46B1F90E1000F0E1F9431CA38915BFBC
:1051B000606523F4805343F48053A38118BFA38117
:1051C00010BDB1F90E1000F0F1B80000F8B50E46B0
:1051D0001446054618B183690BB9FFF70FF9214B47
:1051E0009C422BD16C68A369A360A3891A072FD5B1
:1051F00023696BB323692068F6B2C01A6369374626
:10520000834204DC2146284600F062F930BBA368E3
:105210000130013BA36023685A1C22601E70636941
:10522000834204D0A389DB0706D50A2E04D1214688
:10523000284600F04DF988B93846F8BD0A4B9C4223
:1052400001D1AC68CFE7094B9C4208BFEC68CAE7C4
:105250002146284600F01EF80028CBD04FF0FF373B
:10526000EAE700BFD8590008F8590008B859000803
:1052700038B50446084611460022054D2A601A46F4
:10528000FCF7BEFF431C02D12B6803B1236038BD7D
:1052900014030020324B70B51D6806460C4625B13C
:1052A000AB6913B92846FFF7A9F82E4B9C420FD1E2
:1052B0006C68A389B4F90C2019072CD4DD0611D42D
:1052C0000923336042F040034FF0FF30A3813EE0FA
:1052D000254B9C4201D1AC68EBE7244B9C4208BFB4
:1052E000EC68E6E7580712D5616B41B104F144035D
:1052F000994202D03046FFF7E1FC00236363A389A3
:1053000023F02403A3810023636023692360A3891E
:1053100043F00803A38123694BB9A38903F42073E5
:10532000B3F5007F03D02146304600F057F9A0893D
:10533000B4F90C2010F001030AD00023A3606369C4
:105340005B42A361236943B910F08000BAD170BDFC
:10535000810758BF6369A360F4E70020F7E700BF47
:105360000C000020D8590008F8590008B859000866
:105370001FB514461A46094B05461B68D8684CB140
:10538000074BCDE9013400912B46064900F0DCF8CB
:1053900000F0A1F9044B1C46F3E700BF0C0000200D
:1053A000A55B0008B25B0008E05B000838B500238D
:1053B000054D044608462B6000F0FAF9431C02D163
:1053C0002B6803B1236038BD140300208A89F8B527
:1053D000054610070C4657D44B68002B04DC0B6CB9
:1053E000002B01DC0020F8BDE66A002EFAD0002375
:1053F00012F480522F682B6032D0606DA3895A0757
:1054000005D56368C01A636B0BB1236CC01A002307
:105410000246E66A2846216AB047431CA38906D1A2
:1054200029681D292CD8294ACA40D60728D5002228
:1054300062602269D904226004D5421C01D12B6824
:1054400003B96065616B2F600029CBD004F1440380
:10545000994202D02846FFF731FC00206063C2E782
:10546000216A01232846B047411CC7D12B68002B75
:10547000C4D01D2B01D0162B01D12F60B2E7A38918
:1054800043F04003A381AEE70F69002FAAD0930732
:1054900018BF00230E6808BF4B69F61B0F608B60B6
:1054A000002E9FDD33463A462846216AD4F828C0AC
:1054B000E047002806DCA3894FF0FF3043F04003AB
:1054C000A38190E70744361AEAE700BF01004020B5
:1054D00038B50B6905460C4613B90025284638BD7A
:1054E00018B183690BB9FEF789FF144B9C421BD19D
:1054F0006C68B4F90C30002BEFD0626ED00704D486
:10550000990502D4A06DFFF71CF828462146FFF745
:105510005DFF636E0546DA07E0D4A3899B05DDD401
:10552000A06DFFF70FF8D9E7054B9C4201D1AC689D
:10553000DFE7044B9C4208BFEC68DAE7D859000863
:10554000F8590008B85900080EB403B5014603AB7A
:10555000054853F8042B00680193FFF7B3FC02B031
:105560005DF804EB03B070470C00002038B504462A
:10557000084611460022054D2A601A4600F040F9FF
:10558000431C02D12B6803B1236038BD14030020F3
:1055900070B50E46B1F90E10144600291D4696B09E
:1055A00008DA0022B6F90C302A601A0610D44FF43B
:1055B00080630EE06A4600F095F80028F1DB019A5E
:1055C00002F47042A2F500535A425A412A60EEE7B3
:1055D00040230020236016B070BD00008B8973B596
:1055E0009D0706460C4607D504F147032360236157
:1055F0000123636102B070BD6A4601ABFFF7C8FFCB
:10560000009905463046FFF7C1FB48B9B4F90C30A4
:105610009A05EFD423F0030343F00203A381E3E7E9
:105620000D4BB362A389206043F08003A381009BEC
:1056300020616361019B5BB13046B4F90E1000F04C
:1056400063F828B1A38923F0030343F00103A38186
:10565000A0890543A581CDE79543000882B001B933
:1056600001A942B14BB113780B601278101E18BF1C
:10567000012002B070471046FBE76FF00100F8E729
:105680000148FEF75EBF00BF080300200148FEF797
:1056900059BF00BF0803002038B50446084611462C
:1056A0000022054D2A601A4600F0B2F8431C02D1D0
:1056B0002B6803B1236038BD14030020034608465D
:1056C00041B1FF2A04D98A224FF0FF301A60704797
:1056D00001200A707047062008B500F04DF801203F
:1056E00000F0ACF838B50023064D044608461146D4
:1056F0002B6000F065F8431C02D12B6803B12360D6
:1057000038BD00BF1403002038B50023054D044602
:1057100008462B6000F064F8431C02D12B6803B1EB
:10572000236038BD140300201F2938B504460D46F8
:1057300004D9162303604FF0FF3038BD426C12B11C
:1057400052F821304BB9204600F030F82A46014685
:105750002046BDE8384000F017B8012B0AD0591C8C
:1057600003D1162303600120E7E70024284642F80E
:10577000254098470020E0E7024B01461868FFF7F4
:10578000D3BF00BF0C00002038B50023064D0446EF
:10579000084611462B6000F02BF8431C02D12B6801
:1057A00003B1236038BD00BF1403002000F010B81F
:1057B0005822024B4FF0FF301A607047140300204C
:1057C0005822024B4FF0FF301A607047140300203C
:1057D0005822024B4FF0FF301A607047140300202C
:1057E0005822024B00201A60704700BF14030020AB
:1057F0005822024B4FF0FF301A607047140300200C
:105800005822024B4FF0FF301A60704714030020FB
:105810005822024B4FF0FF301A60704714030020EB
:10582000044A05491368002B08BF0B461844106052
:10583000184670471803002020030020FEE700BF31
:10584000F8B500BFF8BC08BC9E467047F8B500BF6D
:08585000F8BC08BC9E4670473D
:10585800706F735F783A2025336420616463203D5C
:1058680020256420766F6C2030203D20252E32665E
:10587800562E0A00706F735F793A202533642061D1
:105888006463203D20256420766F6C2031203D2004
:10589800252E3266562E0A0002030405060708095B
:1058A8000A0B0C0D0E0F1010000000000000000085
:1058B80000000000010203040607080900000000B8
:1058C8000102030410000020494E4600696E66007C
:1058D8004E414E006E616E00300030313233343547
:1058E8003637383941424344454600303132333443
:1058F800353637383961626364656600496E6669B2
:105908006E697479004E614E005245454E54206DC3
:10591800616C6C6F632073756363656564656400AF
:105928002F6D6E742F776F726B73706163652F774D
:105938006F726B73706163652F4743432D31302D50
:10594800706970656C696E652F6A656E6B696E73D8
:105958002D4743432D31302D706970656C696E6534
:105968002D3333385F32303231313031385F3136B0
:1059780033343531363230332F7372632F6E657797
:105988006C69622F6E65776C69622F6C6962632F30
:105998007374646C69622F64746F612E6300426172
:1059A8006C6C6F6320737563636565646564000080
:1059B80000000000000000000000000000000000DF
:1059C80000000000000000000000000000000000CF
:1059D80000000000000000000000000000000000BF
:1059E80000000000000000000000000000000000AF
:1059F800000000000000000000000000000000009F
:105A0800000000000000000000000000000000008E
:105A18002F6D6E742F776F726B73706163652F775C
:105A28006F726B73706163652F4743432D31302D5F
:105A3800706970656C696E652F6A656E6B696E73E7
:105A48002D4743432D31302D706970656C696E6543
:105A58002D3333385F32303231313031385F3136BF
:105A680033343531363230332F7372632F6E6577A6
:105A78006C69622F6E65776C69622F6C6962632F3F
:105A88007374646C69622F6D707265632E630000B5
:105A98000080E03779C34143176E05B5B5B8934622
:105AA800F5F93FE9034F384D321D30F94877825AEE
:105AB8003CBF737FDD4F1575000000000000F03F0C
:105AC80000000000000024400000000000005940D1
