:020000040800F2
:100000000000022031C302089D0D00089F0D00086A
:10001000A10D0008A30D0008A50D000800000000B8
:10002000000000000000000000000000A16C0008BB
:10003000A70D000800000000416D0008A56D000834
:1000400081C3020881C3020881C3020881C3020878
:1000500081C3020881C3020881C3020881C3020868
:1000600081C3020881C3020881C3020881C3020858
:1000700081C3020881C3020881C3020881C3020848
:1000800081C3020881C3020881C3020881C3020838
:1000900081C3020881C3020881C3020881C3020828
:1000A00081C3020881C3020881C3020881C3020818
:1000B00081C3020881C3020881C3020881C3020808
:1000C00081C3020881C3020881C3020881C30208F8
:1000D00081C30208A90D000881C3020881C3020878
:1000E00081C3020881C3020881C3020881C30208D8
:1000F00081C30208B90D000881C3020881C3020848
:1001000081C3020881C3020881C3020881C30208B7
:1001100081C3020881C3020881C3020881C30208A7
:1001200081C3020881C3020881C3020881C3020897
:1001300081C3020881C3020881C3020881C3020887
:1001400081C3020881C3020881C3020881C3020877
:1001500081C3020881C30208C90D000881C30208D7
:1001600081C3020881C3020881C3020881C3020857
:1001700081C3020881C3020881C302080000000095
:0801800081C3020881C30208DB
:1001900010B5054C237833B9044B13B10448AFF3C1
:1001A00000800123237010BD20010020000000000A
:1001B00090D7020808B5034B1BB103490348AFF3BE
:1001C000008008BD000000002401002090D7020834
:1001D00010F8012B11F8013B012A28BF9A42F7D0F1
:1001E000D01A7047034613F8012B002AFBD1181AC6
:1001F000013870470000000000000000000000000F
:1002000001F0FF01102A2BDB10F0070F08D010F8C7
:10021000013B013A8B422DD010F0070F42B3F6D1CB
:10022000F0B441EA012141EA014122F007047FF0E4
:1002300000070023F0E80256083C85EA010586EA3B
:10024000010685FA47F5A3FA87F586FA47F6A5FA77
:1002500087F68EB9EED1F0BC01F0FF0102F0070283
:1002600032B110F8013B013A83EA010313B1F8D12E
:100270000020704701387047002D06BF354603380F
:10028000073815F0010F07D1013015F4807F02BF48
:10029000013015F4C03F0130F0BC0138704700BF99
:1002A00070B54FF0FF0C4CF4E06C1CEA11541DBF0C
:1002B0001CEA135594EA0C0F95EA0C0F00F0DEF8D7
:1002C0002C4481EA030621EA4C5123EA4C5350EABC
:1002D000013518BF52EA033541F4801143F480130D
:1002E00038D0A0FB02CE4FF00005E1FB02E506F09E
:1002F0000042E0FB03E54FF00006E1FB03569CF0F3
:10030000000F18BF4EF0010EA4F1FF04B6F5007FF8
:1003100064F5407404D25FEA4E0E6D4146EB06066A
:1003200042EAC62141EA55514FEAC52040EA5E50F3
:100330004FEACE2EB4F1FD0C88BFBCF5E06F1ED89D
:10034000BEF1004F08BF5FEA500E50F1000041EBD4
:10035000045170BD06F0004646EA010140EA020081
:1003600081EA0301B4EB5C04C2BFD4EB0C0541EAA3
:10037000045170BD41F480114FF0000E013C00F3B8
:10038000AB8014F1360FDEBF002001F0004170BDDC
:10039000C4F10004203C35DA0C341BDC04F11404F5
:1003A000C4F1200500FA05F320FA04F001FA05F281
:1003B00040EA020001F0004221F0004110EBD3704E
:1003C00021FA04F642EB06015EEA430E08BF20EA7A
:1003D000D37070BDC4F10C04C4F1200500FA04F31D
:1003E00020FA05F001FA04F240EA020001F00041AF
:1003F00010EBD37041F100015EEA430E08BF20EA22
:10040000D37070BDC4F1200500FA05F24EEA020E69
:1004100020FA04F301FA05F243EA020321FA04F098
:1004200001F0004121FA04F220EA020000EBD3704F
:100430005EEA430E08BF20EAD37070BD94F0000F4F
:100440000FD101F00046400041EB010111F4801F83
:1004500008BF013CF7D041EA060195F0000F18BF34
:10046000704703F00046520043EB030313F4801F70
:1004700008BF013DF7D043EA0603704794EA0C0F2A
:100480000CEA135518BF95EA0C0F0CD050EA410640
:1004900018BF52EA4306D1D181EA030101F00041BD
:1004A0004FF0000070BD50EA410606BF10461946E5
:1004B00052EA430619D094EA0C0F02D150EA0136F1
:1004C00013D195EA0C0F05D152EA03361CBF104632
:1004D00019460AD181EA030101F0004141F0FE41D1
:1004E00041F470014FF0000070BD41F0FE4141F455
:1004F000780170BD81F0004102E000BF83F000434D
:1005000030B54FEA41044FEA430594EA050F08BFAE
:1005100090EA020F1FBF54EA000C55EA020C7FEA72
:10052000645C7FEA655C00F0E2804FEA5454D4EBEF
:100530005555B8BF6D420CDD2C4480EA020281EAB9
:10054000030382EA000083EA010180EA020281EAF1
:100550000303362D88BF30BD11F0004F4FEA013143
:100560004FF4801C4CEA113102D0404261EB410152
:1005700013F0004F4FEA03334CEA133302D05242D8
:1005800063EB430394EA050F00F0A780A4F1010494
:10059000D5F1200E0DDB02FA0EFC22FA05F28018CE
:1005A00041F1000103FA0EF2801843FA05F35941B4
:1005B0000EE0A5F120050EF1200E012A03FA0EFC33
:1005C00028BF4CF0020C43FA05F3C01851EBE3715D
:1005D00001F0004507D54FF0000EDCF1000C7EEB7A
:1005E00000006EEB0101B1F5801F1BD3B1F5001FB8
:1005F0000CD349085FEA30004FEA3C0C04F10104D7
:100600004FEA445212F5800F80F09A80BCF1004FFF
:1006100008BF5FEA500C50F1000041EB045141EA81
:10062000050130BD5FEA4C0C404141EB0101013C4A
:1006300028BFB1F5801FE9D291F0000F04BF014639
:100640000020B1FA81F308BF2033A3F10B03B3F10B
:1006500020020CDA0C3208DD02F1140CC2F10C029B
:1006600001FA0CF021FA02F10CE002F11402D8BFF9
:10067000C2F1200C01FA02F120FA0CFCDCBF41EAC5
:100680000C019040E41AA2BF01EB0451294330BD94
:100690006FEA04041F3C1CDA0C340EDC04F1140471
:1006A000C4F1200220FA04F001FA02F340EA030048
:1006B00021FA04F345EA030130BDC4F10C04C4F18E
:1006C000200220FA02F001FA04F340EA030029466E
:1006D00030BD21FA04F0294630BD94F0000F83F4B8
:1006E000801306BF81F480110134013D4EE77FEA9B
:1006F000645C18BF7FEA655C29D094EA050F08BFE7
:1007000090EA020F05D054EA000C04BF19461046C7
:1007100030BD91EA030F1EBF0021002030BD5FEA0B
:10072000545C05D14000494128BF41F0004130BD33
:1007300014F580043CBF01F5801130BD01F0004587
:1007400045F0FE4141F470014FF0000030BD7FEAFA
:10075000645C1ABF194610467FEA655C1CBF0B46F5
:10076000024650EA013406BF52EA033591EA030F0C
:1007700041F4002130BD00BF90F0000F04BF002104
:10078000704730B54FF4806404F132044FF0000537
:100790004FF0000150E700BF90F0000F04BF0021B0
:1007A000704730B54FF4806404F1320410F0004516
:1007B00048BF40424FF000013EE700BF42004FEA11
:1007C000E2014FEA31014FEA02701FBF12F07F438E
:1007D00093F07F4F81F06051704732F07F4208BF45
:1007E000704793F07F4F04BF41F40021704730B54C
:1007F0004FF4607401F0004521F000411CE700BF98
:1008000050EA010208BF704730B54FF000050AE01A
:1008100050EA010208BF704730B511F0004502D51B
:10082000404261EB41014FF4806404F132045FEA1D
:10083000915C3FF4D8AE4FF003025FEADC0C18BFC6
:1008400003325FEADC0C18BF033202EBDC02C2F1B8
:10085000200300FA03FC20FA02F001FA03FE40EA4A
:100860000E0021FA02F11444BDE600BF4A0011D285
:1008700012F5001211D20DD56FF47873B3EB6252FA
:100880000ED44FEAC12343F0004343EA505323FA06
:1008900002F070474FF00000704750EA013002D17B
:1008A0004FF0FF3070474FF00000704753B94AB91E
:1008B000002908BF00281CBF4FF0FF314FF0FF3068
:1008C00000F074B9ADF1080C6DE904CE00F006F843
:1008D000DDF804E0DDE9022304B070472DE9F047BC
:1008E000089D04468E46002B4DD18A42944669D914
:1008F000B2FA82F252B101FA02F3C2F1200120FAF7
:1009000001F10CFA02FC41EA030E94404FEA1C4844
:10091000210CBEFBF8F61FFA8CF708FB16E341EA40
:10092000034306FB07F199420AD91CEB030306F1C6
:10093000FF3080F01F81994240F21C81023E6344E7
:100940005B1AA4B2B3FBF8F008FB103344EA03448B
:1009500000FB07F7A7420AD91CEB040400F1FF33A0
:1009600080F00A81A74240F207816444023840EADD
:100970000640E41B00261DB1D4400023C5E9004316
:100980003146BDE8F0878B4209D9002D00F0EF8099
:100990000026C5E9000130463146BDE8F087B3FACC
:1009A00083F6002E4AD18B4202D3824200F2F980B4
:1009B000841A61EB030301209E46002DE0D0C5E9B7
:1009C000004EDDE702B9FFDEB2FA82F2002A40F003
:1009D0009280A1EB0C014FEA1C471FFA8CFE012606
:1009E000200CB1FBF7F307FB131140EA01410EFBAA
:1009F00003F0884208D91CEB010103F1FF3802D251
:100A0000884200F2CB804346091AA4B2B1FBF7F04A
:100A100007FB101144EA01440EFB00FEA64508D96D
:100A20001CEB040400F1FF3102D2A64500F2BB80AA
:100A30000846A4EB0E0440EA03409CE7C6F12007F9
:100A4000B34022FA07FC4CEA030C20FA07F401FA3F
:100A500006F31C43F9404FEA1C4900FA06F3B1FBC8
:100A6000F9F8200C1FFA8CFE09FB181140EA01412D
:100A700008FB0EF0884202FA06F20BD91CEB0101CA
:100A800008F1FF3A80F08880884240F28580A8F122
:100A900002086144091AA4B2B1FBF9F009FB101174
:100AA00044EA014100FB0EFE8E4508D91CEB010112
:100AB00000F1FF346CD28E456AD90238614440EAB5
:100AC0000840A0FB0294A1EB0E01A142C846A64635
:100AD00056D353D05DB1B3EB080261EB0E0101FABE
:100AE00007F722FA06F3F1401F43C5E9007100261B
:100AF0003146BDE8F087C2F12003D8400CFA02FC71
:100B000021FA03F3914001434FEA1C471FFA8CFE80
:100B1000B3FBF7F007FB10360B0C43EA064300FB70
:100B20000EF69E4204FA02F408D91CEB030300F10E
:100B3000FF382FD29E422DD9023863449B1B89B2C5
:100B4000B3FBF7F607FB163341EA034106FB0EF34E
:100B50008B4208D91CEB010106F1FF3816D28B42FB
:100B600014D9023E6144C91A46EA004638E72E46C7
:100B7000284605E70646E3E61846F8E64B45A9D2BF
:100B8000B9EB020864EB0C0E0138A3E74646EAE72E
:100B9000204694E74046D1E7D0467BE7023B6144DC
:100BA00032E7304609E76444023842E7704700BF45
:100BB00008B50268034B9A4200D008BD01F0EAF97B
:100BC000FBE700BF0020004072B6FEE700B595B01D
:100BD0003022002108A82BF007FC00230393049384
:100BE00005930693079301931F4A116C41F08051BE
:100BF0001164126C02F080520192019A02931B4A16
:100C0000116841F480411160126802F4804202923E
:100C1000029A0222089201210B9110210C910E924E
:100C20000F9308231093A823119312920423139374
:100C300008A800F08DFA98B90F23039302230493B8
:100C4000002305934FF4A05306934FF4805307936A
:100C5000052103A800F0CAFC20B915B05DF804FB1B
:100C6000FFF7B2FFFFF7B0FF00380240007000400E
:100C700008B501F075F9FFF7A9FF00F00BF801F0D6
:100C8000B9F903F0ABFE03F05BFE05F0AFF905F038
:100C90004BFEFEE7F0B58FB0002409940A940B9444
:100CA0000C940D9401943A4B1A6B42F004021A63AF
:100CB0001A6B02F004020192019A02941A6B42F03C
:100CC00020021A631A6B02F020020292029A039425
:100CD0001A6B42F080021A631A6B02F080020392D0
:100CE000039A04941A6B42F010021A631A6B02F012
:100CF00010020492049A05941A6B42F002021A63DD
:100D00001A6B02F002020592059A06941A6B42F0E1
:100D100008021A631A6B02F008020692069A0794F8
:100D20001A6B42F001021A631A6B02F00102079279
:100D3000079A08941A6B42F040021A631B6B03F087
:100D400040030893089B134F22464FF40071384626
:100D500000F039FE104D22464FF40041284600F0C5
:100D600032FE4FF40073099301260A960B940C94FB
:100D700009A9384600F02EFD4FF4004309930A9666
:100D80000B940C9409A9284600F024FD0FB0F0BD87
:100D9000003802400014024000040240FEE7FEE773
:100DA000FEE7FEE7FEE7704708B5024804F0C0FF23
:100DB00008BD00BF0402002008B5024800F078F822
:100DC00008BD00BF3850002008B5024800F082FF7F
:100DD00008BD00BFA401002000B583B0002200922E
:100DE0000D4B596C41F480415964596C01F48041B8
:100DF000009100990192196C41F0805119641B6CAB
:100E000003F080530193019B0F216FF0010001F06B
:100E100061F803B05DF804FB003802407047000041
:100E200090F83D30DBB2012B37D1022380F83D3002
:100E30000268D36843F00103D3600368194A934200
:100E400020D0B3F1804F1DD0A2F57C42934219D03F
:100E500002F58062934215D002F58062934211D070
:100E600002F5784293420DD002F57052934209D0B8
:100E7000A2F59432934205D01A6842F001021A603A
:100E8000002070479A6802F00702062A07D01A6805
:100E900042F001021A6000207047012070470020D4
:100EA000704700BF000001407047704770477047AF
:100EB00010B5044603681A6912F0020F11D0DA68FF
:100EC00012F0020F0DD06FF002021A6101230377B6
:100ED00003689B6913F0030F70D0FFF7E6FF002350
:100EE000237723681A6912F0040F12D0DA6812F01F
:100EF000040F0ED06FF004021A61022323772368D7
:100F00009B6913F4407F5FD02046FFF7CEFF00239C
:100F1000237723681A6912F0080F12D0DA6812F0EA
:100F2000080F0ED06FF008021A610423237723689C
:100F3000DB6913F0030F4ED02046FFF7B6FF002306
:100F4000237723681A6912F0100F12D0DA6812F0B2
:100F5000100F0ED06FF010021A6108232377236858
:100F6000DB6913F4407F3DD02046FFF79EFF00234E
:100F7000237723681A6912F0010F03D0DA6812F0A0
:100F8000010F36D123681A6912F0800F03D0DA6896
:100F900012F0800F34D123681A6912F0400F03D089
:100FA000DA6812F0400F32D123681A6912F0200F6C
:100FB00003D0DA6812F0200F30D110BDFFF774FFB4
:100FC0002046FFF773FF8AE72046FFF76DFF2046B4
:100FD000FFF76CFF9BE72046FFF766FF2046FFF711
:100FE00065FFACE72046FFF75FFF2046FFF75EFF97
:100FF000BDE76FF001021A612046FFF7D9FDC1E796
:101000006FF080021A61204600F0A1F8C3E76FF08C
:1010100040021A612046FFF74AFFC5E76FF0200241
:101020001A61204600F092F8C7E700000368304AD2
:10103000904212D0B0F1804F0FD0A2F57C42904286
:101040000BD002F58062904207D002F58062904298
:1010500003D002F57842904203D123F070034A682E
:101060001343234A90422AD0B0F1804F27D0A2F5F3
:101070007C42904223D002F5806290421FD002F55C
:10108000806290421BD002F57842904217D002F560
:101090007052904213D002F5806290420FD002F558
:1010A000806290420BD0A2F59832904207D002F5B0
:1010B0008062904203D002F58062904203D123F413
:1010C0004073CA68134323F080034A6913430360E3
:1010D0008B68C3620B688362054B984203D003F5AB
:1010E0008063984201D10B69036301234361704718
:1010F0000000014040B310B5044690F83D30F3B114
:10110000022384F83D30214651F8040BFFF78EFF8F
:10111000012384F8463084F83E3084F83F3084F868
:10112000403084F8413084F8423084F8433084F809
:10113000443084F8453084F83D30002010BD80F8FC
:101140003C30FFF76BFEDBE70120704770477047CC
:10115000002800F0E08170B582B00446036813F007
:10116000010F3BD09F4B9B6803F00C03042B2CD04A
:101170009C4B9B6803F00C03082B21D06368B3F5EC
:10118000803F4FD0B3F5A02F52D0964B1A6822F46F
:1011900080321A601A6822F480221A606368002B79
:1011A00050D000F003FF05468E4B1B6813F4003F40
:1011B00014D100F0FBFE401B6428F5D90320B1E1F7
:1011C000884B5B6813F4800FD8D0864B1B6813F4F0
:1011D000003F03D06368002B00F09F81236813F069
:1011E000020F54D07F4B9B6813F00C0F3ED07D4B09
:1011F0009B6803F00C03082B33D0E368002B68D006
:10120000794B01221A6000F0D1FE0546754B1B6830
:1012100013F0020F54D100F0C9FE401B0228F5D98B
:1012200003207FE16F4A136843F480331360B5E70E
:101230006C4B1A6842F480221A601A6842F48032B9
:101240001A60ABE700F0B2FE0546664B1B6813F46C
:10125000003FC3D000F0AAFE401B6428F5D903204C
:1012600060E1604B5B6813F4800FC6D15D4B1B6877
:1012700013F0020F03D0E368012B40F05081594A6C
:10128000136823F0F803216943EAC103136023685C
:1012900013F0080F42D063696BB3534B0122C3F8BC
:1012A000802E00F083FE05464E4B5B6F13F0020F5D
:1012B00034D100F07BFE401B0228F5D9032031E138
:1012C000484A136823F0F803216943EAC103136015
:1012D000DDE7454B00221A6000F068FE0546414BF1
:1012E0001B6813F0020FD2D000F060FE401B0228F2
:1012F000F5D9032016E13C4B0022C3F8802E00F004
:1013000055FE0546374B5B6F13F0020F06D000F019
:101310004DFE401B0228F5D9032003E1236813F09A
:10132000040F77D02F4B1B6C13F0805F33D1002359
:1013300001932C4B1A6C42F080521A641B6C03F020
:1013400080530193019B0125284B1B6813F4807F78
:1013500023D0A368012B34D0052B38D0214B1A6F32
:1013600022F001021A671A6F22F004021A67A368BA
:10137000002B3DD000F01AFE06461A4B1B6F13F0EF
:10138000020F46D100F012FE801B41F288339842D2
:10139000F3D90320C6E00025D6E7144A136843F4C6
:1013A0008073136000F002FE0646104B1B6813F4B6
:1013B000807FCED100F0FAFD801B0228F5D90320F2
:1013C000B0E0084A136F43F001031367CFE7054B02
:1013D0001A6F42F004021A671A6F42F001021A678C
:1013E000C5E700BF003802400000474200700040DF
:1013F00000F0DCFD0646524B1B6F13F0020F08D0C5
:1014000000F0D4FD801B41F288339842F3D90320C9
:1014100088E0EDB9A369002B00F08380484A926808
:1014200002F00C02082A51D0022B17D0454B0022A3
:101430001A6600F0BBFD0446414B1B6813F0007FA9
:1014400042D000F0B3FD001B0228F5D9032069E06B
:101450003B4A136C23F080531364DBE7394B0022C3
:101460001A6600F0A3FD0546354B1B6813F0007F9C
:1014700006D000F09BFD401B0228F5D9032051E067
:10148000E369226A1343626A43EA8213A26A52083A
:10149000013A43EA0243E26A43EA0263284A53609C
:1014A000284B01221A6600F081FD0446244B1B687C
:1014B00013F0007F06D100F079FD001B0228F5D95A
:1014C00003202FE000202DE000202BE0012B2BD06B
:1014D0001B4B5B6803F48001E269914226D103F063
:1014E0003F02216A8A4223D1616A47F6C0721A40DC
:1014F000B2EB811F1ED103F44031A26A5208013AB7
:10150000B1EB024F18D103F07063E26AB3EB026FE4
:1015100014D1002006E001207047012002E00120E4
:1015200000E0002002B070BD0120FBE70120F9E7D8
:101530000120F7E70120F5E70120F3E70120F1E7BB
:10154000003802400000474208B5254B9B6803F075
:101550000C03042B3FD0082B3FD1214B5A6802F0DB
:101560003F025B6813F4800F12D01D4B5968C1F322
:1015700088111C480023A1FB0001FFF797F9184BC5
:101580005B68C3F3014301335B00B0FBF3F025E07C
:10159000134B5968C1F3881C4FEA4C11B1EB0C0096
:1015A0006EEB0E0E4FEA8E1343EA90638101091A27
:1015B00063EB0E03DB0043EA5173C90011EB0C0C23
:1015C00043F10003990200234FEA8C2041EA9C5129
:1015D000FFF76CF9D3E7034800E0034808BD00BFFC
:1015E0000038024040787D010024F400002800F01B
:1015F0009B8070B50D4604464F4B1B6803F00703F4
:101600008B4208D2CBB24C4A1370136803F0070325
:101610008B4240F08B80236813F0020F17D013F039
:10162000040F04D0454A936843F4E0539360236861
:1016300013F0080F04D0414A936843F46043936069
:101640003E4A936823F0F003A1680B43936023683C
:1016500013F0010F32D06368012B21D09A1E012AAA
:1016600025D9364A126812F0020F61D033498A68D0
:1016700022F0030213438B6000F098FC06462F4BC8
:101680009B6803F00C036268B3EB820F16D000F086
:101690008DFC801B41F288339842F0D9032042E050
:1016A000264A126812F4003FE0D101203BE0234AB1
:1016B000126812F0007FD9D1012034E01E4B1B6864
:1016C00003F00703AB4207D9EAB21B4B1A701B6841
:1016D00003F00703AB422DD1236813F0040F06D0AB
:1016E000164A936823F4E053E1680B439360236840
:1016F00013F0080F07D0114A936823F4604321695F
:1017000043EAC1039360FFF71FFF0C4B9B68C3F3D1
:1017100003130B4AD35CD8400A4B18600A4B186875
:1017200004F0BAFC002070BD012070470120FAE7E8
:101730000120F8E70120F6E7003C024000380240B3
:1017400040D802080800002004000020014B18685F
:10175000704700BF0800002008B5FFF7F7FF044BF3
:101760009B68C3F38223034AD35CD84008BD00BF03
:101770000038024050D8020808B5FFF7E7FF044BD5
:101780009B68C3F34233034AD35CD84008BD00BF13
:101790000038024050D802080F2303600B4B9A68B0
:1017A00002F0030242609A6802F0F00282609A68D6
:1017B00002F4E052C2609B68DB0803F4E05303616B
:1017C000034B1B6803F007030B60704700380240AF
:1017D000003C024000230F2B00F2E48070B582B081
:1017E00060E085685E000324B44025EA0405CC6807
:1017F000B4402C438460456825EA02054C68C4F374
:1018000000129A402A4342605AE0DC08083450F83B
:10181000246003F0070295000F22AA4026EA020E78
:101820000A69AA4042EA0E0240F824205CE007223E
:1018300000E0002202FA0EF22A4302345A4D45F823
:1018400024205A4A14686FEA0C0224EA0C054E68F8
:1018500016F4803F01D04CEA0405544C25606468BE
:1018600002EA04054E6816F4003F01D04CEA040574
:101870004E4C6560A46802EA04054E6816F4801FA9
:1018800001D04CEA0405494CA560E46822404D684B
:1018900015F4001F01D04CEA0402444CE26001330D
:1018A0000F2B7DD801229A400C6804EA020C32EA20
:1018B0000404F4D14C6804F00304013C012C90D9D9
:1018C0004A6802F00302032A09D0C4685D000322BB
:1018D000AA4024EA02048A68AA402243C2604A68F5
:1018E00002F00302022A90D004684FEA430E03225A
:1018F00002FA0EF224EA02044A6802F0030202FA33
:101900000EF2224302604A6812F0805FC7D00022C4
:101910000192274A546C44F480445464526C02F49B
:1019200080420192019A9C08A51C1F4A52F825503A
:1019300003F003024FEA820E0F2202FA0EF225EAAA
:1019400002051C4A90423FF474AF02F58062904257
:101950001AD002F58062904218D002F5806290425F
:1019600016D002F58062904214D002F58062904257
:1019700012D002F58062904210D002F5806290424F
:101980003FF455AF082255E7012253E7022251E701
:1019900003224FE704224DE705224BE7062249E7E1
:1019A00002B070BD704700BF00380140003C0140EC
:1019B00000380240000002400369194201D00120B2
:1019C0007047002070470AB1816170470904816146
:1019D0007047436901EA030221EA030141EA024137
:1019E0008161704730B405682C6824F480242C6031
:1019F000046863608368402B05D0036899600368BE
:101A0000DA6030BC704703689A600368D960F8E711
:101A100010B40368D9B210390C4AA2FB0142120972
:101A20000B4CA25CC2655F2909D923F47F7323F0B4
:101A3000030304338365806D5DF8044B704723F422
:101A40007F7323F003038365F5E700BFABAAAAAA5F
:101A500038D80208836A826992B9012B0AD0022B16
:101A600002D00BB100207047C36A13F0807F28D1E9
:101A700000207047C36AB3F1C07F24D000207047B4
:101A8000B2F5005F09D0022B25D9032B25D1C36AFB
:101A900013F0807F23D100207047032B03D8DFE8A9
:101AA00003F01404140A00207047C36A13F0807F07
:101AB0000DD100207047C36AB3F1C07F09D0002068
:101AC00070470120704701207047012070470120B6
:101AD00070470120704701207047002070470120A7
:101AE0007047000070B5044600F060FA002C5BD02F
:101AF0000546002384F83430022384F83530226808
:101B0000136823F00103136023681A6812F0010FB1
:101B10000AD000F04BFA431B052BF5D9202363654F
:101B2000032084F8350070BD1A68204810406168B1
:101B3000A2680A43E1680A4321690A4361690A43CA
:101B4000A1690A43E1690A43216A0A430243616ABF
:101B500004291ED01A602668756925F00705636A96
:101B60001D43042B07D1A36A1D43E36A1BB1204622
:101B7000FFF770FF90B975612046FFF749FFE26DEE
:101B80003F239340836000206065012384F8353053
:101B9000C9E7E16A206B01430A43DBE74023636541
:101BA000012084F83500BEE70120BCE73F8010F03B
:101BB00038B50446856D90F8340001282BD00120FB
:101BC00084F8340094F83500C0B2012804D0002312
:101BD00084F83430022038BD022084F8350000201B
:101BE00060652046FFF7FEFEE26D3F239340AB6049
:101BF0002268136843F016031360236C23B1226834
:101C0000136843F0080313602268136843F001036C
:101C100013600020DFE70220DDE770B50446866D23
:101C200000F0C4F994F83530DBB2022B06D08023E3
:101C30006365002384F83430012070BD05462268B6
:101C4000136823F0160313602268536923F080039E
:101C50005361236CE3B12268136823F00803136017
:101C60002268136823F00103136023681B6813F0D4
:101C7000010F11D000F09AF9431B052BF5D9202351
:101C80006365002384F83430032084F83500D4E7FA
:101C9000A36C002BDFD1E3E7E26D3F239340B360F9
:101CA000002084F83400012384F83530C5E790F82B
:101CB0003530DBB2022B03D080234365012070470F
:101CC000052380F835300268136823F001031360A0
:101CD00000207047F0B583B0044600230193724B97
:101CE0001D68724BA3FB0535AD0A876D3E68C26D5A
:101CF00008239340334210D003681A6812F0040F8F
:101D00000BD01A6822F004021A60C26D08239340B7
:101D1000BB60436D43F001034365E26D01239340D3
:101D2000334209D02268526912F0800F04D0BB60A0
:101D3000636D43F002036365E26D04239340334215
:101D400009D02268126812F0020F04D0BB60636DE4
:101D500043F004036365E26D10239340334224D0C3
:101D60002268126812F0080F1FD0BB6023681A683F
:101D700012F4802F0DD01B6813F4002F04D1236CB4
:101D80009BB12046984710E0A36C73B1204698475A
:101D90000BE01A6812F4807F03D11A6822F008025F
:101DA0001A60236C0BB120469847E26D20239340C4
:101DB000334255D02268126812F0100F50D0BB6029
:101DC00094F83530DBB2052B0ED023681A6812F474
:101DD000802F33D01B6813F4002F2AD1636C002BA3
:101DE0003ED0204698473BE02268136823F0160354
:101DF00013602268536923F080035361236CA3B1FD
:101E00002268136823F008031360E26D3F239340B8
:101E1000BB60002384F83430012384F83530236D0F
:101E2000002B3FD0204698473CE0A36C002BE7D125
:101E3000EBE7E36BA3B12046984711E01A6812F470
:101E4000807F09D11A6822F010021A60002384F8FA
:101E50003430012384F83530E36B0BB120469847CA
:101E6000636DFBB1636D13F0010F17D0052384F888
:101E700035302268136823F001031360019B01339E
:101E80000193AB4204D823681B6813F0010FF5D10E
:101E9000002384F83430012384F83530E36C0BB12F
:101EA0002046984703B0F0BD08000020B5814E1BC6
:101EB000074AD36823F4E0631B041B0C000200F400
:101EC000E060034343F0BF6343F40033D3607047E3
:101ED00000ED00E000B5194BDB68C3F30223C3F14A
:101EE000070CBCF1040F28BF4FF0040C03F1040EE3
:101EF000BEF1060F18D9033B4FF0FF3E0EFA0CFC63
:101F000021EA0C0199400EFA03F322EA0303194374
:101F100000280BDB0901C9B200F1604000F5614007
:101F200080F800135DF804FB0023E5E700F00F00E4
:101F30000901C9B2024B1954F4E700BF00ED00E0FB
:101F400014ED00E0002807DB00F01F024009012328
:101F50009340024A42F82030704700BF00E100E0A1
:101F600008B50B4B1A6842F400721A601A6842F402
:101F700080621A601A6842F480721A600320FFF7C8
:101F800097FF002004F088F8FEF726FF002008BD28
:101F9000003C0240034A1168034B1B780B4413605A
:101FA000704700BF3C01002000000020014B186872
:101FB000704700BF3C01002038B50446FFF7F6FF2C
:101FC0000546B4F1FF3F02D0044B1B781C44FFF7D9
:101FD000EDFF401BA042FAD338BD00BF0000002037
:101FE000034AD2F8883043F47003C2F8883070474F
:101FF00000ED00E000B583B000220192094B196B9F
:1020000041F4800119631B6B03F480030193019B6E
:1020100005214620FFF75EFF4620FFF793FF03B040
:102020005DF804FB003802402DE9F04186B0002342
:1020300001930293039304930593224B1B6813B1FE
:1020400006B0BDE8F0811F4B01221A600026009601
:102050001D4B9A6B42F001029A639B6B03F00103E4
:102060000093009B4FF48058CDF80480022702971C
:10207000032504950C24059401A91448FFF7AAFB35
:102080004FF680730193029703960495059401A976
:102090000F48FFF79FFB4CF23373019302970396AF
:1020A0000495059401A90B48FFF794FBCDF8048033
:1020B000029703960495059401A90748FFF78AFB48
:1020C000BEE700BF4001002000380240001402407B
:1020D00000100240000C02400018024082B0ADF82F
:1020E0000600BDF806309BB2ADF80630BDF80630EC
:1020F0009BB24FF0D842A2F87E3002B0704782B057
:10210000ADF80600BDF806309BB2ADF80630BDF85C
:1021100006309BB24FF0D842A2F8803002B0704730
:1021200082B04FF0D843B3F880309BB2ADF80630A0
:10213000BDF8060080B202B070474FF0D843A3F854
:102140007E00A3F880107047034B1A894FF0D843E4
:10215000A3F87E20704700BF9401002070B50546AB
:102160000C46444B9B8849F24132934229D045F2B8
:102170001032934225D041F66312934235D045F296
:102180001052934230D13B4E7089FFF7A7FF280AC7
:10219000FFF7B5FF7089013080B2FFF79FFFE8B20B
:1021A000FFF7ADFFB089FFF799FF200AFFF7A7FF00
:1021B000B089013080B2FFF791FFE0B2FFF79FFFD7
:1021C00012E02C4E7089FFF789FF280AFFF797FF6E
:1021D000E8B2FFF794FFB089FFF780FF200AFFF70E
:1021E0008EFFE0B2FFF78BFF70BD224B9B7953BB94
:1021F000204B1888451BADB2013DADB25889FFF7A1
:102200006DFF0020FFF77BFF0020FFF778FF280A13
:10221000FFF775FFE8B2FFF772FF164DA889FFF7C9
:102220005DFF200AFFF76BFFE0B2FFF768FF6888E9
:102230000138C0F30F20FFF762FF68880138C0B291
:10224000FFF75DFFD0E70B4E7089FFF747FF280AC5
:10225000FFF755FFE8B2FFF752FF30880138C0F3AF
:102260000F20FFF74CFF30880138C0B2FFF747FF5F
:10227000D3E700BF940100207E4B9B79012B19D03E
:102280002BB97C4B9A8841F663139A4218D0794B4C
:102290009B8849F2413293422AD045F21032934250
:1022A00026D045F21052934222D041F66312934257
:1022B0001ED070476F4A918841F663129142DFD079
:1022C0000728E4D8DFE800F0120406080A0C0E1014
:1022D0000720DCE70420DAE70520D8E70120D6E76D
:1022E0000020D4E70320D2E70220D0E70620CEE783
:1022F00010B50138062805D8DFE800F01206080AF4
:102300000C0E100000240CE040240AE0C02408E079
:10231000202406E0602404E0A02402E0E02400E0A1
:10232000802445F21052934250D0362045F21032AC
:10233000934209D045F21052934205D041F6631200
:10234000934201D044F008042146FFF7F6FE494BC2
:102350009B8841F6631293420AD014F0200F38D0C4
:10236000444A11885288914202D2424802804180F8
:1023700045F21052934235D03E4C6089FFF7AEFED5
:102380000020FFF7BCFE0020FFF7B9FE20880138CF
:10239000C0F30F20FFF7B3FE20880138C0B2FFF76B
:1023A000AEFEA089FFF79AFE0020FFF7A8FE0020EE
:1023B000FFF7A5FE60880138C0F30F20FFF79FFEEE
:1023C00060880138C0B2FFF79AFE10BD4FF4585034
:1023D000ACE7284A118852889142C9D92548028021
:1023E0004180C5E7234C6089FFF778FE0020FFF7A6
:1023F00086FE6089013080B2FFF770FE0020FFF793
:102400007EFE6089023080B2FFF768FE20880138C6
:10241000C0F30F20FFF773FE6089033080B2FFF72F
:102420005DFE20880138C0B2FFF769FEA089FFF782
:1024300055FE0020FFF763FEA089013080B2FFF750
:102440004DFE0020FFF75BFEA089023080B2FFF74F
:1024500045FE60880138C0F30F20FFF750FEA089C9
:10246000033080B2FFF73AFE60880138C0B2FFF750
:1024700046FEAAE79401002010B50446BE20FFF7EF
:102480002DFE0520FFF73BFE2046FEF785F90CA345
:10249000D3E90023FDF704FFFEF7E8F980B2FFF768
:1024A0002EFE0120FFF72BFEFF20FFF728FE002065
:1024B000FFF725FE0020FFF722FE10BDAFF30080DE
:1024C000666666666666044008B54C4B98710028DF
:1024D00047D1F0221A804FF4A0725A809B8849F2AB
:1024E0004132934219D045F21032934215D045F251
:1024F0001052934224D041F66312934261D13F4B74
:102500002C221A812B225A812A229A814FF4F072AE
:102510001A804FF448725A8053E0384A2C211181B6
:102520002A2151812B21918145F21032934248D1C9
:10253000324B4FF4A0721A804FF4F0725A8040E090
:102540002E4B4FF430521A814FF428525A814FF4D7
:102550002C529A814FF4F0721A804FF448725A80CC
:102560002FE0264B4FF4A0721A80F0225A809B88ED
:1025700049F24132934219D045F21032934215D0BC
:1025800045F21052934220D041F66312934214D187
:102590001A4A2C2111812A2151812B2191814FF43A
:1025A000487111804FF4F071518006E0134A2C21DC
:1025B00011812A2151812B21918145F210329342C0
:1025C00014D00020FFF758FE08BD0C4A4FF43051DC
:1025D00011814FF4285151814FF42C5191814FF4C6
:1025E000487111804FF4F0715180E6E7034B4FF4CE
:1025F000F0721A804FF4A0725A80E2E79401002032
:1026000038B505460A4B1A885C8802FB04F40021A1
:102610000846FFF7A3FDFFF797FD002205E0ABB2E8
:102620004FF0D841A1F880300132A242F7D338BD33
:102630009401002010B53220FFF7BEFCD320FFF735
:102640004DFDFFF76DFD5B4CA080FFF769FDA0809D
:10265000FFF766FDA0800002A080FFF761FDA38860
:10266000184380B2A08049F24133984246D1514B81
:102670009B8849F24132934200F0A28045F2103229
:10268000934200F0B28145F21052934201F026814C
:1026900041F66312934202F09C80464B9B8849F2BC
:1026A000413293420BD045F21032934207D045F2AB
:1026B0001052934203D041F66312934210D13E4B25
:1026C000DA6922F00F02DA61DA6922F47062DA6103
:1026D000DA6942F00302DA61DA6942F40072DA611F
:1026E0000020FFF7F1FE01224FF400413348FFF7CD
:1026F0006AF94FF6FF70FFF783FF10BDD420FFF794
:10270000EDFCFFF70DFDA080FFF70AFDA080FFF7AD
:1027100007FDA0800002A080FFF702FDA3881843F8
:1027200080B2A08045F210339842A0D04FF45A40B6
:10273000FFF7D4FCFFF7F4FCA0804FF45B40FFF7F9
:10274000CDFCFFF7EDFCA0800002A0804FF45C40C0
:10275000FFF7C4FCFFF7E4FCA388184380B2A08015
:10276000B0F5004F21D0134B9A8845F210539A428E
:102770003FF47DAFA120FFF7B1FCFFF7D1FC0D4C7A
:10278000A080FFF7CDFCA0800002A080FFF7C8FC6E
:10279000A388184380B2A08045F2617398427FF409
:1027A00066AF41F66312A28061E745F21052A28043
:1027B000D9E700BF94010020000100A000040240FE
:1027C000CF20FFF78BFC0020FFF799FCC120FFF71B
:1027D00096FC3020FFF793FCED20FFF77FFC642090
:1027E000FFF78DFC0320FFF78AFC1220FFF787FC20
:1027F0008120FFF784FCE820FFF770FC8520FFF7BD
:102800007EFC1020FFF77BFC7A20FFF778FCCB20C2
:10281000FFF764FC3920FFF772FC2C20FFF76FFCF8
:102820000020FFF76CFC3420FFF769FC0220FFF763
:1028300066FCF720FFF752FC2020FFF760FCEA203F
:10284000FFF74CFC0020FFF75AFC0020FFF757FC75
:10285000C020FFF743FC1B20FFF751FCC120FFF70E
:102860003DFC0120FFF74BFCC520FFF737FC302073
:10287000FFF745FC3020FFF742FCC720FFF72EFC96
:10288000B720FFF73CFC3620FFF728FC4820FFF775
:1028900036FC3A20FFF722FC5520FFF730FCB12030
:1028A000FFF71CFC0020FFF72AFC1A20FFF727FC8B
:1028B000B620FFF713FC0A20FFF721FCA220FFF748
:1028C0001EFCF220FFF70AFC0020FFF718FC262070
:1028D000FFF704FC0120FFF712FCE020FFF7FEFBEE
:1028E0000F20FFF70CFC2A20FFF709FC2820FFF738
:1028F00006FC0820FFF703FC0E20FFF700FC082071
:10290000FFF7FDFB5420FFF7FAFBA920FFF7F7FBC9
:102910004320FFF7F4FB0A20FFF7F1FB0F20FFF73E
:10292000EEFB0020FFF7EBFB0020FFF7E8FB0020A9
:10293000FFF7E5FB0020FFF7E2FBE120FFF7CEFB0E
:102940000020FFF7DCFB1520FFF7D9FB1720FFF76E
:10295000D6FB0720FFF7D3FB1120FFF7D0FB0620A3
:10296000FFF7CDFB2B20FFF7CAFB5620FFF7C7FB75
:102970003C20FFF7C4FB0520FFF7C1FB1020FFF749
:10298000BEFB0F20FFF7BBFB3F20FFF7B8FB3F204C
:10299000FFF7B5FB0F20FFF7B2FB2B20FFF79EFBE5
:1029A0000020FFF7ACFB0020FFF7A9FB0120FFF799
:1029B000A6FB3F20FFF7A3FB2A20FFF78FFB002099
:1029C000FFF79DFB0020FFF79AFB0020FFF797FB26
:1029D000EF20FFF794FB1120FFF780FB7820FFF733
:1029E000EBFA2920FFF77AFB57E6ED20FFF776FB9D
:1029F0000120FFF784FBFE20FFF781FBEE20FFF7AD
:102A00006DFBDE20FFF77BFB2120FFF778FBF12039
:102A1000FFF764FB0120FFF772FBDF20FFF75EFB8F
:102A20001020FFF76CFBC420FFF758FB8F20FFF747
:102A300066FBC620FFF752FB0020FFF760FBE22099
:102A4000FFF75DFBE220FFF75AFBE220FFF757FBA1
:102A5000BF20FFF743FBAA20FFF751FBB020FFF791
:102A60003DFB0D20FFF74BFB0020FFF748FB0D203F
:102A7000FFF745FB0020FFF742FB1120FFF73FFB6C
:102A80000020FFF73CFB1920FFF739FB0020FFF780
:102A900036FB2120FFF733FB0020FFF730FB2D2012
:102AA000FFF72DFB0020FFF72AFB3D20FFF727FB58
:102AB0000020FFF724FB5D20FFF721FB0020FFF73C
:102AC0001EFB5D20FFF71BFB0020FFF718FBB1206A
:102AD000FFF704FB8020FFF712FB0020FFF70FFB3E
:102AE0008B20FFF70CFB0020FFF709FB9620FFF778
:102AF00006FB0020FFF703FBB220FFF7EFFA0020F0
:102B0000FFF7FDFA0020FFF7FAFA0220FFF7F7FAC5
:102B10000020FFF7F4FA0320FFF7F1FA0020FFF797
:102B2000EEFAB320FFF7DAFA0020FFF7E8FA002008
:102B3000FFF7E5FA0020FFF7E2FA0020FFF7DFFADF
:102B40000020FFF7DCFA0020FFF7D9FA0020FFF79A
:102B5000D6FA0020FFF7D3FA0020FFF7D0FA0020C2
:102B6000FFF7CDFA0020FFF7CAFA0020FFF7C7FAF7
:102B70000020FFF7C4FA0020FFF7C1FA0020FFF79A
:102B8000BEFA0020FFF7BBFA0020FFF7B8FA0020DA
:102B9000FFF7B5FA0020FFF7B2FA0020FFF7AFFA0F
:102BA0000020FFF7ACFA0020FFF7A9FA0020FFF79A
:102BB000A6FA0020FFF7A3FAB420FFF78FFA8B20C4
:102BC000FFF79DFA0020FFF79AFA9620FFF797FA91
:102BD0000020FFF794FAA120FFF791FA0020FFF7F9
:102BE0008EFAB520FFF77AFA0220FFF788FA002064
:102BF000FFF785FA0320FFF782FA0020FFF77FFA3C
:102C00000420FFF77CFA0020FFF779FAB620FFF7DF
:102C100065FA0020FFF773FA0020FFF770FAB7207B
:102C2000FFF75CFA0020FFF76AFA0020FFF767FA67
:102C30003F20FFF764FA0020FFF761FA5E20FFF7FC
:102C40005EFA0020FFF75BFA6420FFF758FA0020D5
:102C5000FFF755FA8C20FFF752FA0020FFF74FFAE2
:102C6000AC20FFF74CFA0020FFF749FADC20FFF711
:102C700046FA0020FFF743FA7020FFF740FA0020E1
:102C8000FFF73DFA9020FFF73AFA0020FFF737FAF6
:102C9000EB20FFF734FA0020FFF731FADC20FFF7D2
:102CA0002EFA0020FFF72BFAB820FFF717FA0020C2
:102CB000FFF725FA0020FFF722FA0020FFF71FFA9E
:102CC0000020FFF71CFA0020FFF719FA0020FFF799
:102CD00016FA0020FFF713FA0020FFF710FABA20C7
:102CE000FFF7FCF92420FFF70AFA0020FFF707FAA4
:102CF0000020FFF704FA0020FFF701FAC120FFF7D8
:102D0000EDF92020FFF7FBF90020FFF7F8F9542038
:102D1000FFF7F5F90020FFF7F2F9FF20FFF7EFF9D1
:102D20000020FFF7ECF9C220FFF7D8F90A20FFF7DF
:102D3000E6F90020FFF7E3F90420FFF7E0F90020AF
:102D4000FFF7DDF9C320FFF7C9F93C20FFF7D7F9FA
:102D50000020FFF7D4F93A20FFF7D1F90020FFF760
:102D6000CEF93920FFF7CBF90020FFF7C8F937205B
:102D7000FFF7C5F90020FFF7C2F93C20FFF7BFF9C4
:102D80000020FFF7BCF93620FFF7B9F90020FFF764
:102D9000B6F93220FFF7B3F90020FFF7B0F92F2082
:102DA000FFF7ADF90020FFF7AAF92C20FFF7A7F9EC
:102DB0000020FFF7A4F92920FFF7A1F90020FFF771
:102DC0009EF92620FFF79BF90020FFF798F92420B1
:102DD000FFF795F90020FFF792F92420FFF78FF90C
:102DE0000020FFF78CF92320FFF789F90020FFF777
:102DF00086F93C20FFF783F90020FFF780F93620A1
:102E0000FFF77DF90020FFF77AF93220FFF777F915
:102E10000020FFF774F92F20FFF771F90020FFF76A
:102E20006EF92C20FFF76BF90020FFF768F92920D5
:102E3000FFF765F90020FFF762F92620FFF75FF939
:102E40000020FFF75CF92420FFF759F90020FFF775
:102E500056F92420FFF753F90020FFF750F92320FB
:102E6000FFF74DF90020FFF74AF9C420FFF736F9C4
:102E70006220FFF744F90020FFF741F90520FFF732
:102E80003EF90020FFF73BF98420FFF738F90020D6
:102E9000FFF735F9F020FFF732F90020FFF72FF99F
:102EA0001820FFF72CF90020FFF729F9A420FFF7DD
:102EB00026F90020FFF723F91820FFF720F900205A
:102EC000FFF71DF95020FFF71AF90020FFF717F957
:102ED0000C20FFF714F90020FFF711F91720FFF776
:102EE0000EF90020FFF70BF99520FFF708F90020F5
:102EF000FFF705F9F320FFF702F90020FFF7FFF8CD
:102F0000E620FFF7FCF80020FFF7F9F8C520FFF7EF
:102F1000E5F83220FFF7F3F80020FFF7F0F844203F
:102F2000FFF7EDF80020FFF7EAF86520FFF7E7F874
:102F30000020FFF7E4F87620FFF7E1F80020FFF724
:102F4000DEF88820FFF7DBF80020FFF7D8F8C6206E
:102F5000FFF7C4F82020FFF7D2F80020FFF7CFF8E2
:102F60001720FFF7CCF80020FFF7C9F80120FFF782
:102F7000C6F80020FFF7C3F8C720FFF7AFF800201E
:102F8000FFF7BDF80020FFF7BAF80020FFF7B7F809
:102F90000020FFF7B4F8C820FFF7A0F80020FFF7E3
:102FA000AEF80020FFF7ABF80020FFF7A8F80020EC
:102FB000FFF7A5F8C920FFF791F80020FFF79FF869
:102FC0000020FFF79CF80020FFF799F80020FFF79A
:102FD00096F80020FFF793F80020FFF790F8002004
:102FE000FFF78DF80020FFF78AF80020FFF787F839
:102FF0000020FFF784F80020FFF781F80020FFF79A
:103000007EF80020FFF77BF80020FFF778F800201B
:10301000FFF775F80020FFF772F8E020FFF75EF881
:103020001620FFF76CF80020FFF769F81C20FFF767
:1030300066F80020FFF763F82120FFF760F8002012
:10304000FFF75DF83620FFF75AF80020FFF757F832
:103050004620FFF754F80020FFF751F85220FFF701
:103060004EF80020FFF74BF86420FFF748F80020E7
:10307000FFF745F87A20FFF742F80020FFF73FF806
:103080008B20FFF73CF80020FFF739F89920FFF775
:1030900036F80020FFF733F8A820FFF730F80020BB
:1030A000FFF72DF8B920FFF72AF80020FFF727F8DF
:1030B000C420FFF724F80020FFF721F8CA20FFF70B
:1030C0001EF80020FFF71BF8D220FFF718F80020A9
:1030D000FFF715F8D920FFF712F80020FFF70FF8D7
:1030E000E020FFF70CF80020FFF709F8F320FFF7C6
:1030F00006F80020FFF703F8E120FEF7EFFF1620A7
:10310000FEF7FDFF0020FEF7FAFF1C20FEF7F7FF99
:103110000020FEF7F4FF2220FEF7F1FF0020FEF76B
:10312000EEFF3620FEF7EBFF0020FEF7E8FF45201C
:10313000FEF7E5FF0020FEF7E2FF5220FEF7DFFF7B
:103140000020FEF7DCFF6420FEF7D9FF0020FEF729
:10315000D6FF7A20FEF7D3FF0020FEF7D0FF8B20AA
:10316000FEF7CDFF0020FEF7CAFF9920FEF7C7FF4C
:103170000020FEF7C4FFA820FEF7C1FF0020FEF7E5
:10318000BEFFB920FEF7BBFF0020FEF7B8FFC4204A
:10319000FEF7B5FF0020FEF7B2FFCA20FEF7AFFF33
:1031A0000020FEF7ACFFD220FEF7A9FF0020FEF7BB
:1031B000A6FFD820FEF7A3FF0020FEF7A0FFE02027
:1031C000FEF79DFF0020FEF79AFFF320FEF797FF22
:1031D0000020FEF794FFE220FEF780FF0520FEF7B7
:1031E0008EFF0020FEF78BFF0B20FEF788FF0020EC
:1031F000FEF785FF1B20FEF782FF0020FEF77FFF12
:103200003420FEF77CFF0020FEF779FF4420FEF714
:1032100076FF0020FEF773FF4F20FEF770FF0020BF
:10322000FEF76DFF6120FEF76AFF0020FEF767FFE3
:103230007920FEF764FF0020FEF761FF8820FEF78B
:103240005EFF0020FEF75BFF9720FEF758FF00208F
:10325000FEF755FFA620FEF752FF0020FEF74FFFB6
:10326000B720FEF74CFF0020FEF749FFC220FEF713
:1032700046FF0020FEF743FFC720FEF740FF002077
:10328000FEF73DFFD120FEF73AFF0020FEF737FFA3
:10329000D620FEF734FF0020FEF731FFDD20FEF7D9
:1032A0002EFF0020FEF72BFFF320FEF728FF002063
:1032B000FEF725FFE320FEF711FF0520FEF71FFFB5
:1032C0000020FEF71CFF0A20FEF719FF0020FEF782
:1032D00016FF1C20FEF713FF0020FEF710FF33201F
:1032E000FEF70DFF0020FEF70AFF4420FEF707FF60
:1032F0000020FEF704FF5020FEF701FF0020FEF73C
:10330000FEFE6220FEF7FBFE0020FEF7F8FE7820AE
:10331000FEF7F5FE0020FEF7F2FE8820FEF7EFFE36
:103320000020FEF7ECFE9720FEF7E9FE0020FEF7F6
:10333000E6FEA620FEF7E3FE0020FEF7E0FEB72043
:10334000FEF7DDFE0020FEF7DAFEC220FEF7D7FE14
:103350000020FEF7D4FEC720FEF7D1FE0020FEF7C6
:10336000CEFED120FEF7CBFE0020FEF7C8FED52012
:10337000FEF7C5FE0020FEF7C2FEDD20FEF7BFFE11
:103380000020FEF7BCFEF320FEF7B9FE0020FEF79A
:10339000B6FEE420FEF7A2FE0120FEF7B0FE0020FC
:1033A000FEF7ADFE0120FEF7AAFE0020FEF7A7FE05
:1033B0000220FEF7A4FE0020FEF7A1FE2A20FEF761
:1033C0009EFE0020FEF79BFE3C20FEF798FE0020AC
:1033D000FEF795FE4B20FEF792FE0020FEF78FFED3
:1033E0005D20FEF78CFE0020FEF789FE7420FEF7BC
:1033F00086FE0020FEF783FE8420FEF780FE00207C
:10340000FEF77DFE9320FEF77AFE0020FEF777FEA2
:10341000A220FEF774FE0020FEF771FEB320FEF737
:103420006EFE0020FEF76BFEBE20FEF768FE002059
:10343000FEF765FEC420FEF762FE0020FEF75FFE89
:10344000CD20FEF75CFE0020FEF759FED320FEF7EC
:1034500056FE0020FEF753FEDD20FEF750FE002052
:10346000FEF74DFEF320FEF74AFE0020FEF747FE72
:10347000E520FEF733FE0020FEF741FE0020FEF7B8
:103480003EFE0020FEF73BFE0020FEF738FE022045
:10349000FEF735FE0020FEF732FE2920FEF72FFE54
:1034A0000020FEF72CFE3C20FEF729FE0020FEF750
:1034B00026FE4B20FEF723FE0020FEF720FE5D20B7
:1034C000FEF71DFE0020FEF71AFE7420FEF717FE21
:1034D0000020FEF714FE8420FEF711FE0020FEF708
:1034E0000EFE9320FEF70BFE0020FEF708FEA22042
:1034F000FEF705FE0020FEF702FEB320FEF7FFFDFB
:103500000020FEF7FCFDBE20FEF7F9FD0020FEF7CF
:10351000F6FDC420FEF7F3FD0020FEF7F0FDCD2000
:10352000FEF7EDFD0020FEF7EAFDD320FEF7E7FDF4
:103530000020FEF7E4FDDC20FEF7E1FD0020FEF7B1
:10354000DEFDF320FEF7DBFD0020FEF7D8FDE620D0
:10355000FEF7C4FD1120FEF7D2FD0020FEF7CFFDDF
:103560003420FEF7CCFD0020FEF7C9FD5620FEF703
:10357000C6FD0020FEF7C3FD7620FEF7C0FD00204B
:10358000FEF7BDFD7720FEF7BAFD0020FEF7B7FD80
:103590006620FEF7B4FD0020FEF7B1FD8820FEF79F
:1035A000AEFD0020FEF7ABFD9920FEF7A8FD002040
:1035B000FEF7A5FDBB20FEF7A2FD0020FEF79FFD54
:1035C0009920FEF79CFD0020FEF799FD6620FEF78E
:1035D00096FD0020FEF793FD5520FEF790FD00209C
:1035E000FEF78DFD5520FEF78AFD0020FEF787FDD2
:1035F0004520FEF784FD0020FEF781FD4320FEF705
:103600007EFD0020FEF77BFD4420FEF778FD0020C4
:10361000FEF775FDE720FEF761FD3220FEF76FFD36
:103620000020FEF76CFD5520FEF769FD0020FEF737
:1036300066FD7620FEF763FD0020FEF760FD662044
:10364000FEF75DFD0020FEF75AFD6720FEF757FDEF
:103650000020FEF754FD6720FEF751FD0020FEF725
:103660004EFD8720FEF74BFD0020FEF748FD992018
:10367000FEF745FD0020FEF742FDBB20FEF73FFDB3
:103680000020FEF73CFD9920FEF739FD0020FEF7F3
:1036900036FD7720FEF733FD0020FEF730FD442095
:1036A000FEF72DFD0020FEF72AFD5620FEF727FD30
:1036B0000020FEF724FD2320FEF721FD0020FEF769
:1036C0001EFD3320FEF71BFD0020FEF718FD4520F0
:1036D000FEF715FD0020FEF712FDE820FEF7FEFCC8
:1036E0000020FEF70CFD0020FEF709FD9920FEF7F3
:1036F00006FD0020FEF703FD8720FEF700FD0020F9
:10370000FEF7FDFC8820FEF7FAFC0020FEF7F7FC30
:103710007720FEF7F4FC0020FEF7F1FC6620FEF7B0
:10372000EEFC0020FEF7EBFC8820FEF7E8FC002012
:10373000FEF7E5FCAA20FEF7E2FC0020FEF7DFFC26
:10374000BB20FEF7DCFC0020FEF7D9FC9920FEF739
:10375000D6FC0020FEF7D3FC6620FEF7D0FC00204C
:10376000FEF7CDFC5520FEF7CAFC0020FEF7C7FC93
:103770005520FEF7C4FC0020FEF7C1FC4420FEF7F4
:10378000BEFC0020FEF7BBFC4420FEF7B8FC002086
:10379000FEF7B5FC5520FEF7B2FC0020FEF7AFFCAB
:1037A000E920FEF79BFCAA20FEF7A9FC0020FEF70B
:1037B000A6FC0020FEF7A3FC0020FEF7A0FC0020E2
:1037C000FEF78CFCAA20FEF79AFCCF20FEF786FCC1
:1037D0000020FEF794FC0020FEF791FC0020FEF78D
:1037E0008EFC0020FEF78BFC0020FEF788FC0020FA
:1037F000FEF785FC0020FEF782FC0020FEF77FFC30
:103800000020FEF77CFC0020FEF779FC0020FEF78C
:1038100076FC0020FEF773FC0020FEF770FC002011
:10382000FEF76DFC0020FEF76AFC0020FEF767FC47
:103830000020FEF764FCF020FEF750FC0020FEF7AD
:103840005EFC5020FEF75BFC0020FEF758FC0020D9
:10385000FEF755FC0020FEF752FCF320FEF73EFC7D
:103860000020FEF74CFCF920FEF738FC0620FEF79E
:1038700046FC1020FEF743FC2920FEF740FC002008
:10388000FEF73DFC3A20FEF729FC5520FEF737FCF9
:103890001120FEF723FC6420FEF78EFB2920FEF7A3
:1038A0001DFC3520FEF71AFC0020FEF728FC5120F5
:1038B000FEF714FCFF20FEF722FC5320FEF70EFC5F
:1038C0002C20FEF71CFC5520FEF708FC8220FEF79A
:1038D00016FC2C20FEF702FCFEF7DFBE55214FF44C
:1038E0007040FEF72AFCAA214FF20100FEF725FCEA
:1038F00052214FF20200FEF720FC08214FF2030094
:10390000FEF71BFC01214FF20400FEF716FC0D210F
:103910004FF43040FEF711FC0D214BF20100FEF791
:103920000CFC0D214BF20200FEF707FC34214FF492
:103930003640FEF702FC34214BF20160FEF7FDFB3E
:1039400034214BF20260FEF7F8FB0D214FF43140B9
:10395000FEF7F3FB0D214BF20110FEF7EEFB0D21FC
:103960004BF20210FEF7E9FB34214FF43740FEF72B
:10397000E4FB34214BF20170FEF7DFFB34214BF204
:103980000270FEF7DAFB00214FF43240FEF7D5FB60
:1039900000214BF20120FEF7D0FB00214BF2022068
:1039A000FEF7CBFB24214FF43840FEF7C6FB242161
:1039B0004BF60100FEF7C1FB24214BF60200FEF797
:1039C000BCFB01214FF43F40FEF7B7FB0F214FF442
:1039D0003340FEF7B2FB0F214BF20130FEF7ADFB97
:1039E0000F214BF20230FEF7A8FB34214FF439408F
:1039F000FEF7A3FB34214BF60110FEF79EFB3421AA
:103A00004BF60210FEF799FB08214FF43540FEF704
:103A100094FB08214BF20150FEF78FFB08214BF27B
:103A20000250FEF78AFB03214FF44240FEF785FB6C
:103A300024214FF43A40FEF780FB24214BF601206D
:103A4000FEF77BFB24214BF60220FEF776FB0021DC
:103A50004FF43C40FEF771FB78214BF60140FEF736
:103A60006CFB00214BF60240FEF767FB00214FF490
:103A70003D40FEF762FB78214BF60150FEF75DFBFF
:103A800000214BF60250FEF758FB00214FF43E4058
:103A9000FEF753FB64214BF60160FEF74EFB00215D
:103AA0004FF45140FEF749FB33214DF20110FEF770
:103AB00044FB00214DF20210FEF73FFB34214DF292
:103AC0000310FEF73AFB00214DF20410FEF735FB20
:103AD0003A214DF20510FEF730FB00214DF20610A1
:103AE000FEF72BFB4A214DF20710FEF726FB0021C3
:103AF0004DF20810FEF721FB5C214DF20910FEF794
:103B00001CFB00214DF20A10FEF717FB81214DF23C
:103B10000B10FEF712FB00214DF20C10FEF70DFB0F
:103B2000A6214DF20D10FEF708FB00214DF20E10FC
:103B3000FEF703FBE5214DF20F10FEF7FEFA01211F
:103B40004DF21010FEF7F9FA13214DF21110FEF7A5
:103B5000F4FA01214DF21210FEF7EFFA54214DF262
:103B60001310FEF7EAFA01214DF21410FEF7E5FA00
:103B700082214DF21510FEF7E0FA01214DF21610E8
:103B8000FEF7DBFACA214DF21710FEF7D6FA022132
:103B90004DF21810FEF7D1FA00214DF21910FEF780
:103BA000CCFA02214DF21A10FEF7C7FA01214DF2AC
:103BB0001B10FEF7C2FA02214DF21C10FEF7BDFAEF
:103BC00034214DF21D10FEF7B8FA02214DF21E10FD
:103BD000FEF7B3FA67214DF21F10FEF7AEFA02218D
:103BE0004DF22010FEF7A9FA84214DF22110FEF7C4
:103BF000A4FA02214DF22210FEF79FFAA4214DF201
:103C00002310FEF79AFA02214DF22410FEF795FADE
:103C1000B7214DF22510FEF790FA02214DF2261041
:103C2000FEF78BFACF214DF22710FEF786FA02211C
:103C30004DF22810FEF781FADE214DF22910FEF731
:103C40007CFA02214DF22A10FEF777FAF2214DF2AA
:103C50002B10FEF772FA02214DF22C10FEF76DFACE
:103C6000FE214DF22D10FEF768FA03214DF22E10C1
:103C7000FEF763FA10214DF22F10FEF75EFA0321D2
:103C80004DF23010FEF759FA33214DF23110FEF7A4
:103C900054FA03214DF23210FEF74FFA6D214DF226
:103CA0003310FEF74AFA00214FF45240FEF745FA6E
:103CB00033214DF20120FEF740FA00214DF202209F
:103CC000FEF73BFA34214DF20320FEF736FA0021CD
:103CD0004DF20420FEF731FA3A214DF20520FEF7AD
:103CE0002CFA00214DF20620FEF727FA4A214DF268
:103CF0000720FEF722FA00214DF20820FEF71DFAF8
:103D00005C214DF20920FEF718FA00214DF20A203D
:103D1000FEF713FA81214DF20B20FEF70EFA002177
:103D20004DF20C20FEF709FAA6214DF20D20FEF708
:103D300004FA00214DF20E20FEF7FFF9E5214DF2C5
:103D40000F20FEF7FAF901214DF21020FEF7F5F9E8
:103D500013214DF21120FEF7F0F901214DF212204E
:103D6000FEF7EBF954214DF21320FEF7E6F901219D
:103D70004DF21420FEF7E1F982214DF21520FEF7F5
:103D8000DCF901214DF21620FEF7D7F9CA214DF2D8
:103D90001720FEF7D2F902214DF21820FEF7CDF9D7
:103DA00000214DF21920FEF7C8F902214DF21A2028
:103DB000FEF7C3F901214DF21B20FEF7BEF90221E7
:103DC0004DF21C20FEF7B9F934214DF21D20FEF70B
:103DD000B4F902214DF21E20FEF7AFF967214DF232
:103DE0001F20FEF7AAF902214DF22020FEF7A5F9C7
:103DF00084214DF22120FEF7A0F902214DF222206C
:103E0000FEF79BF9A4214DF22320FEF796F902213B
:103E10004DF22420FEF791F9B7214DF22520FEF74F
:103E20008CF902214DF22620FEF787F9CF214DF2C1
:103E30002720FEF782F902214DF22820FEF77DF9B6
:103E4000DE214DF22920FEF778F902214DF22A20D9
:103E5000FEF773F9F2214DF22B20FEF76EF90221E5
:103E60004DF22C20FEF769F9FE214DF22D20FEF7D0
:103E700064F903214DF22E20FEF75FF910214DF277
:103E80002F20FEF75AF903214DF23020FEF755F9A5
:103E900033214DF23120FEF750F903214DF232204B
:103EA000FEF74BF96D214DF23320FEF746F9002164
:103EB0004FF45340FEF741F933214DF20130FEF744
:103EC0003CF900214DF20230FEF737F934214DF272
:103ED0000330FEF732F900214DF20430FEF72DF9E0
:103EE0003A214DF20530FEF728F900214DF2063057
:103EF000FEF723F94A214DF20730FEF71EF90021A3
:103F00004DF20830FEF719F95C214DF20930FEF749
:103F100014F900214DF20A30FEF70FF981214DF21C
:103F20000B30FEF70AF900214DF20C30FEF705F9CF
:103F3000A6214DF20D30FEF700F900214DF20E30B2
:103F4000FEF7FBF8E5214DF20F30FEF7F6F8012100
:103F50004DF21030FEF7F1F813214DF21130FEF75B
:103F6000ECF801214DF21230FEF7E7F854214DF242
:103F70001330FEF7E2F801214DF21430FEF7DDF8C0
:103F800082214DF21530FEF7D8F801214DF216309E
:103F9000FEF7D3F8CA214DF21730FEF7CEF8022112
:103FA0004DF21830FEF7C9F800214DF21930FEF736
:103FB000C4F802214DF21A30FEF7BFF801214DF28C
:103FC0001B30FEF7BAF802214DF21C30FEF7B5F8AF
:103FD00034214DF21D30FEF7B0F802214DF21E30B3
:103FE000FEF7ABF867214DF21F30FEF7A6F802216D
:103FF0004DF22030FEF7A1F884214DF22130FEF77A
:104000009CF802214DF22230FEF797F8A4214DF2E0
:104010002330FEF792F802214DF22430FEF78DF89E
:10402000B7214DF22530FEF788F802214DF22630F7
:10403000FEF783F8CF214DF22730FEF77EF80221FC
:104040004DF22830FEF779F8DE214DF22930FEF7E7
:1040500074F802214DF22A30FEF76FF8F2214DF28A
:104060002B30FEF76AF802214DF22C30FEF765F88E
:10407000FE214DF22D30FEF760F803214DF22E3077
:10408000FEF75BF810214DF22F30FEF756F80321B2
:104090004DF23030FEF751F833214DF23130FEF75A
:1040A0004CF803214DF23230FEF747F86D214DF206
:1040B0003330FEF742F800214FF45440FEF73DF84C
:1040C00033214DF20140FEF738F800214DF2024055
:1040D000FEF733F834214DF20340FEF72EF80021AD
:1040E0004DF20440FEF729F83A214DF20540FEF763
:1040F00024F800214DF20640FEF71FF84A214DF248
:104100000740FEF71AF800214DF20840FEF715F8B7
:104110005C214DF20940FEF710F800214DF20A40F3
:10412000FEF70BF881214DF20B40FEF706F8002157
:104130004DF20C40FEF701F8A6214DF20D40FDF7BF
:10414000FCFF00214DF20E40FDF7F7FFE5214DF297
:104150000F40FDF7F2FF01214DF21040FDF7EDFF9A
:1041600013214DF21140FDF7E8FF01214DF21240FD
:10417000FDF7E3FF54214DF21340FDF7DEFF01216F
:104180004DF21440FDF7D9FF82214DF21540FDF7A5
:10419000D4FF01214DF21640FDF7CFFFCA214DF2A9
:1041A0001740FDF7CAFF02214DF21840FDF7C5FF89
:1041B00000214DF21940FDF7C0FF02214DF21A40D7
:1041C000FDF7BBFF01214DF21B40FDF7B6FF0221B9
:1041D0004DF21C40FDF7B1FF34214DF21D40FDF7BB
:1041E000ACFF02214DF21E40FDF7A7FF67214DF203
:1041F0001F40FDF7A2FF02214DF22040FDF79DFF79
:1042000084214DF22140FDF798FF02214DF222401A
:10421000FDF793FFA4214DF22340FDF78EFF02210D
:104220004DF22440FDF789FFB7214DF22540FDF7FF
:1042300084FF02214DF22640FDF77FFFCF214DF292
:104240002740FDF77AFF02214DF22840FDF775FF68
:10425000DE214DF22940FDF770FF02214DF22A4088
:10426000FDF76BFFF2214DF22B40FDF766FF0221B7
:104270004DF22C40FDF761FFFE214DF22D40FDF780
:104280005CFF03214DF22E40FDF757FF10214DF248
:104290002F40FDF752FF03214DF23040FDF74DFF57
:1042A00033214DF23140FDF748FF03214DF23240FA
:1042B000FDF743FF6D214DF23340FDF73EFF002136
:1042C0004FF45540FDF739FF33214DF20150FDF712
:1042D00034FF00214DF20250FDF72FFF34214DF243
:1042E0000350FDF72AFF00214DF20450FDF725FF92
:1042F0003A214DF20550FDF720FF00214DF2065006
:10430000FDF71BFF4A214DF20750FDF716FF002174
:104310004DF20850FDF711FF5C214DF20950FDF7F9
:104320000CFF00214DF20A50FDF707FF81214DF2ED
:104330000B50FDF702FF00214DF20C50FDF7FDFE82
:10434000A6214DF20D50FDF7F8FE00214DF20E5062
:10435000FDF7F3FEE5214DF20F50FDF7EEFE0121D2
:104360004DF21050FDF7E9FE13214DF21150FDF70B
:10437000E4FE01214DF21250FDF7DFFE54214DF213
:104380001350FDF7DAFE01214DF21450FDF7D5FE72
:1043900082214DF21550FDF7D0FE01214DF216504D
:1043A000FDF7CBFECA214DF21750FDF7C6FE0221E4
:1043B0004DF21850FDF7C1FE00214DF21950FDF7E6
:1043C000BCFE02214DF21A50FDF7B7FE01214DF25D
:1043D0001B50FDF7B2FE02214DF21C50FDF7ADFE61
:1043E00034214DF21D50FDF7A8FE02214DF21E5062
:1043F000FDF7A3FE67214DF21F50FDF79EFE02213F
:104400004DF22050FDF799FE84214DF22150FDF729
:1044100094FE02214DF22250FDF78FFEA4214DF2B1
:104420002350FDF78AFE02214DF22450FDF785FE50
:10443000B7214DF22550FDF780FE02214DF22650A6
:10444000FDF77BFECF214DF22750FDF776FE0221CE
:104450004DF22850FDF771FEDE214DF22950FDF797
:104460006CFE02214DF22A50FDF767FEF2214DF25B
:104470002B50FDF762FE02214DF22C50FDF75DFE40
:10448000FE214DF22D50FDF758FE03214DF22E5026
:10449000FDF753FE10214DF22F50FDF74EFE032184
:1044A0004DF23050FDF749FE33214DF23150FDF70A
:1044B00044FE03214DF23250FDF73FFE6D214DF2D7
:1044C0003350FDF73AFE00214FF45640FDF735FE1C
:1044D00033214DF20160FDF730FE00214DF2026004
:1044E000FDF72BFE34214DF20360FDF726FE00217F
:1044F0004DF20460FDF721FE3A214DF20560FDF713
:104500001CFE00214DF20660FDF717FE4A214DF218
:104510000760FDF712FE00214DF20860FDF70DFE69
:104520005C214DF20960FDF708FE00214DF20A60A2
:10453000FDF703FE81214DF20B60FDF7FEFD00212A
:104540004DF20C60FDF7F9FDA6214DF20D60FDF76F
:10455000F4FD00214DF20E60FDF7EFFDE5214DF277
:104560000F60FDF7EAFD01214DF21060FDF7E5FD5A
:1045700013214DF21160FDF7E0FD01214DF21260B3
:10458000FDF7DBFD54214DF21360FDF7D6FD01214F
:104590004DF21460FDF7D1FD82214DF21560FDF75B
:1045A000CCFD01214DF21660FDF7C7FDCA214DF289
:1045B0001760FDF7C2FD02214DF21860FDF7BDFD49
:1045C00000214DF21960FDF7B8FD02214DF21A608D
:1045D000FDF7B3FD01214DF21B60FDF7AEFD022199
:1045E0004DF21C60FDF7A9FD34214DF21D60FDF771
:1045F000A4FD02214DF21E60FDF79FFD67214DF2E3
:104600001F60FDF79AFD02214DF22060FDF795FD38
:1046100084214DF22160FDF790FD02214DF22260D0
:10462000FDF78BFDA4214DF22360FDF786FD0221ED
:104630004DF22460FDF781FDB7214DF22560FDF7B5
:104640007CFD02214DF22660FDF777FDCF214DF272
:104650002760FDF772FD02214DF22860FDF76DFD28
:10466000DE214DF22960FDF768FD02214DF22A603E
:10467000FDF763FDF2214DF22B60FDF75EFD022197
:104680004DF22C60FDF759FDFE214DF22D60FDF736
:1046900054FD03214DF22E60FDF74FFD10214DF228
:1046A0002F60FDF74AFD03214DF23060FDF745FD17
:1046B00033214DF23160FDF740FD03214DF23260B0
:1046C000FDF73BFD6D214DF23360FDF736FD5521C1
:1046D0004FF47040FDF731FDAA214FF20100FDF7C4
:1046E0002CFD52214FF20200FDF727FD08214FF269
:1046F0000300FDF722FD00214FF20400FDF71DFD30
:10470000CC214FF43140FDF718FD00214BF2011090
:10471000FDF713FD05214FF43640FDF70EFD702126
:104720004FF43740FDF709FD70214BF20170FDF7A2
:1047300004FD01214FF43840FDF7FFFC03214BF647
:104740000100FDF7FAFC03214BF60200FDF7F5FC32
:1047500003214BF60300FDF7F0FC02214FF43C402F
:10476000FDF7EBFC00214BF60140FDF7E6FC0021D4
:104770004BF60240FDF7E1FCD0214FF44940FDF734
:10478000DCFC02214CF60110FDF7D7FC50214CF661
:104790000210FDF7D2FC50214CF60310FDF7CDFCC2
:1047A00050214CF60410FDF7C8FC00214FF4545082
:1047B000FDF7C3FC55214FF46850FDF7BEFC4FF4E4
:1047C0008850FDF78BFC4FF42450FDF787FCFDF774
:1047D00064BFE220FDF782FC1D20FDF790FC022063
:1047E000FDF78DFC0420FDF78AFCE020FDF776FC48
:1047F0000120FDF784FC0A20FDF7DEFBE020FDF739
:104800006DFC0320FDF77BFC0C20FDF7D5FB0120A0
:10481000FDF764FC0A20FDF7CFFBE620FDF75EFC08
:104820002F20FDF76CFCFF20FDF769FCFF20FDF752
:1048300066FCB020FDF752FC2020FDF760FC002054
:10484000FDF75DFC0320FDF75AFC40F21F30FDF739
:1048500056FC0120FDF753FC40F2DF10FDF74FFC42
:104860000020FDF74CFCB420FDF738FC0420FDF7D8
:1048700046FC40F21F40FDF742FC0020FDF73FFCE4
:104880002E20FDF73CFC0020FDF739FC0020FDF751
:1048900036FC0020FDF733FC0020FDF730FCB6208D
:1048A000FDF71CFC0220FDF72AFC4FF40370FDF716
:1048B00026FC0020FDF723FC1720FDF720FC152027
:1048C000FDF71DFC0020FDF71AFC0020FDF717FC8A
:1048D000F020FDF703FC0320FDF711FC2920FDF774
:1048E000FDFBD020FDF7FAFB0020FDF708FCBE2001
:1048F000FDF7F4FB0520FDF702FCFE20FDF7FFFBB2
:104900000120FDF7FCFB0020FDF7F9FB0020FDF77F
:10491000F6FB0020FDF7F3FBB820FDF7DFFB0320DB
:10492000FDF7EDFB0120FDF7EAFBBA20FDF7D6FB12
:104930000120FDF7E4FB6420FDF79EFDFDF7ADBE11
:1049400010B58EB000230793089309930A930B9335
:104950000C930D9300930193029303930493059397
:1049600006931B484FF02042026002F582724260BB
:1049700006228260C3600361102242618361C361C9
:10498000036243624FF480518162C3624FF48041FD
:1049900001634363836343640F23079308933C21BC
:1049A00009910A210A910B9211210C91092400947A
:1049B000019308230293049205916A4607A900F027
:1049C0007DFF08B90EB010BDFCF7FEF8FAE700BF96
:1049D0004401002008B5FDF727FB08BD08B50A48CB
:1049E0000A4B03604FF4E133436000238360C360EC
:1049F00003610C2242618361C36101F063F800B975
:104A000008BDFCF7E1F8FBE70402002000100140BC
:104A100030B589B00023039304930593069307935D
:104A2000026803F1804303F588339A4201D009B04C
:104A300030BD04460025019503F594335A6C42F0CD
:104A400010025A645A6C02F010020192019A029507
:104A50001A6B42F001021A631B6B03F0010302930D
:104A6000029B4FF4C0630393022304930323069332
:104A70000723079303A91348FCF7ACFE1248134B16
:104A800003604FF00063436040238360C5604FF4D0
:104A90008063036145618561C56105624562FDF71B
:104AA00021F858B9084B63639C6300220521252037
:104AB000FDF710FA2520FDF745FAB8E7FCF784F872
:104AC000F0E700BF00000240A4010020B8640240EB
:104AD00010B5144692B2024801F024F8204610BDE9
:104AE000040200204FF0E0235A699A694FF0E02356
:104AF0009B699A42FAD0704770B50446002517E0CA
:104B000000224FF400611148FCF75DFF6400E4B23D
:104B10000F4E002201213046FCF755FF0120FFF720
:104B2000E1FF012211463046FCF74DFF0135EDB2A1
:104B3000072D09D814F0800FE2D001224FF4006154
:104B40000248FCF740FFE1E770BD00BF00140240DF
:104B50000004024070B505462A4C0022012120467F
:104B6000FCF731FF00224FF400612748FCF72BFFD0
:104B700000224FF400512548FCF725FF2846FFF797
:104B8000BBFF0620FFF7AEFF002201212046FCF705
:104B90001AFF0120FFF7A6FF012211462046FCF76D
:104BA00012FF0120FFF79EFF002201212046FCF7A3
:104BB0000AFF0024254601E00135EDB20F2D18D87B
:104BC0006400A4B20F4E002201213046FCF7FBFE28
:104BD0000120FFF787FF012211463046FCF7F3FE64
:104BE00004213046FCF7E8FE0028E5D00134A4B2E9
:104BF000E2E7240901224FF400510448FCF7E3FEE8
:104C0000204670BD0004024000140240000802402B
:104C100030B585B00546002409E02846FFF79AFF25
:104C200004AB03EB440323F80C0C0134A4B2042CB2
:104C3000F3D900201AE001339BB2042B15D804AA43
:104C400002EB400232F80C2C04A901EB430131F8CD
:104C50000C1C8A42EFD904AD05EB400C2CF80C1C5F
:104C600005EB430121F80C2CE5E72046032803D887
:104C7000441CA4B22346E0E70020012308E004AA74
:104C800002EB430232F80C2C104480B201339BB289
:104C9000032BF4D9034BA3FB0030C0F34F0005B046
:104CA00030BD00BFABAAAAAA70B505460C46064B9C
:104CB0001878FFF7ADFF0646044B1878FFF7A8FFFA
:104CC0002E802080012070BD0C0000200D000020EF
:104CD00030B583B005460C4601A90DF10600FFF77B
:104CE000E3FF08B903B030BD69460DF10200FFF7DC
:104CF000DBFF0028F6D0BDF80230BDF80620934255
:104D000003D803F13101914205DA93421ED302F137
:104D1000310199421CDBBDF80000BDF80410884247
:104D200003D800F1310C8C4504DA884212D33131BA
:104D3000814211DB13445B102B80BDF80430BDF8B9
:104D4000002013445B1023800120CBE70020C9E73B
:104D50000020C7E70020C5E70020C3E710B50446E0
:104D60004FF480613548FCF727FE00284FD1C4B1CD
:104D7000334800F116010C30FFF7AAFF304B93F9CE
:104D80002030002B07DB2E4BC02283F820209A898D
:104D90009A82DA8ADA832A4B93F8200000F08000A6
:104DA00010BD274800F116010C30FFF791FF0028D5
:104DB000E4D0234B93ED097A9A8907EE902AF8EE16
:104DC000E77A27EE877AB3F92C2007EE902AF8EEDF
:104DD000E77A77EE877AFCEEE77A17EE902A9A81E7
:104DE00093ED0A7ADA8A07EE902AF8EEE77A27EE50
:104DF000877AB3F92E2007EE902AF8EEE77A77EE5D
:104E0000877AFCEEE77A17EE902ADA82B6E70C4B47
:104E100093F8202093F92030002B08DB084B002268
:104E20009A82DA834FF6FF729A81DA82B3E702F050
:104E30007F02034B83F82020ADE700BF001402403F
:104E40001000002008B50520FFF74CFE08BD00004B
:104E5000F0B589B000220092214B196B41F002019C
:104E60001963196B01F00201009100990192196B0D
:104E700041F020011963196B01F0200101910199A2
:104E800002921A6B42F004021A631B6B03F00403D4
:104E90000293029B01240394049405940223069335
:104EA000104D03A92846FCF795FC4FF400670397C3
:104EB0000D4E03A93046FCF78DFC4FF400530393CD
:104EC00003A90A48FCF786FC224639463046FCF71F
:104ED0007AFD224621462846FCF775FD09B0F0BD53
:104EE0000038024000040240001402400008024062
:104EF00038B5134C236823F440032360236843F43C
:104F00008003236001224FF400612046FCF75BFD23
:104F10000C4D012211462846FCF755FD1E20FFF7D7
:104F2000E1FD00224FF400612046FCF74CFDFFF745
:104F300089FF002201212846FCF745FD38BD00BF4E
:104F4000001402400004024010B5104C236823F402
:104F500040032360236843F4800323600122114649
:104F60000B48FCF730FD1E20FFF7BCFD00224FF47C
:104F700000612046FCF727FDFFF764FF01224FF494
:104F800000612046FCF71FFD10BD00BF0014024069
:104F90000004024038B51748036823F44003036057
:104FA0000368036001224FF40061FCF70CFD01224D
:104FB00011461148FCF707FDFFF744FF00244FF4AA
:104FC00000610C48FCF7F8FC0546012809D10134C2
:104FD000E4B2FA2C02D8FFF735FFF0E7FFF7B4FF91
:104FE00005E0002201210448FCF7EDFC00252846DD
:104FF00038BD00BF001402400004024038B5134D14
:10500000002201212846FCF7DEFC114C236823F422
:1050100040032360236843F480032360FFF712FFFB
:1050200000224FF400612046FCF7CDFCFFF70AFF99
:10503000012211462846FCF7C6FCFFF703FF0022B9
:1050400001212846FCF7BFFC38BD00BF0004024028
:105050000014024038B5134D002201212846FCF708
:10506000B2FC114C236823F440032360236843F40B
:1050700080032360FFF7E6FE01224FF40061204623
:10508000FCF7A1FCFFF7DEFE012211462846FCF7E3
:105090009AFCFFF7D7FE002201212846FCF793FC7B
:1050A00038BD00BF000402400014024070B5044641
:1050B000164B1A6822F440021A601A6842F4800201
:1050C0001A60002201211248FCF77DFCFFF7BAFEAE
:1050D000002518E0E2094FF400610C48FCF773FC6E
:1050E0006400E4B20A4E012211463046FCF76BFC24
:1050F000FFF7A8FE002201213046FCF764FCFFF711
:10510000A1FE0135EDB2072DE4D970BD00140240B7
:1051100000040240F8B504460F461546FFF7E8FEC6
:105120002820FFF7C3FFFFF735FF200AFFF7BEFF78
:10513000FFF730FFE0B2FFF7B9FFFFF72BFF0026C4
:10514000344601E00134E4B2AC4207D2385DFFF7E7
:10515000ADFFFFF71FFF06460028F3D0FFF7F4FE70
:105160003046F8BD00B583B000238DF804308DF8CB
:10517000050008E00F4AD25C9DF804100A448DF83F
:1051800004200133DBB2B72BF4D99DF804305B4225
:105190008DF80430B822074948F24700FFF7BAFFFC
:1051A000022201A948F2FF00FFF7B4FF002003B07C
:1051B0005DF804FB90D80208F8B50746184B1A684A
:1051C00022F440021A601A681A601E20FFF78AFC57
:1051D0000024254601E00135EDB2072D18D8114E07
:1051E000002201213046FCF7EEFBFFF72BFE0122E7
:1051F00011463046FCF7E7FB6400E4B24FF400616F
:105200000748FCF7D9FB0128E5D10134E4B2E2E715
:105210001FB9FFF71FFF2046F8BDFFF7EFFEFAE7C3
:10522000001402400004024070B504460E461546C4
:10523000FFF75EFE2820FFF739FFFFF7ABFE200ADD
:10524000FFF734FFFFF7A6FEE0B2FFF72FFFFFF7EF
:10525000A1FEFFF74DFE2920FFF728FFFFF79AFE7A
:10526000002408E0681E201A18BF0120FFF7A4FFE1
:1052700030550134E4B2AC42F4D3FFF765FE70BDA3
:105280002DE9F0478AB000240194454B1A6B42F097
:1052900002021A631A6B02F002020192019A02944E
:1052A0001A6B42F004021A631B6B03F004030293AF
:1052B000029B4FF0020ACDF80CA00494012505953D
:1052C0004FF00309CDF81890DFF8E88003A94046B5
:1052D000FCF780FA4FF4005703970495314E03A969
:1052E0003046FCF777FAFFF7B3FD224639463046E1
:1052F000FCF769FB0A20FCF75FFE2A463946304678
:10530000FCF761FB0A20FCF757FECDF80CA00495D2
:105310000594CDF8189003A94046FCF75BFA642089
:10532000FCF74AFE042208A948F24010FFF77CFF70
:105330008DF824406420FCF73FFE08A91A4827F0A6
:105340005BF81A4908A8FAF743FF18B100200AB021
:10535000BDE8F0878DF820A02A4608A948F2400051
:10536000FFF7D8FE2A4608A948F24700FFF75CFF7E
:105370009DF820105F290CD90A20FCF71DFE0023A0
:105380008DF82030012208A948F24000FFF7C2FE44
:10539000DCE7074827F030F82846FFF7E3FEEBE7A5
:1053A000003802400008024058D8020864D80208B9
:1053B0006CD802080004024008B5134B9A8845F2E5
:1053C00010539A4204D0114827F09CF8012008BDE0
:1053D000FFF756FF98B90E4B0E4A5A600C4991F8E8
:1053E000303043F0800281F83020074B93F90630CB
:1053F00003F00103134381F830300020E7E703484E
:1054000027F080F8EAE700BF9401002080D8020866
:10541000100000201954000870B584B08DF8070002
:10542000724B1A780132D2B21A70714BA3FB02137D
:10543000DB0803EB8303A2EB430313F0FF0F02D05F
:10544000092A00F2AD8001220DF1070148F24E1049
:10545000FFF7EAFE9DF807309DF90720002A1CDBC4
:105460009DF8070000F00F00002800F09A80052842
:1054700000F2A680FF238340DBB28DF80B305D4A3B
:1054800092F82050DB4363F03F0382F82030938989
:105490009382D38AD383002426E003F00F03052BE5
:1054A000DED800238DF80B3001220DF10B0148F2FC
:1054B0004E10FFF72FFED3E79DF80D309DF80C102E
:1054C00001EB03214B4A231D02EB430399809DF816
:1054D0000F309DF80E1001EB032104F1080302EBDD
:1054E0004303D9800134E4B2042C2DD8414B93F806
:1054F0002030234113F0010FF4D0042203A93E4BC6
:1055000033F81400FFF790FE3A4B93F8303013F065
:10551000010FD1D09DF80D309DF80C2002EB032235
:10552000344904F1080301EB4303DA809DF80F309E
:105530009DF80E2002EB032292B2C2F54872231DA1
:1055400001EB43018A80CDE72A4B9A892B4B1B88BC
:105550009A4205D8274BDA8A284B5B889A421AD997
:105560009DF8073013F00E0F09D0224BDA899A818B
:105570001A8BDA821D4B00221A70012011E01D4B9C
:105580009A8A9A81DA8BDA8280228DF8072083F852
:105590002050012005E0154B00221A70012000E088
:1055A00000209DF8073003F08F03802B0AD00F4BAB
:1055B0001B78F02B02D90D4B0A221A7004B070BD73
:1055C0000020EEE70B4B93F8202093F92030002BBE
:1055D00005DB084B4FF6FF729A81DA82E7E702F0AB
:1055E0007F02044B83F82020E1E700BF480200203F
:1055F000CDCCCCCC1000002048D90208940100206A
:1056000010B51BF093FB0BF09DF822F02DFC0F4C16
:105610002060002123F048F90121206823F0B8F927
:105620000B49206823F0E8F8962120680EF084FAF0
:1056300000220221206811F02AFD6FF027030022CA
:10564000092120680EF04CFB10BD00BF4C02002069
:1056500054D902082DE9F04782461446B1F900906A
:105660001FFA89F9B1F902801FFA88F8B1F90450DC
:10567000ADB2B1F90670BFB2A5EB0905ADB2013507
:10568000ADB2A7EB0807BFB20137BFB200260BE0EF
:1056900034F8021B4FF0D842A2F8801001339BB2BD
:1056A000AB42F5D30136B6B2BE4209D206EB0801D1
:1056B00089B24846FCF752FDFCF746FD0023EFE7B0
:1056C00050461BF078FBBDE8F08708B5FCF7B2FF49
:1056D0000020FCF7F9FE08BD38B5FFF7F6FF0C4DCA
:1056E0004FF496530B4A0C4928461BF089FA0B4C91
:1056F00020461BF06AFA4FF4F07323804FF448738E
:105700006380074BE360656020461BF087FA38BD75
:10571000884D0020D027002050020020504D00204E
:105720005556000808B5024B1B68984708BD00BFD6
:105730001000002010B5064C63680020984794F9CB
:105740002030002B01DB002010BD0120FCE700BF52
:105750001000002070B506460C46054D6B68002011
:105760009847B5F90C303380B5F91630238070BDF9
:105770001000002010B50C46FFF7DCFF48B90023ED
:10578000A373074BB3F900302380064B1B8863805B
:1057900010BD04490248FFF7DDFF0123A373F0E7C2
:1057A000D04D0020D24D002010B5FFF7BBFF074CB5
:1057B00020461BF018FB01232370054B6360204635
:1057C0001BF026FB034B186010BD00BFAC4D002042
:1057D00075570008CC4D002070B40C6850F8243088
:1057E000134E1E404A688D6842EA0503CA68134397
:1057F0000A6913434A6913438A691343CA69134305
:105800000A6A13434A6A13438A6A1343CA6A1343F0
:10581000CA6B13430A6B13433343082D04D040F87B
:105820002430002070BC704743F04003F7E700BF0E
:105830008000F0FF10B5013250F8223003F0404CE8
:105840000B684C6843EA04138C6843EA0423CC6871
:1058500043EA04430C6904F1FF3E43EA0E534C69EA
:10586000A4F1020E43EA0E6389690B4343EA0C0379
:1058700040F82230002010BDB3F5804F05D06FF006
:10588000704340F822300020704730B450F8223086
:10589000094C1C400B684D6843EA05138D6843EAC8
:1058A0000523CD6843EA054389690B43234340F848
:1058B0002230002030BC70470000F0CF28B370B514
:1058C0000E461546044690F84930CBB1214651F8B2
:1058D000080BFFF781FFA26831462068FFF7AAFF97
:1058E000236BA26829466068FFF7C6FF2268A1689B
:1058F00052F8213043F0010342F82130002070BDFE
:1059000080F84830FFF766F8E0E70120704702684A
:10591000D36823F0C003D360202380F83D30704764
:105920000268D36823F49073D3600268536923F04C
:1059300001035361036B012B05D0202380F83E3017
:105940000023036370470268D36823F01003D36019
:10595000F3E790F83D30DBB2212B01D002207047F5
:105960008368B3F5805F17D0036A5A1C02621A7805
:1059700003685A60C38C9BB2013B9BB2C3844BB992
:105980000268D36823F08003D3600268D36843F0D1
:105990004003D360002070470369002BE4D1036A01
:1059A0001B880268C3F308035360036A023303626F
:1059B000E0E7000038B504460268136923F4405359
:1059C000C1680B431361836802691343426913433F
:1059D000C2691A430168CB6823F4164323F00C0311
:1059E0001343CB600268536923F4407381690B430E
:1059F00053610368314A934206D002F580629342B4
:105A000002D0FBF7A9FE01E0FBF7B6FEE369B3F5B0
:105A1000004F29D00021031849411B1841F1000112
:105A2000C90041EA5371DB00181863684FEA83022A
:105A30004FEA937341F10001FAF738FF204DA5FBBF
:105A400000325109642303FB11031B013233A5FB10
:105A500003235B0903F0F00202EB011203F00F03D2
:105A6000216813448B6038BD0023021843EB030107
:105A7000121841F10001C90041EA5271D200101818
:105A800041F10001626892185B41FAF70FFF0C4D7B
:105A9000A5FB00325109642303FB1103DB00323301
:105AA000A5FB03235B095A0002F4F87202EB011212
:105AB00003F00703216813448B60D4E70010014012
:105AC0001F85EB5158B310B5044690F83D300BB329
:105AD000242384F83D302268D36823F40053D36034
