:020000040800F2
:1000000000000120F55300080144000803440008E3
:1000100005440008074400080944000800000000E7
:100020000000000000000000000000000B44000879
:100030000D440008000000000F44000811440008AF
:100040003D5400083D5400083D5400083D5400084C
:100050003D5400083D5400083D5400083D5400083C
:100060003D5400083D5400083D5400083D5400082C
:100070003D5400083D5400083D5400083D5400081C
:100080003D5400083D5400083D5400083D5400080C
:100090003D5400083D5400083D5400083D540008FC
:1000A0003D5400083D5400083D5400083D540008EC
:1000B0003D5400083D5400083D5400083D540008DC
:1000C0003D5400083D5400083D5400083D540008CC
:1000D0003D5400083D5400083D5400083D540008BC
:1000E0003D5400083D5400083D5400083D540008AC
:1000F0003D5400083D5400083D5400083D5400089C
:100100003D5400083D5400083D5400083D5400088B
:100110003D5400083D5400083D5400083D5400087B
:100120003D5400083D5400083D5400083D5400086B
:1001300000000000000000000000000000000000BF
:1001400000000000000000000000000000000000AF
:10015000000000000000000000000000000000009F
:10016000000000000000000000000000000000008F
:10017000000000000000000000000000000000007F
:10018000000000000000000000000000000000006F
:10019000000000000000000000000000000000005F
:1001A000000000000000000000000000000000004F
:1001B000000000000000000000000000000000003F
:1001C000000000000000000000000000000000002F
:1001D000000000000000000000000000000000001F
:0401E0005FF8E0F1F3
:1001E80010B5054C237833B9044B13B10448AFF369
:1001F80000800123237010BDB4000020000000001F
:10020800A464000808B5034B1BB103490348AFF3C6
:10021800008008BD00000000B8000020A4640008A9
:1002280010F8012B11F8013B012A28BF9A42F7D098
:10023800D01A704770B54FF0FF0C4CF4E06C1CEA14
:1002480011541DBF1CEA135594EA0C0F95EA0C0FC4
:1002580000F0DEF82C4481EA030621EA4C5123EA37
:100268004C5350EA013518BF52EA033541F4801166
:1002780043F4801338D0A0FB02CE4FF00005E1FB19
:1002880002E506F00042E0FB03E54FF00006E1FB63
:1002980003569CF0000F18BF4EF0010EA4F1FF04A6
:1002A800B6F5007F64F5407404D25FEA4E0E6D41E6
:1002B80046EB060642EAC62141EA55514FEAC520F7
:1002C80040EA5E504FEACE2EB4F1FD0C88BFBCF573
:1002D800E06F1ED8BEF1004F08BF5FEA500E50F124
:1002E800000041EB045170BD06F0004646EA0101EA
:1002F80040EA020081EA0301B4EB5C04C2BFD4EB1C
:100308000C0541EA045170BD41F480114FF0000E14
:10031800013C00F3AB8014F1360FDEBF002001F082
:10032800004170BDC4F10004203C35DA0C341BDCFC
:1003380004F11404C4F1200500FA05F320FA04F0CE
:1003480001FA05F240EA020001F0004221F0004102
:1003580010EBD37021FA04F642EB06015EEA430E75
:1003680008BF20EAD37070BDC4F10C04C4F12005A5
:1003780000FA04F320FA05F001FA04F240EA020058
:1003880001F0004110EBD37041F100015EEA430E29
:1003980008BF20EAD37070BDC4F1200500FA05F249
:1003A8004EEA020E20FA04F301FA05F243EA0203C8
:1003B80021FA04F001F0004121FA04F220EA0200D7
:1003C80000EBD3705EEA430E08BF20EAD37070BD1D
:1003D80094F0000F0FD101F00046400041EB0101FD
:1003E80011F4801F08BF013CF7D041EA060195F0DF
:1003F800000F18BF704703F00046520043EB030399
:1004080013F4801F08BF013DF7D043EA0603704785
:1004180094EA0C0F0CEA135518BF95EA0C0F0CD090
:1004280050EA410618BF52EA4306D1D181EA0301D6
:1004380001F000414FF0000070BD50EA410606BFD0
:100448001046194652EA430619D094EA0C0F02D115
:1004580050EA013613D195EA0C0F05D152EA03365A
:100468001CBF104619460AD181EA030101F0004178
:1004780041F0FE4141F470014FF0000070BD41F0C1
:10048800FE4141F4780170BD4FF0FF0C1CEAD052D8
:100498001EBF1CEAD15392EA0C0F93EA0C0F6FD0DF
:1004A8001A4480EA010C400218BF5FEA41211ED0BD
:1004B8004FF0006343EA501043EA5111A0FB0131A9
:1004C8000CF00040B1F5000F3EBF490041EAD3717E
:1004D8005B0040EA010062F17F02FD2A1DD8B3F1FA
:1004E800004F40EBC25008BF20F00100704790F069
:1004F800000F0CF0004C08BF49024CEA502040EABB
:1005080051207F3AC2BFD2F1FF0340EAC250704780
:1005180040F400004FF00003013A5DDC12F1190FBE
:10052800DCBF00F000407047C2F10002410021FA30
:1005380002F1C2F1200200FA02FC5FEA310040F148
:10054800000053EA4C0308BF20EADC70704792F0C1
:10055800000F00F0004C02BF400010F4000F013AF9
:10056800F9D040EA0C0093F0000F01F0004C02BFF4
:10057800490011F4000F013BF9D041EA0C018FE763
:100588000CEAD15392EA0C0F18BF93EA0C0F0AD069
:1005980030F0004C18BF31F0004CD8D180EA01008F
:1005A80000F00040704790F0000F17BF90F0004F28
:1005B800084691F0000F91F0004F14D092EA0C0F0A
:1005C80001D142020FD193EA0C0F03D14B0218BF9D
:1005D800084608D180EA010000F0004040F0FE40E3
:1005E80040F40000704740F0FE4040F4400070477F
:1005F80081F0004102E000BF83F0004330B54FEACC
:1006080041044FEA430594EA050F08BF90EA020F38
:100618001FBF54EA000C55EA020C7FEA645C7FEACB
:10062800655C00F0E2804FEA5454D4EB5555B8BFEE
:100638006D420CDD2C4480EA020281EA030382EA5F
:10064800000083EA010180EA020281EA0303362DF1
:1006580088BF30BD11F0004F4FEA01314FF4801CC4
:100668004CEA113102D0404261EB410113F0004FD6
:100678004FEA03334CEA133302D0524263EB43038D
:1006880094EA050F00F0A780A4F10104D5F1200E2B
:100698000DDB02FA0EFC22FA05F2801841F1000186
:1006A80003FA0EF2801843FA05F359410EE0A5F15A
:1006B80020050EF1200E012A03FA0EFC28BF4CF08B
:1006C800020C43FA05F3C01851EBE37101F0004541
:1006D80007D54FF0000EDCF1000C7EEB00006EEB4E
:1006E8000101B1F5801F1BD3B1F5001F0CD34908D8
:1006F8005FEA30004FEA3C0C04F101044FEA44522F
:1007080012F5800F80F09A80BCF1004F08BF5FEAB5
:10071800500C50F1000041EB045141EA050130BD95
:100728005FEA4C0C404141EB0101013C28BFB1F5A7
:10073800801FE9D291F0000F04BF01460020B1FAF2
:1007480081F308BF2033A3F10B03B3F120020CDAC5
:100758000C3208DD02F1140CC2F10C0201FA0CF0A3
:1007680021FA02F10CE002F11402D8BFC2F1200C08
:1007780001FA02F120FA0CFCDCBF41EA0C019040BE
:10078800E41AA2BF01EB0451294330BD6FEA040407
:100798001F3C1CDA0C340EDC04F11404C4F12002F2
:1007A80020FA04F001FA02F340EA030021FA04F304
:1007B80045EA030130BDC4F10C04C4F1200220FA5B
:1007C80002F001FA04F340EA0300294630BD21FA99
:1007D80004F0294630BD94F0000F83F4801306BF5F
:1007E80081F480110134013D4EE77FEA645C18BF53
:1007F8007FEA655C29D094EA050F08BF90EA020FEA
:1008080005D054EA000C04BF1946104630BD91EAE1
:10081800030F1EBF0021002030BD5FEA545C05D1E4
:100828004000494128BF41F0004130BD14F5800423
:100838003CBF01F5801130BD01F0004545F0FE4197
:1008480041F470014FF0000030BD7FEA645C1ABFCC
:10085800194610467FEA655C1CBF0B46024650EA03
:10086800013406BF52EA033591EA030F41F400212F
:1008780030BD00BF90F0000F04BF0021704730B5B5
:100888004FF4806404F132044FF000054FF000018A
:1008980050E700BF90F0000F04BF0021704730B54B
:1008A8004FF4806404F1320410F0004548BF404220
:1008B8004FF000013EE700BF42004FEAE2014FEA75
:1008C80031014FEA02701FBF12F07F4393F07F4F50
:1008D80081F06051704732F07F4208BF704793F053
:1008E8007F4F04BF41F40021704730B54FF4607466
:1008F80001F0004521F000411CE700BF50EA010269
:1009080008BF704730B54FF000050AE050EA010211
:1009180008BF704730B511F0004502D5404261EB81
:1009280041014FF4806404F132045FEA915C3FF4C2
:10093800D8AE4FF003025FEADC0C18BF03325FEA5F
:10094800DC0C18BF033202EBDC02C2F1200300FA10
:1009580003FC20FA02F001FA03FE40EA0E0021FA35
:1009680002F11444BDE600BF4A0011D212F500128C
:1009780011D20DD56FF47873B3EB62520ED44FEAEF
:10098800C12343F0004343EA505323FA02F070476F
:100998004FF00000704750EA013002D14FF0FF30AD
:1009A80070474FF00000704780F0004002E000BF41
:1009B80081F0004142001FBF5FEA410392EA030F42
:1009C8007FEA226C7FEA236C6AD04FEA1262D2EB8C
:1009D8001363C1BFD218414048404140B8BF5B4291
:1009E800192B88BF704710F0004F40F4000020F02A
:1009F8007F4018BF404211F0004F41F4000121F040
:100A08007F4118BF494292EA030F3FD0A2F1010289
:100A180041FA03FC10EB0C00C3F1200301FA03F1C7
:100A280000F0004302D5494260EB4000B0F5000FEA
:100A380013D3B0F1807F06D340084FEA310102F1A9
:100A48000102FE2A51D2B1F1004F40EBC25008BF5B
:100A580020F0010040EA03007047490040EB000025
:100A6800013A28BFB0F5000FEDD2B0FA80FCACF126
:100A7800080CB2EB0C0200FA0CF0AABF00EBC25053
:100A880052421843BCBFD0401843704792F0000F41
:100A980081F4000106BF80F400000132013BB5E794
:100AA8004FEA41037FEA226C18BF7FEA236C21D00A
:100AB80092EA030F04D092F0000F08BF084670476F
:100AC80090EA010F1CBF0020704712F07F4F04D13D
:100AD800400028BF40F00040704712F100723CBF50
:100AE80000F50000704700F0004343F0FE4040F47A
:100AF800000070477FEA226216BF08467FEA236338
:100B08000146420206BF5FEA412390EA010F40F422
:100B1800800070474FF0000304E000BF10F000436E
:100B280048BF40425FEA000C08BF704743F0964355
:100B380001464FF000001CE050EA010208BF704770
:100B48004FF000030AE000BF50EA010208BF7047F7
:100B580011F0004302D5404261EB41015FEA010C0C
:100B680002BF84460146002043F0B64308BFA3F104
:100B78008053A3F50003BCFA8CF2083AA3EBC253E6
:100B880010DB01FA02FC634400FA02FCC2F1200205
:100B9800BCF1004F20FA02F243EB020008BF20F03C
:100BA8000100704702F1200201FA02FCC2F12002A2
:100BB80050EA4C0021FA02F243EB020008BF20EA97
:100BC800DC70704742000ED2B2F1FE4F0BD34FF0EB
:100BD8009E03B3EB126209D44FEA002343F00043AB
:100BE80023FA02F070474FF00000704712F1610FCE
:100BF80001D1420202D14FF0FF3070474FF00000A0
:100C0800704700BF10B586B02EE04FF6FF7206ABF6
:100C180003EB840323F8142C0134E4B2042C20D809
:100C2800144B93F820302146234113F0010FECD0E8
:100C3800231D104A02EB43039A880F4B1B889A42E4
:100C4800EAD208310B4B03EB4101CA880A4B5B8897
:100C58009A42E1D2074BDA8A9989084804F018FCCD
:100C6800DAE7052003F0BEFC024B5B6800209847DA
:100C78000024D3E70C000020B4010020BC64000865
:100C880072B6FEE700B591B02822002106A804F04C
:100C9800F7FB002301930293039304930593012226
:100CA80006924FF4803307930A9202220D920E9314
:100CB8004FF4E0130F9306A803F0BEFC80B90F238E
:100CC800019302210291002303934FF4806204925E
:100CD800059301A803F0EEFE20B911B05DF804FBFE
:100CE800FFF7CEFFFFF7CCFF08B503F057FCFFF77F
:100CF800C9FF00F037F800F0DFF800F07FF900F0E6
:100D08002DF901221146124804F0D7F800F08CFCA6
:100D1800002000F0D1FB4FF6FF7000F069FC0D4B8E
:100D28004FF6FF721A600C4B00221A600B4B1B68BF
:100D3800984740F2DC5003F055FC2021084804F0A5
:100D4800C2F8064B93F93030002BF2DAFFF75AFF5E
:100D5800000C014004000020000000200C000020CE
:100D6800001801402DE9F0418AB000240694079448
:100D7800089409942C4B9A6942F040029A619A6946
:100D880002F040020092009A9A6942F010029A61B9
:100D98009A6902F010020192019A9A6942F00802D7
:100DA8009A619A6902F008020292029A9A6942F4D8
:100DB80080729A619A6902F480720392039A9A691E
:100DC80042F020029A619A6902F020020492049A81
:100DD8009A6942F004029A619B6903F0040305933F
:100DE800059BDFF8488022462021404604F065F83C
:100DF8000F4E22460121304604F05FF82023069367
:100E08000125079508940227099706A9404603F08B
:100E18002DFF069507950894099706A9304603F013
:100E280025FF0AB0BDE8F08100100240001801401B
:100E3800000C014030B587B000230293039304935C
:100E48000593184B1B680BB107B030BD154B012239
:100E58001A60154B5A6942F480725A615B6903F44F
:100E680080730193019B41F20103029302250395CC
:100E78000324059402A90D4803F0F8FE4FF6807389
:100E880002930395059402A9094803F0EFFE4CF27A
:100E9800337302930395059402A9064803F0E6FE0E
:100EA800D2E700BFD000002000100240002001401F
:100EB800001801400014014010B58EB000230793BC
:100EC800089309930A930B930C930D930093019342
:100ED800029303930493059306931C484FF0204212
:100EE800026002F58272426006228260C36003617A
:100EF800102242618361C361036243624FF48051EF
:100F08008162C3624FF480410163436383630123B9
:100F180007930F230893022409940A930B92112133
:100F28000C91019302940393049205916A4607A9D0
:100F380004F030F830B9064AD36943F48063D361CA
:100F48000EB010BDFFF79CFEF5E700BFD4000020EF
:100F58000000014008B5FFF76DFF08BD08B50B4854
:100F68000B4B03600B4B436000238360C3604FF45B
:100F78008042026143618361C361036204F03CF80B
:100F880000B908BDFFF77CFEFBE700BF1C0100208D
:100F980000580040A086010010B586B000230293D7
:100FA8000393049305930268114B9A4201D006B04B
:100FB80010BD104CA36943F00803A361A36903F0B3
:100FC80008030093009B4FF440630293122303939A
:100FD8000323059302A9084803F048FEE36943F494
:100FE8008003E361E36903F480030193019BDEE777
:100FF8000058004000100240000C014008B50A48A3
:101008000A4B03604FF4E133436000238360C360FD
:1010180003610C2242618361C36104F04BF900B99A
:1010280008BDFFF72DFEFBE77001002000380140E6
:1010380010B586B0002302930393049305930268C6
:10104800174B9A4201D006B010BD03F558439A6970
:1010580042F480429A619A6902F480420092009AAE
:101068009A6942F004029A619B6903F004030193B0
:10107800019B4FF400730293022303930323059308
:10108800084C02A9204603F0F1FD4FF48063029357
:1010980000230393049302A9204603F0E7FDD2E757
:1010A800003801400008014010B514464FF6FF73A0
:1010B80092B2024804F02DF9204610BD70010020BC
:1010C80082B0ADF80600BDF806309BB2ADF8063028
:1010D800BDF806309BB2024AA2F8FE3002B0704753
:1010E8000007006C82B0ADF80600BDF806309BB270
:1010F800ADF80630BDF806309BB2024AA2F80031BE
:1011080002B070470007006C82B0054BB3F800319D
:101118009BB2ADF80630BDF8060080B202B0704749
:101128000007006C024BA3F8FE00A3F800117047FB
:101138000007006C024B1A89024BA3F8FE20704787
:10114800B40100200007006C70B505460C46444BFE
:101158009B8849F24132934229D045F2103293429A
:1011680025D041F66312934235D045F2105293428E
:1011780030D13B4E7089FFF7A3FF280AFFF7B2FF73
:101188007089013080B2FFF79BFFE8B2FFF7AAFF32
:10119800B089FFF795FF200AFFF7A4FFB089013057
:1011A80080B2FFF78DFFE0B2FFF79CFF12E02C4EF4
:1011B8007089FFF785FF280AFFF794FFE8B2FFF769
:1011C80091FFB089FFF77CFF200AFFF78BFFE0B2A1
:1011D800FFF788FF70BD224B9B7953BB204B1888C3
:1011E800451BADB2013DADB25889FFF769FF00203C
:1011F800FFF778FF0020FFF775FF280AFFF772FF57
:10120800E8B2FFF76FFF164DA889FFF759FF200ACC
:10121800FFF768FFE0B2FFF765FF68880138C0F3A1
:101228000F20FFF75FFF68880138C0B2FFF75AFF49
:10123800D0E70B4E7089FFF743FF280AFFF752FFEC
:10124800E8B2FFF74FFF30880138C0F30F20FFF7EF
:1012580049FF30880138C0B2FFF744FFD3E700BF29
:10126800B40100207E4B9B79012B19D02BB97C4B04
:101278009A8841F663139A4218D0794B9B8849F2B1
:10128800413293422AD045F21032934226D045F299
:101298001052934222D041F6631293421ED07047F7
:1012A8006F4A918841F663129142DFD00728E4D84B
:1012B800DFE800F0120406080A0C0E100720DCE72D
:1012C8000420DAE70520D8E70120D6E70020D4E794
:1012D8000320D2E70220D0E70620CEE710B5013878
:1012E800062805D8DFE800F01206080A0C0E1000E0
:1012F80000240CE040240AE0C02408E0202406E092
:10130800602404E0A02402E0E02400E0802445F208
:101318001052934250D0362045F21032934209D0F1
:1013280045F21052934205D041F66312934201D020
:1013380044F008042146FFF7F5FE494B9B8841F627
:10134800631293420AD014F0200F38D0444A11880F
:101358005288914202D242480280418045F210529E
:10136800934235D03E4C6089FFF7AAFE0020FFF774
:10137800B9FE0020FFF7B6FE20880138C0F30F2021
:10138800FFF7B0FE20880138C0B2FFF7ABFEA08996
:10139800FFF796FE0020FFF7A5FE0020FFF7A2FE4C
:1013A80060880138C0F30F20FFF79CFE6088013881
:1013B800C0B2FFF797FE10BD4FF45850ACE7284A6B
:1013C800118852889142C9D9254802804180C5E7D1
:1013D800234C6089FFF774FE0020FFF783FE6089C5
:1013E800013080B2FFF76CFE0020FFF77BFE6089BA
:1013F800023080B2FFF764FE20880138C0F30F2066
:10140800FFF770FE6089033080B2FFF759FE20882D
:101418000138C0B2FFF766FEA089FFF751FE002031
:10142800FFF760FEA089013080B2FFF749FE002077
:10143800FFF758FEA089023080B2FFF741FE6088AE
:101448000138C0F30F20FFF74DFEA089033080B2AA
:10145800FFF736FE60880138C0B2FFF743FEAAE7FF
:10146800B40100200000000010B50446BE20FFF7BC
:1014780027FE0520FFF736FE2046FFF70BFA0CA3E0
:10148800D3E90023FEF7D6FEFFF76EFA80B2FFF726
:1014980029FE0120FFF726FEFF20FFF723FE00208C
:1014A800FFF720FE0020FFF71DFE10BDAFF3008000
:1014B800666666666666044008B54C4B98710028F7
:1014C80047D1F0221A804FF4A0725A809B8849F2C3
:1014D8004132934219D045F21032934215D045F269
:1014E8001052934224D041F66312934261D13F4B8C
:1014F8002C221A812B225A812A229A814FF4F072C7
:101508001A804FF448725A8053E0384A2C211181CE
:101518002A2151812B21918145F21032934248D1E1
:10152800324B4FF4A0721A804FF4F0725A8040E0A8
:101538002E4B4FF430521A814FF428525A814FF4EF
:101548002C529A814FF4F0721A804FF448725A80E4
:101558002FE0264B4FF4A0721A80F0225A809B8805
:1015680049F24132934219D045F21032934215D0D4
:1015780045F21052934220D041F66312934214D19F
:101588001A4A2C2111812A2151812B2191814FF452
:10159800487111804FF4F071518006E0134A2C21F4
:1015A80011812A2151812B21918145F210329342D8
:1015B80014D00020FFF756FE08BD0C4A4FF43051F6
:1015C80011814FF4285151814FF42C5191814FF4DE
:1015D800487111804FF4F0715180E6E7034B4FF4E6
:1015E800F0721A804FF4A0725A80E2E7B40100202A
:1015F80038B505460A4B1A885C8802FB04F40021BA
:101608000846FFF7A1FDFFF795FD002204E0ABB205
:101618000449A1F800310132A242F8D338BD00BF15
:10162800B40100200007006C10B5322002F0DAFF88
:10163800D320FFF745FDFFF767FD5A4CA080FFF761
:1016480063FDA080FFF760FDA0800002A080FFF787
:101658005BFDA388184380B2A08049F241339842C9
:1016680044D1504CA188504803F012FFA38849F296
:101678004132934200F09C8045F21032934200F0D0
:10168800AC8145F21052934201F0208141F6631279
:10169800934202F09680434B9B8849F24132934231
:1016A8000BD045F21032934207D045F210529342C4
:1016B80003D041F66312934210D13C4BDA6922F011
:1016C8000F02DA61DA6922F47062DA61DA6942F0EB
:1016D8000102DA61DA6942F48072DA610020FFF708
:1016E800EBFE4FF6FF70FFF783FF10BDD420FFF726
:1016F800E7FCFFF709FDA080FFF706FDA080FFF7D4
:1017080003FDA0800002A080FFF7FEFCA388184319
:1017180080B2A08045F210339842A2D04FF45A40CC
:10172800FFF7CEFCFFF7F0FCA0804FF45B40FFF71B
:10173800C7FCFFF7E9FCA0800002A0804FF45C40E2
:10174800FFF7BEFCFFF7E0FCA388184380B2A08037
:10175800B0F5004F21D0134B9A8845F210539A42A6
:101768003FF47FAFA120FFF7ABFCFFF7CDFC0D4C9A
:10177800A080FFF7C9FCA0800002A080FFF7C4FC8E
:10178800A388184380B2A08045F2617398427FF421
:1017980068AF41F66312A28063E745F21052A28057
:1017A800D9E700BFB4010020C8640008000100A008
:1017B800CF20FFF785FC0020FFF794FCC120FFF73E
:1017C80091FC3020FFF78EFCED20FFF779FC6420B8
:1017D800FFF788FC0320FFF785FC1220FFF782FC47
:1017E8008120FFF77FFCE820FFF76AFC8520FFF7E0
:1017F80079FC1020FFF776FC7A20FFF773FCCB20EA
:10180800FFF75EFC3920FFF76DFC2C20FFF76AFC20
:101818000020FFF767FC3420FFF764FC0220FFF785
:1018280061FCF720FFF74CFC2020FFF75BFCEA2067
:10183800FFF746FC0020FFF755FC0020FFF752FC9D
:10184800C020FFF73DFC1B20FFF74CFCC120FFF731
:1018580037FC0120FFF746FCC520FFF731FC30209C
:10186800FFF740FC3020FFF73DFCC720FFF728FCBE
:10187800B720FFF737FC3620FFF722FC4820FFF798
:1018880031FC3A20FFF71CFC5520FFF72BFCB12058
:10189800FFF716FC0020FFF725FC1A20FFF722FCB3
:1018A800B620FFF70DFC0A20FFF71CFCA220FFF76B
:1018B80019FCF220FFF704FC0020FFF713FC262098
:1018C800FFF7FEFB0120FFF70DFCE020FFF7F8FB18
:1018D8000F20FFF707FC2A20FFF704FC2820FFF75A
:1018E80001FC0820FFF7FEFB0E20FFF7FBFB08209A
:1018F800FFF7F8FB5420FFF7F5FBA920FFF7F2FBF1
:101908004320FFF7EFFB0A20FFF7ECFB0F20FFF760
:10191800E9FB0020FFF7E6FB0020FFF7E3FB0020D0
:10192800FFF7E0FB0020FFF7DDFBE120FFF7C8FB36
:101938000020FFF7D7FB1520FFF7D4FB1720FFF790
:10194800D1FB0720FFF7CEFB1120FFF7CBFB0620CA
:10195800FFF7C8FB2B20FFF7C5FB5620FFF7C2FB9C
:101968003C20FFF7BFFB0520FFF7BCFB1020FFF76B
:10197800B9FB0F20FFF7B6FB3F20FFF7B3FB3F2073
:10198800FFF7B0FB0F20FFF7ADFB2B20FFF798FB0D
:101998000020FFF7A7FB0020FFF7A4FB0120FFF7BB
:1019A800A1FB3F20FFF79EFB2A20FFF789FB0020C1
:1019B800FFF798FB0020FFF795FB0020FFF792FB4D
:1019C800EF20FFF78FFB1120FFF77AFB782002F05A
:1019D80009FE2920FFF774FB5DE6ED20FFF770FB99
:1019E8000120FFF77FFBFE20FFF77CFBEE20FFF7CF
:1019F80067FBDE20FFF776FB2120FFF773FBF12062
:101A0800FFF75EFB0120FFF76DFBDF20FFF758FBB8
:101A18001020FFF767FBC420FFF752FB8F20FFF76A
:101A280061FBC620FFF74CFB0020FFF75BFBE220C1
:101A3800FFF758FBE220FFF755FBE220FFF752FBC8
:101A4800BF20FFF73DFBAA20FFF74CFBB020FFF7B4
:101A580037FB0D20FFF746FB0020FFF743FB0D2067
:101A6800FFF740FB0020FFF73DFB1120FFF73AFB93
:101A78000020FFF737FB1920FFF734FB0020FFF7A2
:101A880031FB2120FFF72EFB0020FFF72BFB2D2039
:101A9800FFF728FB0020FFF725FB3D20FFF722FB7F
:101AA8000020FFF71FFB5D20FFF71CFB0020FFF75E
:101AB80019FB5D20FFF716FB0020FFF713FBB12091
:101AC800FFF7FEFA8020FFF70DFB0020FFF70AFB67
:101AD8008B20FFF707FB0020FFF704FB9620FFF79A
:101AE80001FB0020FFF7FEFAB220FFF7E9FA002019
:101AF800FFF7F8FA0020FFF7F5FA0220FFF7F2FAED
:101B08000020FFF7EFFA0320FFF7ECFA0020FFF7B9
:101B1800E9FAB320FFF7D4FA0020FFF7E3FA002030
:101B2800FFF7E0FA0020FFF7DDFA0020FFF7DAFA06
:101B38000020FFF7D7FA0020FFF7D4FA0020FFF7BC
:101B4800D1FA0020FFF7CEFA0020FFF7CBFA0020E9
:101B5800FFF7C8FA0020FFF7C5FA0020FFF7C2FA1E
:101B68000020FFF7BFFA0020FFF7BCFA0020FFF7BC
:101B7800B9FA0020FFF7B6FA0020FFF7B3FA002001
:101B8800FFF7B0FA0020FFF7ADFA0020FFF7AAFA36
:101B98000020FFF7A7FA0020FFF7A4FA0020FFF7BC
:101BA800A1FA0020FFF79EFAB420FFF789FA8B20EC
:101BB800FFF798FA0020FFF795FA9620FFF792FAB8
:101BC8000020FFF78FFAA120FFF78CFA0020FFF71B
:101BD80089FAB520FFF774FA0220FFF783FA00208C
:101BE800FFF780FA0320FFF77DFA0020FFF77AFA63
:101BF8000420FFF777FA0020FFF774FAB620FFF702
:101C08005FFA0020FFF76EFA0020FFF76BFAB720A3
:101C1800FFF756FA0020FFF765FA0020FFF762FA8F
:101C28003F20FFF75FFA0020FFF75CFA5E20FFF71E
:101C380059FA0020FFF756FA6420FFF753FA0020FC
:101C4800FFF750FA8C20FFF74DFA0020FFF74AFA09
:101C5800AC20FFF747FA0020FFF744FADC20FFF733
:101C680041FA0020FFF73EFA7020FFF73BFA002008
:101C7800FFF738FA9020FFF735FA0020FFF732FA1D
:101C8800EB20FFF72FFA0020FFF72CFADC20FFF7F4
:101C980029FA0020FFF726FAB820FFF711FA0020EA
:101CA800FFF720FA0020FFF71DFA0020FFF71AFAC5
:101CB8000020FFF717FA0020FFF714FA0020FFF7BB
:101CC80011FA0020FFF70EFA0020FFF70BFABA20EE
:101CD800FFF7F6F92420FFF705FA0020FFF702FACC
:101CE8000020FFF7FFF90020FFF7FCF9C120FFF7FC
:101CF800E7F92020FFF7F6F90020FFF7F3F9542061
:101D0800FFF7F0F90020FFF7EDF9FF20FFF7EAF9F8
:101D18000020FFF7E7F9C220FFF7D2F90A20FFF702
:101D2800E1F90020FFF7DEF90420FFF7DBF90020D6
:101D3800FFF7D8F9C320FFF7C3F93C20FFF7D2F922
:101D48000020FFF7CFF93A20FFF7CCF90020FFF782
:101D5800C9F93920FFF7C6F90020FFF7C3F9372082
:101D6800FFF7C0F90020FFF7BDF93C20FFF7BAF9EB
:101D78000020FFF7B7F93620FFF7B4F90020FFF786
:101D8800B1F93220FFF7AEF90020FFF7ABF92F20A9
:101D9800FFF7A8F90020FFF7A5F92C20FFF7A2F913
:101DA8000020FFF79FF92920FFF79CF90020FFF793
:101DB80099F92620FFF796F90020FFF793F92420D8
:101DC800FFF790F90020FFF78DF92420FFF78AF933
:101DD8000020FFF787F92320FFF784F90020FFF799
:101DE80081F93C20FFF77EF90020FFF77BF93620C8
:101DF800FFF778F90020FFF775F93220FFF772F93D
:101E08000020FFF76FF92F20FFF76CF90020FFF78C
:101E180069F92C20FFF766F90020FFF763F92920FC
:101E2800FFF760F90020FFF75DF92620FFF75AF960
:101E38000020FFF757F92420FFF754F90020FFF797
:101E480051F92420FFF74EF90020FFF74BF9232022
:101E5800FFF748F90020FFF745F9C420FFF730F9EC
:101E68006220FFF73FF90020FFF73CF90520FFF754
:101E780039F90020FFF736F98420FFF733F90020FD
:101E8800FFF730F9F020FFF72DF90020FFF72AF9C6
:101E98001820FFF727F90020FFF724F9A420FFF7FF
:101EA80021F90020FFF71EF91820FFF71BF9002081
:101EB800FFF718F95020FFF715F90020FFF712F97E
:101EC8000C20FFF70FF90020FFF70CF91720FFF798
:101ED80009F90020FFF706F99520FFF703F900201C
:101EE800FFF700F9F320FFF7FDF80020FFF7FAF8F5
:101EF800E620FFF7F7F80020FFF7F4F8C520FFF712
:101F0800DFF83220FFF7EEF80020FFF7EBF8442067
:101F1800FFF7E8F80020FFF7E5F86520FFF7E2F89B
:101F28000020FFF7DFF87620FFF7DCF80020FFF746
:101F3800D9F88820FFF7D6F80020FFF7D3F8C62095
:101F4800FFF7BEF82020FFF7CDF80020FFF7CAF80A
:101F58001720FFF7C7F80020FFF7C4F80120FFF7A4
:101F6800C1F80020FFF7BEF8C720FFF7A9F8002046
:101F7800FFF7B8F80020FFF7B5F80020FFF7B2F830
:101F88000020FFF7AFF8C820FFF79AF80020FFF706
:101F9800A9F80020FFF7A6F80020FFF7A3F8002013
:101FA800FFF7A0F8C920FFF78BF80020FFF79AF891
:101FB8000020FFF797F80020FFF794F80020FFF7BC
:101FC80091F80020FFF78EF80020FFF78BF800202B
:101FD800FFF788F80020FFF785F80020FFF782F860
:101FE8000020FFF77FF80020FFF77CF80020FFF7BC
:101FF80079F80020FFF776F80020FFF773F8002043
:10200800FFF770F80020FFF76DF8E020FFF758F8A9
:102018001620FFF767F80020FFF764F81C20FFF789
:1020280061F80020FFF75EF82120FFF75BF8002039
:10203800FFF758F83620FFF755F80020FFF752F859
:102048004620FFF74FF80020FFF74CF85220FFF723
:1020580049F80020FFF746F86420FFF743F800200E
:10206800FFF740F87A20FFF73DF80020FFF73AF82D
:102078008B20FFF737F80020FFF734F89920FFF797
:1020880031F80020FFF72EF8A820FFF72BF80020E2
:10209800FFF728F8B920FFF725F80020FFF722F806
:1020A800C420FFF71FF80020FFF71CF8CA20FFF72D
:1020B80019F80020FFF716F8D220FFF713F80020D0
:1020C800FFF710F8D920FFF70DF80020FFF70AF8FE
:1020D800E020FFF707F80020FFF704F8F320FFF7E8
:1020E80001F80020FEF7FEFFE120FEF7E9FF1620C9
:1020F800FEF7F8FF0020FEF7F5FF1C20FEF7F2FFC1
:102108000020FEF7EFFF2220FEF7ECFF0020FEF78D
:10211800E9FF3620FEF7E6FF0020FEF7E3FF452043
:10212800FEF7E0FF0020FEF7DDFF5220FEF7DAFFA2
:102138000020FEF7D7FF6420FEF7D4FF0020FEF74B
:10214800D1FF7A20FEF7CEFF0020FEF7CBFF8B20D1
:10215800FEF7C8FF0020FEF7C5FF9920FEF7C2FF73
:102168000020FEF7BFFFA820FEF7BCFF0020FEF707
:10217800B9FFB920FEF7B6FF0020FEF7B3FFC42071
:10218800FEF7B0FF0020FEF7ADFFCA20FEF7AAFF5A
:102198000020FEF7A7FFD220FEF7A4FF0020FEF7DD
:1021A800A1FFD820FEF79EFF0020FEF79BFFE0204E
:1021B800FEF798FF0020FEF795FFF320FEF792FF49
:1021C8000020FEF78FFFE220FEF77AFF0520FEF7DA
:1021D80089FF0020FEF786FF0B20FEF783FF002013
:1021E800FEF780FF1B20FEF77DFF0020FEF77AFF39
:1021F8003420FEF777FF0020FEF774FF4420FEF737
:1022080071FF0020FEF76EFF4F20FEF76BFF0020E6
:10221800FEF768FF6120FEF765FF0020FEF762FF0A
:102228007920FEF75FFF0020FEF75CFF8820FEF7AD
:1022380059FF0020FEF756FF9720FEF753FF0020B6
:10224800FEF750FFA620FEF74DFF0020FEF74AFFDD
:10225800B720FEF747FF0020FEF744FFC220FEF735
:1022680041FF0020FEF73EFFC720FEF73BFF00209E
:10227800FEF738FFD120FEF735FF0020FEF732FFCA
:10228800D620FEF72FFF0020FEF72CFFDD20FEF7FB
:1022980029FF0020FEF726FFF320FEF723FF00208A
:1022A800FEF720FFE320FEF70BFF0520FEF71AFFDD
:1022B8000020FEF717FF0A20FEF714FF0020FEF7A4
:1022C80011FF1C20FEF70EFF0020FEF70BFF332046
:1022D800FEF708FF0020FEF705FF4420FEF702FF87
:1022E8000020FEF7FFFE5020FEF7FCFE0020FEF760
:1022F800F9FE6220FEF7F6FE0020FEF7F3FE7820D6
:10230800FEF7F0FE0020FEF7EDFE8820FEF7EAFE5D
:102318000020FEF7E7FE9720FEF7E4FE0020FEF718
:10232800E1FEA620FEF7DEFE0020FEF7DBFEB7206A
:10233800FEF7D8FE0020FEF7D5FEC220FEF7D2FE3B
:102348000020FEF7CFFEC720FEF7CCFE0020FEF7E8
:10235800C9FED120FEF7C6FE0020FEF7C3FED52039
:10236800FEF7C0FE0020FEF7BDFEDD20FEF7BAFE38
:102378000020FEF7B7FEF320FEF7B4FE0020FEF7BC
:10238800B1FEE420FEF79CFE0120FEF7ABFE002024
:10239800FEF7A8FE0120FEF7A5FE0020FEF7A2FE2C
:1023A8000220FEF79FFE0020FEF79CFE2A20FEF783
:1023B80099FE0020FEF796FE3C20FEF793FE0020D3
:1023C800FEF790FE4B20FEF78DFE0020FEF78AFEFA
:1023D8005D20FEF787FE0020FEF784FE7420FEF7DE
:1023E80081FE0020FEF77EFE8420FEF77BFE0020A3
:1023F800FEF778FE9320FEF775FE0020FEF772FECA
:10240800A220FEF76FFE0020FEF76CFEB320FEF759
:1024180069FE0020FEF766FEBE20FEF763FE002080
:10242800FEF760FEC420FEF75DFE0020FEF75AFEB0
:10243800CD20FEF757FE0020FEF754FED320FEF70E
:1024480051FE0020FEF74EFEDD20FEF74BFE002079
:10245800FEF748FEF320FEF745FE0020FEF742FE99
:10246800E520FEF72DFE0020FEF73CFE0020FEF7DB
:1024780039FE0020FEF736FE0020FEF733FE02206C
:10248800FEF730FE0020FEF72DFE2920FEF72AFE7B
:102498000020FEF727FE3C20FEF724FE0020FEF772
:1024A80021FE4B20FEF71EFE0020FEF71BFE5D20DE
:1024B800FEF718FE0020FEF715FE7420FEF712FE48
:1024C8000020FEF70FFE8420FEF70CFE0020FEF72A
:1024D80009FE9320FEF706FE0020FEF703FEA22069
:1024E800FEF700FE0020FEF7FDFDB320FEF7FAFD23
:1024F8000020FEF7F7FDBE20FEF7F4FD0020FEF7F2
:10250800F1FDC420FEF7EEFD0020FEF7EBFDCD2027
:10251800FEF7E8FD0020FEF7E5FDD320FEF7E2FD1B
:102528000020FEF7DFFDDC20FEF7DCFD0020FEF7D3
:10253800D9FDF320FEF7D6FD0020FEF7D3FDE620F7
:10254800FEF7BEFD1120FEF7CDFD0020FEF7CAFD07
:102558003420FEF7C7FD0020FEF7C4FD5620FEF725
:10256800C1FD0020FEF7BEFD7620FEF7BBFD002072
:10257800FEF7B8FD7720FEF7B5FD0020FEF7B2FDA7
:102588006620FEF7AFFD0020FEF7ACFD8820FEF7C1
:10259800A9FD0020FEF7A6FD9920FEF7A3FD002067
:1025A800FEF7A0FDBB20FEF79DFD0020FEF79AFD7B
:1025B8009920FEF797FD0020FEF794FD6620FEF7B0
:1025C80091FD0020FEF78EFD5520FEF78BFD0020C3
:1025D800FEF788FD5520FEF785FD0020FEF782FDF9
:1025E8004520FEF77FFD0020FEF77CFD4320FEF727
:1025F80079FD0020FEF776FD4420FEF773FD0020EC
:10260800FEF770FDE720FEF75BFD3220FEF76AFD5E
:102618000020FEF767FD5520FEF764FD0020FEF759
:1026280061FD7620FEF75EFD0020FEF75BFD66206B
:10263800FEF758FD0020FEF755FD6720FEF752FD16
:102648000020FEF74FFD6720FEF74CFD0020FEF747
:1026580049FD8720FEF746FD0020FEF743FD99203F
:10266800FEF740FD0020FEF73DFDBB20FEF73AFDDA
:102678000020FEF737FD9920FEF734FD0020FEF715
:1026880031FD7720FEF72EFD0020FEF72BFD4420BC
:10269800FEF728FD0020FEF725FD5620FEF722FD57
:1026A8000020FEF71FFD2320FEF71CFD0020FEF78B
:1026B80019FD3320FEF716FD0020FEF713FD452017
:1026C800FEF710FD0020FEF70DFDE820FEF7F8FCF0
:1026D8000020FEF707FD0020FEF704FD9920FEF715
:1026E80001FD0020FEF7FEFC8720FEF7FBFC002022
:1026F800FEF7F8FC8820FEF7F5FC0020FEF7F2FC58
:102708007720FEF7EFFC0020FEF7ECFC6620FEF7D2
:10271800E9FC0020FEF7E6FC8820FEF7E3FC002039
:10272800FEF7E0FCAA20FEF7DDFC0020FEF7DAFC4D
:10273800BB20FEF7D7FC0020FEF7D4FC9920FEF75B
:10274800D1FC0020FEF7CEFC6620FEF7CBFC002073
:10275800FEF7C8FC5520FEF7C5FC0020FEF7C2FCBA
:102768005520FEF7BFFC0020FEF7BCFC4420FEF716
:10277800B9FC0020FEF7B6FC4420FEF7B3FC0020AD
:10278800FEF7B0FC5520FEF7ADFC0020FEF7AAFCD2
:10279800E920FEF795FCAA20FEF7A4FC0020FEF72E
:1027A800A1FC0020FEF79EFC0020FEF79BFC002009
:1027B800FEF786FCAA20FEF795FCCF20FEF780FCEA
:1027C8000020FEF78FFC0020FEF78CFC0020FEF7AF
:1027D80089FC0020FEF786FC0020FEF783FC002021
:1027E800FEF780FC0020FEF77DFC0020FEF77AFC57
:1027F8000020FEF777FC0020FEF774FC0020FEF7AF
:1028080071FC0020FEF76EFC0020FEF76BFC002038
:10281800FEF768FC0020FEF765FC0020FEF762FC6E
:102828000020FEF75FFCF020FEF74AFC0020FEF7D0
:1028380059FC5020FEF756FC0020FEF753FC002000
:10284800FEF750FC0020FEF74DFCF320FEF738FCA5
:102858000020FEF747FCF920FEF732FC0620FEF7C1
:1028680041FC1020FEF73EFC2920FEF73BFC00202F
:10287800FEF738FC3A20FEF723FC5520FEF732FC21
:102888001120FEF71DFC642001F0ACFE2920FEF7A4
:1028980017FC3520FEF714FC0020FEF723FC51201E
:1028A800FEF70EFCFF20FEF71DFC5320FEF708FC88
:1028B8002C20FEF717FC5520FEF702FC8220FEF7BD
:1028C80011FC2C20FEF7FCFBFEF7E5BE55214FF46A
:1028D8007040FEF727FCAA214FF20100FEF722FC08
:1028E80052214FF20200FEF71DFC08214FF20300AF
:1028F800FEF718FC01214FF20400FEF713FC0D212E
:102908004FF43040FEF70EFC0D214BF20100FEF7AC
:1029180009FC0D214BF20200FEF704FC34214FF4B0
:102928003640FEF7FFFB34214BF20160FEF7FAFB5D
:1029380034214BF20260FEF7F5FB0D214FF43140D4
:10294800FEF7F0FB0D214BF20110FEF7EBFB0D211A
:102958004BF20210FEF7E6FB34214FF43740FEF746
:10296800E1FB34214BF20170FEF7DCFB34214BF222
:102978000270FEF7D7FB00214FF43240FEF7D2FB7E
:1029880000214BF20120FEF7CDFB00214BF2022083
:10299800FEF7C8FB24214FF43840FEF7C3FB24217F
:1029A8004BF60100FEF7BEFB24214BF60200FEF7B2
:1029B800B9FB01214FF43F40FEF7B4FB0F214FF460
:1029C8003340FEF7AFFB0F214BF20130FEF7AAFBB5
:1029D8000F214BF20230FEF7A5FB34214FF43940AA
:1029E800FEF7A0FB34214BF60110FEF79BFB3421C8
:1029F8004BF60210FEF796FB08214FF43540FEF720
:102A080091FB08214BF20150FEF78CFB08214BF299
:102A18000250FEF787FB03214FF44240FEF782FB8A
:102A280024214FF43A40FEF77DFB24214BF6012088
:102A3800FEF778FB24214BF60220FEF773FB0021FA
:102A48004FF43C40FEF76EFB78214BF60140FEF751
:102A580069FB00214BF60240FEF764FB00214FF4AE
:102A68003D40FEF75FFB78214BF60150FEF75AFB1D
:102A780000214BF60250FEF755FB00214FF43E4073
:102A8800FEF750FB64214BF60160FEF74BFB00217B
:102A98004FF45140FEF746FB33214DF20110FEF78B
:102AA80041FB00214DF20210FEF73CFB34214DF2B0
:102AB8000310FEF737FB00214DF20410FEF732FB3E
:102AC8003A214DF20510FEF72DFB00214DF20610BC
:102AD800FEF728FB4A214DF20710FEF723FB0021E1
:102AE8004DF20810FEF71EFB5C214DF20910FEF7AF
:102AF80019FB00214DF20A10FEF714FB81214DF25B
:102B08000B10FEF70FFB00214DF20C10FEF70AFB2D
:102B1800A6214DF20D10FEF705FB00214DF20E1017
:102B2800FEF700FBE5214DF20F10FEF7FBFA01213D
:102B38004DF21010FEF7F6FA13214DF21110FEF7C0
:102B4800F1FA01214DF21210FEF7ECFA54214DF280
:102B58001310FEF7E7FA01214DF21410FEF7E2FA1E
:102B680082214DF21510FEF7DDFA01214DF2161003
:102B7800FEF7D8FACA214DF21710FEF7D3FA022150
:102B88004DF21810FEF7CEFA00214DF21910FEF79B
:102B9800C9FA02214DF21A10FEF7C4FA01214DF2CA
:102BA8001B10FEF7BFFA02214DF21C10FEF7BAFA0D
:102BB80034214DF21D10FEF7B5FA02214DF21E1018
:102BC800FEF7B0FA67214DF21F10FEF7ABFA0221AB
:102BD8004DF22010FEF7A6FA84214DF22110FEF7DF
:102BE800A1FA02214DF22210FEF79CFAA4214DF21F
:102BF8002310FEF797FA02214DF22410FEF792FAFD
:102C0800B7214DF22510FEF78DFA02214DF226105C
:102C1800FEF788FACF214DF22710FEF783FA02213A
:102C28004DF22810FEF77EFADE214DF22910FEF74C
:102C380079FA02214DF22A10FEF774FAF2214DF2C8
:102C48002B10FEF76FFA02214DF22C10FEF76AFAEC
:102C5800FE214DF22D10FEF765FA03214DF22E10DC
:102C6800FEF760FA10214DF22F10FEF75BFA0321F0
:102C78004DF23010FEF756FA33214DF23110FEF7BF
:102C880051FA03214DF23210FEF74CFA6D214DF244
:102C98003310FEF747FA00214FF45240FEF742FA8C
:102CA80033214DF20120FEF73DFA00214DF20220BA
:102CB800FEF738FA34214DF20320FEF733FA0021EB
:102CC8004DF20420FEF72EFA3A214DF20520FEF7C8
:102CD80029FA00214DF20620FEF724FA4A214DF286
:102CE8000720FEF71FFA00214DF20820FEF71AFA16
:102CF8005C214DF20920FEF715FA00214DF20A2059
:102D0800FEF710FA81214DF20B20FEF70BFA002195
:102D18004DF20C20FEF706FAA6214DF20D20FEF723
:102D280001FA00214DF20E20FEF7FCF9E5214DF2E3
:102D38000F20FEF7F7F901214DF21020FEF7F2F906
:102D480013214DF21120FEF7EDF901214DF2122069
:102D5800FEF7E8F954214DF21320FEF7E3F90121BB
:102D68004DF21420FEF7DEF982214DF21520FEF710
:102D7800D9F901214DF21620FEF7D4F9CA214DF2F6
:102D88001720FEF7CFF902214DF21820FEF7CAF9F5
:102D980000214DF21920FEF7C5F902214DF21A2043
:102DA800FEF7C0F901214DF21B20FEF7BBF9022105
:102DB8004DF21C20FEF7B6F934214DF21D20FEF726
:102DC800B1F902214DF21E20FEF7ACF967214DF250
:102DD8001F20FEF7A7F902214DF22020FEF7A2F9E5
:102DE80084214DF22120FEF79DF902214DF2222087
:102DF800FEF798F9A4214DF22320FEF793F902215A
:102E08004DF22420FEF78EF9B7214DF22520FEF76A
:102E180089F902214DF22620FEF784F9CF214DF2DF
:102E28002720FEF77FF902214DF22820FEF77AF9D4
:102E3800DE214DF22920FEF775F902214DF22A20F4
:102E4800FEF770F9F2214DF22B20FEF76BF9022103
:102E58004DF22C20FEF766F9FE214DF22D20FEF7EB
:102E680061F903214DF22E20FEF75CF910214DF295
:102E78002F20FEF757F903214DF23020FEF752F9C3
:102E880033214DF23120FEF74DF903214DF2322066
:102E9800FEF748F96D214DF23320FEF743F9002182
:102EA8004FF45340FEF73EF933214DF20130FEF75F
:102EB80039F900214DF20230FEF734F934214DF290
:102EC8000330FEF72FF900214DF20430FEF72AF9FE
:102ED8003A214DF20530FEF725F900214DF2063072
:102EE800FEF720F94A214DF20730FEF71BF90021C1
:102EF8004DF20830FEF716F95C214DF20930FEF765
:102F080011F900214DF20A30FEF70CF981214DF23A
:102F18000B30FEF707F900214DF20C30FEF702F9ED
:102F2800A6214DF20D30FEF7FDF800214DF20E30CE
:102F3800FEF7F8F8E5214DF20F30FEF7F3F801211E
:102F48004DF21030FEF7EEF813214DF21130FEF776
:102F5800E9F801214DF21230FEF7E4F854214DF260
:102F68001330FEF7DFF801214DF21430FEF7DAF8DE
:102F780082214DF21530FEF7D5F801214DF21630B9
:102F8800FEF7D0F8CA214DF21730FEF7CBF8022130
:102F98004DF21830FEF7C6F800214DF21930FEF751
:102FA800C1F802214DF21A30FEF7BCF801214DF2AA
:102FB8001B30FEF7B7F802214DF21C30FEF7B2F8CD
:102FC80034214DF21D30FEF7ADF802214DF21E30CE
:102FD800FEF7A8F867214DF21F30FEF7A3F802218B
:102FE8004DF22030FEF79EF884214DF22130FEF795
:102FF80099F802214DF22230FEF794F8A4214DF2FF
:103008002330FEF78FF802214DF22430FEF78AF8BC
:10301800B7214DF22530FEF785F802214DF2263012
:10302800FEF780F8CF214DF22730FEF77BF802211A
:103038004DF22830FEF776F8DE214DF22930FEF702
:1030480071F802214DF22A30FEF76CF8F2214DF2A8
:103058002B30FEF767F802214DF22C30FEF762F8AC
:10306800FE214DF22D30FEF75DF803214DF22E3092
:10307800FEF758F810214DF22F30FEF753F80321D0
:103088004DF23030FEF74EF833214DF23130FEF775
:1030980049F803214DF23230FEF744F86D214DF224
:1030A8003330FEF73FF800214FF45440FEF73AF86A
:1030B80033214DF20140FEF735F800214DF2024070
:1030C800FEF730F834214DF20340FEF72BF80021CB
:1030D8004DF20440FEF726F83A214DF20540FEF77E
:1030E80021F800214DF20640FEF71CF84A214DF266
:1030F8000740FEF717F800214DF20840FEF712F8D6
:103108005C214DF20940FEF70DF800214DF20A400E
:10311800FEF708F881214DF20B40FEF703F8002175
:103128004DF20C40FDF7FEFFA6214DF20D40FDF7D4
:10313800F9FF00214DF20E40FDF7F4FFE5214DF2B5
:103148000F40FDF7EFFF01214DF21040FDF7EAFFB8
:1031580013214DF21140FDF7E5FF01214DF2124018
:10316800FDF7E0FF54214DF21340FDF7DBFF01218D
:103178004DF21440FDF7D6FF82214DF21540FDF7C0
:10318800D1FF01214DF21640FDF7CCFFCA214DF2C7
:103198001740FDF7C7FF02214DF21840FDF7C2FFA7
:1031A80000214DF21940FDF7BDFF02214DF21A40F2
:1031B800FDF7B8FF01214DF21B40FDF7B3FF0221D7
:1031C8004DF21C40FDF7AEFF34214DF21D40FDF7D6
:1031D800A9FF02214DF21E40FDF7A4FF67214DF221
:1031E8001F40FDF79FFF02214DF22040FDF79AFF97
:1031F80084214DF22140FDF795FF02214DF2224036
:10320800FDF790FFA4214DF22340FDF78BFF02212B
:103218004DF22440FDF786FFB7214DF22540FDF71A
:1032280081FF02214DF22640FDF77CFFCF214DF2B0
:103238002740FDF777FF02214DF22840FDF772FF86
:10324800DE214DF22940FDF76DFF02214DF22A40A3
:10325800FDF768FFF2214DF22B40FDF763FF0221D5
:103268004DF22C40FDF75EFFFE214DF22D40FDF79B
:1032780059FF03214DF22E40FDF754FF10214DF266
:103288002F40FDF74FFF03214DF23040FDF74AFF75
:1032980033214DF23140FDF745FF03214DF2324015
:1032A800FDF740FF6D214DF23340FDF73BFF002154
:1032B8004FF45540FDF736FF33214DF20150FDF72D
:1032C80031FF00214DF20250FDF72CFF34214DF261
:1032D8000350FDF727FF00214DF20450FDF722FFB0
:1032E8003A214DF20550FDF71DFF00214DF2065021
:1032F800FDF718FF4A214DF20750FDF713FF002193
:103308004DF20850FDF70EFF5C214DF20950FDF714
:1033180009FF00214DF20A50FDF704FF81214DF20B
:103328000B50FDF7FFFE00214DF20C50FDF7FAFEA1
:10333800A6214DF20D50FDF7F5FE00214DF20E507D
:10334800FDF7F0FEE5214DF20F50FDF7EBFE0121F0
:103358004DF21050FDF7E6FE13214DF21150FDF726
:10336800E1FE01214DF21250FDF7DCFE54214DF231
:103378001350FDF7D7FE01214DF21450FDF7D2FE90
:1033880082214DF21550FDF7CDFE01214DF2165068
:10339800FDF7C8FECA214DF21750FDF7C3FE022102
:1033A8004DF21850FDF7BEFE00214DF21950FDF701
:1033B800B9FE02214DF21A50FDF7B4FE01214DF27B
:1033C8001B50FDF7AFFE02214DF21C50FDF7AAFE7F
:1033D80034214DF21D50FDF7A5FE02214DF21E507D
:1033E800FDF7A0FE67214DF21F50FDF79BFE02215D
:1033F8004DF22050FDF796FE84214DF22150FDF745
:1034080091FE02214DF22250FDF78CFEA4214DF2CF
:103418002350FDF787FE02214DF22450FDF782FE6E
:10342800B7214DF22550FDF77DFE02214DF22650C1
:10343800FDF778FECF214DF22750FDF773FE0221EC
:103448004DF22850FDF76EFEDE214DF22950FDF7B2
:1034580069FE02214DF22A50FDF764FEF2214DF279
:103468002B50FDF75FFE02214DF22C50FDF75AFE5E
:10347800FE214DF22D50FDF755FE03214DF22E5041
:10348800FDF750FE10214DF22F50FDF74BFE0321A2
:103498004DF23050FDF746FE33214DF23150FDF725
:1034A80041FE03214DF23250FDF73CFE6D214DF2F5
:1034B8003350FDF737FE00214FF45640FDF732FE3A
:1034C80033214DF20160FDF72DFE00214DF202601F
:1034D800FDF728FE34214DF20360FDF723FE00219D
:1034E8004DF20460FDF71EFE3A214DF20560FDF72E
:1034F80019FE00214DF20660FDF714FE4A214DF237
:103508000760FDF70FFE00214DF20860FDF70AFE87
:103518005C214DF20960FDF705FE00214DF20A60BD
:10352800FDF700FE81214DF20B60FDF7FBFD002148
:103538004DF20C60FDF7F6FDA6214DF20D60FDF78A
:10354800F1FD00214DF20E60FDF7ECFDE5214DF295
:103558000F60FDF7E7FD01214DF21060FDF7E2FD78
:1035680013214DF21160FDF7DDFD01214DF21260CE
:10357800FDF7D8FD54214DF21360FDF7D3FD01216D
:103588004DF21460FDF7CEFD82214DF21560FDF776
:10359800C9FD01214DF21660FDF7C4FDCA214DF2A7
:1035A8001760FDF7BFFD02214DF21860FDF7BAFD67
:1035B80000214DF21960FDF7B5FD02214DF21A60A8
:1035C800FDF7B0FD01214DF21B60FDF7ABFD0221B7
:1035D8004DF21C60FDF7A6FD34214DF21D60FDF78C
:1035E800A1FD02214DF21E60FDF79CFD67214DF201
:1035F8001F60FDF797FD02214DF22060FDF792FD57
:1036080084214DF22160FDF78DFD02214DF22260EB
:10361800FDF788FDA4214DF22360FDF783FD02210B
:103628004DF22460FDF77EFDB7214DF22560FDF7D0
:1036380079FD02214DF22660FDF774FDCF214DF290
:103648002760FDF76FFD02214DF22860FDF76AFD46
:10365800DE214DF22960FDF765FD02214DF22A6059
:10366800FDF760FDF2214DF22B60FDF75BFD0221B5
:103678004DF22C60FDF756FDFE214DF22D60FDF751
:1036880051FD03214DF22E60FDF74CFD10214DF246
:103698002F60FDF747FD03214DF23060FDF742FD35
:1036A80033214DF23160FDF73DFD03214DF23260CB
:1036B800FDF738FD6D214DF23360FDF733FD5521DF
:1036C8004FF47040FDF72EFDAA214FF20100FDF7DF
:1036D80029FD52214FF20200FDF724FD08214FF287
:1036E8000300FDF71FFD00214FF20400FDF71AFD4E
:1036F800CC214FF43140FDF715FD00214BF20110AC
:10370800FDF710FD05214FF43640FDF70BFD702144
:103718004FF43740FDF706FD70214BF20170FDF7BD
:1037280001FD01214FF43840FDF7FCFC03214BF665
:103738000100FDF7F7FC03214BF60200FDF7F2FC50
:1037480003214BF60300FDF7EDFC02214FF43C404A
:10375800FDF7E8FC00214BF60140FDF7E3FC0021F2
:103768004BF60240FDF7DEFCD0214FF44940FDF74F
:10377800D9FC02214CF60110FDF7D4FC50214CF67F
:103788000210FDF7CFFC50214CF60310FDF7CAFCE0
:1037980050214CF60410FDF7C5FC00214FF454509D
:1037A800FDF7C0FC55214FF46850FDF7BBFC4FF402
:1037B8008850FDF785FC4FF42450FDF781FCFDF798
:1037C8006ABFE220FDF77CFC1D20FDF78BFC022080
:1037D800FDF788FC0420FDF785FCE020FDF770FC70
:1037E8000120FDF77FFC0A2000F0FCFEE020FDF739
:1037F80067FC0320FDF776FC0C2000F0F3FE0120A7
:10380800FDF75EFC0A2000F0EDFEE620FDF758FC0F
:103818002F20FDF767FCFF20FDF764FCFF20FDF774
:1038280061FCB020FDF74CFC2020FDF75BFC00207C
:10383800FDF758FC0320FDF755FC40F21F30FDF75B
:1038480051FC0120FDF74EFC40F2DF10FDF74AFC69
:103858000020FDF747FCB420FDF732FC0420FDF7FB
:1038680041FC40F21F40FDF73DFC0020FDF73AFC0B
:103878002E20FDF737FC0020FDF734FC0020FDF773
:1038880031FC0020FDF72EFC0020FDF72BFCB620B4
:10389800FDF716FC0220FDF725FC4FF40370FDF739
:1038A80021FC0020FDF71EFC1720FDF71BFC15204E
:1038B800FDF718FC0020FDF715FC0020FDF712FCB1
:1038C800F020FDF7FDFB0320FDF70CFC2920FDF798
:1038D800F7FBD020FDF7F4FB0020FDF703FCBE202A
:1038E800FDF7EEFB0520FDF7FDFBFE20FDF7FAFBDB
:1038F8000120FDF7F7FB0020FDF7F4FB0020FDF7A2
:10390800F1FB0020FDF7EEFBB820FDF7D9FB032003
:10391800FDF7E8FB0120FDF7E5FBBA20FDF7D0FB3A
:103928000120FDF7DFFB6420FDF79EFDFDF7B3BE28
:103938004FF0E0235A699A694FF0E0239B699A4255
:10394800FAD0704770B50446002517E000224FF4FE
:103958000071114801F0B1FA6400E4B20F4E002280
:103968000221304601F0A9FA0120FFF7E1FF012208
:103978000221304601F0A1FA0135EDB2072D09D830
:1039880014F0800FE2D001224FF40071024801F0D8
:1039980094FAE1E770BD00BF001C0140000C014033
:1039A80070B505462B4C00220221204601F085FA0D
:1039B800294E00224FF40071304601F07EFA0022B1
:1039C8004FF40061304601F078FA2846FFF7BAFF55
:1039D8000620FFF7ADFF00220221204601F06DFA14
:1039E8000120FFF7A5FF01220221204601F065FA18
:1039F8000120FFF79DFF00220221204601F05DFA19
:103A08000024254601E00135EDB20F2D18D86400D9
:103A1800A4B2104E00220221304601F04EFA0120D5
:103A2800FFF786FF01220221304601F046FA042101
:103A3800304601F03BFA0028E5D00134A4B2E2E7B1
:103A4800240901224FF40061034801F036FA2046A8
:103A580070BD00BF000C0140001C014030B585B0AE
:103A68000546002409E02846FFF79AFF04AB03EB5C
:103A7800440323F80C0C0134A4B2042CF3D900201D
:103A88001AE001339BB2042B15D804AA02EB4002BA
:103A980032F80C2C04A901EB430131F80C1C8A42C2
:103AA800EFD904AD05EB400C2CF80C1C05EB4301D9
:103AB80021F80C2CE5E72046032803D8441CA4B2BF
:103AC8002346E0E70020012308E004AA02EB4302B2
:103AD80032F80C2C104480B201339BB2032BF4D97A
:103AE800034BA3FB0030C0F34F0005B030BD00BF4F
:103AF800ABAAAAAA70B505460C46064B1878FFF77C
:103B0800ADFF0646044B1878FFF7A8FF2E802080EB
:103B1800012070BD080000200900002030B583B0E6
:103B280005460C4601A90DF10600FFF7E3FF08B9A9
:103B380003B030BD69460DF10200FFF7DBFF002836
:103B4800F6D0BDF80230BDF80620934203D803F141
:103B58003101914205DA93421ED302F131019942B3
:103B68001CDBBDF80000BDF80410884203D800F142
:103B7800310C8C4504DA884212D33131814211DB91
:103B880013445B102B80BDF80430BDF800201344AB
:103B98005B1023800120CBE70020C9E70020C7E79E
:103BA8000020C5E70020C3E738B504464FF480611C
:103BB800314801F07BF9002847D1C4B12F4800F102
:103BC80016010C30FFF7AAFF2C4B93F92030002B7D
:103BD80007DB2A4BC02283F820209A899A82DA8A46
:103BE800DA83264B93F8200000F0800038BD234884
:103BF80000F116010C30FFF791FF0028E4D01F4CAC
:103C0800656AA089FCF78AFF2946FCF73DFC054652
:103C1800B4F92C00FCF782FF2946FCF7CBFEFCF731
:103C2800D1FFA081A56AE08AFCF778FF2946FCF756
:103C38002BFC0546B4F92E00FCF770FF2946FCF76B
:103C4800B9FEFCF7BFFFE082BEE70C4B93F82020DB
:103C580093F92030002B08DB084B00229A82DA8384
:103C68004FF6FF729A81DA82BBE702F07F02034BBC
:103C780083F82020B5E700BF001C01400C0000209D
:103C880008B50520FFF754FE08BD00002DE9F041F6
:103C980086B01B4B9A6942F008029A619A6902F051
:103CA80008020092009A9A6942F080029A619B6920
:103CB80003F080030193019B4FF00208CDF80880C0
:103CC800012403940494032305930E4F02A9384654
:103CD80000F0CCFF4FF4007602960B4D02A928465F
:103CE80000F0C4FF22464146384601F0E6F8224675
:103CF8003146284601F0E1F806B0BDE8F08100BF82
:103D080000100240000C0140001C014038B5134C63
:103D1800636823F0F0036360636843F03003636013
:103D280001224FF40071204601F0C7F80C4D012222
:103D38000221284601F0C1F81E20FFF7F9FD0022F4
:103D48004FF40071204601F0B8F8FFF799FF002200
:103D58000221284601F0B1F838BD00BF001C01401F
:103D6800000C014010B5104C636823F0F003636049
:103D7800636843F030036360012202210B4801F0BD
:103D88009CF81E20FFF7D4FD00224FF40071204656
:103D980001F093F8FFF774FF01224FF400712046F9
:103DA80001F08BF810BD00BF001C0140000C014061
:103DB80038B51748436823F0F0034360436843F07D
:103DC8008003436001224FF4007101F076F801226C
:103DD8000221104801F071F8FFF752FF00244FF458
:103DE80000710B4801F062F8054650B10134E4B2A5
:103DF800FA2C02D8FFF744FFF1E7FFF7B3FF0125DC
:103E080004E000220221034801F057F8284638BD93
:103E1800001C0140000C014038B5134D002202215E
:103E2800284601F04AF8114C636823F0F0036360F8
:103E3800636843F030036360FFF722FF00224FF40A
:103E48000071204601F039F8FFF71AFF012202211C
:103E5800284601F032F8FFF713FF00220221284616
:103E680001F02BF838BD00BF000C0140001C0140D8
:103E780038B5134D00220221284601F01EF8114CD6
:103E8800636823F0F0036360636843F030036360A2
:103E9800FFF7F6FE01224FF40071204601F00DF8FD
:103EA800FFF7EEFE01220221284601F006F8FFF78F
:103EB800E7FE00220221284600F0FFFF38BD00BFC0
:103EC800000C0140001C014070B50446164B5A68AE
:103ED80022F0F0025A605A6842F030025A6000221A
:103EE8000221124800F0E9FFFFF7CAFE002518E09A
:103EF800E2094FF400710C4800F0DFFF6400E4B2FF
:103F08000A4E01220221304600F0D7FFFFF7B8FE23
:103F180000220221304600F0D0FFFFF7B1FE013544
:103F2800EDB2072DE4D970BD001C0140000C014022
:103F3800F8B504460F461546FFF7E8FE2820FFF7B8
:103F4800C3FFFFF735FF200AFFF7BEFFFFF730FF7B
:103F5800E0B2FFF7B9FFFFF72BFF0026344601E078
:103F68000134E4B2AC4207D2385DFFF7ADFFFFF78A
:103F78001FFF06460028F3D0FFF7F4FE3046F8BDD1
:103F880000B583B000238DF804308DF8050008E0F3
:103F98000F4AD25C9DF804100A448DF804200133BE
:103FA800DBB2B72BF4D99DF804305B428DF80430AE
:103FB800B822074948F24700FFF7BAFF022201A9D1
:103FC80048F2FF00FFF7B4FF002003B05DF804FBE0
:103FD80010650008F8B50746194B5A6822F0F00238
:103FE8005A605A6842F080025A601E20FFF7A0FC0F
:103FF8000024254601E00135EDB2072D18D8114EF1
:1040080000220221304600F058FFFFF739FE012256
:104018000221304600F051FF6400E4B24FF4007111
:10402800074800F043FF0028E5D00134E4B2E2E796
:104038001FB9FFF71DFF2046F8BDFFF7EDFEFAE7B1
:10404800001C0140000C014070B504460E461546A0
:10405800FFF75CFE2820FFF737FFFFF7A9FE200ACD
:10406800FFF732FFFFF7A4FEE0B2FFF72DFFFFF7DF
:104078009FFEFFF74BFE2920FFF726FFFFF798FE6C
:10408800002408E0681E201A18BF0120FFF7A2FFCD
:1040980030550134E4B2AC42F4D3FFF763FE70BD8F
:1040A8002DE9F04188B03D4B9A6942F080029A614F
:1040B8009B6903F080030193019B4FF4006602960D
:1040C80001270397049703230593354C02A920463B
:1040D80000F0CCFD4FF48068CDF8088000250395EA
:1040E80002A9204600F0C2FDFFF7D0FD2A4631465E
:1040F800204600F0E2FE0A2000F074FA3A46314603
:10410800204600F0DAFE0A2000F06CFACDF80880AC
:1041180002230493039502A9204600F0A7FD64201A
:1041280000F060FA042206A948F24010FFF78CFF5D
:104138008DF81C5006A91B4801F0AAF91A4906A8CF
:10414800FCF76EF818B1002008B0BDE8F081022332
:104158008DF818303A4606A948F24000FFF7E8FE05
:104168003A4606A948F24700FFF76EFF9DF8181077
:104178005F290CD90A2000F035FA00238DF8183091
:10418800012206A948F24000FFF7D2FEDBE7074804
:1041980001F07EF93846FFF7F3FEEBE70010024026
:1041A800001C0140D8640008E4640008EC640008BE
:1041B80008B5134B9A8845F210539A4204D0114817
:1041C80001F0ECF9012008BDFFF76AFF98B90E4B22
:1041D8000E4A5A600C4991F8303043F0800281F859
:1041E8003020074B93F9063003F00103134381F89D
:1041F80030300020E7E7034801F0D0F9EAE700BFD4
:10420800B4010020006500080C00002019420008D5
:1042180070B584B08DF80700724B1A780132D2B2AB
:104228001A70714BA3FB0213DB0803EB8303A2EBA9
:10423800430313F0FF0F02D0092A00F2AD800122D8
:104248000DF1070148F24E10FFF7FEFE9DF807300A
:104258009DF90720002A1CDB9DF8070000F00F00DD
:10426800002800F09A80052800F2A680FF238340EA
:10427800DBB28DF80B305D4A92F82050DB4363F0D7
:104288003F0382F8203093899382D38AD383002412
:1042980026E003F00F03052BDED800238DF80B3042
:1042A80001220DF10B0148F24E10FFF741FED3E752
:1042B8009DF80D309DF80C1001EB03214B4A231D8E
:1042C80002EB430399809DF80F309DF80E1001EB27
:1042D800032104F1080302EB4303D9800134E4B25B
:1042E800042C2DD8414B93F82030234113F0010FB3
:1042F800F4D0042203A93E4B33F81400FFF7A4FEC0
:104308003A4B93F8303013F0010FD1D09DF80D30AF
:104318009DF80C2002EB0322344904F1080301EB59
:104328004303DA809DF80F309DF80E2002EB03223C
:1043380092B2C2F54872231D01EB43018A80CDE792
:104348002A4B9A892B4B1B889A4205D8274BDA8A25
:10435800284B5B889A421AD99DF8073013F00E0F44
:1043680009D0224BDA899A811A8BDA821D4B0022F6
:104378001A70012011E01D4B9A8A9A81DA8BDA8231
:1043880080228DF8072083F82050012005E0154B86
:1043980000221A70012000E000209DF8073003F089
:1043A8008F03802B0AD00F4B1B78F02B02D90D4BB3
:1043B8000A221A7004B070BD0020EEE70B4B93F888
:1043C800202093F92030002B05DB084B4FF6FF72B5
:1043D8009A81DA82E7E702F07F02044B83F8202013
:1043E800E1E700BFC2010020CDCCCCCC0C000020FE
:1043F800C8650008B4010020FEE7FEE7FEE7FEE717
:10440800FEE770477047704708B500F0D9F808BD57
:1044180082B00E4B9A6942F001029A619A6902F0E1
:1044280001020092009ADA6942F08052DA61DB698F
:1044380003F080530193019B054A536823F0E0631E
:1044480043F00073536002B0704700BF0010024091
:104458000000014010B40A6850F8223023F001032C
:1044680040F822308B68082B24D000244A68224365
:104478001343CA6813430A6913434A691343CA6951
:1044880013430A6A13434A6A13438A6A1343CA6A7C
:1044980013430A6B13438A6913434A6B134309682E
:1044A80050F82140044A22401A4340F821200020B5
:1044B80010BC70474024D9E78000F0FF00B50132F6
:1044C80050F8223003F0404C0B68D1F804E043EA7E
:1044D8000E13D1F808E043EA0E23D1F80CE043EAC2
:1044E8000E43D1F810E00EF1FF3E43EA0E53D1F827
:1044F80014E0AEF1020E43EA0E6389690B434CEAFD
:10450800030340F8223000205DF804FBB3F5804F28
:1045180005D06FF0704340F822300020704730B467
:1045280050F82230094C1C400B684D6843EA0513CB
:104538008D6843EA05238D692B43C96843EA014323
:10454800234340F82230002030BC70470000F0CFF1
:1045580010B504460E4B18784FF47A73B3FBF0F39A
:104568000C4A1068B0FBF3F000F000FD68B90F2C9E
:1045780001D901200AE0002221464FF0FF3000F067
:10458800BDFC054B1C60002000E0012010BD00BFF1
:10459800440000204C0000204800002008B5074ACD
:1045A800136843F010031360032000F095FC00200B
:1045B800FFF7CEFFFFF72CFF002008BD00200240C8
:1045C800034A1168034B1B780B441360704700BF04
:1045D800C401002044000020014B1868704700BF48
:1045E800C401002038B50446FFF7F6FF0546B4F1CC
:1045F800FF3F02D0044B1B781C44FFF7EDFF401B24
:10460800A042FAD338BD00BF4400002082B0084B56
:104618001B68084AA2FB03235B0A00FB03F3019310
:1046280000BF019B5A1E0192002BF9D102B07047BE
:104638004C000020D34D6210002800F0F18170B5C5
:1046480082B00446036813F0010F2CD0994B5B68C5
:1046580003F00C03042B1DD0964B5B6803F00C038E
:10466800082B12D06368B3F5803F41D0002B55D199
:1046780003F1804303F504331A6822F480321A6088
:104688001A6822F480221A6037E08A4B5B6813F4B8
:10469800803FE7D0874B1B6813F4003F03D0636863
:1046A800002B00F0BF81236813F0020F75D0814BF7
:1046B8005B6813F00C0F5FD07E4B5B6803F00C0354
:1046C800082B54D02369002B00F08A807A4B0122F2
:1046D8001A60FFF781FF0546764B1B6813F0020F3F
:1046E80075D1FFF779FF401B0228F5D903209EE119
:1046F800704A136843F480331360636843B3FFF769
:104708006BFF05466B4B1B6813F4003FCBD1FFF7DB
:1047180063FF401B6428F5D9032088E1B3F5A02F77
:1047280009D0644B1A6822F480321A601A6822F49D
:1047380080221A60E1E703F18043A3F53C331A684D
:1047480042F480221A601A6842F480321A60D4E770
:10475800FFF742FF0546574B1B6813F4003FA2D0F2
:10476800FFF73AFF401B6428F5D903205FE1514B5E
:104778005B6813F4803FA5D14E4B1B6813F0020F02
:1047880003D02369012B40F04F814A4A136823F074
:10479800F803616943EAC1031360236813F0080F43
:1047A80033D0A369002B5CD0434B0122C3F880248B
:1047B800FFF712FF05463F4B5B6A13F0020F21D14A
:1047C800FFF70AFF401B0228F5D903202FE1394AD9
:1047D800136823F0F803616943EAC1031360DCE757
:1047E800354B00221A60FFF7F7FE0546314B1B6870
:1047F80013F0020FD1D0FFF7EFFE401B0228F5D9C6
:10480800032014E10120FFF701FF236813F0040FD0
:1048180000F09680274BDB6913F0805F34D1254B7D
:10482800DA6942F08052DA61DB6903F08053019360
:10483800019B0125214B1B6813F4807F26D0E36878
:10484800012B3DD0002B53D103F1804303F50433F2
:104858001A6A22F001021A621A6A22F004021A6223
:1048680033E0154B0022C3F88024FFF7B5FE054658
:10487800104B5B6A13F0020FC7D0FFF7ADFE401B69
:104888000228F5D90320D2E00025D3E70B4A1368A4
:1048980043F480731360FFF79FFE0646074B1B68BF
:1048A80013F4807FCBD1FFF797FE801B6428F5D9DE
:1048B8000320BCE0001002400000424200700040AB
:1048C8005F4A136A43F001031362E36833B3FFF7E7
:1048D80083FE06465A4B1B6A13F0020F2FD1FFF7CF
:1048E8007BFE801B41F288339842F3D903209EE077
:1048F800052B09D0524B1A6A22F001021A621A6A71
:1049080022F004021A62E0E74D4B1A6A42F00402F0
:104918001A621A6A42F001021A62D6E7FFF75CFED1
:104928000646474B1B6A13F0020F08D0FFF754FEE8
:10493800801B41F288339842F3D9032077E0E5B928
:10494800E369002B72D03E4A526802F00C02082A32
:1049580056D0022B17D03B4B00221A66FFF73CFEBD
:104968000446374B1B6813F0007F47D0FFF734FE2F
:10497800001B0228F5D9032059E0314AD36923F0F6
:104988008053D361DCE72F4B00221A66FFF724FE21
:1049980005462B4B1B6813F0007F06D0FFF71CFE63
:1049A800401B0228F5D9032041E0236AB3F5803F74
:1049B8001AD023494B6823F47413226A606A0243AD
:1049C80013434B601F4B01221A66FFF705FE04468E
:1049D8001B4B1B6813F0007F0ED1FFF7FDFD001B7A
:1049E8000228F5D9032022E0154A536823F400333E
:1049F800A1680B435360DCE7002018E0002016E0B4
:104A0800012B16D00E4B5B6803F48031226A914269
:104A180011D103F47013626A93420ED1002006E0AC
:104A280001207047012002E0012000E0002002B0D0
:104A380070BD0120FBE70120F9E70120F7E700BF7F
:104A4800001002400000424286B0164B0FCB0DF119
:104A5800180C0CE90F0040F20123ADF80430124B9A
:104A68005B6803F00C02082A02D0104806B07047B1
:104A7800C3F38342624412F8100C13F4803F0CD045
:104A8800094B5B68C3F34043634413F8143C074A7B
:104A980002FB00F0B0FBF3F0E8E7054B03FB00F086
:104AA800E4E700BFD46500080010024000127A0055
:104AB80000093D00002800F0A08070B50D460446AE
:104AC800524B1B6803F007038B420BD24F4A136803
:104AD80023F007030B431360136803F007038B42AB
:104AE80040F08D80236813F0020F17D013F0040FE5
:104AF80004D0474A536843F4E0635360236813F0D3
:104B0800080F04D0424A536843F460535360404A44
:104B1800536823F0F003A1680B435360236813F034
:104B2800010F31D06368012B20D0022B25D0384AE1
:104B3800126812F0020F64D035494A6822F0030265
:104B480013434B60FFF748FD0646314B5B6803F0A3
:104B58000C036268B3EB820F16D0FFF73DFD801B94
:104B680041F288339842F0D9032045E0284A126878
:104B780012F4003FE0D101203EE0254A126812F00D
:104B8800007FD9D1012037E0204B1B6803F00703D1
:104B9800AB420AD91D4A136823F007032B4313605D
:104BA800136803F00703AB422DD1236813F0040FF9
:104BB80006D0174A536823F4E063E1680B43536057
:104BC800236813F0080F07D0114A536823F4605381
:104BD800216943EAC1035360FFF736FF0C4B5B685A
:104BE800C3F303130B4AD35CD8400B4B18600B4B31
:104BF8001868FFF7ADFC002070BD01207047012048
:104C0800FAE70120F8E70120F6E700BF002002409C
:104C180000100240E86500084C0000204800002011
:104C2800014B1868704700BF4C00002008B5FFF71B
:104C3800F7FF044B5B68C3F30223034AD35CD840F5
:104C480008BD00BF00100240F865000808B5FFF76E
:104C5800E7FF044B5B68C3F3C223034AD35CD84025
:104C680008BD00BF00100240F865000870B582B0AA
:104C78000024A446B0E0874DAA4210D007D9864D3B
:104C8800AA420CD005F58035AA4208D013E0A5F554
:104C98008015AA4203D005F57025AA4207D18A6873
:104CA800002A62D0012A5BD04361082403E0A5F5FD
:104CB8008015AA42F3D0BEF1FF0F58D80646BEF1C0
:104CC800FF0F56D84FEA8C0233680F25954023EA28
:104CD800050304FA02F2134333604B6813F0805F54
:104CE80078D06E4B9A6942F001029A619B6903F091
:104CF80001030193019B4FEA9C02951C684B53F8F2
:104D080025600CF003039D000F23AB4026EA030641
:104D1800644B984233D003F58063984200F0988042
:104D280003F58063984200F0958003F5806398420C
:104D380000F0928003F58063984200F08F8003F5BD
:104D48008063984219D006231AE0CC68B3E7CC6890
:104D58000434B0E7CC680834ADE7CC680C34AAE773
:104D680003610824A7E70024A5E70424A3E7061D98
:104D7800A5E7ACF108029200A6E7052300E00023AE
:104D8800AB4033430232464D45F822304B6813F4AA
:104D9800803F65D0444A136843EA0E0313604B68AA
:104DA80013F4003F62D0404A536843EA0E0353604D
:104DB8004B6813F4801F5FD03B4A936843EA0E03A5
:104DC80093604B6813F4001F5CD0374AD36843EAFA
:104DD8000E03D3600CF1010C0A6832FA0CF357D0B9
:104DE800012303FA0CF302EA030E33EA0202F1D1BB
:104DF8004A68122A3FF63FAF122A3FF65CAF01A578
:104E080055F822F0A74C0008534D00085D4D0008E6
:104E18006F4D0008BF4C0008BF4C0008BF4C00088D
:104E2800BF4C0008BF4C0008BF4C0008BF4C00082E
:104E3800BF4C0008BF4C0008BF4C0008BF4C00081E
:104E4800BF4C0008BF4C0008574D0008634D0008D0
:104E5800012395E7022393E7032391E704238FE7D0
:104E6800114A136823EA0E03136098E70E4A536841
:104E780023EA0E0353609BE70B4A936823EA0E0369
:104E880093609EE7084AD36823EA0E03D360A1E73C
:104E980002B070BD00002210000031100010024066
:104EA80000000140000801400004014083681942E5
:104EB80001D001207047002070470AB10161704796
:104EC800090401617047C36801EA030221EA03018A
:104ED80041EA024101617047074AD36823F4E0635D
:104EE8001B041B0C000200F4E060034343F0BF63A3
:104EF80043F40033D360704700ED00E000B5194B70
:104F0800DB68C3F30223C3F1070CBCF1040F28BF0D
:104F18004FF0040C03F1040EBEF1060F18D9033B41
:104F28004FF0FF3E0EFA0CFC21EA0C0199400EFAF4
:104F380003F322EA0303194300280BDB0901C9B272
:104F480000F1604000F5614080F800135DF804FB53
:104F58000023E5E700F00F000901C9B2024B19541C
:104F6800F4E700BF00ED00E014ED00E00138B0F117
:104F7800807F0BD24FF0E0235861054AF02182F878
:104F880023100020986107221A617047012070479A
:104F980000ED00E060B370B50E461546044683691F
:104FA800B3F5807F26D090F84130E3B1214651F81F
:104FB800080BFFF74FFAA26831462068FFF77EFA20
:104FC800236BA26829466068FFF7A0FA2268A168E7
:104FD80052F8213043F0010342F82130012384F8CC
:104FE8004130002070BD80F84030FBF7B3FFDDE7AB
:104FF800012070470120F5E7002800F0CC8070B54B
:10500800044690F83D30002B77D0242384F83D30B7
:105018002268136823F0010313602268136843F4BD
:10502800004313602268136823F400431360FFF7FA
:10503800FDFD62685A4B9A4264D85A4B98428CBF1D
:1050480000230123002B40F0A8805749A1FB003121
:105058008B0C25686A6822F03F0242EA91426A6036
:1050680021680A6A22F03F0266684D4DAE424FD869
:10507800013313430B622168CA6922F44F4222F0BC
:10508800FF026668464B9E424CD8431E7600B3FB2F
:10509800F6F3013340F6FC70034278D0C3F30B03F8
:1050A8001343CB6121680B6823F0C003E269206ACF
:1050B800024313430B6021688B6823F4034323F0F6
:1050C800FF032269E068024313438B602168CB68C1
:1050D80023F0FF036269A06902431343CB6022688F
:1050E800136843F00103136000202064202384F830
:1050F8003D30206384F83E0070BD80F83C30FBF7FB
:105108004BFF82E7294B98428CBF0023012399E784
:105118004FF4967505FB03F3254DA5FB03539B0937
:105128000133A6E7A368BBB9451E06EB460CB5FBE1
:10513800FCF50135C5F30B05B5FA85F56D0945BBD9
:10514800C3B9013806EB4603B0FBF3F30133C3F3ED
:105158000B0343F40043A3E7451E06EB860C0CEB58
:105168008C0CB5FBFCF50135C5F30B05B5FA85F5D7
:105178006D09E4E7013806EB860303EB8303B0FB14
:10518800F3F30133C3F30B0343F4404388E70423E9
:1051980086E7012384E7012070470120ACE700BFC0
:1051A800A08601007F841E0083DE1B43FF083D00AC
:1051B800D34D621010B504460268136923F44053B6
:1051C800C1680B43136183680269134342691A4338
:1051D8000168CB6823F4B05323F00C031343CB606E
:1051E8000268536923F4407381690B435361026871
:1051F800134B9A4220D0FFF719FD024602EB8202B8
:1052080002EB820263689B00B2FBF3F20D48A0FB3D
:1052180002314909642303FB11231B013233A0FB2C
:1052280003235B0903F0F00202EB011203F00F0302
:10523800216813448B6010BDFFF708FD0246DDE7C7
:10524800003801401F85EB512DE9F84305460F460C
:1052580016469946DDF820802C68246837EA04034E
:105268000CBF4FF0010C4FF0000CB4451FD1B8F142
:10527800FF3FF1D0B8F1000F05D0FFF7ADF9A0EB73
:1052880009004045E8D92A68D36823F4D073D3606D
:105298002A68536923F001035361202385F83D30C0
:1052A80085F83E30002385F83C30032000E00020DC
:1052B800BDE8F88358B310B5044690F83D300BB3F9
:1052C800242384F83D302268D36823F40053D36044
:1052D8002046FFF76FFF2268136923F49043136198
:1052E8002268536923F02A0353612268D36843F480
:1052F8000053D36000202064202384F83D3084F8D4
:105308003E3010BD80F83C30FBF792FED8E7012014
:1053180070472DE9F04182B01E4690F83D30DBB26F
:10532800202B54D104460D469046002953D0002A1C
:1053380053D090F83C30012B51D0012380F83C30F9
:1053480000230364212380F83D30FFF745F9074621
:10535800A4F82480A4F82680A368B3F5805F05D05C
:105368004FF00008002384F83C3012E0236913B1A1
:105378004FF00008F6E7A8460025F3E738F8023BA7
:105388002268C3F308035360E28C92B2013A92B2E6
:10539800E284E38C9BB273B100963B4600228021E5
:1053A8002046FFF751FFE0B9002DE7D015F8012B93
:1053B80023685A60E8E700963B46002240212046D1
:1053C800FFF742FF78B9202384F83D3000E002203F
:1053D80002B0BDE8F0810120FAE70120F8E70220D9
:1053E800F6E70320F4E70320F2E770470C480D497D
:1053F8000D4A002302E0D458C4500433C4188C4228
:10540800F9D30A4A0A4C002301E013600432A2428D
:10541800FBD3FFF7EAFF00F00FF8FBF765FC7047D6
:1054280000000020B4000020A0660008B40000209E
:10543800DC010020FEE7000070B500260C4D0D4C85
:10544800641BA410A64209D101F028F800260A4DD1
:105458000A4C641BA410A64205D170BD55F8043B44
:1054680098470136EEE755F8043B98470136F2E7CE
:105478009866000898660008986600089C66000808
:1054880003460244934200D1704703F8011BF9E731
:105498000FB40A4B13B51C6824B1A36913B920468D
:1054A80000F05AFA05AB2046049AA168019300F06F
:1054B80023FC02B0BDE8104004B070475000002043
:1054C80070B50E46054618B183690BB900F044FA69
:1054D800AB69AC6813B9284600F03EFA2C4B9C42E5
:1054E80020D16C68636EDB0705D4A389980502D4C4
:1054F800A06D00F0CFFAA38919071DD52369DBB188
:10550800013EA36816F8011F013BA36039BB002BBD
:1055180038DA22460A21284600F048F8013011D02E
:105528000A2511E01B4B9C4201D1AC68DAE71A4B03
:105538009C4208BFEC68D5E72146284600F088F869
:105548000028DDD04FF0FF35636EDA0705D4A38954
:105558009B0502D4A06D00F09EFA284670BD002B72
:1055680004DAA2699A4206DC0A2904D023685A1C84
:1055780022601970C5E72246284600F017F8013066
:10558800BFD1DFE70A2523685A1C22601D70DBE7BC
:10559800246600084466000804660008024B0146B9
:1055A8001868FFF78DBF00BF50000020F8B50E4601
:1055B8001446054618B183690BB900F0CDF9214BA3
:1055C8009C422BD16C68A369A360A3891A072FD5C5
:1055D80023696BB323692068F6B2C01A636937463A
:1055E800834204DC2146284600F022F930BBA36838
:1055F8000130013BA36023685A1C22601E70636956
:10560800834204D0A389DB0706D50A2E04D121469C
:10561800284600F00DF988B93846F8BD0A4B9C4277
:1056280001D1AC68CFE7094B9C4208BFEC68CAE7D8
:105638002146284600F00CF80028CBD04FF0FF3761
:10564800EAE700BF2466000844660008046600080C
:10565800324B70B51D6806460C4625B1AB6913B9C7
:10566800284600F079F92E4B9C420FD16C68A3892B
:10567800B4F90C2019072CD4DD0611D409233360A2
:1056880042F040034FF0FF30A3813EE0254B9C429F
:1056980001D1AC68EBE7244B9C4208BFEC68E6E715
:1056A800580712D5616B41B104F14403994202D005
:1056B800304600F057FA00236363A38923F02403DC
:1056C800A3810023636023692360A38943F008034F
:1056D800A38123694BB9A38903F42073B3F5007F31
:1056E80003D02146304600F0FDF9A089B4F90C201A
:1056F80010F001030AD00023A36063695B42A36131
:10570800236943B910F08000BAD170BD810758BF32
:105718006369A360F4E70020F7E700BF50000020AA
:105728002466000844660008046600088A89F8B5FB
:10573800054610070C4657D44B68002B04DC0B6C4D
:10574800002B01DC0020F8BDE66A002EFAD0002309
:1057580012F480522F682B6032D0606DA3895A07EB
:1057680005D56368C01A636B0BB1236CC01A00239C
:105778000246E66A2846216AB047431CA38906D137
:1057880029681D292CD8294ACA40D60728D50022BD
:1057980062602269D904226004D5421C01D12B68B9
:1057A80003B96065616B2F600029CBD004F1440315
:1057B800994202D0284600F0D5F900206063C2E77C
:1057C800216A01232846B047411CC7D12B68002B0A
:1057D800C4D01D2B01D0162B01D12F60B2E7A389AD
:1057E80043F04003A381AEE70F69002FAAD09307C7
:1057F80018BF00230E6808BF4B69F61B0F608B604B
:10580800002E9FDD33463A462846216AD4F828C040
:10581800E047002806DCA3894FF0FF3043F040033F
:10582800A38190E70744361AEAE700BF0100402049
:1058380038B50B6905460C4613B90025284638BD0E
:1058480018B183690BB900F087F8144B9C421BD13F
:105858006C68B4F90C30002BEFD0626ED00704D41A
:10586800990502D4A06D00F015F928462146FFF7E6
:105878005DFF636E0546DA07E0D4A3899B05DDD496
:10588800A06D00F008F9D9E7054B9C4201D1AC683E
:10589800DFE7044B9C4208BFEC68DAE7246600089F
:1058A8004466000804660008002310B50446C0E9F1
:1058B8000033C0E90433836081814366C281836118
:1058C800194608225C30FFF7DBFD054B2462636252
:1058D800044BA362044BE362044B236310BD00BF77
:1058E800AD620008CF620008076300082B63000858
:1058F800014900F0AFB800BF39580008682270B5F8
:105908004D1E55430E4605F1740100F073F9044627
:1059180040B10021C0E900160C30A06005F1680212
:10592800FFF7AEFD204670BD014800F0B3B800BFD8
:10593800C9010020014800F0AEB800BFC90100202D
:10594800014800F0A7B800BFCA010020014800F0D4
:10595800A2B800BFCA01002010B50446FFF7F0FF47
:10596800A3691BB1BDE81040FFF7F0BFC4E91233CB
:105978002365134B134A1B68A262A34208BF012385
:10598800204608BFA36100F01FF86060204600F0C1
:105998001BF8A060204600F017F800220421E06000
:1059A8006068FFF781FF01220921A068FFF77CFFEB
:1059B80002221221E068FFF777FF0123A361D1E7F4
:1059C80000660008F9580008F8B50746FFF7ACFF6D
:1059D8001E4B1E68B36913B93046FFF7BDFF483642
:1059E800D6E90134013B03D533680BB33668F7E7D2
:1059F800B4F90C50D5B9164B04F15800E36065664C
:105A080000F047F8FFF796FF08222946C4E9015538
:105A1800C4E904552560A56104F15C00FFF730FD79
:105A2800C4E90D55C4E912552046F8BD6834D9E7D4
:105A380004213846FFF762FF044630600028D5D1BC
:105A4800FFF778FF0C233B60EEE700BF0066000815
:105A58000100FFFF2DE9F84306468846002700F1BC
:105A68004804D4E90195B9F1010905D52468002C49
:105A7800F7D13846BDE8F883AB89012B07D9B5F9CA
:105A88000E30013303D029463046C04707436835F6
:105A9800E9E770477047704770B50E46B1F90E10C8
:105AA800144600291D4696B008DA0022B6F90C30D3
:105AB8002A601A0610D44FF480630EE06A4600F09C
:105AC80057FC0028F1DB019A02F47042A2F500535A
