:020000040800F2
:1000000000000220C9D402081111000813110008D1
:100010001511000817110008191100080000000050
:100020000000000000000000000000001174000843
:100030001B11000800000000B174000815750008CD
:1000400019D5020819D5020819D5020819D50208D0
:1000500019D5020819D5020819D5020819D50208C0
:1000600019D5020819D5020819D5020819D50208B0
:1000700019D5020819D5020819D5020819D50208A0
:1000800019D5020819D5020819D5020819D5020890
:1000900019D5020819D5020819D5020819D5020880
:1000A00019D5020819D5020819D5020819D5020870
:1000B00019D5020819D5020819D5020819D5020860
:1000C00019D5020819D5020819D5020819D5020850
:1000D00019D502081D11000819D5020819D5020802
:1000E00019D5020819D5020819D5020819D5020830
:1000F00019D502082D11000819D5020819D50208D2
:1001000019D5020819D5020819D5020819D502080F
:1001100019D5020819D5020819D5020819D50208FF
:100120003D11000819D5020819D5020819D5020891
:1001300019D5020819D5020819D5020819D50208DF
:1001400019D5020819D5020819D5020819D50208CF
:1001500019D5020819D502084D11000819D5020851
:1001600019D5020819D5020819D5020819D50208AF
:1001700019D5020819D5020819D502080000000097
:0801800019D5020819D5020887
:1001900010B5054C237833B9044B13B10448AFF3C1
:1001A00000800123237010BD8802002000000000A1
:1001B0008801030808B5034B1BB103490348AFF39B
:1001C000008008BD000000008C02002088010308A8
:1001D00010F8012B11F8013B012A28BF9A42F7D0F1
:1001E000D01A7047034613F8012B002AFBD1181AC6
:1001F000013870470000000000000000000000000F
:1002000001F0FF01102A2BDB10F0070F08D010F8C7
:10021000013B013A8B422DD010F0070F42B3F6D1CB
:10022000F0B441EA012141EA014122F007047FF0E4
:1002300000070023F0E80256083C85EA010586EA3B
:10024000010685FA47F5A3FA87F586FA47F6A5FA77
:1002500087F68EB9EED1F0BC01F0FF0102F0070283
:1002600032B110F8013B013A83EA010313B1F8D12E
:100270000020704701387047002D06BF354603380F
:10028000073815F0010F07D1013015F4807F02BF48
:10029000013015F4C03F0130F0BC0138704700BF99
:1002A00081F0004102E000BF83F0004330B54FEA27
:1002B00041044FEA430594EA050F08BF90EA020F94
:1002C0001FBF54EA000C55EA020C7FEA645C7FEA27
:1002D000655C00F0E2804FEA5454D4EB5555B8BF4A
:1002E0006D420CDD2C4480EA020281EA030382EABB
:1002F000000083EA010180EA020281EA0303362D4D
:1003000088BF30BD11F0004F4FEA01314FF4801C1F
:100310004CEA113102D0404261EB410113F0004F31
:100320004FEA03334CEA133302D0524263EB4303E8
:1003300094EA050F00F0A780A4F10104D5F1200E86
:100340000DDB02FA0EFC22FA05F2801841F10001E1
:1003500003FA0EF2801843FA05F359410EE0A5F1B5
:1003600020050EF1200E012A03FA0EFC28BF4CF0E6
:10037000020C43FA05F3C01851EBE37101F000459C
:1003800007D54FF0000EDCF1000C7EEB00006EEBA9
:100390000101B1F5801F1BD3B1F5001F0CD3490833
:1003A0005FEA30004FEA3C0C04F101044FEA44528A
:1003B00012F5800F80F09A80BCF1004F08BF5FEA11
:1003C000500C50F1000041EB045141EA050130BDF1
:1003D0005FEA4C0C404141EB0101013C28BFB1F503
:1003E000801FE9D291F0000F04BF01460020B1FA4E
:1003F00081F308BF2033A3F10B03B3F120020CDA21
:100400000C3208DD02F1140CC2F10C0201FA0CF0FE
:1004100021FA02F10CE002F11402D8BFC2F1200C63
:1004200001FA02F120FA0CFCDCBF41EA0C01904019
:10043000E41AA2BF01EB0451294330BD6FEA040462
:100440001F3C1CDA0C340EDC04F11404C4F120024D
:1004500020FA04F001FA02F340EA030021FA04F35F
:1004600045EA030130BDC4F10C04C4F1200220FAB6
:1004700002F001FA04F340EA0300294630BD21FAF4
:1004800004F0294630BD94F0000F83F4801306BFBA
:1004900081F480110134013D4EE77FEA645C18BFAE
:1004A0007FEA655C29D094EA050F08BF90EA020F45
:1004B00005D054EA000C04BF1946104630BD91EA3D
:1004C000030F1EBF0021002030BD5FEA545C05D140
:1004D0004000494128BF41F0004130BD14F580047F
:1004E0003CBF01F5801130BD01F0004545F0FE41F3
:1004F00041F470014FF0000030BD7FEA645C1ABF28
:10050000194610467FEA655C1CBF0B46024650EA5E
:10051000013406BF52EA033591EA030F41F400218A
:1005200030BD00BF90F0000F04BF0021704730B510
:100530004FF4806404F132044FF000054FF00001E5
:1005400050E700BF90F0000F04BF0021704730B5A6
:100550004FF4806404F1320410F0004548BF40427B
:100560004FF000013EE700BF42004FEAE2014FEAD0
:1005700031014FEA02701FBF12F07F4393F07F4FAB
:1005800081F06051704732F07F4208BF704793F0AE
:100590007F4F04BF41F40021704730B54FF46074C1
:1005A00001F0004521F000411CE700BF50EA0102C4
:1005B00008BF704730B54FF000050AE050EA01026D
:1005C00008BF704730B511F0004502D5404261EBDD
:1005D00041014FF4806404F132045FEA915C3FF41E
:1005E000D8AE4FF003025FEADC0C18BF03325FEABB
:1005F000DC0C18BF033202EBDC02C2F1200300FA6C
:1006000003FC20FA02F001FA03FE40EA0E0021FA90
:1006100002F11444BDE600BF70B54FF0FF0C4CF47E
:10062000E06C1CEA11541DBF1CEA135594EA0C0F30
:1006300095EA0C0F00F0DEF82C4481EA030621EA6B
:100640004C5123EA4C5350EA013518BF52EA0335A6
:1006500041F4801143F4801338D0A0FB02CE4FF058
:100660000005E1FB02E506F00042E0FB03E54FF088
:100670000006E1FB03569CF0000F18BF4EF0010E80
:10068000A4F1FF04B6F5007F64F5407404D25FEA7C
:100690004E0E6D4146EB060642EAC62141EA55512F
:1006A0004FEAC52040EA5E504FEACE2EB4F1FD0C71
:1006B00088BFBCF5E06F1ED8BEF1004F08BF5FEAEF
:1006C000500E50F1000041EB045170BD06F00046A1
:1006D00046EA010140EA020081EA0301B4EB5C044E
:1006E000C2BFD4EB0C0541EA045170BD41F4801146
:1006F0004FF0000E013C00F3AB8014F1360FDEBF6B
:10070000002001F0004170BDC4F10004203C35DA46
:100710000C341BDC04F11404C4F1200500FA05F3C9
:1007200020FA04F001FA05F240EA020001F000426A
:1007300021F0004110EBD37021FA04F642EB0601E0
:100740005EEA430E08BF20EAD37070BDC4F10C040A
:10075000C4F1200500FA04F320FA05F001FA04F2CE
:1007600040EA020001F0004110EBD37041F10001BA
:100770005EEA430E08BF20EAD37070BDC4F12005C5
:1007800000FA05F24EEA020E20FA04F301FA05F22D
:1007900043EA020321FA04F001F0004121FA04F2D5
:1007A00020EA020000EBD3705EEA430E08BF20EAA5
:1007B000D37070BD94F0000F0FD101F000464000DF
:1007C00041EB010111F4801F08BF013CF7D041EA61
:1007D000060195F0000F18BF704703F00046520065
:1007E00043EB030313F4801F08BF013DF7D043EA36
:1007F0000603704794EA0C0F0CEA135518BF95EAEC
:100800000C0F0CD050EA410618BF52EA4306D1D172
:1008100081EA030101F000414FF0000070BD50EA91
:10082000410606BF1046194652EA430619D094EA1B
:100830000C0F02D150EA013613D195EA0C0F05D105
:1008400052EA03361CBF104619460AD181EA030159
:1008500001F0004141F0FE4141F470014FF0000011
:1008600070BD41F0FE4141F4780170BD70B54FF0AC
:10087000FF0C4CF4E06C1CEA11541DBF1CEA13552C
:1008800094EA0C0F95EA0C0F00F0A7F8A4EB05040E
:1008900081EA030E52EA03354FEA013100F0888005
:1008A0004FEA03334FF0805545EA131343EA1263CE
:1008B0004FEA022245EA111545EA10654FEA002683
:1008C0000EF000419D4208BF964244F1FD0404F53C
:1008D000407402D25B084FEA3202B61A65EB030598
:1008E0005B084FEA32024FF480104FF4002CB6EB55
:1008F000020E75EB030E22BFB61A754640EA0C00D5
:100900005B084FEA3202B6EB020E75EB030E22BF14
:10091000B61A754640EA5C005B084FEA3202B6EB55
:10092000020E75EB030E22BFB61A754640EA9C0014
:100930005B084FEA3202B6EB020E75EB030E22BFE4
:10094000B61A754640EADC0055EA060E18D04FEAA2
:10095000051545EA16754FEA06164FEAC30343EA42
:1009600052734FEAC2025FEA1C1CC0D111F4801F0F
:100970000BD141EA00014FF000004FF0004CB6E708
:1009800011F4801F04BF01430020B4F1FD0C88BFA7
:10099000BCF5E06F3FF6AFAEB5EB030C04BFB6EBB2
:1009A000020C5FEA500C50F1000041EB045170BDA5
:1009B0000EF0004E4EEA113114EB5C04C2BFD4EBD2
:1009C0000C0541EA045170BD41F480114FF0000E56
:1009D000013C90E645EA060E8DE60CEA135594EAD2
:1009E0000C0F08BF95EA0C0F3FF43BAF94EA0C0FD5
:1009F0000AD150EA01347FF434AF95EA0C0F7FF44A
:100A000025AF104619462CE795EA0C0F06D152EA9D
:100A100003353FF4FDAE1046194622E750EA410681
:100A200018BF52EA43067FF4C5AE50EA41047FF492
:100A30000DAF52EA43057FF4EBAE12E74FF0FF3CF7
:100A400006E000BF4FF0010C02E000BF4FF0010CC8
:100A50004DF804CD4FEA410C7FEA6C5C4FEA430C41
:100A600018BF7FEA6C5C1BD001B050EA410C0CBF90
:100A700052EA430C91EA030F02BF90EA020F0020F2
:100A8000704710F1000F91EA030F58BF994208BF59
:100A900090422CBFD8176FEAE37040F00100704716
:100AA0004FEA410C7FEA6C5C02D150EA013C07D16D
:100AB0004FEA430C7FEA6C5CD6D152EA033CD3D0B8
:100AC0005DF8040B704700BF8446104662468C46B2
:100AD0001946634600E000BF01B5FFF7B7FF0028E5
:100AE00048BF10F1000F01BD4DF808EDFFF7F4FF0E
:100AF0000CBF012000205DF808FB00BF4DF808ED99
:100B0000FFF7EAFF34BF012000205DF808FB00BFBB
:100B10004DF808EDFFF7E0FF94BF012000205DF8DD
:100B200008FB00BF4DF808EDFFF7CEFF94BF012092
:100B300000205DF808FB00BF4DF808EDFFF7C4FF8B
:100B400034BF012000205DF808FB00BF4FEA410CD4
:100B50007FEA6C5C02D150EA013C0AD14FEA430CB7
:100B60007FEA6C5C02D152EA033C02D14FF00000F4
:100B700070474FF0010070474FEA410212F5001232
:100B800015D211D56FF47873B3EB625212D94FEAD4
:100B9000C12343F0004343EA505311F0004F23FABE
:100BA00002F018BF404270474FF00000704750EA13
:100BB000013005D111F0004008BF6FF000407047D0
:100BC0004FF00000704700BF4A0011D212F500122A
:100BD00011D20DD56FF47873B3EB62520ED44FEA95
:100BE000C12343F0004343EA505323FA02F0704715
:100BF0004FF00000704750EA013002D14FF0FF3053
:100C000070474FF00000704753B94AB9002908BF38
:100C100000281CBF4FF0FF314FF0FF3000F074B9D7
:100C2000ADF1080C6DE904CE00F006F8DDF804E043
:100C3000DDE9022304B070472DE9F047089D044622
:100C40008E46002B4DD18A42944669D9B2FA82F27F
:100C500052B101FA02F3C2F1200120FA01F10CFABB
:100C600002FC41EA030E94404FEA1C48210CBEFBF3
:100C7000F8F61FFA8CF708FB16E341EA034306FB7C
:100C800007F199420AD91CEB030306F1FF3080F00B
:100C90001F81994240F21C81023E63445B1AA4B258
:100CA000B3FBF8F008FB103344EA034400FB07F7FA
:100CB000A7420AD91CEB040400F1FF3380F00A813B
:100CC000A74240F207816444023840EA0640E41B30
:100CD00000261DB1D4400023C5E900433146BDE8DC
:100CE000F0878B4209D9002D00F0EF800026C5E97E
:100CF000000130463146BDE8F087B3FA83F6002E96
:100D00004AD18B4202D3824200F2F980841A61EB0D
:100D1000030301209E46002DE0D0C5E9004EDDE72B
:100D200002B9FFDEB2FA82F2002A40F09280A1EB13
:100D30000C014FEA1C471FFA8CFE0126200CB1FB68
:100D4000F7F307FB131140EA01410EFB03F0884261
:100D500008D91CEB010103F1FF3802D2884200F2EE
:100D6000CB804346091AA4B2B1FBF7F007FB101180
:100D700044EA01440EFB00FEA64508D91CEB04041E
:100D800000F1FF3102D2A64500F2BB800846A4EB79
:100D90000E0440EA03409CE7C6F12007B34022FA64
:100DA00007FC4CEA030C20FA07F401FA06F31C4393
:100DB000F9404FEA1C4900FA06F3B1FBF9F8200CA0
:100DC0001FFA8CFE09FB181140EA014108FB0EF0E6
:100DD000884202FA06F20BD91CEB010108F1FF3A36
:100DE00080F08880884240F28580A8F10208614442
:100DF000091AA4B2B1FBF9F009FB101144EA014150
:100E000000FB0EFE8E4508D91CEB010100F1FF34FA
:100E10006CD28E456AD90238614440EA0840A0FB92
:100E20000294A1EB0E01A142C846A64656D353D068
:100E30005DB1B3EB080261EB0E0101FA07F722FA8C
:100E400006F3F1401F43C5E9007100263146BDE8B5
:100E5000F087C2F12003D8400CFA02FC21FA03F318
:100E6000914001434FEA1C471FFA8CFEB3FBF7F099
:100E700007FB10360B0C43EA064300FB0EF69E42BE
:100E800004FA02F408D91CEB030300F1FF382FD257
:100E90009E422DD9023863449B1B89B2B3FBF7F6FF
:100EA00007FB163341EA034106FB0EF38B4208D9D8
:100EB0001CEB010106F1FF3816D28B4214D9023E19
:100EC0006144C91A46EA004638E72E46284605E737
:100ED0000646E3E61846F8E64B45A9D2B9EB020808
:100EE00064EB0C0E0138A3E74646EAE7204694E798
:100EF0004046D1E7D0467BE7023B614432E73046CB
:100F000009E76444023842E7704700BF08B5026849
:100F1000034B9A4200D008BD01F0F6F9FBE700BF91
:100F20000020004072B6FEE700B595B030220021E7
:100F300008A82CF025FB0023039304930593069344
:100F4000079301931F4A116C41F080511164126C98
:100F500002F080520192019A02931B4A116841F4F7
:100F600080411160126802F480420292029A0222C9
:100F7000089201210B9110210C910E920F930823DE
:100F80001093A823119312920423139308A800F03E
:100F9000A1FA98B90F230393022304930023059326
:100FA0004FF4A05306934FF480530793052103A8F1
:100FB00000F0DEFC20B915B05DF804FBFFF7B2FFCE
:100FC000FFF7B0FF003802400070004008B501F0A4
:100FD00081F9FFF7A9FF00F00DF801F0C5F903F062
:100FE000C1FE03F071FE06F04BFB05F0C5FB06F0F9
:100FF00057F8FEE7F0B58FB0002409940A940B94DB
:101000000C940D9401943F4B1A6B42F004021A6346
:101010001A6B02F004020192019A02941A6B42F0D8
:1010200020021A631A6B02F020020292029A0394C1
:101030001A6B42F080021A631A6B02F0800203926C
:10104000039A04941A6B42F010021A631A6B02F0AE
:1010500010020492049A05941A6B42F002021A6379
:101060001A6B02F002020592059A06941A6B42F07E
:1010700008021A631A6B02F008020692069A079495
:101080001A6B42F001021A631A6B02F00102079216
:10109000079A08941A6B42F040021A631B6B03F024
:1010A00040030893089B184F22464FF4624138468C
:1010B00000F04BFE154D224648F24001284600F054
:1010C00044FE4FF46243099301260A960B940C9454
:1010D00009A9384600F040FD4FF4004309930A96F1
:1010E0000B940C9409A9284600F036FD402309937F
:1010F0000A960B9403230C9309A9284600F02CFDB3
:101100000FB0F0BD0038024000140240000402405D
:10111000FEE7FEE7FEE7FEE7FEE7704708B5024898
:1011200005F066F908BD00BF6C03002008B5024851
:1011300000F080F808BD00BFB083002008B5024869
:1011400000F082FF08BD00BF4CC1002008B5024876
:1011500000F07AFF08BD00BF0C03002000B583B08B
:10116000002200920D4B596C41F480415964596C36
:1011700001F48041009100990192196C41F0805175
:1011800019641B6C03F080530193019B0F216FF0D6
:10119000010001F059F803B05DF804FB003802408B
:1011A0007047000090F83D30DBB2012B37D10223AD
:1011B00080F83D300268D36843F00103D3600368D0
:1011C000194A934220D0B3F1804F1DD0A2F57C4242
:1011D000934219D002F58062934215D002F58062E5
:1011E000934211D002F5784293420DD002F570522D
:1011F000934209D0A2F59432934205D01A6842F086
:1012000001021A60002070479A6802F00702062A5D
:1012100007D01A6842F001021A60002070470120CE
:1012200070470020704700BF0000014070477047C2
:101230007047704710B5044603681A6912F0020F30
:1012400011D0DA6812F0020F0DD06FF002021A61AD
:101250000123037703689B6913F0030F70D0FFF736
:10126000E6FF0023237723681A6912F0040F12D0D7
:10127000DA6812F0040F0ED06FF004021A61022334
:10128000237723689B6913F4407F5FD02046FFF7E4
:10129000CEFF0023237723681A6912F0080F12D0BB
:1012A000DA6812F0080F0ED06FF008021A610423FA
:1012B00023772368DB6913F0030F4ED02046FFF736
:1012C000B6FF0023237723681A6912F0100F12D09B
:1012D000DA6812F0100F0ED06FF010021A610823B6
:1012E00023772368DB6913F4407F3DD02046FFF766
:1012F0009EFF0023237723681A6912F0010F03D0A1
:10130000DA6812F0010F36D123681A6912F0800FE3
:1013100003D0DA6812F0800F34D123681A6912F012
:10132000400F03D0DA6812F0400F32D123681A69F7
:1013300012F0200F03D0DA6812F0200F30D110BD68
:10134000FFF774FF2046FFF773FF8AE72046FFF799
:101350006DFF2046FFF76CFF9BE72046FFF766FF17
:101360002046FFF765FFACE72046FFF75FFF20460A
:10137000FFF75EFFBDE76FF001021A612046FFF73D
:10138000C5FDC1E76FF080021A61204600F0A1F8A8
:10139000C3E76FF040021A612046FFF74AFFC5E736
:1013A0006FF020021A61204600F092F8C7E70000B3
:1013B0000368304A904212D0B0F1804F0FD0A2F5AE
:1013C0007C4290420BD002F58062904207D002F539
:1013D0008062904203D002F57842904203D123F01C
:1013E00070034A681343234A90422AD0B0F1804FD9
:1013F00027D0A2F57C42904223D002F58062904231
:101400001FD002F5806290421BD002F578429042D4
:1014100017D002F57052904213D002F580629042CC
:101420000FD002F5806290420BD0A2F59832904224
:1014300007D002F58062904203D002F580629042AC
:1014400003D123F44073CA68134323F080034A692D
:10145000134303608B68C3620B688362054B984239
:1014600003D003F58063984201D10B690363012324
:10147000436170470000014040B310B5044690F846
:101480003D30F3B1022384F83D30214651F8040B7E
:10149000FFF78EFF012384F8463084F83E3084F84D
:1014A0003F3084F8403084F8413084F8423084F88A
:1014B000433084F8443084F8453084F83D300020CF
:1014C00010BD80F83C30FFF76BFEDBE70120704772
:1014D00070477047002800F0E08170B582B0044684
:1014E000036813F0010F3BD09F4B9B6803F00C0384
:1014F000042B2CD09C4B9B6803F00C03082B21D0B1
:101500006368B3F5803F4FD0B3F5A02F52D0964B10
:101510001A6822F480321A601A6822F480221A6053
:101520006368002B50D000F0FBFE05468E4B1B6815
:1015300013F4003F14D100F0F3FE401B6428F5D9EA
:101540000320B1E1884B5B6813F4800FD8D0864B41
:101550001B6813F4003F03D06368002B00F09F81E9
:10156000236813F0020F54D07F4B9B6813F00C0FCD
:101570003ED07D4B9B6803F00C03082B33D0E3680F
:10158000002B68D0794B01221A6000F0C9FE054695
:10159000754B1B6813F0020F54D100F0C1FE401BC5
:1015A0000228F5D903207FE16F4A136843F48033A2
:1015B0001360B5E76C4B1A6842F480221A601A680F
:1015C00042F480321A60ABE700F0AAFE0546664B93
:1015D0001B6813F4003FC3D000F0A2FE401B642838
:1015E000F5D9032060E1604B5B6813F4800FC6D12E
:1015F0005D4B1B6813F0020F03D0E368012B40F032
:101600005081594A136823F0F803216943EAC10362
:101610001360236813F0080F42D063696BB3534B18
:101620000122C3F8802E00F07BFE05464E4B5B6F17
:1016300013F0020F34D100F073FE401B0228F5D9DD
:10164000032031E1484A136823F0F803216943EA93
:10165000C1031360DDE7454B00221A6000F060FE15
:101660000546414B1B6813F0020FD2D000F058FE24
:10167000401B0228F5D9032016E13C4B0022C3F899
:10168000802E00F04DFE0546374B5B6F13F0020FC6
:1016900006D000F045FE401B0228F5D9032003E1E7
:1016A000236813F0040F77D02F4B1B6C13F0805F6F
:1016B00033D1002301932C4B1A6C42F080521A64F0
:1016C0001B6C03F080530193019B0125284B1B6881
:1016D00013F4807F23D0A368012B34D0052B38D09E
:1016E000214B1A6F22F001021A671A6F22F00402CE
:1016F0001A67A368002B3DD000F012FE06461A4B75
:101700001B6F13F0020F46D100F00AFE801B41F25E
:1017100088339842F3D90320C6E00025D6E7144A5F
:10172000136843F48073136000F0FAFD0646104B13
:101730001B6813F4807FCED100F0F2FD801B0228DD
:10174000F5D90320B0E0084A136F43F00103136793
:10175000CFE7054B1A6F42F004021A671A6F42F086
:1017600001021A67C5E700BF003802400000474287
:101770000070004000F0D4FD0646524B1B6F13F082
:10178000020F08D000F0CCFD801B41F28833984254
:10179000F3D9032088E0EDB9A369002B00F0838022
:1017A000484A926802F00C02082A51D0022B17D046
:1017B000454B00221A6600F0B3FD0446414B1B68FE
:1017C00013F0007F42D000F0ABFD001B0228F5D9DA
:1017D000032069E03B4A136C23F080531364DBE77A
:1017E000394B00221A6600F09BFD0546354B1B68FD
:1017F00013F0007F06D000F093FD401B0228F5D9BE
:10180000032051E0E369226A1343626A43EA8213C8
:10181000A26A5208013A43EA0243E26A43EA0263D7
:10182000284A5360284B01221A6600F079FD0446CD
:10183000244B1B6813F0007F06D100F071FD001BE4
:101840000228F5D903202FE000202DE000202BE016
:10185000012B2BD01B4B5B6803F48001E2699142A2
:1018600026D103F03F02216A8A4223D1616A47F6FA
:10187000C0721A40B2EB811F1ED103F44031A26A3C
:101880005208013AB1EB024F18D103F07063E26ADB
:10189000B3EB026F14D1002006E001207047012055
:1018A00002E0012000E0002002B070BD0120FBE753
:1018B0000120F9E70120F7E70120F5E70120F3E730
:1018C0000120F1E7003802400000474208B5254BEF
:1018D0009B6803F00C03042B3FD0082B3FD1214B16
:1018E0005A6802F03F025B6813F4800F12D01D4B60
:1018F0005968C1F388111C480023A1FB0001FFF7C0
:1019000083F9184B5B68C3F3014301335B00B0FB01
:10191000F3F025E0134B5968C1F3881C4FEA4C11D2
:10192000B1EB0C006EEB0E0E4FEA8E1343EA9063A0
:101930008101091A63EB0E03DB0043EA5173C9000E
:1019400011EB0C0C43F10003990200234FEA8C20A9
:1019500041EA9C51FFF758F9D3E7034800E00348F8
:1019600008BD00BF0038024040787D010024F4002B
:10197000002800F09B8070B50D4604464F4B1B6855
:1019800003F007038B4208D2CBB24C4A13701368A2
:1019900003F007038B4240F08B80236813F0020FA3
:1019A00017D013F0040F04D0454A936843F4E05372
:1019B0009360236813F0080F04D0414A936843F4FE
:1019C000604393603E4A936823F0F003A1680B43A1
:1019D0009360236813F0010F32D06368012B21D08C
:1019E0009A1E012A25D9364A126812F0020F61D0D8
:1019F00033498A6822F0030213438B6000F090FCA5
:101A000006462F4B9B6803F00C036268B3EB820F12
:101A100016D000F085FC801B41F288339842F0D943
:101A2000032042E0264A126812F4003FE0D1012070
:101A30003BE0234A126812F0007FD9D1012034E044
:101A40001E4B1B6803F00703AB4207D9EAB21B4BDE
:101A50001A701B6803F00703AB422DD1236813F003
:101A6000040F06D0164A936823F4E053E1680B4351
:101A70009360236813F0080F07D0114A936823F48A
:101A80006043216943EAC1039360FFF71FFF0C4BDA
:101A90009B68C3F303130B4AD35CD8400A4B18600E
:101AA0000A4B186804F0AAFE002070BD01207047A0
:101AB0000120FAE70120F8E70120F6E7003C0240A8
:101AC00000380240BC020308080000200400002087
:101AD000014B1868704700BF0800002008B5FFF7E9
:101AE000F7FF044B9B68C3F38223034AD35CD840BF
:101AF00008BD00BF00380240CC02030808B5FFF75C
:101B0000E7FF044B9B68C3F34233034AD35CD840DE
:101B100008BD00BF00380240CC0203080F23036059
:101B20000B4B9A6802F0030242609A6802F0F002DE
:101B300082609A6802F4E052C2609B68DB0803F49A
:101B4000E0530361034B1B6803F007030B6070470E
:101B500000380240003C024000230F2B00F2E480DA
:101B600070B582B060E085685E000324B44025EA69
:101B70000405CC68B4402C438460456825EA02051E
:101B80004C68C4F300129A402A4342605AE0DC08D1
:101B9000083450F8246003F0070295000F22AA4091
:101BA00026EA020E0A69AA4042EA0E0240F8242000
:101BB0005CE0072200E0002202FA0EF22A4302341F
:101BC0005A4D45F824205A4A14686FEA0C0224EA58
:101BD0000C054E6816F4803F01D04CEA0405544CC5
:101BE0002560646802EA04054E6816F4003F01D0DF
:101BF0004CEA04054E4C6560A46802EA04054E6890
:101C000016F4801F01D04CEA0405494CA560E46835
:101C100022404D6815F4001F01D04CEA0402444CE8
:101C2000E26001330F2B7DD801229A400C6804EA50
:101C3000020C32EA0404F4D14C6804F00304013CC1
:101C4000012C90D94A6802F00302032A09D0C46823
:101C50005D000322AA4024EA02048A68AA402243C3
:101C6000C2604A6802F00302022A90D004684FEA78
:101C7000430E032202FA0EF224EA02044A6802F03A
:101C8000030202FA0EF2224302604A6812F0805FF9
:101C9000C7D000220192274A546C44F48044546413
:101CA000526C02F480420192019A9C08A51C1F4AC2
:101CB00052F8255003F003024FEA820E0F2202FA77
:101CC0000EF225EA02051C4A90423FF474AF02F579
:101CD000806290421AD002F58062904218D002F5DC
:101CE0008062904216D002F58062904214D002F5D4
:101CF0008062904212D002F58062904210D002F5CC
:101D0000806290423FF455AF082255E7012253E725
:101D1000022251E703224FE704224DE705224BE759
:101D2000062249E702B070BD704700BF003801408D
:101D3000003C0140003802400000024003691942A3
:101D400001D001207047002070470AB181617047BF
:101D500009048161704730B405682C6824F480243C
:101D60002C60046863608368402B05D00368996029
:101D70000368DA6030BC704703689A600368D96012
:101D8000F8E7000010B40368D9B210390C4AA2FB7E
:101D9000014212090B4CA25CC2655F2909D923F4E8
:101DA0007F7323F0030304338365806D5DF8044B78
:101DB000704723F47F7323F003038365F5E700BFC7
:101DC000ABAAAAAAB4020308836A826992B9012B5A
:101DD0000AD0022B02D00BB100207047C36A13F067
:101DE000807F28D100207047C36AB3F1C07F24D020
:101DF00000207047B2F5005F09D0022B25D9032BD4
:101E000025D1C36A13F0807F23D100207047032BB4
:101E100003D8DFE803F01404140A00207047C36AF3
:101E200013F0807F0DD100207047C36AB3F1C07FEB
:101E300009D0002070470120704701207047012021
:101E40007047012070470120704701207047002033
:101E5000704701207047000070B5044600F060FA3A
:101E6000002C5BD00546002384F83430022384F82C
:101E700035302268136823F00103136023681A6861
:101E800012F0010F0AD000F04BFA431B052BF5D9D5
:101E900020236365032084F8350070BD1A6820484C
:101EA00010406168A2680A43E1680A4321690A4355
:101EB00061690A43A1690A43E1690A43216A0A4345
:101EC0000243616A04291ED01A602668756925F0EC
:101ED0000705636A1D43042B07D1A36A1D43E36A08
:101EE0001BB12046FFF770FF90B975612046FFF7E0
:101EF00049FFE26D3F23934083600020606501232A
:101F000084F83530C9E7E16A206B01430A43DBE717
:101F100040236365012084F83500BEE70120BCE75B
:101F20003F8010F038B50446856D90F834000128E4
:101F30002BD0012084F8340094F83500C0B2012879
:101F400004D0002384F83430022038BD022084F805
:101F50003500002060652046FFF7FDFEE26D3F235F
:101F60009340AB602268136843F016031360236C40
:101F700023B12268136843F00803136022681368D2
:101F800043F0010313600020DFE70220DDE770B5B6
:101F90000446866D00F0C4F994F83530DBB2022BAC
:101FA00006D080236365002384F83430012070BD9F
:101FB00005462268136823F01603136022685369EC
:101FC00023F080035361236CE3B12268136823F08C
:101FD000080313602268136823F001031360236869
:101FE0001B6813F0010F11D000F09AF9431B052B69
:101FF000F5D920236365002384F83430032084F866
:102000003500D4E7A36C002BDFD1E3E7E26D3F237B
:102010009340B360002084F83400012384F8353005
:10202000C5E790F83530DBB2022B03D0802343653F
:1020300001207047052380F835300268136823F0CB
:102040000103136000207047F0B583B004460023FD
:102050000193724B1D68724BA3FB0535AD0A876D6A
:102060003E68C26D08239340334210D003681A685B
:1020700012F0040F0BD01A6822F004021A60C26D2D
:1020800008239340BB60436D43F001034365E26D59
:1020900001239340334209D02268526912F0800F25
:1020A00004D0BB60636D43F002036365E26D0423FB
:1020B0009340334209D02268126812F0020F04D014
:1020C000BB60636D43F004036365E26D10239340CE
:1020D000334224D02268126812F0080F1FD0BB6070
:1020E00023681A6812F4802F0DD01B6813F4002F98
:1020F00004D1236C9BB12046984710E0A36C73B1C8
:10210000204698470BE01A6812F4807F03D11A68C2
:1021100022F008021A60236C0BB120469847E26D4A
:1021200020239340334255D02268126812F0100FDA
:1021300050D0BB6094F83530DBB2052B0ED023684D
:102140001A6812F4802F33D01B6813F4002F2AD1A1
:10215000636C002B3ED0204698473BE02268136812
:1021600023F0160313602268536923F08003536140
:10217000236CA3B12268136823F008031360E26D97
:102180003F239340BB60002384F83430012384F85C
:102190003530236D002B3FD0204698473CE0A36CA0
:1021A000002BE7D1EBE7E36BA3B12046984711E0A2
:1021B0001A6812F4807F09D11A6822F010021A609E
:1021C000002384F83430012384F83530E36B0BB1FD
:1021D00020469847636DFBB1636D13F0010F17D074
:1021E000052384F835302268136823F00103136057
:1021F000019B01330193AB4204D823681B6813F0A1
:10220000010FF5D1002384F83430012384F83530F0
:10221000E36C0BB12046984703B0F0BD08000020E6
:10222000B5814E1B074AD36823F4E0631B041B0CE3
:10223000000200F4E060034343F0BF6343F4003363
:10224000D360704700ED00E000B5194BDB68C3F3C5
:102250000223C3F1070CBCF1040F28BF4FF0040C9C
:1022600003F1040EBEF1060F18D9033B4FF0FF3EF9
:102270000EFA0CFC21EA0C0199400EFA03F322EA53
:102280000303194300280BDB0901C9B200F16040C8
:1022900000F5614080F800135DF804FB0023E5E7DA
:1022A00000F00F000901C9B2024B1954F4E700BF56
:1022B00000ED00E014ED00E0002807DB00F01F0255
:1022C000400901239340024A42F82030704700BF82
:1022D00000E100E008B50B4B1A6842F400721A6086
:1022E0001A6842F480621A601A6842F480721A60B6
:1022F0000320FFF797FF002004F080FAFEF72EFF7F
:10230000002008BD003C0240034A1168034B1B78C3
:102310000B441360704700BFA4020020000000209F
:10232000014B1868704700BFA402002038B504466E
:10233000FFF7F6FF0546B4F1FF3F02D0044B1B78D0
:102340001C44FFF7EDFF401BA042FAD338BD00BF8D
:1023500000000020034AD2F8883043F47003C2F82A
:102360008830704700ED00E010B582B00024019481
:102370000D4B1A6B42F480021A631B6B03F480034B
:102380000193019B224605213820FFF75DFF38208D
:10239000FFF792FF224605214620FFF755FF462012
:1023A000FFF78AFF02B010BD003802402DE9F0416E
:1023B00086B0002301930293039304930593224B69
:1023C0001B6813B106B0BDE8F0811F4B01221A60F3
:1023D000002600961D4B9A6B42F001029A639B6B9C
:1023E00003F001030093009B4FF48058CDF8048064
:1023F00002270297032504950C24059401A914488B
:10240000FFF7AAFB4FF6807301930297039604959A
:10241000059401A90F48FFF79FFB4CF2337301931A
:10242000029703960495059401A90B48FFF794FBC6
:10243000CDF80480029703960495059401A90748F6
:10244000FFF78AFBBEE700BFA80200200038024069
:102450000014024000100240000C0240001802402C
:1024600082B0ADF80600BDF806309BB2ADF806307C
:10247000BDF806309BB24FF0D842A2F87E3002B0D1
:10248000704782B0ADF80600BDF806309BB2ADF8DB
:102490000630BDF806309BB24FF0D842A2F880302B
:1024A00002B0704782B04FF0D843B3F880309BB28F
:1024B000ADF80630BDF8060080B202B070474FF0AC
:1024C000D843A3F87E00A3F880107047034B1A8905
:1024D0004FF0D843A3F87E20704700BFFC020020D5
:1024E00070B505460C46444B9B8849F241329342F5
:1024F00029D045F21032934225D041F6631293421F
:1025000035D045F21052934230D13B4E7089FFF7DF
:10251000A7FF280AFFF7B5FF7089013080B2FFF7E7
:102520009FFFE8B2FFF7ADFFB089FFF799FF200AE0
:10253000FFF7A7FFB089013080B2FFF791FFE0B24B
:10254000FFF79FFF12E02C4E7089FFF789FF280AE2
:10255000FFF797FFE8B2FFF794FFB089FFF780FF1E
:10256000200AFFF78EFFE0B2FFF78BFF70BD224B12
:102570009B7953BB204B1888451BADB2013DADB2D2
:102580005889FFF76DFF0020FFF77BFF0020FFF762
:1025900078FF280AFFF775FFE8B2FFF772FF164DC4
:1025A000A889FFF75DFF200AFFF76BFFE0B2FFF796
:1025B00068FF68880138C0F30F20FFF762FF688862
:1025C0000138C0B2FFF75DFFD0E70B4E7089FFF70F
:1025D00047FF280AFFF755FFE8B2FFF752FF3088A0
:1025E0000138C0F30F20FFF74CFF30880138C0B22C
:1025F000FFF747FFD3E700BFFC0200207E4B9B792B
:10260000012B19D02BB97C4B9A8841F663139A425F
:1026100018D0794B9B8849F2413293422AD045F237
:102620001032934226D045F21052934222D041F606
:10263000631293421ED070476F4A918841F663122D
:102640009142DFD00728E4D8DFE800F01204060842
:102650000A0C0E100720DCE70420DAE70520D8E793
:102660000120D6E70020D4E70320D2E70220D0E7FC
:102670000620CEE710B50138062805D8DFE800F0BF
:102680001206080A0C0E100000240CE040240AE098
:10269000C02408E0202406E0602404E0A02402E036
:1026A000E02400E0802445F21052934250D03620BE
:1026B00045F21032934209D045F21052934205D0B0
:1026C00041F66312934201D044F008042146FFF71B
:1026D000F6FE494B9B8841F6631293420AD014F0F0
:1026E000200F38D0444A11885288914202D2424881
:1026F0000280418045F21052934235D03E4C6089B1
:10270000FFF7AEFE0020FFF7BCFE0020FFF7B9FE8A
:1027100020880138C0F30F20FFF7B3FE208801386E
:10272000C0B2FFF7AEFEA089FFF79AFE0020FFF7C8
:10273000A8FE0020FFF7A5FE60880138C0F30F2037
:10274000FFF79FFE60880138C0B2FFF79AFE10BD08
:102750004FF45850ACE7284A118852889142C9D9A1
:10276000254802804180C5E7234C6089FFF778FE49
:102770000020FFF786FE6089013080B2FFF770FE0F
:102780000020FFF77EFE6089023080B2FFF768FE0E
:1027900020880138C0F30F20FFF773FE60890330F3
:1027A00080B2FFF75DFE20880138C0B2FFF769FEF6
:1027B000A089FFF755FE0020FFF763FEA0890130D6
:1027C00080B2FFF74DFE0020FFF75BFEA0890230CC
:1027D00080B2FFF745FE60880138C0F30F20FFF795
:1027E00050FEA089033080B2FFF73AFE60880138BE
:1027F000C0B2FFF746FEAAE7FC020020000000007E
:1028000010B50446BE20FFF72BFE0520FFF739FE6A
:102810002046FDF797FE0CA3D3E90023FDF7FCFE4D
:10282000FEF7D2F980B2FFF72CFE0120FFF729FE58
:10283000FF20FFF726FE0020FFF723FE0020FFF712
:1028400020FE10BDAFF300806666666666660440D3
:1028500008B54C4B9871002847D1F0221A804FF4EC
:10286000A0725A809B8849F24132934219D045F2B6
:102870001032934215D045F21052934224D041F6C3
:102880006312934261D13F4B2C221A812B225A8131
:102890002A229A814FF4F0721A804FF448725A80BB
:1028A00053E0384A2C2111812A2151812B21918119
:1028B00045F21032934248D1324B4FF4A0721A8045
:1028C0004FF4F0725A8040E02E4B4FF430521A8190
:1028D0004FF428525A814FF42C529A814FF4F072DF
:1028E0001A804FF448725A802FE0264B4FF4A072A2
:1028F0001A80F0225A809B8849F24132934219D0C3
:1029000045F21032934215D045F21052934220D036
:1029100041F66312934214D11A4A2C2111812A21C3
:1029200051812B2191814FF4487111804FF4F07146
:10293000518006E0134A2C2111812A2151812B213B
:10294000918145F21032934214D00020FFF756FED9
:1029500008BD0C4A4FF4305111814FF42851518178
:102960004FF42C5191814FF4487111804FF4F07164
:102970005180E6E7034B4FF4F0721A804FF4A072D7
:102980005A80E2E7FC02002038B505460A4B1A8857
:102990005C8802FB04F400210846FFF7A1FDFFF765
:1029A00095FD002205E0ABB24FF0D841A1F8803090
:1029B0000132A242F7D338BDFC02002010B532200C
:1029C000FFF7B4FCD320FFF74BFDFFF76BFD5B4C2B
:1029D000A080FFF767FDA080FFF764FDA0800002E4
:1029E000A080FFF75FFDA388184380B2A08049F262
:1029F0004133984246D1514B9B8849F24132934230
:102A000000F0A28045F21032934200F0B28145F20C
:102A10001052934201F0268141F66312934202F074
:102A20009C80464B9B8849F2413293420BD045F241
:102A30001032934207D045F21052934203D041F630
:102A40006312934210D13E4BDA6922F00F02DA6131
:102A5000DA6922F47062DA61DA6942F00302DA615B
:102A6000DA6942F40072DA610020FFF7F1FE012218
:102A70004FF400413348FFF768F94FF6FF70FFF756
:102A800083FF10BDD420FFF7EBFCFFF70BFDA08008
:102A9000FFF708FDA080FFF705FDA0800002A080E1
:102AA000FFF700FDA388184380B2A08045F21033E1
:102AB0009842A0D04FF45A40FFF7D2FCFFF7F2FC47
:102AC000A0804FF45B40FFF7CBFCFFF7EBFCA0804E
:102AD0000002A0804FF45C40FFF7C2FCFFF7E2FC6D
:102AE000A388184380B2A080B0F5004F21D0134BCB
:102AF0009A8845F210539A423FF47DAFA120FFF728
:102B0000AFFCFFF7CFFC0D4CA080FFF7CBFCA08003
:102B10000002A080FFF7C6FCA388184380B2A08003
:102B200045F2617398427FF466AF41F66312A2806A
:102B300061E745F21052A280D9E700BFFC020020F5
:102B4000000100A000040240CF20FFF789FC002014
:102B5000FFF797FCC120FFF794FC3020FFF791FCB2
:102B6000ED20FFF77DFC6420FFF78BFC0320FFF7CF
:102B700088FC1220FFF785FC8120FFF782FCE8200B
:102B8000FFF76EFC8520FFF77CFC1020FFF779FC37
:102B90007A20FFF776FCCB20FFF762FC3920FFF7A5
:102BA00070FC2C20FFF76DFC0020FFF76AFC34203E
:102BB000FFF767FC0220FFF764FCF720FFF750FCEB
:102BC0002020FFF75EFCEA20FFF74AFC0020FFF719
:102BD00058FC0020FFF755FCC020FFF741FC1B20EC
:102BE000FFF74FFCC120FFF73BFC0120FFF749FC3A
:102BF000C520FFF735FC3020FFF743FC3020FFF7FE
:102C000040FCC720FFF72CFCB720FFF73AFC36202A
:102C1000FFF726FC4820FFF734FC3A20FFF720FCA2
:102C20005520FFF72EFCB120FFF71AFC0020FFF71C
:102C300028FC1A20FFF725FCB620FFF711FC0A201C
:102C4000FFF71FFCA220FFF71CFCF220FFF708FC97
:102C50000020FFF716FC2620FFF702FC0120FFF7FB
:102C600010FCE020FFF7FCFB0F20FFF70AFC2A20F6
:102C7000FFF707FC2820FFF704FC0820FFF701FC02
:102C80000E20FFF7FEFB0820FFF7FBFB5420FFF7A9
:102C9000F8FBA920FFF7F5FB4320FFF7F2FB0A2022
:102CA000FFF7EFFB0F20FFF7ECFB0020FFF7E9FB3E
:102CB0000020FFF7E6FB0020FFF7E3FB0020FFF713
:102CC000E0FBE120FFF7CCFB0020FFF7DAFB15204B
:102CD000FFF7D7FB1720FFF7D4FB0720FFF7D1FB47
:102CE0001120FFF7CEFB0620FFF7CBFB2B20FFF7D1
:102CF000C8FB5620FFF7C5FB3C20FFF7C2FB0520B1
:102D0000FFF7BFFB1020FFF7BCFB0F20FFF7B9FB5D
:102D10003F20FFF7B6FB3F20FFF7B3FB0F20FFF785
:102D2000B0FB2B20FFF79CFB0020FFF7AAFB002045
:102D3000FFF7A7FB0120FFF7A4FB3F20FFF7A1FB54
:102D40002A20FFF78DFB0020FFF79BFB0020FFF7F9
:102D500098FB0020FFF795FBEF20FFF792FB112077
:102D6000FFF77EFB7820FFF7E1FA2920FFF778FBD9
:102D700057E6ED20FFF774FB0120FFF782FBFE20F2
:102D8000FFF77FFBEE20FFF76BFBDE20FFF779FB01
:102D90002120FFF776FBF120FFF762FB0120FFF710
:102DA00070FBDF20FFF75CFB1020FFF76AFBC420FD
:102DB000FFF756FB8F20FFF764FBC620FFF750FBA1
:102DC0000020FFF75EFBE220FFF75BFBE220FFF74E
:102DD00058FBE220FFF755FBBF20FFF741FBAA207D
:102DE000FFF74FFBB020FFF73BFB0D20FFF749FB40
:102DF0000020FFF746FB0D20FFF743FB0020FFF705
:102E000040FB1120FFF73DFB0020FFF73AFB1920A4
:102E1000FFF737FB0020FFF734FB2120FFF731FBE2
:102E20000020FFF72EFB2D20FFF72BFB0020FFF7E4
:102E300028FB3D20FFF725FB0020FFF722FB5D204C
:102E4000FFF71FFB0020FFF71CFB5D20FFF719FBBE
:102E50000020FFF716FBB120FFF702FB8020FFF7F1
:102E600010FB0020FFF70DFB8B20FFF70AFB002073
:102E7000FFF707FB9620FFF704FB0020FFF701FB9D
:102E8000B220FFF7EDFA0020FFF7FBFA0020FFF772
:102E9000F8FA0220FFF7F5FA0020FFF7F2FA032014
:102EA000FFF7EFFA0020FFF7ECFAB320FFF7D8FAAC
:102EB0000020FFF7E6FA0020FFF7E3FA0020FFF713
:102EC000E0FA0020FFF7DDFA0020FFF7DAFA002031
:102ED000FFF7D7FA0020FFF7D4FA0020FFF7D1FA66
:102EE0000020FFF7CEFA0020FFF7CBFA0020FFF713
:102EF000C8FA0020FFF7C5FA0020FFF7C2FA002049
:102F0000FFF7BFFA0020FFF7BCFA0020FFF7B9FA7D
:102F10000020FFF7B6FA0020FFF7B3FA0020FFF712
:102F2000B0FA0020FFF7ADFA0020FFF7AAFA002060
:102F3000FFF7A7FA0020FFF7A4FA0020FFF7A1FA95
:102F4000B420FFF78DFA8B20FFF79BFA0020FFF7E4
:102F500098FA9620FFF795FA0020FFF792FAA12041
:102F6000FFF78FFA0020FFF78CFAB520FFF778FA09
:102F70000220FFF786FA0020FFF783FA0320FFF70D
:102F800080FA0020FFF77DFA0420FFF77AFA00208C
:102F9000FFF777FAB620FFF763FA0020FFF771FA20
:102FA0000020FFF76EFAB720FFF75AFA0020FFF76C
:102FB00068FA0020FFF765FA3F20FFF762FA002069
:102FC000FFF75FFA5E20FFF75CFA0020FFF759FA7F
:102FD0006420FFF756FA0020FFF753FA8C20FFF722
:102FE00050FA0020FFF74DFAAC20FFF74AFA002014
:102FF000FFF747FADC20FFF744FA0020FFF741FA19
:103000007020FFF73EFA0020FFF73BFA9020FFF711
:1030100038FA0020FFF735FAEB20FFF732FA0020EC
:10302000FFF72FFADC20FFF72CFA0020FFF729FA30
:10303000B820FFF715FA0020FFF723FA0020FFF76A
:1030400020FA0020FFF71DFA0020FFF71AFA0020EF
:10305000FFF717FA0020FFF714FA0020FFF711FA24
:103060000020FFF70EFABA20FFF7FAF92420FFF745
:1030700008FA0020FFF705FA0020FFF702FA002007
:10308000FFF7FFF9C120FFF7EBF92020FFF7F9F96F
:103090000020FFF7F6F95420FFF7F3F90020FFF7BF
:1030A000F0F9FF20FFF7EDF90020FFF7EAF9C22061
:1030B000FFF7D6F90A20FFF7E4F90020FFF7E1F95E
:1030C0000420FFF7DEF90020FFF7DBF9C320FFF74C
:1030D000C7F93C20FFF7D5F90020FFF7D2F93A20D5
:1030E000FFF7CFF90020FFF7CCF93920FFF7C9F936
:1030F0000020FFF7C6F93720FFF7C3F90020FFF7DC
:10310000C0F93C20FFF7BDF90020FFF7BAF93620DF
:10311000FFF7B7F90020FFF7B4F93220FFF7B1F954
:103120000020FFF7AEF92F20FFF7ABF90020FFF7E3
:10313000A8F92C20FFF7A5F90020FFF7A2F9292014
:10314000FFF79FF90020FFF79CF92620FFF799F978
:103150000020FFF796F92420FFF793F90020FFF7EE
:1031600090F92420FFF78DF90020FFF78AF923203A
:10317000FFF787F90020FFF784F93C20FFF781F97A
:103180000020FFF77EF93620FFF77BF90020FFF7DC
:1031900078F93220FFF775F90020FFF772F92F2038
:1031A000FFF76FF90020FFF76CF92C20FFF769F9A2
:1031B0000020FFF766F92920FFF763F90020FFF7E9
:1031C00060F92620FFF75DF90020FFF75AF9242067
:1031D000FFF757F90020FFF754F92420FFF751F9C2
:1031E0000020FFF74EF92320FFF74BF90020FFF7EF
:1031F00048F9C420FFF734F96220FFF742F90020B4
:10320000FFF73FF90520FFF73CF90020FFF739F9F8
:103210008420FFF736F90020FFF733F9F020FFF79D
:1032200030F90020FFF72DF91820FFF72AF90020C8
:10323000FFF727F9A420FFF724F90020FFF721F971
:103240001820FFF71EF90020FFF71BF95020FFF7A9
:1032500018F90020FFF715F90C20FFF712F90020EC
:10326000FFF70FF91720FFF70CF90020FFF709F916
:103270009520FFF706F90020FFF703F9F320FFF789
:1032800000F90020FFF7FDF8E620FFF7FAF800202C
:10329000FFF7F7F8C520FFF7E3F83220FFF7F1F862
:1032A0000020FFF7EEF84420FFF7EBF80020FFF7CF
:1032B000E8F86520FFF7E5F80020FFF7E2F8762050
:1032C000FFF7DFF80020FFF7DCF88820FFF7D9F8D8
:1032D0000020FFF7D6F8C620FFF7C2F82020FFF73E
:1032E000D0F80020FFF7CDF81720FFF7CAF800202C
:1032F000FFF7C7F80120FFF7C4F80020FFF7C1F877
:10330000C720FFF7ADF80020FFF7BBF80020FFF75C
:10331000B8F80020FFF7B5F80020FFF7B2F8C82092
:10332000FFF79EF80020FFF7ACF80020FFF7A9F8A0
:103330000020FFF7A6F80020FFF7A3F8C920FFF749
:103340008FF80020FFF79DF80020FFF79AF8002083
:10335000FFF797F80020FFF794F80020FFF791F8A7
:103360000020FFF78EF80020FFF78BF80020FFF712
:1033700088F80020FFF785F80020FFF782F800208A
:10338000FFF77FF80020FFF77CF80020FFF779F8BF
:103390000020FFF776F80020FFF773F80020FFF712
:1033A00070F8E020FFF75CF81620FFF76AF80020BD
:1033B000FFF767F81C20FFF764F80020FFF761F8BB
:1033C0002120FFF75EF80020FFF75BF83620FFF7BB
:1033D00058F80020FFF755F84620FFF752F8002074
:1033E000FFF74FF85220FFF74CF80020FFF749F89D
:1033F0006420FFF746F80020FFF743F87A20FFF734
:1034000040F80020FFF73DF88B20FFF73AF8002046
:10341000FFF737F89920FFF734F80020FFF731F86D
:10342000A820FFF72EF80020FFF72BF8B920FFF7B0
:1034300028F80020FFF725F8C420FFF722F8002025
:10344000FFF71FF8CA20FFF71CF80020FFF719F854
:10345000D220FFF716F80020FFF713F8D920FFF766
:1034600010F80020FFF70DF8E020FFF70AF8002021
:10347000FFF707F8F320FFF704F80020FFF701F843
:10348000E120FEF7EDFF1620FEF7FBFF0020FEF720
:10349000F8FF1C20FEF7F5FF0020FEF7F2FF2220C8
:1034A000FEF7EFFF0020FEF7ECFF3620FEF7E9FF06
:1034B0000020FEF7E6FF4520FEF7E3FF0020FEF7C1
:1034C000E0FF5220FEF7DDFF0020FEF7DAFF642068
:1034D000FEF7D7FF0020FEF7D4FF7A20FEF7D1FFDA
:1034E0000020FEF7CEFF8B20FEF7CBFF0020FEF77B
:1034F000C8FF9920FEF7C5FF0020FEF7C2FFA820F5
:10350000FEF7BFFF0020FEF7BCFFB920FEF7B9FFB2
:103510000020FEF7B6FFC420FEF7B3FF0020FEF741
:10352000B0FFCA20FEF7ADFF0020FEF7AAFFD220B1
:10353000FEF7A7FF0020FEF7A4FFD820FEF7A1FFAB
:103540000020FEF79EFFE020FEF79BFF0020FEF725
:1035500098FFF320FEF795FF0020FEF792FFE22090
:10356000FEF77EFF0520FEF78CFF0020FEF789FFA7
:103570000B20FEF786FF0020FEF783FF1B20FEF7DF
:1035800080FF0020FEF77DFF3420FEF77AFF002049
:10359000FEF777FF4420FEF774FF0020FEF771FF6F
:1035A0004F20FEF76EFF0020FEF76BFF6120FEF755
:1035B00068FF0020FEF765FF7920FEF762FF00201C
:1035C000FEF75FFF8820FEF75CFF0020FEF759FF43
:1035D0009720FEF756FF0020FEF753FFA620FEF7C8
:1035E00050FF0020FEF74DFFB720FEF74AFF0020F6
:1035F000FEF747FFC220FEF744FF0020FEF741FF21
:10360000C720FEF73EFF0020FEF73BFFD120FEF76C
:1036100038FF0020FEF735FFD620FEF732FF0020EE
:10362000FEF72FFFDD20FEF72CFF0020FEF729FF1D
:10363000F320FEF726FF0020FEF723FFE320FEF72E
:103640000FFF0520FEF71DFF0020FEF71AFF0A20DE
:10365000FEF717FF0020FEF714FF1C20FEF711FFF6
:103660000020FEF70EFF3320FEF70BFF0020FEF7D1
:1036700008FF4420FEF705FF0020FEF702FF502060
:10368000FEF7FFFE0020FEF7FCFE6220FEF7F9FECB
:103690000020FEF7F6FE7820FEF7F3FE0020FEF78E
:1036A000F0FE8820FEF7EDFE0020FEF7EAFE9720F0
:1036B000FEF7E7FE0020FEF7E4FEA620FEF7E1FE9F
:1036C0000020FEF7DEFEB720FEF7DBFE0020FEF74F
:1036D000D8FEC220FEF7D5FE0020FEF7D2FEC7209E
:1036E000FEF7CFFE0020FEF7CCFED120FEF7C9FE8C
:1036F0000020FEF7C6FED520FEF7C3FE0020FEF731
:10370000C0FEDD20FEF7BDFE0020FEF7BAFEF3206E
:10371000FEF7B7FE0020FEF7B4FEE420FEF7A0FEA1
:103720000120FEF7AEFE0020FEF7ABFE0120FEF703
:10373000A8FE0020FEF7A5FE0220FEF7A2FE002054
:10374000FEF79FFE2A20FEF79CFE0020FEF799FE62
:103750003C20FEF796FE0020FEF793FE4B20FEF77E
:1037600090FE0020FEF78DFE5D20FEF78AFE002011
:10377000FEF787FE7420FEF784FE0020FEF781FE30
:103780008420FEF77EFE0020FEF77BFE9320FEF7EE
:1037900078FE0020FEF775FEA220FEF772FE0020E4
:1037A000FEF76FFEB320FEF76CFE0020FEF769FE09
:1037B000BE20FEF766FE0020FEF763FEC420FEF783
:1037C00060FE0020FEF75DFECD20FEF75AFE0020D1
:1037D000FEF757FED320FEF754FE0020FEF751FE01
:1037E000DD20FEF74EFE0020FEF74BFEF320FEF735
:1037F00048FE0020FEF745FEE520FEF731FE0020E2
:10380000FEF73FFE0020FEF73CFE0020FEF739FEEB
:103810000020FEF736FE0220FEF733FE0020FEF702
:1038200030FE2920FEF72DFE0020FEF72AFE3C2068
:10383000FEF727FE0020FEF724FE4B20FEF721FEB8
:103840000020FEF71EFE5D20FEF71BFE0020FEF7A7
:1038500018FE7420FEF715FE0020FEF712FE8420ED
:10386000FEF70FFE0020FEF70CFE9320FEF709FE88
:103870000020FEF706FEA220FEF703FE0020FEF762
:1038800000FEB320FEF7FDFD0020FEF7FAFDBE208E
:10389000FEF7F7FD0020FEF7F4FDC420FEF7F1FD72
:1038A0000020FEF7EEFDCD20FEF7EBFD0020FEF739
:1038B000E8FDD320FEF7E5FD0020FEF7E2FDDC2069
:1038C000FEF7DFFD0020FEF7DCFDF320FEF7D9FD5B
:1038D0000020FEF7D6FDE620FEF7C2FD1120FEF720
:1038E000D0FD0020FEF7CDFD3420FEF7CAFD0020FC
:1038F000FEF7C7FD5620FEF7C4FD0020FEF7C1FD10
:103900007620FEF7BEFD0020FEF7BBFD7720FEF718
:10391000B8FD0020FEF7B5FD6620FEF7B2FD0020E1
:10392000FEF7AFFD8820FEF7ACFD0020FEF7A9FDF5
:103930009920FEF7A6FD0020FEF7A3FDBB20FEF7B1
:10394000A0FD0020FEF79DFD9920FEF79AFD0020C6
:10395000FEF797FD6620FEF794FD0020FEF791FD2F
:103960005520FEF78EFD0020FEF78BFD5520FEF75B
:1039700088FD0020FEF785FD4520FEF782FD002032
:10398000FEF77FFD4320FEF77CFD0020FEF779FD6A
:103990004420FEF776FD0020FEF773FDE720FEF7DA
:1039A0005FFD3220FEF76DFD0020FEF76AFD552019
:1039B000FEF767FD0020FEF764FD7620FEF761FD4F
:1039C0000020FEF75EFD6620FEF75BFD0020FEF79F
:1039D00058FD6720FEF755FD0020FEF752FD6720D9
:1039E000FEF74FFD0020FEF74CFD8720FEF749FD56
:1039F0000020FEF746FD9920FEF743FD0020FEF76C
:103A000040FDBB20FEF73DFD0020FEF73AFD99206A
:103A1000FEF737FD0020FEF734FD7720FEF731FD7D
:103A20000020FEF72EFD4420FEF72BFD0020FEF7C0
:103A300028FD5620FEF725FD0020FEF722FD23205D
:103A4000FEF71FFD0020FEF71CFD3320FEF719FDD9
:103A50000020FEF716FD4520FEF713FD0020FEF7BF
:103A600010FDE820FEF7FCFC0020FEF70AFD002018
:103A7000FEF707FD9920FEF704FD0020FEF701FD8B
:103A80008720FEF7FEFC0020FEF7FBFC8820FEF7F7
:103A9000F8FC0020FEF7F5FC7720FEF7F2FC002092
:103AA000FEF7EFFC6620FEF7ECFC0020FEF7E9FCD9
:103AB0008820FEF7E6FC0020FEF7E3FCAA20FEF7D4
:103AC000E0FC0020FEF7DDFCBB20FEF7DAFC002066
:103AD000FEF7D7FC9920FEF7D4FC0020FEF7D1FCBE
:103AE0006620FEF7CEFC0020FEF7CBFC5520FEF74B
:103AF000C8FC0020FEF7C5FC5520FEF7C2FC0020E4
:103B0000FEF7BFFC4420FEF7BCFC0020FEF7B9FC2A
:103B10004420FEF7B6FC0020FEF7B3FC5520FEF76C
:103B2000B0FC0020FEF7ADFCE920FEF799FCAA20CE
:103B3000FEF7A7FC0020FEF7A4FC0020FEF7A1FC86
:103B40000020FEF79EFC0020FEF78AFCAA20FEF76C
:103B500098FCCF20FEF784FC0020FEF792FC0020AA
:103B6000FEF78FFC0020FEF78CFC0020FEF789FC9E
:103B70000020FEF786FC0020FEF783FC0020FEF705
:103B800080FC0020FEF77DFC0020FEF77AFC002080
:103B9000FEF777FC0020FEF774FC0020FEF771FCB6
:103BA0000020FEF76EFC0020FEF76BFC0020FEF705
:103BB00068FC0020FEF765FC0020FEF762FCF020A8
:103BC000FEF74EFC0020FEF75CFC5020FEF759FC8F
:103BD0000020FEF756FC0020FEF753FC0020FEF705
:103BE00050FCF320FEF73CFC0020FEF74AFCF920D5
:103BF000FEF736FC0620FEF744FC1020FEF741FCE1
:103C00002920FEF73EFC0020FEF73BFC3A20FEF7A1
:103C100027FC5520FEF735FC1120FEF721FC64201F
:103C2000FEF784FB2920FEF71BFC3520FEF718FC6D
:103C30000020FEF726FC5120FEF712FCFF20FEF7C5
:103C400020FC5320FEF70CFC2C20FEF71AFC55201C
:103C5000FEF706FC8220FEF714FC2C20FEF700FC89
:103C6000FEF7DFBE55214FF47040FEF728FCAA2175
:103C70004FF20100FEF723FC52214FF20200FEF743
:103C80001EFC08214FF20300FEF719FC01214FF240
:103C90000400FEF714FC0D214FF43040FEF70FFC3A
:103CA0000D214BF20100FEF70AFC0D214BF2020040
:103CB000FEF705FC34214FF43640FEF700FC3421BA
:103CC0004BF20160FEF7FBFB34214BF20260FEF782
:103CD000F6FB0D214FF43140FEF7F1FB0D214BF2C5
:103CE0000110FEF7ECFB0D214BF20210FEF7E7FB93
:103CF00034214FF43740FEF7E2FB34214BF20170E0
:103D0000FEF7DDFB34214BF20270FEF7D8FB0021F9
:103D10004FF43240FEF7D3FB00214BF20120FEF7B7
:103D2000CEFB00214BF20220FEF7C9FB24214FF409
:103D30003840FEF7C4FB24214BF60100FEF7BFFB21
:103D400024214BF60200FEF7BAFB01214FF43F405D
:103D5000FEF7B5FB0F214FF43340FEF7B0FB0F2108
:103D60004BF20130FEF7ABFB0F214BF20230FEF7B6
:103D7000A6FB34214FF43940FEF7A1FB34214BF66A
:103D80000110FEF79CFB34214BF60210FEF797FB67
:103D900008214FF43540FEF792FB08214BF2015009
:103DA000FEF78DFB08214BF20250FEF788FB032142
:103DB0004FF44240FEF783FB24214FF43A40FEF7D4
:103DC0007EFB24214BF60120FEF779FB24214BF6E4
:103DD0000220FEF774FB00214FF43C40FEF76FFB1E
:103DE00078214BF60140FEF76AFB00214BF60240BA
:103DF000FEF765FB00214FF43D40FEF760FB7821A4
:103E00004BF60150FEF75BFB00214BF60250FEF72C
:103E100056FB00214FF43E40FEF751FB64214BF668
:103E20000160FEF74CFB00214FF45140FEF747FBC9
:103E300033214DF20110FEF742FB00214DF202103A
:103E4000FEF73DFB34214DF20310FEF738FB002155
:103E50004DF20410FEF733FB3A214DF20510FEF748
:103E60002EFB00214DF20610FEF729FB4A214DF2F0
:103E70000710FEF724FB00214DF20810FEF71FFB90
:103E80005C214DF20910FEF71AFB00214DF20A10D9
:103E9000FEF715FB81214DF20B10FEF710FB002100
:103EA0004DF20C10FEF70BFBA6214DF20D10FEF7A4
:103EB00006FB00214DF20E10FEF701FBE5214DF24D
:103EC0000F10FEF7FCFA01214DF21010FEF7F7FA81
:103ED00013214DF21110FEF7F2FA01214DF21210EA
:103EE000FEF7EDFA54214DF21310FEF7E8FA012126
:103EF0004DF21410FEF7E3FA82214DF21510FEF791
:103F0000DEFA01214DF21610FEF7D9FACA214DF260
:103F10001710FEF7D4FA02214DF21810FEF7CFFA6F
:103F200000214DF21910FEF7CAFA02214DF21A10C3
:103F3000FEF7C5FA01214DF21B10FEF7C0FA02216F
:103F40004DF21C10FEF7BBFA34214DF21D10FEF7A6
:103F5000B6FA02214DF21E10FEF7B1FA67214DF2BA
:103F60001F10FEF7ACFA02214DF22010FEF7A7FA5F
:103F700084214DF22110FEF7A2FA02214DF2221007
:103F8000FEF79DFAA4214DF22310FEF798FA0221C4
:103F90004DF22410FEF793FAB7214DF22510FEF7EB
:103FA0008EFA02214DF22610FEF789FACF214DF24A
:103FB0002710FEF784FA02214DF22810FEF77FFA4F
:103FC000DE214DF22910FEF77AFA02214DF22A1075
:103FD000FEF775FAF2214DF22B10FEF770FA02216E
:103FE0004DF22C10FEF76BFAFE214DF22D10FEF76C
:103FF00066FA03214DF22E10FEF761FA10214DF200
:104000002F10FEF75CFA03214DF23010FEF757FA3D
:1040100033214DF23110FEF752FA03214DF23210E6
:10402000FEF74DFA6D214DF23310FEF748FA0021EC
:104030004FF45240FEF743FA33214DF20120FEF7D0
:104040003EFA00214DF20220FEF739FA34214DF2FA
:104050000320FEF734FA00214DF20420FEF72FFA78
:104060003A214DF20520FEF72AFA00214DF20620F2
:10407000FEF725FA4A214DF20720FEF720FA00212B
:104080004DF20820FEF71BFA5C214DF20920FEF7E5
:1040900016FA00214DF20A20FEF711FA81214DF2A5
:1040A0000B20FEF70CFA00214DF20C20FEF707FA68
:1040B000A6214DF20D20FEF702FA00214DF20E204E
:1040C000FEF7FDF9E5214DF20F20FEF7F8F9012189
:1040D0004DF21020FEF7F3F913214DF21120FEF7F7
:1040E000EEF901214DF21220FEF7E9F954214DF2CB
:1040F0001320FEF7E4F901214DF21420FEF7DFF959
:1041000082214DF21520FEF7DAF901214DF2162039
:10411000FEF7D5F9CA214DF21720FEF7D0F902219A
:104120004DF21820FEF7CBF900214DF21920FEF7D1
:10413000C6F902214DF21A20FEF7C1F901214DF214
:104140001B20FEF7BCF902214DF21C20FEF7B7F947
:1041500034214DF21D20FEF7B2F902214DF21E204E
:10416000FEF7ADF967214DF21F20FEF7A8F90221F5
:104170004DF22020FEF7A3F984214DF22120FEF715
:104180009EF902214DF22220FEF799F9A4214DF269
:104190002320FEF794F902214DF22420FEF78FF937
:1041A000B7214DF22520FEF78AF902214DF2262093
:1041B000FEF785F9CF214DF22720FEF780F9022185
:1041C0004DF22820FEF77BF9DE214DF22920FEF783
:1041D00076F902214DF22A20FEF771F9F2214DF213
:1041E0002B20FEF76CF902214DF22C20FEF767F927
:1041F000FE214DF22D20FEF762F903214DF22E2013
:10420000FEF75DF910214DF22F20FEF758F903213A
:104210004DF23020FEF753F933214DF23120FEF7F5
:104220004EF903214DF23220FEF749F96D214DF28E
:104230003320FEF744F900214FF45340FEF73FF9D5
:1042400033214DF20130FEF73AF900214DF20230F0
:10425000FEF735F934214DF20330FEF730F9002135
:104260004DF20430FEF72BF93A214DF20530FEF7FE
:1042700026F900214DF20630FEF721F94A214DF2D0
:104280000730FEF71CF900214DF20830FEF717F950
:104290005C214DF20930FEF712F900214DF20A308F
:1042A000FEF70DF981214DF20B30FEF708F90021E0
:1042B0004DF20C30FEF703F9A6214DF20D30FEF75A
:1042C000FEF800214DF20E30FEF7F9F8E5214DF22F
:1042D0000F30FEF7F4F801214DF21030FEF7EFF841
:1042E00013214DF21130FEF7EAF801214DF21230A0
:1042F000FEF7E5F854214DF21330FEF7E0F8012106
:104300004DF21430FEF7DBF882214DF21530FEF746
:10431000D6F801214DF21630FEF7D1F8CA214DF240
:104320001730FEF7CCF802214DF21830FEF7C7F82F
:1043300000214DF21930FEF7C2F802214DF21A3079
:10434000FEF7BDF801214DF21B30FEF7B8F802214F
:104350004DF21C30FEF7B3F834214DF21D30FEF75C
:10436000AEF802214DF21E30FEF7A9F867214DF29A
:104370001F30FEF7A4F802214DF22030FEF79FF81F
:1043800084214DF22130FEF79AF802214DF22230BD
:10439000FEF795F8A4214DF22330FEF790F80221A4
:1043A0004DF22430FEF78BF8B7214DF22530FEF7A1
:1043B00086F802214DF22630FEF781F8CF214DF22A
:1043C0002730FEF77CF802214DF22830FEF777F80F
:1043D000DE214DF22930FEF772F802214DF22A302B
:1043E000FEF76DF8F2214DF22B30FEF768F802214E
:1043F0004DF22C30FEF763F8FE214DF22D30FEF722
:104400005EF803214DF22E30FEF759F810214DF2DF
:104410002F30FEF754F803214DF23030FEF74FF8FD
:1044200033214DF23130FEF74AF803214DF232309C
:10443000FEF745F86D214DF23330FEF740F80021CC
:104440004FF45440FEF73BF833214DF20140FEF7A4
:1044500036F800214DF20240FEF731F834214DF2DA
:104460000340FEF72CF800214DF20440FEF727F838
:104470003A214DF20540FEF722F800214DF20640A8
:10448000FEF71DF84A214DF20740FEF718F800210B
:104490004DF20840FEF713F85C214DF20940FEF79B
:1044A0000EF800214DF20A40FEF709F881214DF285
:1044B0000B40FEF704F800214DF20C40FDF7FFFF22
:1044C000A6214DF20D40FDF7FAFF00214DF20E40FE
:1044D000FDF7F5FFE5214DF20F40FDF7F0FF01215B
:1044E0004DF21040FDF7EBFF13214DF21140FDF7A7
:1044F000E6FF01214DF21240FDF7E1FF54214DF29C
:104500001340FDF7DCFF01214DF21440FDF7D7FF0A
:1045100082214DF21540FDF7D2FF01214DF21640E8
:10452000FDF7CDFFCA214DF21740FDF7C8FF02216C
:104530004DF21840FDF7C3FF00214DF21940FDF781
:10454000BEFF02214DF21A40FDF7B9FF01214DF2E5
:104550001B40FDF7B4FF02214DF21C40FDF7AFFFF9
:1045600034214DF21D40FDF7AAFF02214DF21E40FD
:10457000FDF7A5FF67214DF21F40FDF7A0FF0221C7
:104580004DF22040FDF79BFF84214DF22140FDF7C5
:1045900096FF02214DF22240FDF791FFA4214DF23A
:1045A0002340FDF78CFF02214DF22440FDF787FFE9
:1045B000B7214DF22540FDF782FF02214DF2264042
:1045C000FDF77DFFCF214DF22740FDF778FF022157
:1045D0004DF22840FDF773FFDE214DF22940FDF733
:1045E0006EFF02214DF22A40FDF769FFF2214DF2E4
:1045F0002B40FDF764FF02214DF22C40FDF75FFFD9
:10460000FE214DF22D40FDF75AFF03214DF22E40C1
:10461000FDF755FF10214DF22F40FDF750FF03210C
:104620004DF23040FDF74BFF33214DF23140FDF7A5
:1046300046FF03214DF23240FDF741FF6D214DF25F
:104640003340FDF73CFF00214FF45540FDF737FFA5
:1046500033214DF20150FDF732FF00214DF202509F
:10466000FDF72DFF34214DF20350FDF728FF002107
:104670004DF20450FDF723FF3A214DF20550FDF7AE
:104680001EFF00214DF20650FDF719FF4A214DF2A1
:104690000750FDF714FF00214DF20850FDF70FFF02
:1046A0005C214DF20950FDF70AFF00214DF20A503E
:1046B000FDF705FF81214DF20B50FDF700FF0021B2
:1046C0004DF20C50FDF7FBFEA6214DF20D50FDF70B
:1046D000F6FE00214DF20E50FDF7F1FEE5214DF200
:1046E0000F50FDF7ECFE01214DF21050FDF7E7FEF3
:1046F00013214DF21150FDF7E2FE01214DF212504F
:10470000FDF7DDFE54214DF21350FDF7D8FE0121D7
:104710004DF21450FDF7D3FE82214DF21550FDF7F6
:10472000CEFE01214DF21650FDF7C9FECA214DF211
:104730001750FDF7C4FE02214DF21850FDF7BFFEE1
:1047400000214DF21950FDF7BAFE02214DF21A5028
:10475000FDF7B5FE01214DF21B50FDF7B0FE022121
:104760004DF21C50FDF7ABFE34214DF21D50FDF70C
:10477000A6FE02214DF21E50FDF7A1FE67214DF26B
:104780001F50FDF79CFE02214DF22050FDF797FED1
:1047900084214DF22150FDF792FE02214DF222506C
:1047A000FDF78DFEA4214DF22350FDF788FE022176
:1047B0004DF22450FDF783FEB7214DF22550FDF751
:1047C0007EFE02214DF22650FDF779FECF214DF2FB
:1047D0002750FDF774FE02214DF22850FDF76FFEC1
:1047E000DE214DF22950FDF76AFE02214DF22A50DA
:1047F000FDF765FEF2214DF22B50FDF760FE022120
:104800004DF22C50FDF75BFEFE214DF22D50FDF7D1
:1048100056FE03214DF22E50FDF751FE10214DF2B0
:104820002F50FDF74CFE03214DF23050FDF747FEAF
:1048300033214DF23150FDF742FE03214DF232504B
:10484000FDF73DFE6D214DF23350FDF738FE00219E
:104850004FF45640FDF733FE33214DF20160FDF772
:104860002EFE00214DF20260FDF729FE34214DF2AB
:104870000360FDF724FE00214DF20460FDF71FFEEA
:104880003A214DF20560FDF71AFE00214DF2066057
:10489000FDF715FE4A214DF20760FDF710FE0021DD
:1048A0004DF20860FDF70BFE5C214DF20960FDF74B
:1048B00006FE00214DF20A60FDF701FE81214DF256
:1048C0000B60FDF7FCFD00214DF20C60FDF7F7FDDC
:1048D000A6214DF20D60FDF7F2FD00214DF20E60B4
:1048E000FDF7EDFDE5214DF20F60FDF7E8FD01213B
:1048F0004DF21060FDF7E3FD13214DF21160FDF75D
:10490000DEFD01214DF21260FDF7D9FD54214DF27B
:104910001360FDF7D4FD01214DF21460FDF7CFFDCA
:1049200082214DF21560FDF7CAFD01214DF216609E
:10493000FDF7C5FDCA214DF21760FDF7C0FD02214C
:104940004DF21860FDF7BBFD00214DF21960FDF737
:10495000B6FD02214DF21A60FDF7B1FD01214DF2C5
:104960001B60FDF7ACFD02214DF21C60FDF7A7FDB9
:1049700034214DF21D60FDF7A2FD02214DF21E60B3
:10498000FDF79DFD67214DF21F60FDF798FD0221A7
:104990004DF22060FDF793FD84214DF22160FDF77B
:1049A0008EFD02214DF22260FDF789FDA4214DF21A
:1049B0002360FDF784FD02214DF22460FDF77FFDA9
:1049C000B7214DF22560FDF77AFD02214DF22660F8
:1049D000FDF775FDCF214DF22760FDF770FD022137
:1049E0004DF22860FDF76BFDDE214DF22960FDF7E9
:1049F00066FD02214DF22A60FDF761FDF2214DF2C4
:104A00002B60FDF75CFD02214DF22C60FDF757FD98
:104A1000FE214DF22D60FDF752FD03214DF22E6077
:104A2000FDF74DFD10214DF22F60FDF748FD0321EC
:104A30004DF23060FDF743FD33214DF23160FDF75B
:104A40003EFD03214DF23260FDF739FD6D214DF23F
:104A50003360FDF734FD55214FF47040FDF72FFD15
:104A6000AA214FF20100FDF72AFD52214FF2020068
:104A7000FDF725FD08214FF20300FDF720FD002181
:104A80004FF20400FDF71BFDCC214FF43140FDF740
:104A900016FD00214BF20110FDF711FD05214FF429
:104AA0003640FDF70CFD70214FF43740FDF707FD50
:104AB00070214BF20170FDF702FD01214FF43840E7
:104AC000FDF7FDFC03214BF60100FDF7F8FC032187
:104AD0004BF60200FDF7F3FC03214BF60300FDF754
:104AE000EEFC02214FF43C40FDF7E9FC00214BF6BF
:104AF0000140FDF7E4FC00214BF60240FDF7DFFC2E
:104B0000D0214FF44940FDF7DAFC02214CF60110A8
:104B1000FDF7D5FC50214CF60210FDF7D0FC5021DA
:104B20004CF60310FDF7CBFC50214CF60410FDF7BA
:104B3000C6FC00214FF45450FDF7C1FC55214FF441
:104B40006850FDF7BCFC4FF48850FDF789FC4FF42A
:104B50002450FDF785FCFDF764BFE220FDF780FCE3
:104B60001D20FDF78EFC0220FDF78BFC0420FDF7D5
:104B700088FCE020FDF774FC0120FDF782FC0A2090
:104B8000FDF7D4FBE020FDF76BFC0320FDF779FC7B
:104B90000C20FDF7CBFB0120FDF762FC0A20FDF79E
:104BA000C5FBE620FDF75CFC2F20FDF76AFCFF202B
:104BB000FDF767FCFF20FDF764FCB020FDF750FC1B
:104BC0002020FDF75EFC0020FDF75BFC0320FDF7D5
:104BD00058FC40F21F30FDF754FC0120FDF751FC5A
:104BE00040F2DF10FDF74DFC0020FDF74AFCB42039
:104BF000FDF736FC0420FDF744FC40F21F40FDF7B2
:104C000040FC0020FDF73DFC2E20FDF73AFC002083
:104C1000FDF737FC0020FDF734FC0020FDF731FCE8
:104C20000020FDF72EFCB620FDF71AFC0220FDF750
:104C300028FC4FF40370FDF724FC0020FDF721FC55
:104C40001720FDF71EFC1520FDF71BFC0020FDF7CB
:104C500018FC0020FDF715FCF020FDF701FC0320F7
:104C6000FDF70FFC2920FDF7FBFBD020FDF7F8FB3B
:104C70000020FDF706FCBE20FDF7F2FB0520FDF746
:104C800000FCFE20FDF7FDFB0120FDF7FAFB0020F4
:104C9000FDF7F7FB0020FDF7F4FB0020FDF7F1FB2B
:104CA000B820FDF7DDFB0320FDF7EBFB0120FDF74E
:104CB000E8FBBA20FDF7D4FB0120FDF7E2FB6420FE
:104CC000FDF79EFDFDF7ADBE10B58EB00023079336
:104CD000089309930A930B930C930D9300930193FC
:104CE000029303930493059306931B484FF02042CD
:104CF000026002F58272426006228260C360036134
:104D0000102242618361C361036243624FF48051A8
:104D10008162C3624FF480410163436383634364F0
:104D20000F23079308933C2109910A210A910B92C2
:104D300011210C91092400940193082302930492F9
:104D400005916A4607A901F019F908B90EB010BD1E
:104D5000FCF7E8F8FAE700BFAC02002008B5FDF761
:104D600025FB08BD08B50A480A4B03604FF4E13340
:104D7000436000238360C36003610C22426183614E
:104D8000C36101F0FFF900B908BDFCF7CBF8FBE700
:104D90006C0300200010014030B589B0002303935C
:104DA0000493059306930793026803F1804303F588
:104DB00088339A4201D009B030BD044600250195E0
:104DC00003F594335A6C42F010025A645A6C02F0A4
:104DD00010020192019A02951A6B42F001021A63C5
:104DE0001B6B03F001030293029B4FF4C063039318
:104DF00002230493032306930723079303A913486D
:104E0000FCF7AAFE1248134B03604FF000634360A7
:104E100040238360C5604FF4806303614561856111
:104E2000C56105624562FDF717F858B9084B636321
:104E30009C63002205212520FDF706FA2520FDF7B9
:104E40003BFAB8E7FCF76EF8F0E700BF000002405D
:104E50000C030020B864024010B5144692B2024818
:104E600001F0C0F9204610BD6C0300204FF0E02394
:104E70005A699A694FF0E0239B699A42FAD07047C9
:104E800070B50446002517E000224FF40061114878
:104E9000FCF75BFF6400E4B20F4E002201213046B4
:104EA000FCF753FF0120FFF7E1FF012211463046D6
:104EB000FCF74BFF0135EDB2072D09D814F0800F38
:104EC000E2D001224FF400610248FCF73EFFE1E727
:104ED00070BD00BF001402400004024070B50546DA
:104EE0002A4C002201212046FCF72FFF00224FF41C
:104EF00000612748FCF729FF00224FF400512548A4
:104F0000FCF723FF2846FFF7BBFF0620FFF7AEFFA5
:104F1000002201212046FCF718FF0120FFF7A6FF21
:104F2000012211462046FCF710FF0120FFF79EFFEB
:104F3000002201212046FCF708FF0024254601E05D
:104F40000135EDB20F2D18D86400A4B20F4E002227
:104F500001213046FCF7F9FE0120FFF787FF01220F
:104F600011463046FCF7F1FE04213046FCF7E6FE20
:104F70000028E5D00134A4B2E2E7240901224FF46D
:104F800000510448FCF7E1FE204670BD00040240D9
:104F9000001402400008024030B585B005460024E8
:104FA00009E02846FFF79AFF04AB03EB440323F81C
:104FB0000C0C0134A4B2042CF3D900201AE0013304
:104FC0009BB2042B15D804AA02EB400232F80C2C39
:104FD00004A901EB430131F80C1C8A42EFD904AD5E
:104FE00005EB400C2CF80C1C05EB430121F80C2CB4
:104FF000E5E72046032803D8441CA4B22346E0E793
:105000000020012308E004AA02EB430232F80C2C32
:10501000104480B201339BB2032BF4D9034BA3FBA2
:105020000030C0F34F0005B030BD00BFABAAAAAA44
:1050300070B505460C46064B1878FFF7ADFF0646DF
:10504000044B1878FFF7A8FF2E802080012070BD48
:105050000C0000200D00002030B583B005460C4642
:1050600001A90DF10600FFF7E3FF08B903B030BD59
:1050700069460DF10200FFF7DBFF0028F6D0BDF80E
:105080000230BDF80620934203D803F1310191426A
:1050900005DA93421ED302F1310199421CDBBDF8BF
:1050A0000000BDF80410884203D800F1310C8C4593
:1050B00004DA884212D33131814211DB13445B1090
:1050C0002B80BDF80430BDF8002013445B10238012
:1050D0000120CBE70020C9E70020C7E70020C5E793
:1050E0000020C3E710B504464FF480613548FCF753
:1050F00025FE00284FD1C4B1334800F116010C3011
:10510000FFF7AAFF304B93F92030002B07DB2E4B23
:10511000C02283F820209A899A82DA8ADA832A4B7D
:1051200093F8200000F0800010BD274800F1160120
:105130000C30FFF791FF0028E4D0234B93ED097A60
:105140009A8907EE902AF8EEE77A27EE877AB3F984
:105150002C2007EE902AF8EEE77A77EE877AFCEEBD
:10516000E77A17EE902A9A8193ED0A7ADA8A07EEA7
:10517000902AF8EEE77A27EE877AB3F92E2007EE29
:10518000902AF8EEE77A77EE877AFCEEE77A17EE68
:10519000902ADA82B6E70C4B93F8202093F920305E
:1051A000002B08DB084B00229A82DA834FF6FF724D
:1051B0009A81DA82B3E702F07F02034B83F8202062
:1051C000ADE700BF001402401000002008B5052024
:1051D000FFF74CFE08BD0000F0B589B00022009238
:1051E000214B196B41F002011963196B01F00201A7
:1051F000009100990192196B41F020011963196B1C
:1052000001F020010191019902921A6B42F004020F
:105210001A631B6B03F004030293029B01240394A3
:105220000494059402230693104D03A92846FCF725
:1052300093FC4FF4006703970D4E03A93046FCF72B
:105240008BFC4FF40053039303A90A48FCF784FC3A
:10525000224639463046FCF778FD2246214628464C
:10526000FCF773FD09B0F0BD0038024000040240B5
:10527000001402400008024038B5134C236823F4A0
:1052800040032360236843F48003236001224FF42A
:1052900000612046FCF759FD0C4D012211462846BD
:1052A000FCF753FD1E20FFF7E1FD00224FF40061E3
:1052B0002046FCF74AFDFFF789FF0022012128461E
:1052C000FCF743FD38BD00BF00140240000402405B
:1052D00010B5104C236823F440032360236843F483
:1052E00080032360012211460B48FCF72EFD1E208F
:1052F000FFF7BCFD00224FF400612046FCF725FDBE
:10530000FFF764FF01224FF400612046FCF71DFD0A
:1053100010BD00BF001402400004024038B5174819
:10532000036823F4400303600368036001224FF421
:105330000061FCF70AFD012211461148FCF705FD4A
:10534000FFF744FF00244FF400610C48FCF7F6FC23
:105350000546012809D10134E4B2FA2C02D8FFF73E
:1053600035FFF0E7FFF7B4FF05E000220121044814
:10537000FCF7EBFC0025284638BD00BF00140240B6
:105380000004024038B5134D002201212846FCF7E5
:10539000DCFC114C236823F440032360236843F4AE
:1053A00080032360FFF712FF00224FF400612046C4
:1053B000FCF7CBFCFFF70AFF012211462846FCF759
:1053C000C4FCFFF703FF002201212846FCF7BDFCC7
:1053D00038BD00BF000402400014024038B5134D30
:1053E000002201212846FCF7B0FC114C236823F46D
:1053F00040032360236843F480032360FFF7E6FE45
:1054000001224FF400612046FCF79FFCFFF7DEFE0F
:10541000012211462846FCF798FCFFF7D7FE002230
:1054200001212846FCF791FC38BD00BF0004024072
:105430000014024070B50446164B1A6822F440026C
:105440001A601A6842F480021A6000220121124890
:10545000FCF77BFCFFF7BAFE002518E0E2094FF4E9
:1054600000610C48FCF771FC6400E4B20A4E0122B2
:1054700011463046FCF769FCFFF7A8FE0022012127
:105480003046FCF762FCFFF7A1FE0135EDB2072DB7
:10549000E4D970BD0014024000040240F8B504468F
:1054A0000F461546FFF7E8FE2820FFF7C3FFFFF77A
:1054B00035FF200AFFF7BEFFFFF730FFE0B2FFF72E
:1054C000B9FFFFF72BFF0026344601E00134E4B2B8
:1054D000AC4207D2385DFFF7ADFFFFF71FFF06466E
:1054E0000028F3D0FFF7F4FE3046F8BD00B583B0D6
:1054F00000238DF804308DF8050008E00F4AD25CD7
:105500009DF804100A448DF804200133DBB2B72B58
:10551000F4D99DF804305B428DF80430B822074975
:1055200048F24700FFF7BAFF022201A948F2FF0044
:10553000FFF7B4FF002003B05DF804FB0C03030881
:10554000F8B50746184B1A6822F440021A601A6828
:105550001A601E20FFF78AFC0024254601E0013571
:10556000EDB2072D18D8114E002201213046FCF76C
:10557000ECFBFFF72BFE012211463046FCF7E5FB62
:105580006400E4B24FF400610748FCF7D7FB012840
:10559000E5D10134E4B2E2E71FB9FFF71FFF20466F
:1055A000F8BDFFF7EFFEFAE70014024000040240E6
:1055B00070B504460E461546FFF75EFE2820FFF73D
:1055C00039FFFFF7ABFE200AFFF734FFFFF7A6FE17
:1055D000E0B2FFF72FFFFFF7A1FEFFF74DFE2920F6
:1055E000FFF728FFFFF79AFE002408E0681E201A44
:1055F00018BF0120FFF7A4FF30550134E4B2AC42DC
:10560000F4D3FFF765FE70BD2DE9F0478AB00024A2
:105610000194454B1A6B42F002021A631A6B02F0B6
:1056200002020192019A02941A6B42F004021A6378
:105630001B6B03F004030293029B4FF0020ACDF8A8
:105640000CA00494012505954FF00309CDF818909E
:10565000DFF8E88003A94046FCF77EFA4FF40057D4
:1056600003970495314E03A93046FCF775FAFFF70E
:10567000B3FD224639463046FCF767FB0A20FCF7AB
:1056800055FE2A4639463046FCF75FFB0A20FCF7F8
:105690004DFECDF80CA004950594CDF8189003A903
:1056A0004046FCF759FA6420FCF740FE042208A9A2
:1056B00048F24010FFF77CFF8DF824406420FCF78F
:1056C00035FE08A91A4828F0CDFB1A4908A8FAF7B0
:1056D0007FFD18B100200AB0BDE8F0878DF820A04A
:1056E0002A4608A948F24000FFF7D8FE2A4608A932
:1056F00048F24700FFF75CFF9DF820105F290CD9A6
:105700000A20FCF713FE00238DF82030012208A99F
:1057100048F24000FFF7C2FEDCE7074828F0A2FB92
:105720002846FFF7E3FEEBE700380240000802409E
:10573000D4020308E0020308E80203080004024060
:1057400008B5134B9A8845F210539A4204D0114879
:1057500028F00EFC012008BDFFF756FF98B90E4B4C
:105760000E4A5A600C4991F8303043F0800281F8BB
:105770003020074B93F9063003F00103134381F8FF
:1057800030300020E7E7034828F0F2FBEAE700BFEB
:10579000FC020020FC02030810000020A1570008B2
:1057A00070B584B08DF80700724B1A780132D2B20E
:1057B0001A70714BA3FB0213DB0803EB8303A2EB0C
:1057C000430313F0FF0F02D0092A00F2AD8001223B
:1057D0000DF1070148F24E10FFF7EAFE9DF8073081
:1057E0009DF90720002A1CDB9DF8070000F00F0040
:1057F000002800F09A80052800F2A680FF2383404D
:10580000DBB28DF80B305D4A92F82050DB4363F039
:105810003F0382F8203093899382D38AD383002474
:1058200026E003F00F03052BDED800238DF80B30A4
:1058300001220DF10B0148F24E10FFF72FFED3E7C6
:105840009DF80D309DF80C1001EB03214B4A231DF0
:1058500002EB430399809DF80F309DF80E1001EB89
:10586000032104F1080302EB4303D9800134E4B2BD
:10587000042C2DD8414B93F82030234113F0010F15
:10588000F4D0042203A93E4B33F81400FFF790FE36
:105890003A4B93F8303013F0010FD1D09DF80D3012
:1058A0009DF80C2002EB0322344904F1080301EBBC
:1058B0004303DA809DF80F309DF80E2002EB03229F
:1058C00092B2C2F54872231D01EB43018A80CDE7F5
:1058D0002A4B9A892B4B1B889A4205D8274BDA8A88
:1058E000284B5B889A421AD99DF8073013F00E0FA7
:1058F00009D0224BDA899A811A8BDA821D4B002259
:105900001A70012011E01D4B9A8A9A81DA8BDA8293
:1059100080228DF8072083F82050012005E0154BE8
:1059200000221A70012000E000209DF8073003F0EB
:105930008F03802B0AD00F4B1B78F02B02D90D4B15
:105940000A221A7004B070BD0020EEE70B4B93F8EA
:10595000202093F92030002B05DB084B4FF6FF7217
:105960009A81DA82E7E702F07F02044B83F8202075
:10597000E1E700BFB0030020CDCCCCCC100000206C
:10598000C4030308FC02002008B512F0C7FD21F093
:1059900062F981B2024B186809F0FDF908BD00BF39
:1059A000BC03002008B512F0B9FD21F054F981B212
:1059B000024B186809F0E0F908BD00BFBC030020E5
:1059C00008B512F0ADFD1C2800D008BD054B1B78B2
:1059D000012B03D0034B01221A70F6E7014B002282
:1059E0001A70F2E7B903002010B512F099FD0728EC
:1059F00000D010BD0D4828F0BBFA012200210C4B4D
:105A0000186821F0CBF8012200210A4B186821F018
:105A1000C5F8094C4FF48071206809F0ADF94FF4D6
:105A20008071206809F0B7F9E3E700BFD0030308ED
:105A3000C4030020C8030020BC03002030B5B1B06F
:105A4000054612F06DFD0446284612F067FD1C2C39
:105A500001D031B030BD2022694622F013FEA022D1
:105A60000D4908A827F07EFD002401E00134E4B2CE
:105A7000042C0AD808AB03EB4411684628F088FAD6
:105A80000028F3D0054B1C70F0E7044B197804484C
:105A900028F0E8F9DDE700BFA0010308B803002003
:105AA000D8030308F0B585B01CF0A0F90BF0A9FEEF
:105AB00009F056F9454C20604FF4D2724FF4FA7158
:105AC0000FF0CAF800233222012120680FF068F994
:105AD00040F6FF7300221146206809F09CFB142752
