:020000040800F2
:100000000000012069AE020871460008734600082E
:100010007546000877460008794600080000000091
:100020000000000000000000000000007B46000807
:100030007D460008000000007F4600088146000859
:10004000B1AE0208B1AE0208B1AE0208B1AE02080C
:10005000B1AE0208B1AE0208B1AE0208B1AE0208FC
:10006000B1AE0208B1AE0208B1AE0208B1AE0208EC
:10007000B1AE0208B1AE0208B1AE0208B1AE0208DC
:10008000B1AE0208B1AE0208B1AE0208B1AE0208CC
:10009000B1AE0208B1AE0208B1AE0208B1AE0208BC
:1000A000B1AE0208B1AE0208B1AE0208B1AE0208AC
:1000B000B1AE0208B1AE0208B1AE0208B1AE02089C
:1000C000B1AE0208B1AE0208B1AE0208B1AE02088C
:1000D000B1AE0208B1AE0208B1AE0208B1AE02087C
:1000E000B1AE0208B1AE0208B1AE0208B1AE02086C
:1000F000B1AE0208B1AE0208B1AE0208B1AE02085C
:10010000B1AE0208B1AE0208B1AE0208B1AE02084B
:10011000B1AE0208B1AE0208B1AE0208B1AE02083B
:10012000B1AE0208B1AE0208B1AE0208B1AE02082B
:1001300000000000000000000000000000000000BF
:1001400000000000000000000000000000000000AF
:10015000000000000000000000000000000000009F
:10016000000000000000000000000000000000008F
:10017000000000000000000000000000000000007F
:10018000000000000000000000000000000000006F
:10019000000000000000000000000000000000005F
:1001A000000000000000000000000000000000004F
:1001B000000000000000000000000000000000003F
:1001C000000000000000000000000000000000002F
:1001D000000000000000000000000000000000001F
:0401E0005FF8E0F1F3
:1001E80010B5054C237833B9044B13B10448AFF369
:1001F80000800123237010BD1C01002000000000B6
:1002080028BF020808B5034B1BB103490348AFF3E5
:10021800008008BD000000002001002028BF02085F
:1002280010F8012B11F8013B012A28BF9A42F7D098
:10023800D01A7047034613F8012B002AFBD1181A6D
:100248000138704770B54FF0FF0C4CF4E06C1CEAB5
:1002580011541DBF1CEA135594EA0C0F95EA0C0FB4
:1002680000F0DEF82C4481EA030621EA4C5123EA27
:100278004C5350EA013518BF52EA033541F4801156
:1002880043F4801338D0A0FB02CE4FF00005E1FB09
:1002980002E506F00042E0FB03E54FF00006E1FB53
:1002A80003569CF0000F18BF4EF0010EA4F1FF0496
:1002B800B6F5007F64F5407404D25FEA4E0E6D41D6
:1002C80046EB060642EAC62141EA55514FEAC520E7
:1002D80040EA5E504FEACE2EB4F1FD0C88BFBCF563
:1002E800E06F1ED8BEF1004F08BF5FEA500E50F114
:1002F800000041EB045170BD06F0004646EA0101DA
:1003080040EA020081EA0301B4EB5C04C2BFD4EB0B
:100318000C0541EA045170BD41F480114FF0000E04
:10032800013C00F3AB8014F1360FDEBF002001F072
:10033800004170BDC4F10004203C35DA0C341BDCEC
:1003480004F11404C4F1200500FA05F320FA04F0BE
:1003580001FA05F240EA020001F0004221F00041F2
:1003680010EBD37021FA04F642EB06015EEA430E65
:1003780008BF20EAD37070BDC4F10C04C4F1200595
:1003880000FA04F320FA05F001FA04F240EA020048
:1003980001F0004110EBD37041F100015EEA430E19
:1003A80008BF20EAD37070BDC4F1200500FA05F239
:1003B8004EEA020E20FA04F301FA05F243EA0203B8
:1003C80021FA04F001F0004121FA04F220EA0200C7
:1003D80000EBD3705EEA430E08BF20EAD37070BD0D
:1003E80094F0000F0FD101F00046400041EB0101ED
:1003F80011F4801F08BF013CF7D041EA060195F0CF
:10040800000F18BF704703F00046520043EB030388
:1004180013F4801F08BF013DF7D043EA0603704775
:1004280094EA0C0F0CEA135518BF95EA0C0F0CD080
:1004380050EA410618BF52EA4306D1D181EA0301C6
:1004480001F000414FF0000070BD50EA410606BFC0
:100458001046194652EA430619D094EA0C0F02D105
:1004680050EA013613D195EA0C0F05D152EA03364A
:100478001CBF104619460AD181EA030101F0004168
:1004880041F0FE4141F470014FF0000070BD41F0B1
:10049800FE4141F4780170BD4FF0FF0C1CEAD052C8
:1004A8001EBF1CEAD15392EA0C0F93EA0C0F6FD0CF
:1004B8001A4480EA010C400218BF5FEA41211ED0AD
:1004C8004FF0006343EA501043EA5111A0FB013199
:1004D8000CF00040B1F5000F3EBF490041EAD3716E
:1004E8005B0040EA010062F17F02FD2A1DD8B3F1EA
:1004F800004F40EBC25008BF20F00100704790F059
:10050800000F0CF0004C08BF49024CEA502040EAAA
:1005180051207F3AC2BFD2F1FF0340EAC250704770
:1005280040F400004FF00003013A5DDC12F1190FAE
:10053800DCBF00F000407047C2F10002410021FA20
:1005480002F1C2F1200200FA02FC5FEA310040F138
:10055800000053EA4C0308BF20EADC70704792F0B1
:10056800000F00F0004C02BF400010F4000F013AE9
:10057800F9D040EA0C0093F0000F01F0004C02BFE4
:10058800490011F4000F013BF9D041EA0C018FE753
:100598000CEAD15392EA0C0F18BF93EA0C0F0AD059
:1005A80030F0004C18BF31F0004CD8D180EA01007F
:1005B80000F00040704790F0000F17BF90F0004F18
:1005C800084691F0000F91F0004F14D092EA0C0FFA
:1005D80001D142020FD193EA0C0F03D14B0218BF8D
:1005E800084608D180EA010000F0004040F0FE40D3
:1005F80040F40000704740F0FE4040F4400070476F
:1006080081F0004102E000BF83F0004330B54FEABB
:1006180041044FEA430594EA050F08BF90EA020F28
:100628001FBF54EA000C55EA020C7FEA645C7FEABB
:10063800655C00F0E2804FEA5454D4EB5555B8BFDE
:100648006D420CDD2C4480EA020281EA030382EA4F
:10065800000083EA010180EA020281EA0303362DE1
:1006680088BF30BD11F0004F4FEA01314FF4801CB4
:100678004CEA113102D0404261EB410113F0004FC6
:100688004FEA03334CEA133302D0524263EB43037D
:1006980094EA050F00F0A780A4F10104D5F1200E1B
:1006A8000DDB02FA0EFC22FA05F2801841F1000176
:1006B80003FA0EF2801843FA05F359410EE0A5F14A
:1006C80020050EF1200E012A03FA0EFC28BF4CF07B
:1006D800020C43FA05F3C01851EBE37101F0004531
:1006E80007D54FF0000EDCF1000C7EEB00006EEB3E
:1006F8000101B1F5801F1BD3B1F5001F0CD34908C8
:100708005FEA30004FEA3C0C04F101044FEA44521E
:1007180012F5800F80F09A80BCF1004F08BF5FEAA5
:10072800500C50F1000041EB045141EA050130BD85
:100738005FEA4C0C404141EB0101013C28BFB1F597
:10074800801FE9D291F0000F04BF01460020B1FAE2
:1007580081F308BF2033A3F10B03B3F120020CDAB5
:100768000C3208DD02F1140CC2F10C0201FA0CF093
:1007780021FA02F10CE002F11402D8BFC2F1200CF8
:1007880001FA02F120FA0CFCDCBF41EA0C019040AE
:10079800E41AA2BF01EB0451294330BD6FEA0404F7
:1007A8001F3C1CDA0C340EDC04F11404C4F12002E2
:1007B80020FA04F001FA02F340EA030021FA04F3F4
:1007C80045EA030130BDC4F10C04C4F1200220FA4B
:1007D80002F001FA04F340EA0300294630BD21FA89
:1007E80004F0294630BD94F0000F83F4801306BF4F
:1007F80081F480110134013D4EE77FEA645C18BF43
:100808007FEA655C29D094EA050F08BF90EA020FD9
:1008180005D054EA000C04BF1946104630BD91EAD1
:10082800030F1EBF0021002030BD5FEA545C05D1D4
:100838004000494128BF41F0004130BD14F5800413
:100848003CBF01F5801130BD01F0004545F0FE4187
:1008580041F470014FF0000030BD7FEA645C1ABFBC
:10086800194610467FEA655C1CBF0B46024650EAF3
:10087800013406BF52EA033591EA030F41F400211F
:1008880030BD00BF90F0000F04BF0021704730B5A5
:100898004FF4806404F132044FF000054FF000017A
:1008A80050E700BF90F0000F04BF0021704730B53B
:1008B8004FF4806404F1320410F0004548BF404210
:1008C8004FF000013EE700BF42004FEAE2014FEA65
:1008D80031014FEA02701FBF12F07F4393F07F4F40
:1008E80081F06051704732F07F4208BF704793F043
:1008F8007F4F04BF41F40021704730B54FF4607456
:1009080001F0004521F000411CE700BF50EA010258
:1009180008BF704730B54FF000050AE050EA010201
:1009280008BF704730B511F0004502D5404261EB71
:1009380041014FF4806404F132045FEA915C3FF4B2
:10094800D8AE4FF003025FEADC0C18BF03325FEA4F
:10095800DC0C18BF033202EBDC02C2F1200300FA00
:1009680003FC20FA02F001FA03FE40EA0E0021FA25
:1009780002F11444BDE600BF4A0011D212F500127C
:1009880011D20DD56FF47873B3EB62520ED44FEADF
:10099800C12343F0004343EA505323FA02F070475F
:1009A8004FF00000704750EA013002D14FF0FF309D
:1009B80070474FF00000704780F0004002E000BF31
:1009C80081F0004142001FBF5FEA410392EA030F32
:1009D8007FEA226C7FEA236C6AD04FEA1262D2EB7C
:1009E8001363C1BFD218414048404140B8BF5B4281
:1009F800192B88BF704710F0004F40F4000020F01A
:100A08007F4018BF404211F0004F41F4000121F02F
:100A18007F4118BF494292EA030F3FD0A2F1010279
:100A280041FA03FC10EB0C00C3F1200301FA03F1B7
:100A380000F0004302D5494260EB4000B0F5000FDA
:100A480013D3B0F1807F06D340084FEA310102F199
:100A58000102FE2A51D2B1F1004F40EBC25008BF4B
:100A680020F0010040EA03007047490040EB000015
:100A7800013A28BFB0F5000FEDD2B0FA80FCACF116
:100A8800080CB2EB0C0200FA0CF0AABF00EBC25043
:100A980052421843BCBFD0401843704792F0000F31
:100AA80081F4000106BF80F400000132013BB5E784
:100AB8004FEA41037FEA226C18BF7FEA236C21D0FA
:100AC80092EA030F04D092F0000F08BF084670475F
:100AD80090EA010F1CBF0020704712F07F4F04D12D
:100AE800400028BF40F00040704712F100723CBF40
:100AF80000F50000704700F0004343F0FE4040F46A
:100B0800000070477FEA226216BF08467FEA236327
:100B18000146420206BF5FEA412390EA010F40F412
:100B2800800070474FF0000304E000BF10F000435E
:100B380048BF40425FEA000C08BF704743F0964345
:100B480001464FF000001CE050EA010208BF704760
:100B58004FF000030AE000BF50EA010208BF7047E7
:100B680011F0004302D5404261EB41015FEA010CFC
:100B780002BF84460146002043F0B64308BFA3F1F4
:100B88008053A3F50003BCFA8CF2083AA3EBC253D6
:100B980010DB01FA02FC634400FA02FCC2F12002F5
:100BA800BCF1004F20FA02F243EB020008BF20F02C
:100BB8000100704702F1200201FA02FCC2F1200292
:100BC80050EA4C0021FA02F243EB020008BF20EA87
:100BD800DC70704742000ED2B2F1FE4F0BD34FF0DB
:100BE8009E03B3EB126209D44FEA002343F000439B
:100BF80023FA02F070474FF00000704712F1610FBE
:100C080001D1420202D14FF0FF3070474FF000008F
:100C1800704700BF53B94AB9002908BF00281CBF54
:100C28004FF0FF314FF0FF3000F076B9ADF1080C0E
:100C38006DE904CE00F006F8DDF804E0DDE90223F2
:100C480004B070472DE9F047089E0D4604468846D3
:100C5800002B4DD18A42944668D9B2FA82F252B139
:100C680001FA02F3C2F1200120FA01F10CFA02FCA8
:100C780041EA030894404FEA1C41B8FBF1F71FFA18
:100C88008CFE01FB178807FB0EF0230C43EA084390
:100C980098420AD91CEB030307F1FF3580F01E8147
:100CA800984240F21B81023F63441B1AB3FBF1F0E8
:100CB80001FB103300FB0EFEA4B244EA0344A64530
:100CC8000AD91CEB040400F1FF3380F00981A64522
:100CD80040F20681644402380021A4EB0E0440EA85
:100CE80007401EB10023D440C6E90043BDE8F087A1
:100CF8008B4208D9002E00F0EE800021C6E90005DD
:100D08000846BDE8F087B3FA83F100294AD1AB421F
:100D180002D3824200F2FC80841A65EB03030120AF
:100D28009846002EE2D0C6E90048DFE702B9FFDEA8
:100D3800B2FA82F2002A40F09180A1EB0C00012166
:100D48004FEA1C471FFA8CFEB0FBF7F307FB1300B2
:100D5800250C45EA00450EFB03F0A84208D91CEB18
:100D6800050503F1FF3802D2A84200F2CE804346BF
:100D78002D1AB5FBF7F007FB10550EFB00FEA4B2C9
:100D880044EA0544A64508D91CEB040400F1FF35E4
:100D980002D2A64500F2B6802846A4EB0E0440EA2B
:100DA80003409EE7C1F120078B4022FA07FC4CEA7A
:100DB800030C25FA07FA4FEA1C49BAFBF9F820FA9E
:100DC80007F309FB18AA8D401FFA8CFE1D4300FA91
:100DD80001F308FB0EF02C0C44EA0A44A04202FA84
:100DE80001F20BD91CEB040408F1FF3A80F088806B
:100DF800A04240F28580A8F102086444241AB4FB9A
:100E0800F9F009FB104400FB0EFEADB245EA0444BC
:100E1800A64508D91CEB040400F1FF356CD2A645A1
:100E28006AD90238644440EA0840A0FB0295A4EB62
:100E38000E04AC42C846AE4656D353D0002E69D0F5
:100E4800B3EB080264EB0E0422FA01F304FA07F785
:100E58001F43CC40C6E90074002147E70CFA02FCA6
:100E6800C2F1200125FA01F34FEA1C4720FA01F1EB
:100E780095400D43B3FBF7F107FB11331FFA8CFEC6
:100E8800280C40EA034001FB0EF3834204FA02F403
:100E980008D91CEB000001F1FF382FD283422DD96D
:100EA80002396044C01AB0FBF7F307FB1300ADB278
:100EB80045EA004503FB0EF0A84208D91CEB0505DE
:100EC80003F1FF3816D2A84214D9023B6544281A08
:100ED80043EA014138E73146304607E72F46E4E662
:100EE8001846F9E64B45A9D2B9EB020865EB0C0E9A
:100EF8000138A3E74346EAE7284694E74146D1E7A5
:100F0800D0467BE76444023847E7023B65442FE755
:100F1800084606E73146E9E6704700BF72B6FEE7C5
:100F280000B591B02822002106A829F0E3FF00238C
:100F380001930293039304930593012206924FF4BD
:100F4800803307930A9202220D920E934FF4E01316
:100F58000F9306A803F0A8FC80B90F230193022180
:100F68000291002303934FF480620492059301A831
:100F780003F0D8FE20B911B05DF804FBFFF7CEFFEF
:100F8800FFF7CCFF08B503F041FCFFF7C9FF00F0FD
:100F980023F800F0CBF800F06BF900F019F904F031
:100FA8001BFC012211460B4804F0BFF810F0D4FCDA
:100FB80004F090FB04F0F6FB04F0A2FC04F0F8FC4B
:100FC80005201EF0E1FC20F0BBFE052003F042FCEA
:100FD800F6E700BF000C01402DE9F0418AB000247B
:100FE80006940794089409942C4B9A6942F040029D
:100FF8009A619A6902F040020092009A9A6942F056
:1010080010029A619A6902F010020192019A9A6993
:1010180042F004029A619A6902F004020292029A6A
:101028009A6942F008029A619A6902F008020392EA
:10103800039A9A6942F480729A619A6902F48072FA
:101048000492049A9A6942F020029A619B6903F01B
:1010580020030593059BDFF848802246202140465F
:1010680004F063F80F4E22460121304604F05DF883
:10107800202306930125079508940227099706A9B6
:10108800404603F02BFF069507950894099706A993
:10109800304603F023FF0AB0BDE8F081001002409B
:1010A80000180140000C014030B587B000230293BE
:1010B800039304930593184B1B680BB107B030BD1D
:1010C800154B01221A60154B5A6942F480725A6115
:1010D8005B6903F480730193019B41F2010302935E
:1010E800022503950324059402A90D4803F0F6FE92
:1010F8004FF6807302930395059402A9094803F0FB
:10110800EDFE4CF2337302930395059402A9064849
:1011180003F0E4FED2E700BF3801002000100240CF
:1011280000200140001801400014014010B58EB0A5
:1011380000230793089309930A930B930C930D9339
:1011480000930193029303930493059306931C4819
:101158004FF02042026002F58272426006228260ED
:10116800C3600361102242618361C3610362436209
:101178004FF480518162C3624FF48041016343633D
:101188008363012307930F230893022409940A9386
:101198000B9211210C9101930294039304920591EF
:1011A8006A4607A904F026F830B9064AD36943F419
:1011B8008063D3610EB010BDFFF7B0FEF5E700BF46
:1011C8003C0100200000014008B5FFF76DFF08BD95
:1011D80008B50B480B4B03600B4B4360002383603F
:1011E800C3604FF48042026143618361C36103625B
:1011F80004F032F800B908BDFFF790FEFBE700BF26
:101208008401002000580040A086010010B586B077
:10121800002302930393049305930268114B9A42A7
:1012280001D006B010BD104CA36943F00803A361B8
:10123800A36903F008030093009B4FF440630293F3
:10124800122303930323059302A9084803F046FEDB
:10125800E36943F48003E361E36903F480030193E2
:10126800019BDEE70058004000100240000C0140DE
:1012780008B50A480A4B03604FF4E1334360002382
:101288008360C36003610C2242618361C36104F01F
:1012980041F900B908BDFFF741FEFBE7D80100207E
:1012A8000038014010B586B00023029303930493DD
:1012B80005930268174B9A4201D006B010BD03F59A
:1012C80058439A6942F480429A619A6902F48042CA
:1012D8000092009A9A6942F004029A619B6903F0AD
:1012E80004030193019B4FF40073029302230393B9
:1012F80003230593084C02A9204603F0EFFD4FF4A1
:101308008063029300230393049302A9204603F009
:10131800E5FDD2E7003801400008014010B5144649
:101328004FF6FF7392B2024804F023F9204610BD2D
:10133800D801002082B0ADF80600BDF806309BB297
:10134800ADF80630BDF806309BB2024AA2F8FE306E
:1013580002B070470007006C82B0ADF80600BDF817
:1013680006309BB2ADF80630BDF806309BB2024A93
:10137800A2F8003102B070470007006C82B0054B3C
:10138800B3F800319BB2ADF80630BDF8060080B264
:1013980002B070470007006C024BA3F8FE00A3F8E8
:1013A800001170470007006C024B1A89024BA3F822
:1013B800FE2070471C0200200007006C70B505462F
:1013C8000C46444B9B8849F24132934229D045F25E
:1013D8001032934225D041F66312934235D045F23C
:1013E8001052934230D13B4E7089FFF7A3FF280A71
:1013F800FFF7B2FF7089013080B2FFF79BFFE8B2B8
:10140800FFF7AAFFB089FFF795FF200AFFF7A4FFAF
:10141800B089013080B2FFF78DFFE0B2FFF79CFF83
:1014280012E02C4E7089FFF785FF280AFFF794FF1A
:10143800E8B2FFF791FFB089FFF77CFF200AFFF7BA
:101448008BFFE0B2FFF788FF70BD224B9B7953BB3F
:10145800204B1888451BADB2013DADB25889FFF746
:1014680069FF0020FFF778FF0020FFF775FF280AC3
:10147800FFF772FFE8B2FFF76FFF164DA889FFF775
:1014880059FF200AFFF768FFE0B2FFF765FF688899
:101498000138C0F30F20FFF75FFF68880138C0B23A
:1014A800FFF75AFFD0E70B4E7089FFF743FF280A72
:1014B800FFF752FFE8B2FFF74FFF30880138C0F35B
:1014C8000F20FFF749FF30880138C0B2FFF744FF0B
:1014D800D3E700BF1C0200207E4B9B79012B19D05B
:1014E8002BB97C4B9A8841F663139A4218D0794BF2
:1014F8009B8849F2413293422AD045F210329342F6
:1015080026D045F21052934222D041F663129342FC
:101518001ED070476F4A918841F663129142DFD01E
:101528000728E4D8DFE800F0120406080A0C0E10B9
:101538000720DCE70420DAE70520D8E70120D6E712
:101548000020D4E70320D2E70220D0E70620CEE728
:1015580010B50138062805D8DFE800F01206080A99
:101568000C0E100000240CE040240AE0C02408E01F
:10157800202406E0602404E0A02402E0E02400E047
:10158800802445F21052934250D0362045F2103252
:10159800934209D045F21052934205D041F66312A6
:1015A800934201D044F008042146FFF7F5FE494B69
:1015B8009B8841F6631293420AD014F0200F38D06A
:1015C800444A11885288914202D24248028041809E
:1015D80045F21052934235D03E4C6089FFF7AAFE7F
:1015E8000020FFF7B9FE0020FFF7B6FE208801387B
:1015F800C0F30F20FFF7B0FE20880138C0B2FFF714
:10160800ABFEA089FFF796FE0020FFF7A5FE00209D
:10161800FFF7A2FE60880138C0F30F20FFF79CFE99
:1016280060880138C0B2FFF797FE10BD4FF45850DC
:10163800ACE7284A118852889142C9D925480280C6
:101648004180C5E7234C6089FFF774FE0020FFF74F
:1016580083FE6089013080B2FFF76CFE0020FFF73F
:101668007BFE6089023080B2FFF764FE2088013873
:10167800C0F30F20FFF770FE6089033080B2FFF7D8
:1016880059FE20880138C0B2FFF766FEA089FFF72F
:1016980051FE0020FFF760FEA089013080B2FFF7FD
:1016A80049FE0020FFF758FEA089023080B2FFF7FC
:1016B80041FE60880138C0F30F20FFF74DFEA08976
:1016C800033080B2FFF736FE60880138C0B2FFF7FA
:1016D80043FEAAE71C02002010B50446BE20FFF70F
:1016E80029FE0520FFF738FE2046FFF7DBF80CA39C
:1016F800D3E90023FEF7A6FDFFF73EF980B2FFF716
:101708002BFE0120FFF728FEFF20FFF725FE002013
:10171800FFF722FE0020FFF71FFE10BDAFF3008089
:10172800666666666666044008B54C4B9871002884
:1017380047D1F0221A804FF4A0725A809B8849F250
:101748004132934219D045F21032934215D045F2F6
:101758001052934224D041F66312934261D13F4B19
:101768002C221A812B225A812A229A814FF4F07254
:101778001A804FF448725A8053E0384A2C2111815C
:101788002A2151812B21918145F21032934248D16F
:10179800324B4FF4A0721A804FF4F0725A8040E036
:1017A8002E4B4FF430521A814FF428525A814FF47D
:1017B8002C529A814FF4F0721A804FF448725A8072
:1017C8002FE0264B4FF4A0721A80F0225A809B8893
:1017D80049F24132934219D045F21032934215D062
:1017E80045F21052934220D041F66312934214D12D
:1017F8001A4A2C2111812A2151812B2191814FF4E0
:10180800487111804FF4F071518006E0134A2C2181
:1018180011812A2151812B21918145F21032934265
:1018280014D00020FFF758FE08BD0C4A4FF4305181
:1018380011814FF4285151814FF42C5191814FF46B
:10184800487111804FF4F0715180E6E7034B4FF473
:10185800F0721A804FF4A0725A80E2E71C0200204E
:1018680038B505460A4B1A885C8802FB04F4002147
:101878000846FFF7A3FDFFF797FD002204E0ABB28F
:101888000449A1F800310132A242F8D338BD00BFA3
:101898001C0200200007006C10B5322002F0DAFFAD
:1018A800D320FFF747FDFFF769FD5A4CA080FFF7EB
:1018B80065FDA080FFF762FDA0800002A080FFF711
:1018C8005DFDA388184380B2A08049F24133984255
:1018D80044D1504CA188504829F014FBA38849F200
:1018E8004132934200F09C8045F21032934200F05E
:1018F800AC8145F21052934201F0208141F6631207
:10190800934202F09680434B9B8849F241329342BE
:101918000BD045F21032934207D045F21052934251
:1019280003D041F66312934210D13C4BDA6922F09E
:101938000F02DA61DA6922F47062DA61DA6942F078
:101948000102DA61DA6942F48072DA610020FFF795
:10195800EBFE4FF6FF70FFF783FF10BDD420FFF7B3
:10196800E9FCFFF70BFDA080FFF708FDA080FFF75B
:1019780005FDA0800002A080FFF700FDA3881843A2
:1019880080B2A08045F210339842A2D04FF45A405A
:10199800FFF7D0FCFFF7F2FCA0804FF45B40FFF7A5
:1019A800C9FCFFF7EBFCA0800002A0804FF45C406C
:1019B800FFF7C0FCFFF7E2FCA388184380B2A080C1
:1019C800B0F5004F21D0134B9A8845F210539A4234
:1019D8003FF47FAFA120FFF7ADFCFFF7CFFC0D4C24
:1019E800A080FFF7CBFCA0800002A080FFF7C6FC18
:1019F800A388184380B2A08045F2617398427FF4AF
:101A080068AF41F66312A28063E745F21052A280E4
:101A1800D9E700BF1C02002060BF0208000100A037
:101A2800CF20FFF787FC0020FFF796FCC120FFF7C7
:101A380093FC3020FFF790FCED20FFF77BFC64203F
:101A4800FFF78AFC0320FFF787FC1220FFF784FCCE
:101A58008120FFF781FCE820FFF76CFC8520FFF769
:101A68007BFC1020FFF778FC7A20FFF775FCCB2071
:101A7800FFF760FC3920FFF76FFC2C20FFF76CFCA8
:101A88000020FFF769FC3420FFF766FC0220FFF70F
:101A980063FCF720FFF74EFC2020FFF75DFCEA20EF
:101AA800FFF748FC0020FFF757FC0020FFF754FC25
:101AB800C020FFF73FFC1B20FFF74EFCC120FFF7BB
:101AC80039FC0120FFF748FCC520FFF733FC302024
:101AD800FFF742FC3020FFF73FFCC720FFF72AFC46
:101AE800B720FFF739FC3620FFF724FC4820FFF722
:101AF80033FC3A20FFF71EFC5520FFF72DFCB120E0
:101B0800FFF718FC0020FFF727FC1A20FFF724FC3A
:101B1800B620FFF70FFC0A20FFF71EFCA220FFF7F4
:101B28001BFCF220FFF706FC0020FFF715FC26201F
:101B3800FFF700FC0120FFF70FFCE020FFF7FAFB9E
:101B48000F20FFF709FC2A20FFF706FC2820FFF7E3
:101B580003FC0820FFF700FC0E20FFF7FDFB082020
:101B6800FFF7FAFB5420FFF7F7FBA920FFF7F4FB78
:101B78004320FFF7F1FB0A20FFF7EEFB0F20FFF7EA
:101B8800EBFB0020FFF7E8FB0020FFF7E5FB002058
:101B9800FFF7E2FB0020FFF7DFFBE120FFF7CAFBBE
:101BA8000020FFF7D9FB1520FFF7D6FB1720FFF71A
:101BB800D3FB0720FFF7D0FB1120FFF7CDFB062052
:101BC800FFF7CAFB2B20FFF7C7FB5620FFF7C4FB24
:101BD8003C20FFF7C1FB0520FFF7BEFB1020FFF7F5
:101BE800BBFB0F20FFF7B8FB3F20FFF7B5FB3F20FB
:101BF800FFF7B2FB0F20FFF7AFFB2B20FFF79AFB95
:101C08000020FFF7A9FB0020FFF7A6FB0120FFF744
:101C1800A3FB3F20FFF7A0FB2A20FFF78BFB002048
:101C2800FFF79AFB0020FFF797FB0020FFF794FBD4
:101C3800EF20FFF791FB1120FFF77CFB782002F0E3
:101C480009FE2920FFF776FB5DE6ED20FFF772FB22
:101C58000120FFF781FBFE20FFF77EFBEE20FFF758
:101C680069FBDE20FFF778FB2120FFF775FBF120E9
:101C7800FFF760FB0120FFF76FFBDF20FFF75AFB40
:101C88001020FFF769FBC420FFF754FB8F20FFF7F4
:101C980063FBC620FFF74EFB0020FFF75DFBE22049
:101CA800FFF75AFBE220FFF757FBE220FFF754FB50
:101CB800BF20FFF73FFBAA20FFF74EFBB020FFF73E
:101CC80039FB0D20FFF748FB0020FFF745FB0D20EF
:101CD800FFF742FB0020FFF73FFB1120FFF73CFB1B
:101CE8000020FFF739FB1920FFF736FB0020FFF72C
:101CF80033FB2120FFF730FB0020FFF72DFB2D20C1
:101D0800FFF72AFB0020FFF727FB3D20FFF724FB06
:101D18000020FFF721FB5D20FFF71EFB0020FFF7E7
:101D28001BFB5D20FFF718FB0020FFF715FBB12018
:101D3800FFF700FB8020FFF70FFB0020FFF70CFBED
:101D48008B20FFF709FB0020FFF706FB9620FFF723
:101D580003FB0020FFF700FBB220FFF7EBFA00209F
:101D6800FFF7FAFA0020FFF7F7FA0220FFF7F4FA74
:101D78000020FFF7F1FA0320FFF7EEFA0020FFF743
:101D8800EBFAB320FFF7D6FA0020FFF7E5FA0020B8
:101D9800FFF7E2FA0020FFF7DFFA0020FFF7DCFA8E
:101DA8000020FFF7D9FA0020FFF7D6FA0020FFF746
:101DB800D3FA0020FFF7D0FA0020FFF7CDFA002071
:101DC800FFF7CAFA0020FFF7C7FA0020FFF7C4FAA6
:101DD8000020FFF7C1FA0020FFF7BEFA0020FFF746
:101DE800BBFA0020FFF7B8FA0020FFF7B5FA002089
:101DF800FFF7B2FA0020FFF7AFFA0020FFF7ACFABE
:101E08000020FFF7A9FA0020FFF7A6FA0020FFF745
:101E1800A3FA0020FFF7A0FAB420FFF78BFA8B2073
:101E2800FFF79AFA0020FFF797FA9620FFF794FA3F
:101E38000020FFF791FAA120FFF78EFA0020FFF7A4
:101E48008BFAB520FFF776FA0220FFF785FA002013
:101E5800FFF782FA0320FFF77FFA0020FFF77CFAEA
:101E68000420FFF779FA0020FFF776FAB620FFF78B
:101E780061FA0020FFF770FA0020FFF76DFAB7202B
:101E8800FFF758FA0020FFF767FA0020FFF764FA17
:101E98003F20FFF761FA0020FFF75EFA5E20FFF7A8
:101EA8005BFA0020FFF758FA6420FFF755FA002084
:101EB800FFF752FA8C20FFF74FFA0020FFF74CFA91
:101EC800AC20FFF749FA0020FFF746FADC20FFF7BD
:101ED80043FA0020FFF740FA7020FFF73DFA002090
:101EE800FFF73AFA9020FFF737FA0020FFF734FAA5
:101EF800EB20FFF731FA0020FFF72EFADC20FFF77E
:101F08002BFA0020FFF728FAB820FFF713FA002071
:101F1800FFF722FA0020FFF71FFA0020FFF71CFA4C
:101F28000020FFF719FA0020FFF716FA0020FFF744
:101F380013FA0020FFF710FA0020FFF70DFABA2075
:101F4800FFF7F8F92420FFF707FA0020FFF704FA53
:101F58000020FFF701FA0020FFF7FEF9C120FFF784
:101F6800E9F92020FFF7F8F90020FFF7F5F95420E8
:101F7800FFF7F2F90020FFF7EFF9FF20FFF7ECF980
:101F88000020FFF7E9F9C220FFF7D4F90A20FFF78C
:101F9800E3F90020FFF7E0F90420FFF7DDF900205E
:101FA800FFF7DAF9C320FFF7C5F93C20FFF7D4F9AA
:101FB8000020FFF7D1F93A20FFF7CEF90020FFF70C
:101FC800CBF93920FFF7C8F90020FFF7C5F937200A
:101FD800FFF7C2F90020FFF7BFF93C20FFF7BCF973
:101FE8000020FFF7B9F93620FFF7B6F90020FFF710
:101FF800B3F93220FFF7B0F90020FFF7ADF92F2031
:10200800FFF7AAF90020FFF7A7F92C20FFF7A4F99A
:102018000020FFF7A1F92920FFF79EF90020FFF71C
:102028009BF92620FFF798F90020FFF795F924205F
:10203800FFF792F90020FFF78FF92420FFF78CF9BA
:102048000020FFF789F92320FFF786F90020FFF722
:1020580083F93C20FFF780F90020FFF77DF936204F
:10206800FFF77AF90020FFF777F93220FFF774F9C4
:102078000020FFF771F92F20FFF76EF90020FFF716
:102088006BF92C20FFF768F90020FFF765F9292084
:10209800FFF762F90020FFF75FF92620FFF75CF9E8
:1020A8000020FFF759F92420FFF756F90020FFF721
:1020B80053F92420FFF750F90020FFF74DF92320AA
:1020C800FFF74AF90020FFF747F9C420FFF732F974
:1020D8006220FFF741F90020FFF73EF90520FFF7DE
:1020E8003BF90020FFF738F98420FFF735F9002085
:1020F800FFF732F9F020FFF72FF90020FFF72CF94E
:102108001820FFF729F90020FFF726F9A420FFF788
:1021180023F90020FFF720F91820FFF71DF9002008
:10212800FFF71AF95020FFF717F90020FFF714F905
:102138000C20FFF711F90020FFF70EF91720FFF721
:102148000BF90020FFF708F99520FFF705F90020A3
:10215800FFF702F9F320FFF7FFF80020FFF7FCF87C
:10216800E620FFF7F9F80020FFF7F6F8C520FFF79B
:10217800E1F83220FFF7F0F80020FFF7EDF84420EF
:10218800FFF7EAF80020FFF7E7F86520FFF7E4F823
:102198000020FFF7E1F87620FFF7DEF80020FFF7D0
:1021A800DBF88820FFF7D8F80020FFF7D5F8C6201D
:1021B800FFF7C0F82020FFF7CFF80020FFF7CCF892
:1021C8001720FFF7C9F80020FFF7C6F80120FFF72E
:1021D800C3F80020FFF7C0F8C720FFF7ABF80020CE
:1021E800FFF7BAF80020FFF7B7F80020FFF7B4F8B8
:1021F8000020FFF7B1F8C820FFF79CF80020FFF790
:10220800ABF80020FFF7A8F80020FFF7A5F800209A
:10221800FFF7A2F8C920FFF78DF80020FFF79CF818
:102228000020FFF799F80020FFF796F80020FFF745
:1022380093F80020FFF790F80020FFF78DF80020B2
:10224800FFF78AF80020FFF787F80020FFF784F8E7
:102258000020FFF781F80020FFF77EF80020FFF745
:102268007BF80020FFF778F80020FFF775F80020CA
:10227800FFF772F80020FFF76FF8E020FFF75AF831
:102288001620FFF769F80020FFF766F81C20FFF713
:1022980063F80020FFF760F82120FFF75DF80020C1
:1022A800FFF75AF83620FFF757F80020FFF754F8E1
:1022B8004620FFF751F80020FFF74EF85220FFF7AD
:1022C8004BF80020FFF748F86420FFF745F8002096
:1022D800FFF742F87A20FFF73FF80020FFF73CF8B5
:1022E8008B20FFF739F80020FFF736F89920FFF721
:1022F80033F80020FFF730F8A820FFF72DF800206A
:10230800FFF72AF8B920FFF727F80020FFF724F88D
:10231800C420FFF721F80020FFF71EF8CA20FFF7B6
:102328001BF80020FFF718F8D220FFF715F8002057
:10233800FFF712F8D920FFF70FF80020FFF70CF885
:10234800E020FFF709F80020FFF706F8F320FFF771
:1023580003F80020FFF700F8E120FEF7EBFF162056
:10236800FEF7FAFF0020FEF7F7FF1C20FEF7F4FF48
:102378000020FEF7F1FF2220FEF7EEFF0020FEF717
:10238800EBFF3620FEF7E8FF0020FEF7E5FF4520CB
:10239800FEF7E2FF0020FEF7DFFF5220FEF7DCFF2A
:1023A8000020FEF7D9FF6420FEF7D6FF0020FEF7D5
:1023B800D3FF7A20FEF7D0FF0020FEF7CDFF8B2059
:1023C800FEF7CAFF0020FEF7C7FF9920FEF7C4FFFB
:1023D8000020FEF7C1FFA820FEF7BEFF0020FEF791
:1023E800BBFFB920FEF7B8FF0020FEF7B5FFC420F9
:1023F800FEF7B2FF0020FEF7AFFFCA20FEF7ACFFE2
:102408000020FEF7A9FFD220FEF7A6FF0020FEF766
:10241800A3FFD820FEF7A0FF0020FEF79DFFE020D5
:10242800FEF79AFF0020FEF797FFF320FEF794FFD0
:102438000020FEF791FFE220FEF77CFF0520FEF763
:102448008BFF0020FEF788FF0B20FEF785FF00209A
:10245800FEF782FF1B20FEF77FFF0020FEF77CFFC0
:102468003420FEF779FF0020FEF776FF4420FEF7C0
:1024780073FF0020FEF770FF4F20FEF76DFF00206E
:10248800FEF76AFF6120FEF767FF0020FEF764FF92
:102498007920FEF761FF0020FEF75EFF8820FEF737
:1024A8005BFF0020FEF758FF9720FEF755FF00203E
:1024B800FEF752FFA620FEF74FFF0020FEF74CFF65
:1024C800B720FEF749FF0020FEF746FFC220FEF7BF
:1024D80043FF0020FEF740FFC720FEF73DFF002026
:1024E800FEF73AFFD120FEF737FF0020FEF734FF52
:1024F800D620FEF731FF0020FEF72EFFDD20FEF785
:102508002BFF0020FEF728FFF320FEF725FF002011
:10251800FEF722FFE320FEF70DFF0520FEF71CFF64
:102528000020FEF719FF0A20FEF716FF0020FEF72D
:1025380013FF1C20FEF710FF0020FEF70DFF3320CD
:10254800FEF70AFF0020FEF707FF4420FEF704FF0E
:102558000020FEF701FF5020FEF7FEFE0020FEF7E8
:10256800FBFE6220FEF7F8FE0020FEF7F5FE78205D
:10257800FEF7F2FE0020FEF7EFFE8820FEF7ECFEE5
:102588000020FEF7E9FE9720FEF7E6FE0020FEF7A2
:10259800E3FEA620FEF7E0FE0020FEF7DDFEB720F2
:1025A800FEF7DAFE0020FEF7D7FEC220FEF7D4FEC3
:1025B8000020FEF7D1FEC720FEF7CEFE0020FEF772
:1025C800CBFED120FEF7C8FE0020FEF7C5FED520C1
:1025D800FEF7C2FE0020FEF7BFFEDD20FEF7BCFEC0
:1025E8000020FEF7B9FEF320FEF7B6FE0020FEF746
:1025F800B3FEE420FEF79EFE0120FEF7ADFE0020AC
:10260800FEF7AAFE0120FEF7A7FE0020FEF7A4FEB3
:102618000220FEF7A1FE0020FEF79EFE2A20FEF70C
:102628009BFE0020FEF798FE3C20FEF795FE00205A
:10263800FEF792FE4B20FEF78FFE0020FEF78CFE81
:102648005D20FEF789FE0020FEF786FE7420FEF767
:1026580083FE0020FEF780FE8420FEF77DFE00202A
:10266800FEF77AFE9320FEF777FE0020FEF774FE51
:10267800A220FEF771FE0020FEF76EFEB320FEF7E3
:102688006BFE0020FEF768FEBE20FEF765FE002008
:10269800FEF762FEC420FEF75FFE0020FEF75CFE38
:1026A800CD20FEF759FE0020FEF756FED320FEF798
:1026B80053FE0020FEF750FEDD20FEF74DFE002001
:1026C800FEF74AFEF320FEF747FE0020FEF744FE21
:1026D800E520FEF72FFE0020FEF73EFE0020FEF765
:1026E8003BFE0020FEF738FE0020FEF735FE0220F4
:1026F800FEF732FE0020FEF72FFE2920FEF72CFE03
:102708000020FEF729FE3C20FEF726FE0020FEF7FB
:1027180023FE4B20FEF720FE0020FEF71DFE5D2065
:10272800FEF71AFE0020FEF717FE7420FEF714FECF
:102738000020FEF711FE8420FEF70EFE0020FEF7B3
:102748000BFE9320FEF708FE0020FEF705FEA220F0
:10275800FEF702FE0020FEF7FFFDB320FEF7FCFDAA
:102768000020FEF7F9FDBE20FEF7F6FD0020FEF77B
:10277800F3FDC420FEF7F0FD0020FEF7EDFDCD20AF
:10278800FEF7EAFD0020FEF7E7FDD320FEF7E4FDA3
:102798000020FEF7E1FDDC20FEF7DEFD0020FEF75D
:1027A800DBFDF320FEF7D8FD0020FEF7D5FDE6207F
:1027B800FEF7C0FD1120FEF7CFFD0020FEF7CCFD8F
:1027C8003420FEF7C9FD0020FEF7C6FD5620FEF7AF
:1027D800C3FD0020FEF7C0FD7620FEF7BDFD0020FA
:1027E800FEF7BAFD7720FEF7B7FD0020FEF7B4FD2F
:1027F8006620FEF7B1FD0020FEF7AEFD8820FEF74B
:10280800ABFD0020FEF7A8FD9920FEF7A5FD0020EE
:10281800FEF7A2FDBB20FEF79FFD0020FEF79CFD02
:102828009920FEF799FD0020FEF796FD6620FEF739
:1028380093FD0020FEF790FD5520FEF78DFD00204A
:10284800FEF78AFD5520FEF787FD0020FEF784FD80
:102858004520FEF781FD0020FEF77EFD4320FEF7B0
:102868007BFD0020FEF778FD4420FEF775FD002073
:10287800FEF772FDE720FEF75DFD3220FEF76CFDE6
:102888000020FEF769FD5520FEF766FD0020FEF7E3
:1028980063FD7620FEF760FD0020FEF75DFD6620F3
:1028A800FEF75AFD0020FEF757FD6720FEF754FD9E
:1028B8000020FEF751FD6720FEF74EFD0020FEF7D1
:1028C8004BFD8720FEF748FD0020FEF745FD9920C7
:1028D800FEF742FD0020FEF73FFDBB20FEF73CFD62
:1028E8000020FEF739FD9920FEF736FD0020FEF79F
:1028F80033FD7720FEF730FD0020FEF72DFD442044
:10290800FEF72AFD0020FEF727FD5620FEF724FDDE
:102918000020FEF721FD2320FEF71EFD0020FEF714
:102928001BFD3320FEF718FD0020FEF715FD45209E
:10293800FEF712FD0020FEF70FFDE820FEF7FAFC77
:102948000020FEF709FD0020FEF706FD9920FEF79E
:1029580003FD0020FEF700FD8720FEF7FDFC0020A8
:10296800FEF7FAFC8820FEF7F7FC0020FEF7F4FCDF
:102978007720FEF7F1FC0020FEF7EEFC6620FEF75C
:10298800EBFC0020FEF7E8FC8820FEF7E5FC0020C1
:10299800FEF7E2FCAA20FEF7DFFC0020FEF7DCFCD5
:1029A800BB20FEF7D9FC0020FEF7D6FC9920FEF7E5
:1029B800D3FC0020FEF7D0FC6620FEF7CDFC0020FB
:1029C800FEF7CAFC5520FEF7C7FC0020FEF7C4FC42
:1029D8005520FEF7C1FC0020FEF7BEFC4420FEF7A0
:1029E800BBFC0020FEF7B8FC4420FEF7B5FC002035
:1029F800FEF7B2FC5520FEF7AFFC0020FEF7ACFC5A
:102A0800E920FEF797FCAA20FEF7A6FC0020FEF7B7
:102A1800A3FC0020FEF7A0FC0020FEF79DFC002090
:102A2800FEF788FCAA20FEF797FCCF20FEF782FC71
:102A38000020FEF791FC0020FEF78EFC0020FEF738
:102A48008BFC0020FEF788FC0020FEF785FC0020A8
:102A5800FEF782FC0020FEF77FFC0020FEF77CFCDE
:102A68000020FEF779FC0020FEF776FC0020FEF738
:102A780073FC0020FEF770FC0020FEF76DFC0020C0
:102A8800FEF76AFC0020FEF767FC0020FEF764FCF6
:102A98000020FEF761FCF020FEF74CFC0020FEF75A
:102AA8005BFC5020FEF758FC0020FEF755FC002088
:102AB800FEF752FC0020FEF74FFCF320FEF73AFC2D
:102AC8000020FEF749FCF920FEF734FC0620FEF74B
:102AD80043FC1020FEF740FC2920FEF73DFC0020B7
:102AE800FEF73AFC3A20FEF725FC5520FEF734FCA9
:102AF8001120FEF71FFC642001F0ACFE2920FEF730
:102B080019FC3520FEF716FC0020FEF725FC5120A5
:102B1800FEF710FCFF20FEF71FFC5320FEF70AFC0F
:102B28002C20FEF719FC5520FEF704FC8220FEF746
:102B380013FC2C20FEF7FEFBFEF7E5BE55214FF4F3
:102B48007040FEF729FCAA214FF20100FEF724FC91
:102B580052214FF20200FEF71FFC08214FF203003A
:102B6800FEF71AFC01214FF20400FEF715FC0D21B7
:102B78004FF43040FEF710FC0D214BF20100FEF738
:102B88000BFC0D214BF20200FEF706FC34214FF43A
:102B98003640FEF701FC34214BF20160FEF7FCFBE6
:102BA80034214BF20260FEF7F7FB0D214FF4314060
:102BB800FEF7F2FB0D214BF20110FEF7EDFB0D21A4
:102BC8004BF20210FEF7E8FB34214FF43740FEF7D2
:102BD800E3FB34214BF20170FEF7DEFB34214BF2AC
:102BE8000270FEF7D9FB00214FF43240FEF7D4FB08
:102BF80000214BF20120FEF7CFFB00214BF202200F
:102C0800FEF7CAFB24214FF43840FEF7C5FB242108
:102C18004BF60100FEF7C0FB24214BF60200FEF73D
:102C2800BBFB01214FF43F40FEF7B6FB0F214FF4E9
:102C38003340FEF7B1FB0F214BF20130FEF7ACFB3E
:102C48000F214BF20230FEF7A7FB34214FF4394035
:102C5800FEF7A2FB34214BF60110FEF79DFB342151
:102C68004BF60210FEF798FB08214FF43540FEF7AB
:102C780093FB08214BF20150FEF78EFB08214BF223
:102C88000250FEF789FB03214FF44240FEF784FB14
:102C980024214FF43A40FEF77FFB24214BF6012014
:102CA800FEF77AFB24214BF60220FEF775FB002184
:102CB8004FF43C40FEF770FB78214BF60140FEF7DD
:102CC8006BFB00214BF60240FEF766FB00214FF438
:102CD8003D40FEF761FB78214BF60150FEF75CFBA7
:102CE80000214BF60250FEF757FB00214FF43E40FF
:102CF800FEF752FB64214BF60160FEF74DFB002105
:102D08004FF45140FEF748FB33214DF20110FEF716
:102D180043FB00214DF20210FEF73EFB34214DF239
:102D28000310FEF739FB00214DF20410FEF734FBC7
:102D38003A214DF20510FEF72FFB00214DF2061047
:102D4800FEF72AFB4A214DF20710FEF725FB00216A
:102D58004DF20810FEF720FB5C214DF20910FEF73A
:102D68001BFB00214DF20A10FEF716FB81214DF2E4
:102D78000B10FEF711FB00214DF20C10FEF70CFBB7
:102D8800A6214DF20D10FEF707FB00214DF20E10A3
:102D9800FEF702FBE5214DF20F10FEF7FDFA0121C7
:102DA8004DF21010FEF7F8FA13214DF21110FEF74C
:102DB800F3FA01214DF21210FEF7EEFA54214DF20A
:102DC8001310FEF7E9FA01214DF21410FEF7E4FAA8
:102DD80082214DF21510FEF7DFFA01214DF216108F
:102DE800FEF7DAFACA214DF21710FEF7D5FA0221DA
:102DF8004DF21810FEF7D0FA00214DF21910FEF727
:102E0800CBFA02214DF21A10FEF7C6FA01214DF253
:102E18001B10FEF7C1FA02214DF21C10FEF7BCFA96
:102E280034214DF21D10FEF7B7FA02214DF21E10A3
:102E3800FEF7B2FA67214DF21F10FEF7ADFA022134
:102E48004DF22010FEF7A8FA84214DF22110FEF76A
:102E5800A3FA02214DF22210FEF79EFAA4214DF2A8
:102E68002310FEF799FA02214DF22410FEF794FA86
:102E7800B7214DF22510FEF78FFA02214DF22610E8
:102E8800FEF78AFACF214DF22710FEF785FA0221C4
:102E98004DF22810FEF780FADE214DF22910FEF7D8
:102EA8007BFA02214DF22A10FEF776FAF2214DF252
:102EB8002B10FEF771FA02214DF22C10FEF76CFA76
:102EC800FE214DF22D10FEF767FA03214DF22E1068
:102ED800FEF762FA10214DF22F10FEF75DFA03217A
:102EE8004DF23010FEF758FA33214DF23110FEF74B
:102EF80053FA03214DF23210FEF74EFA6D214DF2CE
:102F08003310FEF749FA00214FF45240FEF744FA15
:102F180033214DF20120FEF73FFA00214DF2022045
:102F2800FEF73AFA34214DF20320FEF735FA002174
:102F38004DF20420FEF730FA3A214DF20520FEF753
:102F48002BFA00214DF20620FEF726FA4A214DF20F
:102F58000720FEF721FA00214DF20820FEF71CFA9F
:102F68005C214DF20920FEF717FA00214DF20A20E4
:102F7800FEF712FA81214DF20B20FEF70DFA00211F
:102F88004DF20C20FEF708FAA6214DF20D20FEF7AF
:102F980003FA00214DF20E20FEF7FEF9E5214DF26D
:102FA8000F20FEF7F9F901214DF21020FEF7F4F990
:102FB80013214DF21120FEF7EFF901214DF21220F5
:102FC800FEF7EAF954214DF21320FEF7E5F9012145
:102FD8004DF21420FEF7E0F982214DF21520FEF79C
:102FE800DBF901214DF21620FEF7D6F9CA214DF280
:102FF8001720FEF7D1F902214DF21820FEF7CCF97F
:1030080000214DF21920FEF7C7F902214DF21A20CE
:10301800FEF7C2F901214DF21B20FEF7BDF902218E
:103028004DF21C20FEF7B8F934214DF21D20FEF7B1
:10303800B3F902214DF21E20FEF7AEF967214DF2D9
:103048001F20FEF7A9F902214DF22020FEF7A4F96E
:1030580084214DF22120FEF79FF902214DF2222012
:10306800FEF79AF9A4214DF22320FEF795F90221E3
:103078004DF22420FEF790F9B7214DF22520FEF7F6
:103088008BF902214DF22620FEF786F9CF214DF269
:103098002720FEF781F902214DF22820FEF77CF95E
:1030A800DE214DF22920FEF777F902214DF22A2080
:1030B800FEF772F9F2214DF22B20FEF76DF902218D
:1030C8004DF22C20FEF768F9FE214DF22D20FEF777
:1030D80063F903214DF22E20FEF75EF910214DF21F
:1030E8002F20FEF759F903214DF23020FEF754F94D
:1030F80033214DF23120FEF74FF903214DF23220F2
:10310800FEF74AF96D214DF23320FEF745F900210B
:103118004FF45340FEF740F933214DF20130FEF7EA
:103128003BF900214DF20230FEF736F934214DF219
:103138000330FEF731F900214DF20430FEF72CF987
:103148003A214DF20530FEF727F900214DF20630FD
:10315800FEF722F94A214DF20730FEF71DF900214A
:103168004DF20830FEF718F95C214DF20930FEF7F0
:1031780013F900214DF20A30FEF70EF981214DF2C4
:103188000B30FEF709F900214DF20C30FEF704F977
:10319800A6214DF20D30FEF7FFF800214DF20E305A
:1031A800FEF7FAF8E5214DF20F30FEF7F5F80121A8
:1031B8004DF21030FEF7F0F813214DF21130FEF702
:1031C800EBF801214DF21230FEF7E6F854214DF2EA
:1031D8001330FEF7E1F801214DF21430FEF7DCF868
:1031E80082214DF21530FEF7D7F801214DF2163045
:1031F800FEF7D2F8CA214DF21730FEF7CDF80221BA
:103208004DF21830FEF7C8F800214DF21930FEF7DC
:10321800C3F802214DF21A30FEF7BEF801214DF233
:103228001B30FEF7B9F802214DF21C30FEF7B4F856
:1032380034214DF21D30FEF7AFF802214DF21E3059
:10324800FEF7AAF867214DF21F30FEF7A5F8022114
:103258004DF22030FEF7A0F884214DF22130FEF720
:103268009BF802214DF22230FEF796F8A4214DF288
:103278002330FEF791F802214DF22430FEF78CF846
:10328800B7214DF22530FEF787F802214DF226309E
:10329800FEF782F8CF214DF22730FEF77DF80221A4
:1032A8004DF22830FEF778F8DE214DF22930FEF78E
:1032B80073F802214DF22A30FEF76EF8F2214DF232
:1032C8002B30FEF769F802214DF22C30FEF764F836
:1032D800FE214DF22D30FEF75FF803214DF22E301E
:1032E800FEF75AF810214DF22F30FEF755F803215A
:1032F8004DF23030FEF750F833214DF23130FEF701
:103308004BF803214DF23230FEF746F86D214DF2AD
:103318003330FEF741F800214FF45440FEF73CF8F3
:1033280033214DF20140FEF737F800214DF20240FB
:10333800FEF732F834214DF20340FEF72DF8002154
:103348004DF20440FEF728F83A214DF20540FEF709
:1033580023F800214DF20640FEF71EF84A214DF2EF
:103368000740FEF719F800214DF20840FEF714F85F
:103378005C214DF20940FEF70FF800214DF20A409A
:10338800FEF70AF881214DF20B40FEF705F80021FF
:103398004DF20C40FEF700F8A6214DF20D40FDF766
:1033A800FBFF00214DF20E40FDF7F6FFE5214DF23F
:1033B8000F40FDF7F1FF01214DF21040FDF7ECFF42
:1033C80013214DF21140FDF7E7FF01214DF21240A4
:1033D800FDF7E2FF54214DF21340FDF7DDFF012117
:1033E8004DF21440FDF7D8FF82214DF21540FDF74C
:1033F800D3FF01214DF21640FDF7CEFFCA214DF251
:103408001740FDF7C9FF02214DF21840FDF7C4FF30
:1034180000214DF21940FDF7BFFF02214DF21A407D
:10342800FDF7BAFF01214DF21B40FDF7B5FF022160
:103438004DF21C40FDF7B0FF34214DF21D40FDF761
:10344800ABFF02214DF21E40FDF7A6FF67214DF2AA
:103458001F40FDF7A1FF02214DF22040FDF79CFF20
:1034680084214DF22140FDF797FF02214DF22240C1
:10347800FDF792FFA4214DF22340FDF78DFF0221B5
:103488004DF22440FDF788FFB7214DF22540FDF7A6
:1034980083FF02214DF22640FDF77EFFCF214DF23A
:1034A8002740FDF779FF02214DF22840FDF774FF10
:1034B800DE214DF22940FDF76FFF02214DF22A402F
:1034C800FDF76AFFF2214DF22B40FDF765FF02215F
:1034D8004DF22C40FDF760FFFE214DF22D40FDF727
:1034E8005BFF03214DF22E40FDF756FF10214DF2F0
:1034F8002F40FDF751FF03214DF23040FDF74CFFFF
:1035080033214DF23140FDF747FF03214DF23240A0
:10351800FDF742FF6D214DF23340FDF73DFF0021DD
:103528004FF45540FDF738FF33214DF20150FDF7B8
:1035380033FF00214DF20250FDF72EFF34214DF2EA
:103548000350FDF729FF00214DF20450FDF724FF39
:103558003A214DF20550FDF71FFF00214DF20650AC
:10356800FDF71AFF4A214DF20750FDF715FF00211C
:103578004DF20850FDF710FF5C214DF20950FDF7A0
:103588000BFF00214DF20A50FDF706FF81214DF295
:103598000B50FDF701FF00214DF20C50FDF7FCFE2A
:1035A800A6214DF20D50FDF7F7FE00214DF20E5009
:1035B800FDF7F2FEE5214DF20F50FDF7EDFE01217A
:1035C8004DF21050FDF7E8FE13214DF21150FDF7B2
:1035D800E3FE01214DF21250FDF7DEFE54214DF2BB
:1035E8001350FDF7D9FE01214DF21450FDF7D4FE1A
:1035F80082214DF21550FDF7CFFE01214DF21650F4
:10360800FDF7CAFECA214DF21750FDF7C5FE02218B
:103618004DF21850FDF7C0FE00214DF21950FDF78C
:10362800BBFE02214DF21A50FDF7B6FE01214DF204
:103638001B50FDF7B1FE02214DF21C50FDF7ACFE08
:1036480034214DF21D50FDF7A7FE02214DF21E5008
:10365800FDF7A2FE67214DF21F50FDF79DFE0221E6
:103668004DF22050FDF798FE84214DF22150FDF7D0
:1036780093FE02214DF22250FDF78EFEA4214DF259
:103688002350FDF789FE02214DF22450FDF784FEF8
:10369800B7214DF22550FDF77FFE02214DF226504D
:1036A800FDF77AFECF214DF22750FDF775FE022176
:1036B8004DF22850FDF770FEDE214DF22950FDF73E
:1036C8006BFE02214DF22A50FDF766FEF2214DF203
:1036D8002B50FDF761FE02214DF22C50FDF75CFEE8
:1036E800FE214DF22D50FDF757FE03214DF22E50CD
:1036F800FDF752FE10214DF22F50FDF74DFE03212C
:103708004DF23050FDF748FE33214DF23150FDF7B0
:1037180043FE03214DF23250FDF73EFE6D214DF27E
:103728003350FDF739FE00214FF45640FDF734FEC3
:1037380033214DF20160FDF72FFE00214DF20260AA
:10374800FDF72AFE34214DF20360FDF725FE002126
:103758004DF20460FDF720FE3A214DF20560FDF7B9
:103768001BFE00214DF20660FDF716FE4A214DF2C0
:103778000760FDF711FE00214DF20860FDF70CFE11
:103788005C214DF20960FDF707FE00214DF20A6049
:10379800FDF702FE81214DF20B60FDF7FDFD0021D2
:1037A8004DF20C60FDF7F8FDA6214DF20D60FDF716
:1037B800F3FD00214DF20E60FDF7EEFDE5214DF21F
:1037C8000F60FDF7E9FD01214DF21060FDF7E4FD02
:1037D80013214DF21160FDF7DFFD01214DF212605A
:1037E800FDF7DAFD54214DF21360FDF7D5FD0121F7
:1037F8004DF21460FDF7D0FD82214DF21560FDF702
:10380800CBFD01214DF21660FDF7C6FDCA214DF230
:103818001760FDF7C1FD02214DF21860FDF7BCFDF0
:1038280000214DF21960FDF7B7FD02214DF21A6033
:10383800FDF7B2FD01214DF21B60FDF7ADFD022140
:103848004DF21C60FDF7A8FD34214DF21D60FDF717
:10385800A3FD02214DF21E60FDF79EFD67214DF28A
:103868001F60FDF799FD02214DF22060FDF794FDE0
:1038780084214DF22160FDF78FFD02214DF2226077
:10388800FDF78AFDA4214DF22360FDF785FD022195
:103898004DF22460FDF780FDB7214DF22560FDF75C
:1038A8007BFD02214DF22660FDF776FDCF214DF21A
:1038B8002760FDF771FD02214DF22860FDF76CFDD0
:1038C800DE214DF22960FDF767FD02214DF22A60E5
:1038D800FDF762FDF2214DF22B60FDF75DFD02213F
:1038E8004DF22C60FDF758FDFE214DF22D60FDF7DD
:1038F80053FD03214DF22E60FDF74EFD10214DF2D0
:103908002F60FDF749FD03214DF23060FDF744FDBE
:1039180033214DF23160FDF73FFD03214DF2326056
:10392800FDF73AFD6D214DF23360FDF735FD552168
:103938004FF47040FDF730FDAA214FF20100FDF76A
:103948002BFD52214FF20200FDF726FD08214FF210
:103958000300FDF721FD00214FF20400FDF71CFDD7
:10396800CC214FF43140FDF717FD00214BF2011037
:10397800FDF712FD05214FF43640FDF70DFD7021CE
:103988004FF43740FDF708FD70214BF20170FDF749
:1039980003FD01214FF43840FDF7FEFC03214BF6EF
:1039A8000100FDF7F9FC03214BF60200FDF7F4FCDA
:1039B80003214BF60300FDF7EFFC02214FF43C40D6
:1039C800FDF7EAFC00214BF60140FDF7E5FC00217C
:1039D8004BF60240FDF7E0FCD0214FF44940FDF7DB
:1039E800DBFC02214CF60110FDF7D6FC50214CF609
:1039F8000210FDF7D1FC50214CF60310FDF7CCFC6A
:103A080050214CF60410FDF7C7FC00214FF4545028
:103A1800FDF7C2FC55214FF46850FDF7BDFC4FF48B
:103A28008850FDF787FC4FF42450FDF783FCFDF721
:103A38006ABFE220FDF77EFC1D20FDF78DFC022009
:103A4800FDF78AFC0420FDF787FCE020FDF772FCF7
:103A58000120FDF781FC0A2000F0FCFEE020FDF7C4
:103A680069FC0320FDF778FC0C2000F0F3FE012030
:103A7800FDF760FC0A2000F0EDFEE620FDF75AFC99
:103A88002F20FDF769FCFF20FDF766FCFF20FDF7FE
:103A980063FCB020FDF74EFC2020FDF75DFC002004
:103AA800FDF75AFC0320FDF757FC40F21F30FDF7E5
:103AB80053FC0120FDF750FC40F2DF10FDF74CFCF1
:103AC8000020FDF749FCB420FDF734FC0420FDF785
:103AD80043FC40F21F40FDF73FFC0020FDF73CFC93
:103AE8002E20FDF739FC0020FDF736FC0020FDF7FD
:103AF80033FC0020FDF730FC0020FDF72DFCB6203C
:103B0800FDF718FC0220FDF727FC4FF40370FDF7C2
:103B180023FC0020FDF720FC1720FDF71DFC1520D5
:103B2800FDF71AFC0020FDF717FC0020FDF714FC38
:103B3800F020FDF7FFFB0320FDF70EFC2920FDF721
:103B4800F9FBD020FDF7F6FB0020FDF705FCBE20B1
:103B5800FDF7F0FB0520FDF7FFFBFE20FDF7FCFB62
:103B68000120FDF7F9FB0020FDF7F6FB0020FDF72B
:103B7800F3FB0020FDF7F0FBB820FDF7DBFB03208B
:103B8800FDF7EAFB0120FDF7E7FBBA20FDF7D2FBC2
:103B98000120FDF7E1FB6420FDF79EFDFDF7B3BEB4
:103BA8004FF0E0235A699A694FF0E0239B699A42E3
:103BB800FAD0704770B50446002517E000224FF48C
:103BC8000071114801F0B1FA6400E4B20F4E00220E
:103BD8000221304601F0A9FA0120FFF7E1FF012296
:103BE8000221304601F0A1FA0135EDB2072D09D8BE
:103BF80014F0800FE2D001224FF40071024801F066
:103C080094FAE1E770BD00BF001C0140000C0140C0
:103C180070B505462B4C00220221204601F085FA9A
:103C2800294E00224FF40071304601F07EFA00223E
:103C38004FF40061304601F078FA2846FFF7BAFFE2
:103C48000620FFF7ADFF00220221204601F06DFAA1
:103C58000120FFF7A5FF01220221204601F065FAA5
:103C68000120FFF79DFF00220221204601F05DFAA6
:103C78000024254601E00135EDB20F2D18D8640067
:103C8800A4B2104E00220221304601F04EFA012063
:103C9800FFF786FF01220221304601F046FA04218F
:103CA800304601F03BFA0028E5D00134A4B2E2E73F
:103CB800240901224FF40061034801F036FA204636
:103CC80070BD00BF000C0140001C014030B585B03C
:103CD8000546002409E02846FFF79AFF04AB03EBEA
:103CE800440323F80C0C0134A4B2042CF3D90020AB
:103CF8001AE001339BB2042B15D804AA02EB400248
:103D080032F80C2C04A901EB430131F80C1C8A424F
:103D1800EFD904AD05EB400C2CF80C1C05EB430166
:103D280021F80C2CE5E72046032803D8441CA4B24C
:103D38002346E0E70020012308E004AA02EB43023F
:103D480032F80C2C104480B201339BB2032BF4D907
:103D5800034BA3FB0030C0F34F0005B030BD00BFDC
:103D6800ABAAAAAA70B505460C46064B1878FFF709
:103D7800ADFF0646044B1878FFF7A8FF2E80208079
:103D8800012070BD000000200100002030B583B084
:103D980005460C4601A90DF10600FFF7E3FF08B937
:103DA80003B030BD69460DF10200FFF7DBFF0028C4
:103DB800F6D0BDF80230BDF80620934203D803F1CF
:103DC8003101914205DA93421ED302F13101994241
:103DD8001CDBBDF80000BDF80410884203D800F1D0
:103DE800310C8C4504DA884212D33131814211DB1F
:103DF80013445B102B80BDF80430BDF80020134439
:103E08005B1023800120CBE70020C9E70020C7E72B
:103E18000020C5E70020C3E738B504464FF48061A9
:103E2800314801F07BF9002847D1C4B12F4800F18F
:103E380016010C30FFF7AAFF2C4B93F92030002B0A
:103E480007DB2A4BC02283F820209A899A82DA8AD3
:103E5800DA83264B93F8200000F0800038BD234811
:103E680000F116010C30FFF791FF0028E4D01F4C39
:103E7800656AA089FCF75AFE2946FCF70DFB054642
:103E8800B4F92C00FCF752FE2946FCF79BFDFCF721
:103E9800A1FEA081A56AE08AFCF748FE2946FCF746
:103EA800FBFA0546B4F92E00FCF740FE2946FCF75C
:103EB80089FDFCF78FFEE082BEE70C4B93F82020CB
:103EC80093F92030002B08DB084B00229A82DA8312
:103ED8004FF6FF729A81DA82BBE702F07F02034B4A
:103EE80083F82020B5E700BF001C01400400002033
:103EF80008B50520FFF754FE08BD00002DE9F04184
:103F080086B01B4B9A6942F008029A619A6902F0DE
:103F180008020092009A9A6942F080029A619B69AD
:103F280003F080030193019B4FF00208CDF808804D
:103F3800012403940494032305930E4F02A93846E1
:103F480000F0CCFF4FF4007602960B4D02A92846EC
:103F580000F0C4FF22464146384601F0E6F8224602
:103F68003146284601F0E1F806B0BDE8F08100BF0F
:103F780000100240000C0140001C014038B5134CF1
:103F8800636823F0F0036360636843F030036360A1
:103F980001224FF40071204601F0C7F80C4D0122B0
:103FA8000221284601F0C1F81E20FFF7F9FD002282
:103FB8004FF40071204601F0B8F8FFF799FF00228E
:103FC8000221284601F0B1F838BD00BF001C0140AD
:103FD800000C014010B5104C636823F0F0036360D7
:103FE800636843F030036360012202210B4801F04B
:103FF8009CF81E20FFF7D4FD00224FF400712046E4
:1040080001F093F8FFF774FF01224FF40071204686
:1040180001F08BF810BD00BF001C0140000C0140EE
:1040280038B51748436823F0F0034360436843F00A
:104038008003436001224FF4007101F076F80122F9
:104048000221104801F071F8FFF752FF00244FF4E5
:1040580000710B4801F062F8054650B10134E4B232
:10406800FA2C02D8FFF744FFF1E7FFF7B3FF012569
:1040780004E000220221034801F057F8284638BD21
:10408800001C0140000C014038B5134D00220221EC
:10409800284601F04AF8114C636823F0F003636086
:1040A800636843F030036360FFF722FF00224FF498
:1040B8000071204601F039F8FFF71AFF01220221AA
:1040C800284601F032F8FFF713FF002202212846A4
:1040D80001F02BF838BD00BF000C0140001C014066
:1040E80038B5134D00220221284601F01EF8114C64
:1040F800636823F0F0036360636843F03003636030
:10410800FFF7F6FE01224FF40071204601F00DF88A
:10411800FFF7EEFE01220221284601F006F8FFF71C
:10412800E7FE00220221284600F0FFFF38BD00BF4D
:10413800000C0140001C014070B50446164B5A683B
:1041480022F0F0025A605A6842F030025A600022A7
:104158000221124800F0E9FFFFF7CAFE002518E027
:10416800E2094FF400710C4800F0DFFF6400E4B28C
:104178000A4E01220221304600F0D7FFFFF7B8FEB1
:1041880000220221304600F0D0FFFFF7B1FE0135D2
:10419800EDB2072DE4D970BD001C0140000C0140B0
:1041A800F8B504460F461546FFF7E8FE2820FFF746
:1041B800C3FFFFF735FF200AFFF7BEFFFFF730FF09
:1041C800E0B2FFF7B9FFFFF72BFF0026344601E006
:1041D8000134E4B2AC4207D2385DFFF7ADFFFFF718
:1041E8001FFF06460028F3D0FFF7F4FE3046F8BD5F
:1041F80000B583B000238DF804308DF8050008E081
:104208000F4AD25C9DF804100A448DF8042001334B
:10421800DBB2B72BF4D99DF804305B428DF804303B
:10422800B822074948F24700FFF7BAFF022201A95E
:1042380048F2FF00FFF7B4FF002003B05DF804FB6D
:10424800A8BF0208F8B50746194B5A6822F0F002D1
:104258005A605A6842F080025A601E20FFF7A0FC9C
:104268000024254601E00135EDB2072D18D8114E7E
:1042780000220221304600F058FFFFF739FE0122E4
:104288000221304600F051FF6400E4B24FF400719F
:10429800074800F043FF0028E5D00134E4B2E2E724
:1042A8001FB9FFF71DFF2046F8BDFFF7EDFEFAE73F
:1042B800001C0140000C014070B504460E4615462E
:1042C800FFF75CFE2820FFF737FFFFF7A9FE200A5B
:1042D800FFF732FFFFF7A4FEE0B2FFF72DFFFFF76D
:1042E8009FFEFFF74BFE2920FFF726FFFFF798FEFA
:1042F800002408E0681E201A18BF0120FFF7A2FF5B
:1043080030550134E4B2AC42F4D3FFF763FE70BD1C
:104318002DE9F04188B03D4B9A6942F080029A61DC
:104328009B6903F080030193019B4FF4006602969A
:1043380001270397049703230593354C02A92046C8
:1043480000F0CCFD4FF48068CDF808800025039577
:1043580002A9204600F0C2FDFFF7D0FD2A463146EB
:10436800204600F0E2FE0A2000F074FA3A46314690
:10437800204600F0DAFE0A2000F06CFACDF808803A
:1043880002230493039502A9204600F0A7FD6420A8
:1043980000F060FA042206A948F24010FFF78CFFEB
:1043A8008DF81C5006A91B4826F0ACFD1A4906A832
:1043B800FBF736FF18B1002008B0BDE8F0810223F2
:1043C8008DF818303A4606A948F24000FFF7E8FE93
:1043D8003A4606A948F24700FFF76EFF9DF8181005
:1043E8005F290CD90A2000F035FA00238DF818301F
:1043F800012206A948F24000FFF7D2FEDBE7074892
:1044080026F080FD3846FFF7F3FEEBE70010024088
:10441800001C014070BF02087CBF020884BF02086C
:1044280008B5134B9A8845F210539A4204D01148A4
:1044380026F0EEFD012008BDFFF76AFF98B90E4B84
:104448000E4A5A600C4991F8303043F0800281F8E6
:104458003020074B93F9063003F00103134381F82A
:1044680030300020E7E7034826F0D2FDEAE700BF36
:104478001C02002098BF020804000020894400089C
:1044880070B584B08DF80700724B1A780132D2B239
:104498001A70714BA3FB0213DB0803EB8303A2EB37
:1044A800430313F0FF0F02D0092A00F2AD80012266
:1044B8000DF1070148F24E10FFF7FEFE9DF8073098
:1044C8009DF90720002A1CDB9DF8070000F00F006B
:1044D800002800F09A80052800F2A680FF23834078
:1044E800DBB28DF80B305D4A92F82050DB4363F065
:1044F8003F0382F8203093899382D38AD3830024A0
:1045080026E003F00F03052BDED800238DF80B30CF
:1045180001220DF10B0148F24E10FFF741FED3E7DF
:104528009DF80D309DF80C1001EB03214B4A231D1B
:1045380002EB430399809DF80F309DF80E1001EBB4
:10454800032104F1080302EB4303D9800134E4B2E8
:10455800042C2DD8414B93F82030234113F0010F40
:10456800F4D0042203A93E4B33F81400FFF7A4FE4D
:104578003A4B93F8303013F0010FD1D09DF80D303D
:104588009DF80C2002EB0322344904F1080301EBE7
:104598004303DA809DF80F309DF80E2002EB0322CA
:1045A80092B2C2F54872231D01EB43018A80CDE720
:1045B8002A4B9A892B4B1B889A4205D8274BDA8AB3
:1045C800284B5B889A421AD99DF8073013F00E0FD2
:1045D80009D0224BDA899A811A8BDA821D4B002284
:1045E8001A70012011E01D4B9A8A9A81DA8BDA82BF
:1045F80080228DF8072083F82050012005E0154B14
:1046080000221A70012000E000209DF8073003F016
:104618008F03802B0AD00F4B1B78F02B02D90D4B40
:104628000A221A7004B070BD0020EEE70B4B93F815
:10463800202093F92030002B05DB084B4FF6FF7242
:104648009A81DA82E7E702F07F02044B83F82020A0
:10465800E1E700BF2A020020CDCCCCCC040000202A
:1046680060C002081C020020FEE7FEE7FEE7FEE746
:10467800FEE770477047704708B500F0D9F808BDE5
:1046880082B00E4B9A6942F001029A619A6902F06F
:1046980001020092009ADA6942F08052DA61DB691D
:1046A80003F080530193019B054A536823F0E063AC
:1046B80043F00073536002B0704700BF001002401F
:1046C8000000014010B40A6850F8223023F00103BA
:1046D80040F822308B68082B24D000244A682243F3
:1046E8001343CA6813430A6913434A691343CA69DF
:1046F80013430A6A13434A6A13438A6A1343CA6A0A
:1047080013430A6B13438A6913434A6B13430968BB
:1047180050F82140044A22401A4340F82120002042
:1047280010BC70474024D9E78000F0FF00B5013283
:1047380050F8223003F0404C0B68D1F804E043EA0B
:104748000E13D1F808E043EA0E23D1F80CE043EA4F
:104758000E43D1F810E00EF1FF3E43EA0E53D1F8B4
:1047680014E0AEF1020E43EA0E6389690B434CEA8A
:10477800030340F8223000205DF804FBB3F5804FB6
:1047880005D06FF0704340F822300020704730B4F5
:1047980050F82230094C1C400B684D6843EA051359
:1047A8008D6843EA05238D692B43C96843EA0143B1
:1047B800234340F82230002030BC70470000F0CF7F
:1047C80010B504460E4B18784FF47A73B3FBF0F328
:1047D8000C4A1068B0FBF3F000F0F8FC68B90F2C35
:1047E80001D901200AE0002221464FF0FF3000F0F5
:1047F800B5FC054B1C60002000E0012010BD00BF87
:104808003C000020440000204000002008B5074A72
:10481800136843F010031360032000F08DFC0020A0
:10482800FFF7CEFFFFF72CFF002008BD0020024055
:10483800034A1168034B1B780B441360704700BF91
:104848002C0200203C000020014B1868704700BF74
:104858002C02002038B50446FFF7F6FF0546B4F1F0
:10486800FF3F02D0044B1B781C44FFF7EDFF401BB1
:10487800A042FAD338BD00BF3C00002082B0084BEC
:104888001B68084AA2FB03235B0A00FB03F301939E
:1048980000BF019B5A1E0192002BF9D102B070474C
:1048A80044000020D34D6210002800F0F18170B55B
:1048B80082B00446036813F0010F2CD0994B5B6853
:1048C80003F00C03042B1DD0964B5B6803F00C031C
:1048D800082B12D06368B3F5803F41D0002B55D127
:1048E80003F1804303F504331A6822F480321A6016
:1048F8001A6822F480221A6037E08A4B5B6813F446
:10490800803FE7D0874B1B6813F4003F03D06368F0
:10491800002B00F0BF81236813F0020F75D0814B84
:104928005B6813F00C0F5FD07E4B5B6803F00C03E1
:10493800082B54D02369002B00F08A807A4B01227F
:104948001A60FFF781FF0546764B1B6813F0020FCC
:1049580075D1FFF779FF401B0228F5D903209EE1A6
:10496800704A136843F480331360636843B3FFF7F6
:104978006BFF05466B4B1B6813F4003FCBD1FFF769
:1049880063FF401B6428F5D9032088E1B3F5A02F05
:1049980009D0644B1A6822F480321A601A6822F42B
:1049A80080221A60E1E703F18043A3F53C331A68DB
:1049B80042F480221A601A6842F480321A60D4E7FE
:1049C800FFF742FF0546574B1B6813F4003FA2D080
:1049D800FFF73AFF401B6428F5D903205FE1514BEC
:1049E8005B6813F4803FA5D14E4B1B6813F0020F90
:1049F80003D02369012B40F04F814A4A136823F002
:104A0800F803616943EAC1031360236813F0080FD0
:104A180033D0A369002B5CD0434B0122C3F8802418
:104A2800FFF712FF05463F4B5B6A13F0020F21D1D7
:104A3800FFF70AFF401B0228F5D903202FE1394A66
:104A4800136823F0F803616943EAC1031360DCE7E4
:104A5800354B00221A60FFF7F7FE0546314B1B68FD
:104A680013F0020FD1D0FFF7EFFE401B0228F5D953
:104A7800032014E10120FFF701FF236813F0040F5E
:104A880000F09680274BDB6913F0805F34D1254B0B
:104A9800DA6942F08052DA61DB6903F080530193EE
:104AA800019B0125214B1B6813F4807F26D0E36806
:104AB800012B3DD0002B53D103F1804303F5043380
:104AC8001A6A22F001021A621A6A22F004021A62B1
:104AD80033E0154B0022C3F88024FFF7B5FE0546E6
:104AE800104B5B6A13F0020FC7D0FFF7ADFE401BF7
:104AF8000228F5D90320D2E00025D3E70B4A136832
:104B080043F480731360FFF79FFE0646074B1B684C
:104B180013F4807FCBD1FFF797FE801B6428F5D96B
:104B28000320BCE000100240000042420070004038
:104B38005F4A136A43F001031362E36833B3FFF774
:104B480083FE06465A4B1B6A13F0020F2FD1FFF75C
:104B58007BFE801B41F288339842F3D903209EE004
:104B6800052B09D0524B1A6A22F001021A621A6AFE
:104B780022F004021A62E0E74D4B1A6A42F004027E
:104B88001A621A6A42F001021A62D6E7FFF75CFE5F
:104B98000646474B1B6A13F0020F08D0FFF754FE76
:104BA800801B41F288339842F3D9032077E0E5B9B6
:104BB800E369002B72D03E4A526802F00C02082AC0
:104BC80056D0022B17D03B4B00221A66FFF73CFE4B
:104BD8000446374B1B6813F0007F47D0FFF734FEBD
:104BE800001B0228F5D9032059E0314AD36923F084
:104BF8008053D361DCE72F4B00221A66FFF724FEAF
:104C080005462B4B1B6813F0007F06D0FFF71CFEF0
:104C1800401B0228F5D9032041E0236AB3F5803F01
:104C28001AD023494B6823F47413226A606A02433A
:104C380013434B601F4B01221A66FFF705FE04461B
:104C48001B4B1B6813F0007F0ED1FFF7FDFD001B07
:104C58000228F5D9032022E0154A536823F40033CB
:104C6800A1680B435360DCE7002018E0002016E041
:104C7800012B16D00E4B5B6803F48031226A9142F7
:104C880011D103F47013626A93420ED1002006E03A
:104C980001207047012002E0012000E0002002B05E
:104CA80070BD0120FBE70120F9E70120F7E700BF0D
:104CB800001002400000424286B0164B0FCB0DF1A7
:104CC800180C0CE90F0040F20123ADF80430124B28
:104CD8005B6803F00C02082A02D0104806B070473F
:104CE800C3F38342624412F8100C13F4803F0CD0D3
:104CF800094B5B68C3F34043634413F8143C074A09
:104D080002FB00F0B0FBF3F0E8E7054B03FB00F013
:104D1800E4E700BF6CC002080010024000127A00ED
:104D280000093D00002800F0A08070B50D4604463B
:104D3800524B1B6803F007038B420BD24F4A136890
:104D480023F007030B431360136803F007038B4238
:104D580040F08D80236813F0020F17D013F0040F72
:104D680004D0474A536843F4E0635360236813F060
:104D7800080F04D0424A536843F460535360404AD2
:104D8800536823F0F003A1680B435360236813F0C2
:104D9800010F31D06368012B20D0022B25D0384A6F
:104DA800126812F0020F64D035494A6822F00302F3
:104DB80013434B60FFF748FD0646314B5B6803F031
:104DC8000C036268B3EB820F16D0FFF73DFD801B22
:104DD80041F288339842F0D9032045E0284A126806
:104DE80012F4003FE0D101203EE0254A126812F09B
:104DF800007FD9D1012037E0204B1B6803F007035F
:104E0800AB420AD91D4A136823F007032B431360EA
:104E1800136803F00703AB422DD1236813F0040F86
:104E280006D0174A536823F4E063E1680B435360E4
:104E3800236813F0080F07D0114A536823F460530E
:104E4800216943EAC1035360FFF736FF0C4B5B68E7
:104E5800C3F303130B4AD35CD8400B4B18600B4BBE
:104E68001868FFF7ADFC002070BD012070470120D5
:104E7800FAE70120F8E70120F6E700BF002002402A
:104E88000010024080C002084400002040000020BA
:104E9800014B1868704700BF4400002008B5FFF7B1
:104EA800F7FF044B5B68C3F30223034AD35CD84083
:104EB80008BD00BF0010024090C0020808B5FFF707
:104EC800E7FF044B5B68C3F3C223034AD35CD840B3
:104ED80008BD00BF0010024090C0020870B582B043
:104EE8000024A446B0E0874DAA4210D007D9864DC9
:104EF800AA420CD005F58035AA4208D013E0A5F5E2
:104F08008015AA4203D005F57025AA4207D18A6800
:104F1800002A62D0012A5BD04361082403E0A5F58A
:104F28008015AA42F3D0BEF1FF0F58D80646BEF14D
:104F3800FF0F56D84FEA8C0233680F25954023EAB5
:104F4800050304FA02F2134333604B6813F0805FE1
:104F580078D06E4B9A6942F001029A619B6903F01E
:104F680001030193019B4FEA9C02951C684B53F87F
:104F780025600CF003039D000F23AB4026EA0306CF
:104F8800644B984233D003F58063984200F09880D0
:104F980003F58063984200F0958003F5806398429A
:104FA80000F0928003F58063984200F08F8003F54B
:104FB8008063984219D006231AE0CC68B3E7CC681E
:104FC8000434B0E7CC680834ADE7CC680C34AAE701
:104FD80003610824A7E70024A5E70424A3E7061D26
:104FE800A5E7ACF108029200A6E7052300E000233C
:104FF800AB4033430232464D45F822304B6813F438
:10500800803F65D0444A136843EA0E0313604B6837
:1050180013F4003F62D0404A536843EA0E035360DA
:105028004B6813F4801F5FD03B4A936843EA0E0332
:1050380093604B6813F4001F5CD0374AD36843EA87
:105048000E03D3600CF1010C0A6832FA0CF357D046
:10505800012303FA0CF302EA030E33EA0202F1D148
:105068004A68122A3FF63FAF122A3FF65CAF01A505
:1050780055F822F0174F0008C34F0008CD4F00081D
:10508800DF4F00082F4F00082F4F00082F4F000850
:105098002F4F00082F4F00082F4F00082F4F0008F0
:1050A8002F4F00082F4F00082F4F00082F4F0008E0
:1050B8002F4F00082F4F0008C74F0008D34F000894
:1050C800012395E7022393E7032391E704238FE75E
:1050D800114A136823EA0E03136098E70E4A5368CF
:1050E80023EA0E0353609BE70B4A936823EA0E03F7
:1050F80093609EE7084AD36823EA0E03D360A1E7CA
:1051080002B070BD000022100000311000100240F3
:105118000000014000080140000401408368194272
:1051280001D001207047002070470AB10161704723
:105138000904016170470000074AD36823F4E0635B
:105148001B041B0C000200F4E060034343F0BF6340
:1051580043F40033D360704700ED00E000B5194B0D
:10516800DB68C3F30223C3F1070CBCF1040F28BFAB
:105178004FF0040C03F1040EBEF1060F18D9033BDF
:105188004FF0FF3E0EFA0CFC21EA0C0199400EFA92
:1051980003F322EA0303194300280BDB0901C9B210
:1051A80000F1604000F5614080F800135DF804FBF1
:1051B8000023E5E700F00F000901C9B2024B1954BA
:1051C800F4E700BF00ED00E014ED00E00138B0F1B5
:1051D800807F0BD24FF0E0235861054AF02182F816
:1051E80023100020986107221A6170470120704738
:1051F80000ED00E060B370B50E46154604468369BD
:10520800B3F5807F26D090F84130E3B1214651F8BC
:10521800080BFFF757FAA26831462068FFF786FAAD
:10522800236BA26829466068FFF7A8FA2268A1687C
:1052380052F8213043F0010342F82130012384F869
:105248004130002070BD80F84030FBF7BDFFDDE73E
:10525800012070470120F5E7002800F0CC8070B5E8
:10526800044690F83D30002B77D0242384F83D3055
:105278002268136823F0010313602268136843F45B
:10528800004313602268136823F400431360FFF798
:1052980005FE62685A4B9A4264D85A4B98428CBFB2
:1052A80000230123002B40F0A8805749A1FB0031BF
:1052B8008B0C25686A6822F03F0242EA91426A60D4
:1052C80021680A6A22F03F0266684D4DAE424FD807
:1052D800013313430B622168CA6922F44F4222F05A
:1052E800FF026668464B9E424CD8431E7600B3FBCD
:1052F800F6F3013340F6FC70034278D0C3F30B0396
:105308001343CB6121680B6823F0C003E269206A6C
:10531800024313430B6021688B6823F4034323F093
:10532800FF032269E068024313438B602168CB685E
:1053380023F0FF036269A06902431343CB6022682C
:10534800136843F00103136000202064202384F8CD
:105358003D30206384F83E0070BD80F83C30FBF798
:1053680055FF82E7294B98428CBF0023012399E718
:105378004FF4967505FB03F3254DA5FB03539B09D5
:105388000133A6E7A368BBB9451E06EB460CB5FB7F
:10539800FCF50135C5F30B05B5FA85F56D0945BB77
:1053A800C3B9013806EB4603B0FBF3F30133C3F38B
:1053B8000B0343F40043A3E7451E06EB860C0CEBF6
:1053C8008C0CB5FBFCF50135C5F30B05B5FA85F575
:1053D8006D09E4E7013806EB860303EB8303B0FBB2
:1053E800F3F30133C3F30B0343F4404388E7042387
:1053F80086E7012384E7012070470120ACE700BF5E
:10540800A08601007F841E0083DE1B43FF083D0049
:10541800D34D621010B504460268136923F4405353
:10542800C1680B43136183680269134342691A43D5
:105438000168CB6823F4B05323F00C031343CB600B
:105448000268536923F4407381690B43536102680E
:10545800134B9A4220D0FFF721FD024602EB82024D
:1054680002EB820263689B00B2FBF3F20D48A0FBDB
:1054780002314909642303FB11231B013233A0FBCA
:1054880003235B0903F0F00202EB011203F00F03A0
:10549800216813448B6010BDFFF710FD0246DDE75D
:1054A800003801401F85EB512DE9F84305460F46AA
:1054B80016469946DDF820802C68246837EA0403EC
:1054C8000CBF4FF0010C4FF0000CB4451FD1B8F1E0
:1054D800FF3FF1D0B8F1000F05D0FFF7B5F9A0EB09
:1054E80009004045E8D92A68D36823F4D073D3600B
:1054F8002A68536923F001035361202385F83D305E
:1055080085F83E30002385F83C30032000E0002079
:10551800BDE8F88358B310B5044690F83D300BB396
:10552800242384F83D302268D36823F40053D360E1
:105538002046FFF76FFF2268136923F49043136135
:105548002268536923F02A0353612268D36843F41D
:105558000053D36000202064202384F83D3084F871
:105568003E3010BD80F83C30FBF79CFED8E70120A8
:1055780070472DE9F04182B01E4690F83D30DBB20D
:10558800202B54D104460D469046002953D0002ABA
:1055980053D090F83C30012B51D0012380F83C3097
:1055A80000230364212380F83D30FFF74DF90746B7
:1055B800A4F82480A4F82680A368B3F5805F05D0FA
:1055C8004FF00008002384F83C3012E0236913B13F
:1055D8004FF00008F6E7A8460025F3E738F8023B45
:1055E8002268C3F308035360E28C92B2013A92B284
:1055F800E284E38C9BB273B100963B460022802183
:105608002046FFF751FFE0B9002DE7D015F8012B30
:1056180023685A60E8E700963B460022402120466E
:10562800FFF742FF78B9202384F83D3000E00220DC
:1056380002B0BDE8F0810120FAE70120F8E7022076
:10564800F6E70320F4E70320F2E700002DE9F0472E
:1056580082461446B1F900901FFA89F9B1F902801F
:105668001FFA88F8B1F90450ADB2B1F90670BFB2AB
:10567800A5EB0905ADB20135ADB2A7EB0807BFB27E
:105688000137BFB200260AE034F8021B0C4AA2F820
:10569800001101339BB2AB42F6D30136B6B2BE421B
:1056A80009D206EB080189B24846FBF787FEFBF7EB
:1056B8007BFE0023EFE750461AF0E5F8BDE8F087D7
:1056C8000007006C08B5FCF7E7F80020FCF72CF899
:1056D80008BD000038B5FFF7F5FF0C4D4FF49653A1
:1056E8000B4A0C49284619F0F3FF0B4C204619F0D9
:1056F800D4FF4FF4F07323804FF448736380074B53
:10570800E3606560204619F0F1FF38BD684D002060
:10571800B027002030020020304D002055560008E8
:1057280008B5024B1B68984708BD00BF040000205D
:1057380010B5064C63680020984794F92030002B78
:1057480001DB002010BD0120FCE700BF04000020A1
:1057580070B506460C46054D6B6800209847B5F9AC
:105768000C303380B5F91630238070BD040000205A
:1057780010B50C46FFF7DCFF48B90023A373074BAD
:10578800B3F900302380064B1B88638010BD0449A1
:105798000248FFF7DDFF0123A373F0E7B04D0020B7
:1057A800B24D002010B5FFF7BBFF074C20461AF09A
:1057B80082F801232370054B636020461AF090F8A5
:1057C800034B186010BD00BF8C4D002079570008AE
:1057D800AC4D00207047000000B583B00023009353
:1057E80001930C480C4B036000F048F858B93C236F
:1057F8000093002201926946064800F051F828B942
:1058080003B05DF804FBFBF789FBF0E7FBF786FBC9
:10581800F6E700BFB44D00200074004000B587B023
:10582800002302930393049305930268114B9A4251
:1058380002D007B05DF804FB03F5CE33DA6942F015
:105848000052DA61DA6902F000520092009A9A690D
:1058580042F004029A619B6903F004030193019BDF
:10586800102302930323039302A90348FFF736FB8F
:10587800DFE700BF007400400008014070B110B5B8
:105888000446037933B102232371002020610123E8
:10589800237110BD4371FFF7C1FFF4E70120704782
:1058A8004379012B25D010B54FF0010E80F805E0A3
:1058B800022303710468236802F0100240F6FE7C9C
:1058C8000CFA02FC23EA0C0C0B6849680B43934062
:1058D80043EA0C03236004682368C02101FA02F23A
:1058E80023EA0202226080F804E00023437118468C
:1058F80010BD0220704708B510F0F2FA08BD00008C
:1059080038B519F07BFF09F05FFC1EF007FF04466D
:10591800214D00231A46294610F0FAFA6FF02703A2
:105928000022092120460CF01FFF204621F03EF8F6
:1059380004461A4921F002FD00231A46092120468F
:105948000CF012FF19F05AFF09F03EFC1EF0E6FEBB
:10595800044600231A46294610F0DAFA28230022C2
:10596800092120460CF000FF082120460CF02AF8F7
:1059780042F2D17120460CF03BFE204621F016F889
:105988000446074921F0DAFC00231A46092120467B
:105998000CF0EAFE38BD00BFFF58000898C00208A6
:1059A800A0C0020808B509B21EF076F808BD0000CC
:1059B80010B592B019F022FF09F006FC1DF05AFF4D
:1059C80004464FF487711EF062F84FF4B472002158
:1059D80020461EF03BF84FF44032002120460FF0DD
:1059E80051FC022120460CF010F800231A46092128
:1059F80020460CF0B9FE01A81AF0FCF801940B4BF4
:105A080002934FF47A730B934FF6FF73ADF840305F
:105A18004FF4FA730F9300230893099364230A93AE
:105A280001A81AF02FF912B010BD00BFAD59000837
:105A380008B500F0DDFD01F0ABFB08BD034680882A
:105A48001B88C01A80B2013000B270470346C08874
:105A58005B88C01A80B2013000B2704710B4019C54
:105A6800012B07DD0138042846D8DFE800F01408C8
:105A780037261D00A0F1030CBCF1020FF2D8002359
:105A880002980380891A01EBD171238803EB610125
:105A9800218010BC7047002302980380891A89B2BC
:105AA800238819442180F4E7891A09B2013B1BB203
:105AB80091FBF3F1029B1980EBE7891A09B291FB7C
:105AC800F3F3029A128813441BB2029A138003EB71
