:020000040800F2
:10000000005000204D1F0008AD020008AF0200089C
:10001000B1020008B3020008B502000800000000A9
:10002000000000000000000000000000B70200080F
:10003000B902000800000000BB020008BD02000871
:10004000951F0008951F0008951F0008951F0008C0
:10005000951F0008951F0008951F0008951F0008B0
:10006000951F0008951F0008951F0008951F0008A0
:10007000951F0008951F0008951F0008951F000890
:10008000951F0008951F0008951F0008951F000880
:10009000951F0008951F0008951F0008951F000870
:1000A000951F0008951F0008951F0008951F000860
:1000B000951F0008951F0008951F0008951F000850
:1000C000951F0008951F0008951F0008951F000840
:1000D000951F0008951F0008951F0008951F000830
:1000E000951F0008951F0008951F000800000000DC
:1000F0000000000000000000000000000000000000
:0C01000000000000000000005FF808F1A3
:10010C0010B5054C237833B9044B13B10448AFF345
:10011C0000800123237010BD80000020000000002F
:10012C007030000808B5034B1BB103490348AFF30B
:10013C00008008BD00000000840000207030000822
:10014C0072B6FEE700B591B02822002106A801F096
:10015C0041FF00230193029303930493059301221F
:10016C0006924FF4803307930A9202220D920E935B
:10017C004FF4E0130F9306A800F034F980B90F2365
:10018C00019302210291002303934FF480620492A5
:10019C00059301A800F064FB20B911B05DF804FBD5
:1001AC00FFF7CEFFFFF7CCFF08B500F0CDF8FFF757
:1001BC00C9FF00F009F800F0A7FD01F09BFA01F06F
:1001CC0063F901F0ABF8FCE72DE9F04389B00024AA
:1001DC0004940594069407942D4B9A6942F01002EE
:1001EC009A619A6902F010020092009A9A6942F0A0
:1001FC0020029A619A6902F020020192019A9A698E
:10020C0042F004029A619A6902F004020292029A84
:10021C009A6942F008029A619B6903F00803039300
:10022C00039BDFF8709001224FF40051484600F018
:10023C0005FDDFF8648022461021404600F0FEFCEC
:10024C00164F22460121384600F0F8FC4FF40053BB
:10025C0004930125059506940226079604A94846A1
:10026C0000F0DAFB102304930595069407960DEB2A
:10027C000301404600F0D0FB0495059506940796C3
:10028C0004A9384600F0C8FB09B0BDE8F08300BFF4
:10029C00001002400010014000080140000C014019
:1002AC00FEE7FEE7FEE7FEE7FEE7704770477047A4
:1002BC0008B500F05BF808BD82B00E4B9A6942F0AD
:1002CC0001029A619A6902F001020092009ADA69BD
:1002DC0042F08052DA61DB6903F080530193019B99
:1002EC00054A536823F0E06343F00073536002B097
:1002FC00704700BF001002400000014010B50446DA
:10030C000E4B18784FF47A73B3FBF0F30C4A106869
:10031C00B0FBF3F000F0E2FC68B90F2C01D901201E
:10032C000AE0002221464FF0FF3000F09FFC054B05
:10033C001C60002000E0012010BD00BF0000002068
:10034C00080000200400002008B5074A136843F099
:10035C0010031360032000F077FC0020FFF7CEFFA2
:10036C00FFF7AAFF002008BD00200240034A1168D5
:10037C00034B1B780B441360704700BF9C0000209C
:10038C0000000020014B1868704700BF9C00002043
:10039C0038B50446FFF7F6FF0546B4F1FF3F02D02F
:1003AC00044B1B781C44FFF7EDFF401BA042FAD313
:1003BC0038BD00BF0000002082B0084B1B68084A03
:1003CC00A2FB03235B0A00FB03F3019300BF019B19
:1003DC005A1E0192002BF9D102B070470800002080
:1003EC00D34D6210002800F0F18170B582B0044644
:1003FC00036813F0010F2CD0994B5B6803F00C03CE
:10040C00042B1DD0964B5B6803F00C03082B12D009
:10041C006368B3F5803F41D0002B55D103F1804385
:10042C0003F504331A6822F480321A601A6822F435
:10043C0080221A6037E08A4B5B6813F4803FE7D068
:10044C00874B1B6813F4003F03D06368002B00F04C
:10045C00BF81236813F0020F75D0814B5B6813F0DA
:10046C000C0F5FD07E4B5B6803F00C03082B54D051
:10047C002369002B00F08A807A4B01221A60FFF767
:10048C0081FF0546764B1B6813F0020F75D1FFF701
:10049C0079FF401B0228F5D903209EE1704A1368AE
:1004AC0043F480331360636843B3FFF76BFF054677
:1004BC006B4B1B6813F4003FCBD1FFF763FF401B62
:1004CC006428F5D9032088E1B3F5A02F09D0644B3B
:1004DC001A6822F480321A601A6822F480221A6098
:1004EC00E1E703F18043A3F53C331A6842F4802220
:1004FC001A601A6842F480321A60D4E7FFF742FFA0
:10050C000546574B1B6813F4003FA2D0FFF73AFF88
:10051C00401B6428F5D903205FE1514B5B6813F451
:10052C00803FA5D14E4B1B6813F0020F03D02369FB
:10053C00012B40F04F814A4A136823F0F80361699C
:10054C0043EAC1031360236813F0080F33D0A36987
:10055C00002B5CD0434B0122C3F88024FFF712FF21
:10056C0005463F4B5B6A13F0020F21D1FFF70AFFE0
:10057C00401B0228F5D903202FE1394A136823F0D8
:10058C00F803616943EAC1031360DCE7354B0022D1
:10059C001A60FFF7F7FE0546314B1B6813F0020F8C
:1005AC00D1D0FFF7EFFE401B0228F5D9032014E150
:1005BC000120FFF701FF236813F0040F00F0968071
:1005CC00274BDB6913F0805F34D1254BDA6942F09D
:1005DC008052DA61DB6903F080530193019B0125A2
:1005EC00214B1B6813F4807F26D0E368012B3DD090
:1005FC00002B53D103F1804303F504331A6A22F024
:10060C0001021A621A6A22F004021A6233E0154BD4
:10061C000022C3F88024FFF7B5FE0546104B5B6A39
:10062C0013F0020FC7D0FFF7ADFE401B0228F5D91F
:10063C000320D2E00025D3E70B4A136843F4807300
:10064C001360FFF79FFE0646074B1B6813F4807F71
:10065C00CBD1FFF797FE801B6428F5D90320BCE0B3
:10066C000010024000004242007000405F4A136AD2
:10067C0043F001031362E36833B3FFF783FE0646CE
:10068C005A4B1B6A13F0020F2FD1FFF77BFE801B16
:10069C0041F288339842F3D903209EE0052B09D010
:1006AC00524B1A6A22F001021A621A6A22F00402F0
:1006BC001A62E0E74D4B1A6A42F004021A621A6A97
:1006CC0042F001021A62D6E7FFF75CFE0646474B82
:1006DC001B6A13F0020F08D0FFF754FE801B41F287
:1006EC0088339842F3D9032077E0E5B9E369002B0E
:1006FC0072D03E4A526802F00C02082A56D0022BE5
:10070C0017D03B4B00221A66FFF73CFE0446374BD2
:10071C001B6813F0007F47D0FFF734FE001B022844
:10072C00F5D9032059E0314AD36923F08053D361C2
:10073C00DCE72F4B00221A66FFF724FE05462B4BF5
:10074C001B6813F0007F06D0FFF71CFE401B02282D
:10075C00F5D9032041E0236AB3F5803F1AD0234931
:10076C004B6823F47413226A606A024313434B6090
:10077C001F4B01221A66FFF705FE04461B4B1B6834
:10078C0013F0007F0ED1FFF7FDFD001B0228F5D9F9
:10079C00032022E0154A536823F40033A1680B436D
:1007AC005360DCE7002018E0002016E0012B16D087
:1007BC000E4B5B6803F48031226A914211D103F431
:1007CC007013626A93420ED1002006E0012070473C
:1007DC00012002E0012000E0002002B070BD0120E9
:1007EC00FBE70120F9E70120F7E700BF001002400A
:1007FC000000424286B0164B0FCB0DF1180C0CE9E1
:10080C000F0040F20123ADF80430124B5B6803F08B
:10081C000C02082A02D0104806B07047C3F383427A
:10082C00624412F8100C13F4803F0CD0094B5B6837
:10083C00C3F34043634413F8143C074A02FB00F033
:10084C00B0FBF3F0E8E7054B03FB00F0E4E700BF77
:10085C00883000080010024000127A0000093D00A8
:10086C00002800F0A08070B50D460446524B1B6862
:10087C0003F007038B420BD24F4A136823F0070394
:10088C000B431360136803F007038B4240F08D8019
:10089C00236813F0020F17D013F0040F04D0474A4B
:1008AC00536843F4E0635360236813F0080F04D0DB
:1008BC00424A536843F460535360404A536823F0F0
:1008CC00F003A1680B435360236813F0010F31D080
:1008DC006368012B20D0022B25D0384A126812F005
:1008EC00020F64D035494A6822F0030213434B606F
:1008FC00FFF748FD0646314B5B6803F00C0362685A
:10090C00B3EB820F16D0FFF73DFD801B41F288330D
:10091C009842F0D9032045E0284A126812F4003FAF
:10092C00E0D101203EE0254A126812F0007FD9D1B7
:10093C00012037E0204B1B6803F00703AB420AD9B8
:10094C001D4A136823F007032B431360136803F04D
:10095C000703AB422DD1236813F0040F06D0174ABE
:10096C00536823F4E063E1680B435360236813F08E
:10097C00080F07D0114A536823F46053216943EAE6
:10098C00C1035360FFF736FF0C4B5B68C3F30313D3
:10099C000B4AD35CD8400B4B18600B4B1868FFF715
:1009AC00ADFC002070BD012070470120FAE701204A
:1009BC00F8E70120F6E700BF0020024000100240DB
:1009CC009C3000080800002004000020014B18682F
:1009DC00704700BF0800002008B5FFF7F7FF044B75
:1009EC005B68C3F30223034AD35CD84008BD00BF45
:1009FC0000100240AC30000808B5FFF7E7FF044BCD
:100A0C005B68C3F3C223034AD35CD84008BD00BF64
:100A1C0000100240AC30000870B582B00024A4462F
:100A2C00A6E0804DAA4210D007D97F4DAA420CD027
:100A3C0005F58035AA4208D013E0A5F58015AA4229
:100A4C0003D005F57025AA4207D18A68002A58D030
:100A5C00012A51D04361082403E0A5F58015AA4270
:100A6C00F3D0BEF1FF0F4ED80646BEF1FF0F4CD8A7
:100A7C004FEA8C0233680F25954023EA050304FAEC
:100A8C0002F2134333604B6813F0805F6ED0674BF8
:100A9C009A6942F001029A619B6903F00103019388
:100AAC00019B4FEA9C02951C614B53F825600CF09E
:100ABC0003039D000F23AB4026EA03065D4B9842CF
:100ACC0029D003F58063984200F08E8003F5806393
:100ADC00984200F08B8003F58063984219D0042370
:100AEC001AE0CC68BDE7CC680434BAE7CC680834AB
:100AFC00B7E7CC680C34B4E703610824B1E70024F1
:100B0C00AFE70424ADE7061DAFE7ACF10802920095
:100B1C00B0E7032300E00023AB4033430232444DE3
:100B2C0045F822304B6813F4803F61D0424A136879
:100B3C0043EA0E0313604B6813F4003F5ED03E4A49
:100B4C00536843EA0E0353604B6813F4801F5BD069
:100B5C00394A936843EA0E0393604B6813F4001F01
:100B6C0058D0354AD36843EA0E03D3600CF1010C1C
:100B7C000A6832FA0CF353D0012303FA0CF302EA9D
:100B8C00030E33EA0202F1D14A68122A3FF649AF4A
:100B9C00122A3FF666AF01A555F822F0570A000855
:100BAC00EF0A0008F90A00080B0B00086F0A00088E
:100BBC006F0A00086F0A00086F0A00086F0A000825
:100BCC006F0A00086F0A00086F0A00086F0A000815
:100BDC006F0A00086F0A00086F0A00086F0A000805
:100BEC00F30A0008FF0A0008012395E7022393E7A4
:100BFC00114A136823EA0E0313609CE70E4A5368EC
:100C0C0023EA0E0353609FE70B4A936823EA0E0313
:100C1C009360A2E7084AD36823EA0E03D360A5E7E2
:100C2C0002B070BD00002210000031100010024014
:100C3C000000014000080140000401400AB10161BC
:100C4C007047090401617047074AD36823F4E063D5
:100C5C001B041B0C000200F4E060034343F0BF6371
:100C6C0043F40033D360704700ED00E000B5194B3E
:100C7C00DB68C3F30223C3F1070CBCF1040F28BFDC
:100C8C004FF0040C03F1040EBEF1060F18D9033B10
:100C9C004FF0FF3E0EFA0CFC21EA0C0199400EFAC3
:100CAC0003F322EA0303194300280BDB0901C9B241
:100CBC0000F1604000F5614080F800135DF804FB22
:100CCC000023E5E700F00F000901C9B2024B1954EB
:100CDC00F4E700BF00ED00E014ED00E00138B0F1E6
:100CEC00807F0BD24FF0E0235861054AF02182F847
:100CFC0023100020986107221A6170470120704769
:100D0C0000ED00E07047000008B50A480A4B03608C
:100D1C004FF4E133436000238360C36003610C2212
:100D2C0042618361C36100F049FC00B908BDFFF763
:100D3C0007FAFBE7A00000200038014010B586B090
:100D4C00002302930393049305930268174B9A4272
:100D5C0001D006B010BD03F558439A6942F48042A5
:100D6C009A619A6902F480420092009A9A6942F060
:100D7C0004029A619B6903F004030193019B4FF4F5
:100D8C00007302930223039303230593084C02A9D7
:100D9C002046FFF741FE4FF4806302930023039338
:100DAC00049302A92046FFF737FED2E70038014032
:100DBC000008014010B514464FF6FF7392B202487A
:100DCC0000F02BFC204610BDA000002010B50446FE
:100DDC00FFF7FCFD084BA3FB0030800CFFF77EFFF8
:100DEC00601EFFF7D5FAFFF7F1FD044BA3FB0030B3
:100DFC008009FFF773FF10BD83DE1B43D34D6210D8
:100E0C0000B585B000230EE030310DF1100E964484
:100E1C000EF80C1C1CE00DF1100C6244303102F881
:100E2C000C1C0133DBB2032B25D800EB030CC15C8B
:100E3C005A0009090DF1100E0EEB430E0EF80C1CA6
:100E4C000929E1D937310DF1100E96440EF80C1C1E
:100E5C009CF80010013201F00F010DF1100C9444BC
:100E6C000CF80C1C0929D6D90DF1100C6244373141
:100E7C0002F80C1CD5E700238DF80C3001A90348AF
:100E8C0001F0B0F805B05DF804FB00BFB430000809
:100E9C0010B582B0400000F07E008DF804008DF893
:100EAC0005100A4C002210212046FFF7C7FE4FF612
:100EBC00FF73022201A9064800F089FD01221021CE
:100ECC002046FFF7BBFE02B010BD00BF000801407A
:100EDC00F000002030B583B0400000F07E0040F000
:100EEC0080008DF804000F4C002210212046FFF7E3
:100EFC00A5FE0D4D4FF6FF73012201A9284600F007
:100F0C0066FD4FF6FF7301226946284600F057FF35
:100F1C00012210212046FFF791FE9DF8000003B03E
:100F2C0030BD00BF00080140F000002010B51F4C80
:100F3C00012211462046FFF781FE0120FFF746FFF4
:100F4C00002201212046FFF779FE0120FFF73EFF2A
:100F5C00012211462046FFF771FE0120FFF736FFF4
:100F6C000F210120FFF794FF0120FFF7B3FF10F0D2
:100F7C00100FF9D10120FFF729FF3D211120FFF7B8
:100F8C0087FF1E212D20FFF783FF00212C20FFF768
:100F9C007FFF8D212A20FFF77BFF3E212B20FFF7BF
:100FAC0077FF40211520FFF773FF10BD000C0140A7
:100FBC0038B504460D46FFF78DFF40EA0501C9B26E
:100FCC002046FFF765FF38BD08B51420FFF782FFF8
:100FDC0010F0030F00D008BD03211420FFF7E8FF29
:100FEC00F9E738B504460D46FFF774FF20EA050112
:100FFC00C9B22046FFF74CFF38BD2DE9F047074634
:10100C008A46154699460C2817D00E2819D1102659
:10101C004FF0120848F080010220FFF739FF8021C1
:10102C000420FFF7DEFF00210120FFF731FF8021B4
:10103C000A20FFF7BDFF00240CE030264FF07708A4
:10104C00E8E70026B046E5E71AF804100920FFF798
:10105C001FFF0134A542F7D839460120FFF718FFCE
:10106C000C2F1DD04FF47A750420FFF733FF044684
:10107C00013D04D010F0010F01D10642F4D08021C3
:10108C000D20FFF7AEFF85B9022480210C20FFF75D
:10109C008FFF00210120FFF7FBFE2046BDE8F08703
:1010AC0080210D20FFF784FFDCE70620FFF712FFFD
:1010BC0010F01B0F2AD108EA040414F0010400D02C
:1010CC0001240C2FE1D10A20FFF704FF06460C2067
:1010DC00FFF700FF10F0070009D0731E00EBC300F0
:1010EC00089B18603EB1122E06D9122604E0F300BC
:1010FC00089A1360F6E701260025AE42C5D90920EF
:10110C00FFF7E8FE09F805000135F6E70224BCE715
:10111C0010B588B08DF80C008DF80D10002108E08A
:10112C00881C12F801C008AC204400F814CC013122
:10113C00C9B20529F4D9002208E002F10801985C33
:10114C0008AC214401F8140C0132D2B2052AF4D9AE
:10115C0002AB009303AB0C2219460E20FFF74DFF98
:10116C00044618B10224204608B010BD0820FFF731
:10117C00B1FE10F0080FF6D10224F4E730B589B0B7
:10118C0004460D4608210846FFF72BFF07210D20CA
:10119C00FFF77EFE03211420FFF70AFF8DF80C40A9
:1011AC0002AB009303AB012219460C20FFF725FF7D
:1011BC0058B9029B102B01D0022007E09DF80C308F
:1011CC002B709DF80D306B7000E0022009B030BD23
:1011DC0030B589B0044608210846FFF702FF00210C
:1011EC000D20FFF755FE80210E20FFF7FAFE93230A
:1011FC008DF80C3020238DF80D3002AB009303AB2F
:10120C00022219460C20FFF7F8FE0546C8B18021D2
:10121C000E20FFF7CDFE284609B030BD08A91944B1
:10122C0011F8141CE1544A40D2B20133DBB2032B47
:10123C00F4D908A90B4413F8143C9342E7D00225C7
:10124C00E5E702460346F2E7F8B507460D461646B3
:10125C0004210520FFF7C5FE00210120FFF718FE31
:10126C0080210A20FFF7A4FE002405E0395D092047
:10127C00FFF70EFE0134E4B2AC42F7D30321012098
:10128C00FFF706FEFF240520FFF724FE631E13F074
:10129C00FF0402D010F0040FF5D02220FFF71AFE45
:1012AC0030702120FFF716FE7070F8BD00B589B0C4
:1012BC0093238DF80C3070238DF80D3000238DF8AE
:1012CC0012300DE0991CC25C0DF1200C614401F848
:1012DC00142C9DF812104A408DF812200133DBB209
:1012EC00032BEFD90DF11302072103A8FFF7ACFF75
:1012FC0008210846FFF775FE02AB009303AB0922E9
:10130C0019460C20FFF779FE20B9029B182B02D04E
:10131C00022000E0022009B05DF804FB38B5384C1F
:10132C000223237037495220FFF728FF207000B1A9
:10133C0038BD2546022323703348FFF749FF044686
:10134C00287020B14FF4FA70FFF722F8F0E72E481E
:10135C00FFF756FD04E02D4BFF221A700134E4B266
:10136C00012C24D8284B1A782146294B13F8243009
:10137C009A42F0D1244B5A78254B03EB84035B78CB
:10138C009A42E8D1204B9A78214B03EB84039B784B
:10139C009A42E0D11C4BDA781D4B03EB8403DB78CB
:1013AC009A42D8D1194B1C701A4800F01BFE174BEF
:1013BC0093F90030B3F1FF3F19D0114C0223237085
:1013CC001148FFF773FF20700028BBD1124800F0C2
:1013DC008FFE022323700C4B104A04216020FFF770
:1013EC0097FE207038B90E4800F082FEAAE70D482F
:1013FC0000F07EFEE1E70C4800F07AFEA2E700BFA9
:10140C00ED000020E4000020E8000020EC000020AB
:10141C0014000020C0300008E83000080C00002048
:10142C00F8300008D830000814310008412800D0EA
:10143C00704708B508210846FFF7D3FD3D21112060
:10144C00FFF726FD86211720FFF722FD7F2126209E
:10145C00FFF71EFD1E212D20FFF71AFD00212C2069
:10146C00FFF716FD8D212A20FFF712FD3E212B20C0
:10147C00FFF70EFD0220FFF7A9FC08BD08B50321FC
:10148C001420FFF7AEFD08BD08B50122114609482E
:10149C00FFF7D4FB012210210748FFF7CFFBFFF722
:1014AC00EDFFFFF791FDFFF741FD4120FFF7BEFF78
:1014BC0008BD00BF000C01400008014010B50446F7
:1014CC000268136923F44053C1680B4313618368AA
:1014DC000269134342691A430168CB6823F4B05381
:1014EC0023F00C031343CB600268536923F440735D
:1014FC0081690B4353610268134B9A4220D0FFF76A
:10150C006BFA024602EB820202EB820263689B00DA
:10151C00B2FBF3F20D48A0FB02314909642303FB33
:10152C0011231B013233A0FB03235B0903F0F002F0
:10153C0002EB011203F00F03216813448B6010BD02
:10154C00FFF75AFA0246DDE7003801401F85EB51E0
:10155C002DE9F84305460F4616469946DDF82080DE
:10156C002C68246837EA04030CBF4FF0010C4FF0D1
:10157C00000CB4451FD1B8F1FF3FF1D0B8F1000F0A
:10158C0005D0FEF7FFFEA0EB09004045E8D92A681C
:10159C00D36823F4D073D3602A68536923F0010312
:1015AC005361202385F83D3085F83E30002385F8C3
:1015BC003C30032000E00020BDE8F88358B310B5A0
:1015CC00044690F83D300BB3242384F83D30226858
:1015DC00D36823F40053D3602046FFF76FFF2268D3
:1015EC00136923F4904313612268536923F02A038F
:1015FC0053612268D36843F40053D3600020206405
:10160C00202384F83D3084F83E3010BD80F83C3007
:10161C00FFF794FBD8E7012070472DE9F04182B029
:10162C001E4690F83D30DBB2202B54D104460D46BB
:10163C009046002953D0002A53D090F83C30012B0F
:10164C0051D0012380F83C3000230364212380F81F
:10165C003D30FEF797FE0746A4F82480A4F82680B8
:10166C00A368B3F5805F05D04FF00008002384F821
:10167C003C3012E0236913B14FF00008F6E7A8469E
:10168C000025F3E738F8023B2268C3F308035360E4
:10169C00E28C92B2013A92B2E284E38C9BB273B1C7
:1016AC0000963B46002280212046FFF751FFE0B90F
:1016BC00002DE7D015F8012B23685A60E8E7009657
:1016CC003B46002240212046FFF742FF78B92023F9
:1016DC0084F83D3000E0022002B0BDE8F08101202A
:1016EC00FAE70120F8E70220F6E70320F4E70320ED
:1016FC00F2E7000008B50E480E4B03604FF48273FE
:10170C00436000238360C360036143614FF4007244
:10171C0082611822C2610362436283620A23C3623C
:10172C0000F0FAF800B908BDFEF70AFDFBE700BFB0
:10173C00F00000200030014010B586B00023029369
:10174C000393049305930268164B9A4201D006B09A
:10175C0010BD03F560439A6942F480529A619A690C
:10176C0002F480520092009A9A6942F004029A6143
:10177C009B6903F004030193019BA02302930223B2
:10178C00039303230593084C02A92046FFF744F961
:10179C004023029300230393049302A92046FFF7EE
:1017AC003BF9D4E700300140000801402DE9F04737
:1017BC0082B00546884617461E46FEF7E3FD0A9B97
:1017CC001B1A03EB0609FEF7DDFD82462B4B1B684B
:1017DC00C3F3CB3309FB03F301932B689C6838EA02
:1017EC0004030CBF4FF0010C4FF0000CBC4540D073
:1017FC00B6F1FF3FF1D0FEF7C5FDA0EB0A0048455E
:10180C000AD2B9F1000F07D0019A02B14A46019BE6
:10181C00013B01939146E0E72A68536823F0E0030B
:10182C0053606B68B3F5827F0BD0AB6AB3F5005F86
:10183C0014D0012385F85130002385F85030032053
:10184C0018E0AB68B3F5004F02D0B3F5806FECD164
:10185C002A68136823F040031360E6E72A681368CC
:10186C0023F4005313602A68136843F40053136085
:10187C00DFE7002002B0BDE8F08700BF08000020C1
:10188C0010B582B004460B46009200228021FFF76F
:10189C008DFF08B902B010BD636D43F02003636582
:1018AC000320F7E710B582B004460B464168B1F54A
:1018BC00827F10D06168B1F5827F03D1A168B1F548
:1018CC00806F15D00092002280212046FFF76EFF1A
:1018DC00E0B902B010BD8168B1F5004F02D0B1F58E
:1018EC00806FE7D12068016821F040010160E1E7D9
:1018FC000092002201212046FFF758FF0028E8D073
:10190C00636D43F0200363650320E2E7636D43F0EE
:10191C00200363650320DCE7002856D010B504468D
:10192C00436A33B94368B3F5827F05D00023C361A2
:10193C0002E00023036143610023A36294F8513059
:10194C00002B3CD0022384F851302268136823F01A
:10195C0040031360636803F48273A26802F40442C8
:10196C001343E26802F400621343226902F002029C
:10197C001343626902F001021343A26902F400727C
:10198C001343E26902F038021343226A02F0800228
:10199C001343A26A02F40052216813430B60638B59
:1019AC00226803F0040353602268D36923F40063B4
:1019BC00D36100206065012384F8513010BD84F898
:1019CC0050302046FFF7B8FEBCE7012070472DE9E8
:1019DC00F04383B01D4690F85030012B00F0D180BD
:1019EC00044688469146012380F85030FEF7CAFC25
:1019FC00074694F85160F6B2012E40F0AF80B8F172
:101A0C00000F00F0AC80B9F1000F00F0A8800323A8
:101A1C0084F8513000236365C4F83080A4F8349006
:101A2C00A4F83690A363A387E38763642364A36855
:101A3C00B3F5004F1ED023681A6812F0400F03D183
:101A4C001A6842F040021A60E368B3F5006F1CD0CC
:101A5C00636813B1B9F1010F52D1226B236812786C
:101A6C001A73236B01332363E38E9BB2013B9BB24E
:101A7C00E38645E02268136823F040031360226874
:101A8C00136843F480431360D5E7636813B1B9F16D
:101A9C00010F16D1226B23681288DA60236B023394
:101AAC002363E38E9BB2013B9BB2E38609E0FEF716
:101ABC0069FCC01BA84202D3B5F1FF3F59D1002DE0
:101ACC0059D0E38E9BB2002B33D023689A6812F066
:101ADC00020FECD0226B1288DA60236B0233236383
:101AEC00E38E9BB2013B9BB2E386EAE7FEF74AFC2E
:101AFC00C01BA84202D3B5F1FF3F3ED1002D3ED012
:101B0C00E38E9BB2ABB123689A6812F0020FEDD052
:101B1C00226B12781A73236B01332363B4F836C02B
:101B2C001FFA8CFC0CF1FF3C1FFA8CFCA4F836C09D
:101B3C00E6E73A4629462046FFF7A2FE08B12023E5
:101B4C006365A36833B901932368DA6801929B68D3
:101B5C000193019B636D13B9002600E0022601235B
:101B6C0084F85130002384F85030304603B0BDE87F
:101B7C00F0830326F3E70326F1E70326EFE70326BA
:101B8C00EDE70226F1E72DE9F04383B01F460A9DED
:101B9C0090F85030012B00F0108104468846914695
:101BAC00012380F85030FEF7EDFB064694F85130D7
:101BBC00DBB26268012B0AD0B2F5827F40F0E38081
:101BCC00A268002A40F0E980042B40F0E880B8F1CC
:101BDC00000F00F0E680B9F1000F00F0E480002F58
:101BEC0000F0E38094F85130DBB2042B02D00523D3
:101BFC0084F8513000236365C4F83890E787A787D1
:101C0C00C4F83080E786A7862364636423681A6867
:101C1C0012F0400F03D11A6842F040021A60E368D8
:101C2C00B3F5006F11D063680BB1012F0BD1226B90
:101C3C00236812781A73236B01332363E38E9BB2F0
:101C4C00013B9BB2E38601276BE063680BB1012F6C
:101C5C000BD1226B23681288DA60236B0233236367
:101C6C00E38E9BB2013B9BB2E38601271CE0236809
:101C7C009A6812F0010F0ED0E28F92B25AB1DA6864
:101C8C00A36B1A80A36B0233A363E38F9BB2013B5C
:101C9C009BB2E3870127FEF775FB801BA84203D399
:101CAC00B5F1FF3F40F08380E38E9BB21BB9E38F0D
:101CBC009BB2002B53D023689A6812F0020FD6D037
:101CCC00E28E92B2002AD2D0002FD0D0226B128892
:101CDC00DA60236B02332363E38E9BB2013B9BB22E
:101CEC00E3860027C3E723689A6812F0010F0ED031
:101CFC00E28F92B25AB1DA68A36B1A70A36B0133FC
:101D0C00A363E38F9BB2013B9BB2E3870127FEF7F2
:101D1C0039FB831BAB4202D3B5F1FF3F49D1002DF8
:101D2C0049D0E38E9BB213B9E38F9BB2BBB123684E
:101D3C009A6812F0020FD6D0E28E92B2002AD2D05C
:101D4C00002FD0D0226B12781A73236B01332363CC
:101D5C00E38E9BB2013B9BB2E3860027C3E732467E
:101D6C0029462046FFF78CFD48B9A36863B9019357
:101D7C002368DA6801929B680193019B04E020239D
:101D8C006365012000E00220012384F85130002318
:101D9C0084F8503003B0BDE8F0830220F4E7022051
:101DAC00F2E70120F0E70120EEE70120ECE7032049
:101DBC00EAE70320E8E70320E6E70220EAE72DE95B
:101DCC00F04383B00446884691461D464068B0F502
:101DDC00827F38D094F85030012B00F0AE80012374
:101DEC0084F85030FEF7CEFA074694F85160F6B2FC
:101DFC00012E40F08F80B8F1000F00F08C80B9F10B
:101E0C00000F00F08880042384F8513000236365B0
:101E1C00C4F83880A4F83C90A4F83E902363A386C1
:101E2C00E38623646364A368B3F5004F19D0236879
:101E3C001A6812F0400F03D11A6842F040021A607F
:101E4C00E3681BB341E0A368002BC3D1042384F8DF
:101E5C005130009513460A462046FFF794FE06467D
:101E6C005FE02268136823F0400313602268136854
:101E7C0023F480431360DAE7FEF784FAC01BA84210
:101E8C0002D3B5F1FF3F50D1002D50D0E38F9BB260
:101E9C00002B33D023689A6812F0010FECD0A26BA0
:101EAC001B7B1370A36B0133A363E38F9BB2013BCA
:101EBC009BB2E387EAE7FEF765FAC01BA84202D3A0
:101ECC00B5F1FF3F35D1002D35D0E38F9BB2ABB1CF
:101EDC0023689A6812F0010FEDD0DA68A36B1A80B0
:101EEC00A36B0233A363B4F83EC01FFA8CFC0CF155
:101EFC00FF3C1FFA8CFCA4F83EC0E6E73A462946A4
:101F0C002046FFF7CFFC08B120236365636D13B93E
:101F1C00002600E00226012384F85130002384F8C7
:101F2C005030304603B0BDE8F0830326F3E70326B8
:101F3C00F1E70326EFE70326EDE70226F1E70000C1
:101F4C000C480D490D4A002302E0D458C450043308
:101F5C00C4188C42F9D30A4A0A4C002301E01360DE
:101F6C000432A242FBD3FEF7CDFE00F00FF8FEF7D1
:101F7C001BF970470000002080000020CC310008C5
:101F8C00800000205C010020FEE7000070B50026F8
:101F9C000C4D0D4C641BA410A64209D101F062F843
:101FAC0000260A4D0A4C641BA410A64205D170BD34
:101FBC0055F8043B98470136EEE755F8043B984733
:101FCC000136F2E7C4310008C4310008C4310008FE
:101FDC00C831000803460244934200D1704703F80D
:101FEC00011BF9E70FB40A4B13B51C6824B1A369A4
:101FFC0013B9204600F05AFA05AB2046049AA168A2
:10200C00019300F05DFC02B0BDE8104004B07047D5
:10201C001C00002070B50E46054618B183690BB93B
:10202C0000F044FAAB69AC6813B9284600F03EFAEC
:10203C002C4B9C4220D16C68636EDB0705D4A389C2
:10204C00980502D4A06D00F0CFFAA38919071DD50D
:10205C002369DBB1013EA36816F8011F013BA360A5
:10206C0039BB002B38DA22460A21284600F048F802
:10207C00013011D00A2511E01B4B9C4201D1AC68F8
:10208C00DAE71A4B9C4208BFEC68D5E72146284694
:10209C0000F088F80028DDD04FF0FF35636EDA07CA
:1020AC0005D4A3899B0502D4A06D00F09EFA2846A6
:1020BC0070BD002B04DAA2699A4206DC0A2904D00E
:1020CC0023685A1C22601970C5E72246284600F086
:1020DC0017F80130BFD1DFE70A2523685A1C2260AC
:1020EC001D70DBE7503100087031000830310008FA
:1020FC00024B01461868FFF78DBF00BF1C00002083
:10210C00F8B50E461446054618B183690BB900F0B4
:10211C00CDF9214B9C422BD16C68A369A360A38998
:10212C001A072FD523696BB323692068F6B2C01A3E
:10213C0063693746834204DC2146284600F022F9C5
:10214C0030BBA3680130013BA36023685A1C22609A
:10215C001E706369834204D0A389DB0706D50A2E5F
:10216C0004D12146284600F00DF988B93846F8BD4F
:10217C000A4B9C4201D1AC68CFE7094B9C4208BF8B
:10218C00EC68CAE72146284600F00CF80028CBD0B2
:10219C004FF0FF37EAE700BF5031000870310008FC
:1021AC0030310008324B70B51D6806460C4625B11F
:1021BC00AB6913B9284600F079F92E4B9C420FD12C
:1021CC006C68A389B4F90C2019072CD4DD0611D442
:1021DC000923336042F040034FF0FF30A3813EE00F
:1021EC00254B9C4201D1AC68EBE7244B9C4208BFC9
:1021FC00EC68E6E7580712D5616B41B104F1440372
:10220C00994202D0304600F057FA00236363A38949
:10221C0023F02403A3810023636023692360A38933
:10222C0043F00803A38123694BB9A38903F42073FA
:10223C00B3F5007F03D02146304600F0FDF9A089AC
:10224C00B4F90C2010F001030AD00023A3606369D9
:10225C005B42A361236943B910F08000BAD170BD11
:10226C00810758BF6369A360F4E70020F7E700BF5C
:10227C001C0000205031000870310008303100087B
:10228C008A89F8B5054610070C4657D44B68002BC5
:10229C0004DC0B6C002B01DC0020F8BDE66A002E80
:1022AC00FAD0002312F480522F682B6032D0606D6C
:1022BC00A3895A0705D56368C01A636B0BB1236CED
:1022CC00C01A00230246E66A2846216AB047431C1E
:1022DC00A38906D129681D292CD8294ACA40D607BA
:1022EC0028D5002262602269D904226004D5421CE0
:1022FC0001D12B6803B96065616B2F600029CBD0CD
:10230C0004F14403994202D0284600F0D5F900208C
:10231C006063C2E7216A01232846B047411CC7D13C
:10232C002B68002BC4D01D2B01D0162B01D12F6094
:10233C00B2E7A38943F04003A381AEE70F69002FF6
:10234C00AAD0930718BF00230E6808BF4B69F61B71
:10235C000F608B60002E9FDD33463A462846216A7B
:10236C00D4F828C0E047002806DCA3894FF0FF30E2
:10237C0043F04003A38190E70744361AEAE700BF15
:10238C000100402038B50B6905460C4613B90025F1
:10239C00284638BD18B183690BB900F087F8144B87
:1023AC009C421BD16C68B4F90C30002BEFD0626EE0
:1023BC00D00704D4990502D4A06D00F015F9284675
:1023CC002146FFF75DFF636E0546DA07E0D4A3896B
:1023DC009B05DDD4A06D00F008F9D9E7054B9C42B4
:1023EC0001D1AC68DFE7044B9C4208BFEC68DAE72C
:1023FC00503100087031000830310008002310B54E
:10240C000446C0E90033C0E904338360818143662C
:10241C00C2818361194608225C30FFF7DBFD054B56
:10242C0024626362044BA362044BE362044B236398
:10243C0010BD00BF792E00089B2E0008D32E00087B
:10244C00F72E0008014900F0AFB800BF9123000837
:10245C00682270B54D1E55430E4605F1740100F00F
:10246C0093F9044640B10021C0E900160C30A0607D
:10247C0005F16802FFF7AEFD204670BD014800F083
:10248C00B3B800BF49010020014800F0AEB800BF4E
:10249C0049010020014800F0A7B800BF4A01002004
:1024AC00014800F0A2B800BF4A01002010B5044654
:1024BC00FFF7F0FFA3691BB1BDE81040FFF7F0BFB9
:1024CC00C4E912332365134B134A1B68A262A3425F
:1024DC0008BF0123204608BFA36100F01FF860600D
:1024EC00204600F01BF8A060204600F017F80022F0
:1024FC000421E0606068FFF781FF01220921A068D8
:10250C00FFF77CFF02221221E068FFF777FF01231F
:10251C00A361D1E72C31000851240008F8B5074617
:10252C00FFF7ACFF1E4B1E68B36913B93046FFF7BB
:10253C00BDFF4836D6E90134013B03D533680BB3F4
:10254C003668F7E7B4F90C50D5B9164B04F15800BE
:10255C00E360656600F047F8FFF796FF082229460E
:10256C00C4E90155C4E904552560A56104F15C007A
:10257C00FFF730FDC4E90D55C4E912552046F8BDEE
:10258C006834D9E704213846FFF762FF044630600F
:10259C000028D5D1FFF778FF0C233B60EEE700BF96
:1025AC002C3100080100FFFF2DE9F8430646884650
:1025BC00002700F14804D4E90195B9F1010905D5CA
:1025CC002468002CF7D13846BDE8F883AB89012B81
:1025DC0007D9B5F90E30013303D029463046C04730
:1025EC0007436835E9E770477047704770B50E468A
:1025FC00B1F90E10144600291D4696B008DA0022D7
:10260C00B6F90C302A601A0610D44FF480630EE031
:10261C006A4600F091FC0028F1DB019A02F470424A
:10262C00A2F500535A425A412A60EEE7402300209B
:10263C00236016B070BD00008B8973B59D070646EC
:10264C000C4607D504F14703236023610123636122
:10265C0002B070BD6A4601ABFFF7C8FF0099054692
:10266C00304600F091F848B9B4F90C309A05EFD423
:10267C0023F0030343F00203A381E3E70D4BB362A2
:10268C00A389206043F08003A381009B20616361D8
:10269C00019B5BB13046B4F90E1000F05FFC28B121
:1026AC00A38923F0030343F00103A381A08905430D
:1026BC00A581CDE75124000838B50546002940D046
:1026CC0051F8043C0C1F002BB8BFE41800F076FC4A
:1026DC001C4A136833B9636014602846BDE838405F
:1026EC0000F072BCA34208D9206821188B4201BFAC
:1026FC0019685B6809182160EDE71A465B680BB135
:10270C00A342FAD911685018A0420BD12068014499
:10271C00501883421160E0D118685B680144116065
:10272C005360DAE702D90C232B60D6E72068211816
:10273C008B4201BF19685B680918216063605460A3
:10274C00CBE738BD4C01002070B50E4E0C463168FD
:10275C00054611B900F07AFB30602146284600F09E
:10276C0075FB431C0AD0C41C24F00304A04207D000
:10277C00211A284600F06AFB013001D14FF0FF34DA
:10278C00204670BD500100202DE9F041CD1C25F0F4
:10279C00030508350C2D38BF0C25002D074601DB31
:1027AC00A94205D90C2300263B603046BDE8F081D8
:1027BC002E4E00F003FC33681C4634BB29463846C9
:1027CC00FFF7C2FF431C04464DD134682646002E49
:1027DC0040D123683146384604EB030800F036FB41
:1027EC0080453AD1216803356D1A25F0030508356B
:1027FC000C2D38BF0C2538462946FFF7A5FF0130B4
:10280C002BD023682B4423600EE02268521B1ED46D
:10281C000B2A16D96119A342256018BF5960636849
:10282C0008BF316062514B60384604F10B0600F072
:10283C00CBFB26F00706231DF21AB6D09B1BA35028
:10284C00B3E76268A3420CBF32605A60ECE72346E0
:10285C006468B2E734467668B9E70C2338463B60C7
:10286C0000F0B2FBA1E72560DEE700BF4C010020C1
:10287C00936810B4013B002B936007DA9469A34270
:10288C0001DB0A2902D110BCFFF73ABC1368581CB3
:10289C0010601970084610BC7047F8B506460F4614
:1028AC001446D518AC4201D1002007E03A46304618
:1028BC0014F8011BFFF7DCFF431CF3D1F8BD00003B
:1028CC002DE9F04F0D461446984606469DB018B1BA
:1028DC0083690BB9FFF7EAFD894B9D421BD17568E3
:1028EC006B6ED90705D4AB899A0502D4A86DFFF796
:1028FC007BFEAB891B0701D52B69EBB9294630460A
:10290C00FFF750FCC0B16B6EDC070ED54FF0FF30FB
:10291C001DB0BDE8F08F7B4B9D4201D1B568DFE760
:10292C00794B9D4208BFF568DAE7AB899805EDD481
:10293C00A86DFFF75AFEE9E70023099320238DF8D1
:10294C00293030234FF00109CDF80C80DFF8BC8121
:10295C008DF82A3023469A4613F8012B0AB1252A02
:10296C00F9D1BAEB040B0BD05B4622462946304614
:10297C00FFF793FF013000F0AA80099A5A4409929C
:10298C009AF80030002B00F0A28000234FF0FF32A9
:10299C00CDE905230AF1010A049307938DF853300E
:1029AC001A935446052214F8011B584800F0F8FA03
:1029BC00049AD8B9D10644BF20238DF8533013079D
:1029CC0044BF2B238DF853309AF800302A2B15D0A6
:1029DC00544600204FF00A0C079A214611F8013B8F
:1029EC00303B092B4ED9B0B1079214E0A0EB080391
:1029FC0009FA03F31343A2460493D2E7039B191D70
:102A0C001B680391002BBBBF5B4242F00202079391
:102A1C000793B8BF049223782E2B0CD163782A2B02
:102A2C0035D1039B02341A1D1B680392002BB8BFCF
:102A3C004FF0FF330593DFF8D8A0032250462178DE
:102A4C0000F0AEFA40B14023A0EB0A0003FA00F00C
:102A5C00049B01340343049314F8011B06222D48F4
:102A6C008DF8281000F09CFA00283FD02A4B1BBB95
:102A7C00039B073323F0070308330393099B3B4461
:102A8C00099367E70C4601200CFB0232A5E70023F3
:102A9C004FF00A0C194601340593204610F8012B0F
:102AAC00303A092A03D9002BC5D00591C3E7044657
:102ABC0001230CFB0121F0E703AB00932A463046BF
:102ACC00164B04A9AFF300800746781CD6D16B6E69
:102ADC00D90705D4AB899A0502D4A86DFFF785FDFB
:102AEC00AB895B063FF512AF099811E703AB009376
:102AFC002A463046094B04A900F082F8E4E700BFEF
:102B0C005031000870310008303100089031000855
:102B1C00963100089A31000800000000A728000830
:102B2C002DE9F047164699468A680B690746934289
:102B3C00B8BF1346336091F843200C46DDF8208073
:102B4C000AB1013333602368990642BF33680233FC
:102B5C003360256815F0060506D104F1190AE368FF
:102B6C0032689B1AAB4228DC94F84320131E22686F
:102B7C0018BF012392062DD44946384604F143026E
:102B8C00C047013020D02368E56803F00603042B0E
:102B9C0018BF002532684FF00006A36808BFAD1AB5
:102BAC00226908BF25EAE5759342C4BF9B1AED184C
:102BBC001A34B5421AD1002008E001235246494686
:102BCC003846C047013003D14FF0FF30BDE8F087E5
:102BDC000135C4E73020E11881F843005A1C94F801
:102BEC0045102244023382F84310C5E701232246E4
:102BFC0049463846C0470130E6D00136D9E70000D7
:102C0C002DE9FF470F7E9146782F80460C469A4659
:102C1C000C9D01F1430207D8622F0AD8002F00F057
:102C2C00D980582F00F0A48004F1420584F842703A
:102C3C003AE0A7F16303152BF6D801A151F823F064
:102C4C00A52C0008B92C0008352C0008352C0008E0
:102C5C00352C0008352C0008B92C0008352C000840
:102C6C00352C0008352C0008352C0008C72D000821
:102C7C00E92C0008A92D0008352C0008352C00087B
:102C8C00E92D0008352C0008E92C0008352C00082B
:102C9C00352C0008B12D00082B681A1D1B682A6002
:102CAC0004F1420584F842300123A4E0206829682D
:102CBC00060601F104030AD50E682B60002E03DA18
:102CCC002D23764284F843300A235E4819E00E68BF
:102CDC0010F0400F2B6018BF36B2EFE72B6820685E
:102CEC00191D2960010601D51E6802E04606FBD5B8
:102CFC001E886F2F0CBF08230A235248002184F82A
:102D0C0043106568002DA8BF2168A560A4BF21F001
:102D1C00040121600EB9002D4DD01546B6FBF3F120
:102D2C0003FB1167C75D05F8017D3746BB420E46B4
:102D3C00F4D9082B0BD12368DE0708D52369616809
:102D4C009942DEBF302305F8013C05F1FF35521BDB
:102D5C0022614B4621464046CDF800A003AAFFF75E
:102D6C00DFFE01304CD14FF0FF3004B0BDE8F087EE
:102D7C00344881F845702968236851F8046B296040
:102D8C001D0614D5DF0744BF43F0200323601EB992
:102D9C00236823F0200323601023AFE7236843F05C
:102DAC00200323607823284884F84530E3E759064C
:102DBC0048BFB6B2E6E71546BBE72B682668181D78
:102DCC006169286035061B6801D5196002E0700640
:102DDC00FBD51980002315462361BAE72B68002127
:102DEC001A1D2A601D686268284600F0D9F808B1DF
:102DFC00401B606063682361002384F84330A8E7BC
:102E0C002A46494640462369D0470130ABD0236857
:102E1C009B0713D4E068039B9842B8BF1846A4E7FD
:102E2C000123324649464046D04701309BD00135FC
:102E3C00E36803995B1AAB42F2DCEBE7002504F183
:102E4C001906F5E7A1310008B231000838B50023A6
:102E5C00054D044608462B6000F0F6F8431C02D1E1
:102E6C002B6803B1236038BD5401002010B50C460B
:102E7C00B1F90E1000F0AEF80028ABBF636DA3895A
:102E8C001B1823F48053ACBF6365A38110BD2DE9DF
:102E9C00F0411F468B890546DB050C46164605D5C9
:102EAC0002230022B1F90E1000F068F8A389324613
:102EBC0023F48053A38128463B46B4F90E10BDE899
:102ECC00F04100F017B810B50C46B1F90E1000F037
:102EDC0055F8431CA38915BF606523F4805343F454
:102EEC008053A38118BFA38110BDB1F90E1000F05F
:102EFC0013B8000038B50446084611460022054DAB
:102F0C002A601A46FDF756FF431C02D12B6803B109
:102F1C00236038BD5401002038B50023054D04460C
:102F2C0008462B6000F068F8431C02D12B6803B1F3
:102F3C00236038BD5401002038B50023064D0446EB
:102F4C00084611462B6000F05FF8431C02D12B6839
:102F5C0003B1236038BD00BF5401002038B50023F5
:102F6C00054D044608462B6000F056F8431C02D170
:102F7C002B6803B1236038BD5401002038B50446DA
:102F8C00084611460022054D2A601A4600F04CF8FE
:102F9C00431C02D12B6803B1236038BD54010020BF
:102FAC00034610B5C9B202449342184601D1002021
:102FBC0003E0047801338C42F6D110BD0148FFF7D1
:102FCC0013BB00BF480100200148FFF70EBB00BF38
:102FDC004801002038B50446084611460022054D2C
:102FEC002A601A4600F028F8431C02D12B6803B162
:102FFC00236038BD540100205822024B4FF0FF30A3
:10300C001A607047540100205822024B4FF0FF30D9
:10301C001A607047540100205822024B00201A609D
:10302C00704700BF540100205822024B4FF0FF3074
:10303C001A607047540100205822024B4FF0FF30A9
:10304C001A60704754010020044A05491368002B8C
:10305C0008BF0B46184410601846704758010020F2
:10306C0060010020F8B500BFF8BC08BC9E46704754
:0C307C00F8B500BFF8BC08BC9E467047C9
:1030880002030405060708090A0B0C0D0E0F1010A1
:10309800000000000000000000000000010203041E
:1030A8000607080900000000010203045549443ED0
:1030B8003E3E25730D0A0000546865204361726422
:1030C8002069733A636172645F25640D0A00000029
:1030D800556E6B6F776E2063617264EFBC810D0073
:1030E80053656C65637420436172640D00000000D1
:1030F800506364417574685374617465284129206C
:10310800737563636573730D000000005063644159
:103118007574685374617465284129206661696C07
:1031280065640D0020000020000000000000000081
:103138000000000000000000000000000000000087
:103148000000000000000000000000000000000077
:103158000000000000000000000000000000000067
:103168000000000000000000000000000000000057
:103178000000000000000000000000000000000047
:103188000000000000000000232D302B2000686C98
:103198004C00656667454647003031323334353672
:1031A80037383941424344454600303132333435AB
:0C31B800363738396162636465660000D8
:0431C40031010008CD
:0431C8000D010008ED
:1031CC0001000000100000000024F400A0A1A2A344
:1031DC00A4A50000AA5BD384F9562CE5200000209E
:1031EC000000000050310008703100083031000838
:1031FC0000000000000000000000000000000000C3
:10320C0000000000000000000000000000000000B2
:10321C0000000000000000000000000000000000A2
:10322C000000000000000000000000000000000092
:10323C000000000000000000000000000000000082
:0400000508001F4D83
:00000001FF
