:020000040800F2
:1000000000000220F1480008550A0008570A0008BD
:10001000590A00085B0A00085D0A00080000000099
:100020000000000000000000000000008146000801
:100030005F0A00080000000021470008854700080B
:100040004149000841490008414900084149000868
:100050004149000841490008414900084149000858
:100060004149000841490008414900084149000848
:100070004149000841490008414900084149000838
:100080004149000841490008414900084149000828
:100090004149000841490008414900084149000818
:1000A0004149000841490008414900084149000808
:1000B00041490008414900084149000841490008F8
:1000C00041490008414900084149000841490008E8
:1000D00041490008414900084149000841490008D8
:1000E000414900084149000800000000414900085A
:1000F00041490008610A00084149000841490008D7
:1001000041490008414900084149000841490008A7
:100110004149000841490008414900084149000897
:100120004149000841490008414900084149000887
:100130004149000841490008414900084149000877
:1001400000000000000000000000000000000000AF
:100150004149000841490008414900084149000857
:100160004149000841490008414900084149000847
:1001700041490008414900084149000800000000C9
:100180004149000841490008414900084149000827
:100190004149000841490008414900084149000817
:1001A0004149000841490008414900084149000807
:1001B00041490008414900084149000841490008F7
:1001C00041490008414900084149000841490008E7
:1001D00041490008414900084149000841490008D7
:1001E00041490008414900084149000841490008C7
:1001F00041490008414900084149000841490008B7
:1002000041490008414900084149000841490008A6
:100210004149000841490008414900084149000896
:100220004149000841490008414900080000000018
:100230004149000841490008000000004149000808
:100240004149000841490008414900084149000866
:100250004149000841490008414900084149000856
:100260004149000841490008414900084149000846
:1002700041490008414900084149000800000000C8
:1002800041490008414900084149000800000000B8
:080290000000000041490008D4
:1002A00010B5054C237833B9044B13B10448AFF3B0
:1002B00000800123237010BD140000200000000006
:1002C0009C49000808B5034B1BB103490348AFF331
:1002D000008008BD00000000180000209C490008B4
:1002E00053B94AB9002908BF00281CBF4FF0FF319D
:1002F0004FF0FF3000F074B9ADF1080C6DE904CE99
:1003000000F006F8DDF804E0DDE9022304B07047F0
:100310002DE9F047089D04468E46002B4DD18A42B8
:10032000944669D9B2FA82F252B101FA02F3C2F1EB
:10033000200120FA01F10CFA02FC41EA030E94407C
:100340004FEA1C48210CBEFBF8F61FFA8CF708FB9D
:1003500016E341EA034306FB07F199420AD91CEB75
:10036000030306F1FF3080F01F81994240F21C81A7
:10037000023E63445B1AA4B2B3FBF8F008FB1033EF
:1003800044EA034400FB07F7A7420AD91CEB040424
:1003900000F1FF3380F00A81A74240F207816444F4
:1003A000023840EA0640E41B00261DB1D440002379
:1003B000C5E900433146BDE8F0878B4209D9002DDD
:1003C00000F0EF800026C5E9000130463146BDE867
:1003D000F087B3FA83F6002E4AD18B4202D38242D1
:1003E00000F2F980841A61EB030301209E46002D80
:1003F000E0D0C5E9004EDDE702B9FFDEB2FA82F2D5
:10040000002A40F09280A1EB0C014FEA1C471FFA32
:100410008CFE0126200CB1FBF7F307FB131140EA19
:1004200001410EFB03F0884208D91CEB010103F1E6
:10043000FF3802D2884200F2CB804346091AA4B2A8
:10044000B1FBF7F007FB101144EA01440EFB00FE7C
:10045000A64508D91CEB040400F1FF3102D2A645E1
:1004600000F2BB800846A4EB0E0440EA03409CE780
:10047000C6F12007B34022FA07FC4CEA030C20FA2D
:1004800007F401FA06F31C43F9404FEA1C4900FA4D
:1004900006F3B1FBF9F8200C1FFA8CFE09FB1811CA
:1004A00040EA014108FB0EF0884202FA06F20BD93D
:1004B0001CEB010108F1FF3A80F08880884240F28D
:1004C0008580A8F102086144091AA4B2B1FBF9F0D1
:1004D00009FB101144EA014100FB0EFE8E4508D9CC
:1004E0001CEB010100F1FF346CD28E456AD9023851
:1004F000614440EA0840A0FB0294A1EB0E01A14236
:10050000C846A64656D353D05DB1B3EB080261EBA3
:100510000E0101FA07F722FA06F3F1401F43C5E97D
:10052000007100263146BDE8F087C2F12003D840B3
:100530000CFA02FC21FA03F3914001434FEA1C47F5
:100540001FFA8CFEB3FBF7F007FB10360B0C43EAE7
:10055000064300FB0EF69E4204FA02F408D91CEB97
:10056000030300F1FF382FD29E422DD90238634495
:100570009B1B89B2B3FBF7F607FB163341EA034135
:1005800006FB0EF38B4208D91CEB010106F1FF3884
:1005900016D28B4214D9023E6144C91A46EA00467B
:1005A00038E72E46284605E70646E3E61846F8E60D
:1005B0004B45A9D2B9EB020864EB0C0E0138A3E756
:1005C0004646EAE7204694E74046D1E7D0467BE737
:1005D000023B614432E7304609E76444023842E7AF
:1005E000704700BF08B50268034B9A4200D008BDAF
:1005F00002F0E4F9FBE700BF0020004072B6FEE71E
:1006000000B59DB04C22002109A804F0BFF92022BA
:10061000002101A804F0BAF9022002F077F90023C2
:100620000093254B9A6942F440429A619B6903F416
:1006300040430093214BDA6A42F00102DA62DB6A3E
:1006400003F001030093009B1B4B9B6913F4005FB5
:10065000FAD0012209924FF480330A9302231293B5
:1006600013931492782215921693179318930C23D0
:10067000199300231A931B9309A800F069FAB8B9DB
:100680003F2301930323029300230393082304933E
:100690004023059306934FF4806207920893042148
:1006A0000DEB010000F072FE20B91DB05DF804FBF7
:1006B000FFF7A4FFFFF7A2FF00480258000400580C
:1006C00008B502F04DF9FFF79BFF00F009F800F0C4
:1006D000F3F800F041F903F071F903F017FEFEE7BB
:1006E00030B58FB0002409940A940B940C940D94A7
:1006F000394BD3F8E02042F00402C3F8E020D3F8ED
:10070000E02002F004020192019AD3F8E02042F0C6
:100710008002C3F8E020D3F8E02002F080020292C9
:10072000029AD3F8E02042F00202C3F8E020D3F8A6
:10073000E02002F002020392039AD3F8E02042F094
:100740002002C3F8E020D3F8E02002F02002049257
:10075000049AD3F8E02042F01002C3F8E020D3F866
:10076000E02002F010020592059AD3F8E02042F052
:100770000802C3F8E020D3F8E02002F00802069255
:10078000069AD3F8E02042F00102C3F8E020D3F843
:10079000E02002F001020792079AD3F8E02042F02D
:1007A0004002C3F8E020D3F8E03003F040030893A0
:1007B000089B0A4D22460321284602F097F803239E
:1007C000099301230A930B940C9409A9284601F07C
:1007D0008FFF0FB030BD00BF004402580004025824
:1007E0002DE9F041B6B00023319332933393349323
:1007F00035932B4B1B6813B136B0BDE8F081284B05
:1008000001221A60BC22002102A804F0BFF84FF0B8
:100810008073029302A801F07FF800283DD1214B9C
:10082000D3F8D42042F48052C3F8D420D3F8D43083
:1008300003F480530193019B4FF48058CDF8C4809A
:100840000227329700263396032534950C243594DD
:1008500031A9154801F04CFF4FF680733193329760
:1008600033963495359431A9104801F041FF4CF28C
:1008700033733193329733963495359431A90C48BC
:1008800001F036FFCDF8C480329733963495359415
:1008900031A9084801F02CFFAEE7FFF7AFFEBEE735
:1008A0003000002000440258001402580010025882
:1008B000000C02580018025810B58EB000230793A0
:1008C000089309930A930B930C930D930093019350
:1008D000029303930493059306931B481B4A0260FB
:1008E00002F58272426006228260C36003611022B8
:1008F00042618361C36103624FF48051416283624C
:100900004FF48041C162036343638363C363036441
:100910000F23079308933C2109910A210A910B9216
:1009200011210C910924009401930823029304924D
:1009300005916A4607A902F0F7F808B90EB010BD94
:10094000FFF75CFEFAE700BF3400002000400052D1
:1009500008B5FFF745FF08BD08B51748174B0360FA
:100960004FF4E133436000238360C36003610C22D2
:1009700042618361C36103624362836202F0C7FE26
:1009800070B900210C4802F03AFF60B900210A4812
:1009900002F05AFF50B9084802F012FF48B908BDEA
:1009A000FFF72CFEEDE7FFF729FEEFE7FFF726FE46
:1009B000F1E7FFF723FEF2E780000020001001407E
:1009C00010B5B6B004460021319132913391349183
:1009D0003591BC2202A803F0D9FF22681A4B9A4233
:1009E00001D036B010BD0123029302A800F094FF9D
:1009F00038BB164BD3F8F02042F01002C3F8F020B9
:100A0000D3F8F02002F010020092009AD3F8E02010
:100A100042F00202C3F8E020D3F8E03003F0020312
:100A20000193019B4FF440433193022332930023FF
:100A3000339334930423359331A9054801F058FECC
:100A4000CFE7FFF7DBFDD4E7001001400044025878
:100A500000040258FEE7FEE7FEE7FEE7FEE7704708
:100A600008B5024802F0DEF808BD00BF740300209C
:100A700000B583B00A4BD3F8F42042F00202C3F869
:100A8000F420D3F8F43003F002030193019B002219
:100A90000F216FF0010000F017F803B05DF804FBC0
:100AA000004402580649CB6823F4E0631B041B0C86
:100AB000000200F4E0600343024A1A43CA60704730
:100AC00000ED00E00000FA0500B5174BDB68C3F34A
:100AD0000223C3F1070CBCF1040F28BF4FF0040C34
:100AE00003F1040EBEF1060F14D9033B4FF0FF3E95
:100AF0000EFA0CFC21EA0C0199400EFA03F322EAEB
:100B000003031943002807DB0901C9B2074B195435
:100B10005DF804FB0023E9E700F00F000901C9B20A
:100B2000034B1954F4E700BF00ED00E000E400E0DF
:100B300014ED00E0002807DB00F01F02400901234C
:100B40009340024A42F82030704700BF00E100E0C5
:100B5000002800F0028338B50446036813F0010F43
:100B600025D09C4A136903F03803926A102B15D0E4
:100B7000182B0FD06368B3F5803F3FD0002B53D1C3
:100B8000944B1A6822F480321A601A6822F4802288
:100B90001A6038E002F00302022AEBD18D4B1B6889
:100BA00013F4003F03D06368002B00F0D882236861
:100BB00013F0020F00F08B80864A1369926A13F0DB
:100BC00038035AD0182B55D0E368002B00F0C880AA
:100BD00080490A6822F0190213430B6001F0FAFE03
:100BE00005467C4B1B6813F0040F40F0978001F022
:100BF000F1FE401B0228F4D90320B7E2754A1368BE
:100C000043F48033136063682BB301F0E3FE0546C1
:100C1000704B1B6813F4003FC9D101F0DBFE401B91
:100C20006428F5D90320A1E2B3F5A02F09D0694BC0
:100C30001A6822F480321A601A6822F480221A603C
:100C4000E1E7644B1A6842F480221A601A6842F4A1
:100C500080321A60D7E701F0BDFE05465D4B1B6888
:100C600013F4003FA3D001F0B5FE401B6428F5D972
:100C700003207BE212F0030FA6D1564B1B6813F042
:100C8000040F03D0E368002B00F06B8201F0A8FE94
:100C900041F20303984212D82269402A07D04D49F5
:100CA0004B6823F47C3343EA02334B600FE0494A3C
:100CB000536823F47C3343F40033536007E0454A20
:100CC000536823F0FE43216943EA016353602368BC
:100CD00013F0100F00F088803E4A136903F03803C8
:100CE000926A082B54D0182B4ED0E369002B00F0E9
:100CF000B880384A136843F08003136001F06AFE3D
:100D00000546344B1B6813F4807F40F0888001F067
:100D100061FE401B0228F4D9032027E201F060FEA7
:100D200041F20303984212D82269402A07D0294988
:100D30004B6823F47C3343EA02334B60C7E7254A10
:100D4000536823F47C3343F400335360BFE7214AF4
:100D5000536823F0FE43216943EA01635360B6E719
:100D60001C4A136823F00103136001F033FE0546AB
:100D7000184B1B6813F0040FA9D001F02BFE401B89
:100D80000228F5D90320F1E102F00302012AACD1D7
:100D9000104B1B6813F4807F03D0E369802B40F075
:100DA000E28101F01DFE41F20303984214D8226A49
:100DB000202A07D007494B6823F0F84343EA8263AF
:100DC0004B6011E0034A536823F0F84343F080433B
:100DD000536009E0004402589A4AD36823F07C53D8
:100DE000216A43EA0163D360236813F0080F60D0DF
:100DF0006369002B49D0934A536F43F00103536753
:100E000001F0E8FD05468F4B5B6F13F0020F50D1E8
:100E100001F0E0FD401B0228F5D90320A6E101F016
:100E2000DFFD41F20303984212D8226A202A07D03C
:100E300084494B6823F0F84343EA82634B60D3E76D
:100E4000804A536823F0F84343F080435360CBE774
:100E50007C4AD36823F07C53216A43EA0163D36060
:100E6000C2E7784A136823F08003136001F0B2FDF3
:100E70000546744B1B6813F4807FB5D001F0AAFDC2
:100E8000401B0228F5D9032070E16E4A536F23F00E
:100E90000103536701F09EFD05466A4B5B6F13F03B
:100EA000020F06D001F096FD401B0228F5D9032061
:100EB0005CE1236813F0200F29D0A3699BB1614A3C
:100EC000136843F48053136001F084FD05465D4BC5
:100ED0001B6813F4005F1AD101F07CFD401B02284F
:100EE000F5D9032042E1574A136823F48053136075
:100EF00001F070FD0546534B1B6813F4005F06D0EC
:100F000001F068FD401B0228F5D903202EE123687B
:100F100013F0040F21D1636A002B00F02681494AA7
:100F2000126902F03802182A00F0EE80022B75D008
:100F3000444A136823F08073136001F04BFD0446AC
:100F4000404B1B6813F0007F00F0DC8001F042FD95
:100F5000001B0228F4D9032008E13B4A136843F43C
:100F60008073136001F036FD0546374B1B6813F4A0
:100F7000807F06D101F02EFD401B6428F5D90320A7
:100F8000F4E0A368012B0AD00BBB2E4B1A6F22F0A2
:100F900001021A671A6F22F004021A6704E0294A54
:100FA000136F43F001031367A36833B301F012FD1D
:100FB0000546244B1B6F13F0020FACD101F00AFD64
:100FC000401B41F288339842F3D90320CEE0052B31
:100FD00009D01C4B1A6F22F001021A671A6F22F017
:100FE00004021A67E0E7174B1A6F42F004021A670F
:100FF0001A6F42F001021A67D6E701F0EBFC0546D2
:10100000104B1B6F13F0020F85D001F0E3FC401B67
:1010100041F288339842F3D90320A7E0094A1368C4
:1010200023F08073136001F0D5FC0546054B1B6867
:1010300013F0007F0AD001F0CDFC401B0228F5D947
:10104000032093E000440258004802584F4B996A2D
:101050004F4A0A40A16AE06A41EA00110A439A62D3
:10106000226B013AC2F30802616B0139490289B26D
:101070000A43A16B0139090401F4FE010A43E16B43
:101080000139090601F0FE410A431A63DA6A22F0C7
:101090000102DA62596B3F4A0A40A16C42EAC1027E
:1010A0005A63DA6A22F00C02216C0A43DA62DA6AC5
:1010B00022F00202616C0A43DA62DA6A42F4803298
:1010C000DA62DA6A42F40032DA62DA6A42F48022E0
:1010D000DA62DA6A42F00102DA621A6842F0807279
:1010E0001A6001F077FC0446284B1B6813F0007F60
:1010F00006D101F06FFC001B0228F5D9032035E072
:10110000002033E0002031E0204A916A106B012B6F
:101110002DD001F00303A26A93422AD1C1F3051135
:10112000E36A994227D1C0F30802236B013B9A423C
:1011300023D1C0F34622636B013B9A421FD1C0F317
:101140000642A36B013B9A421BD1C0F30660E36BDE
:10115000013B984217D1002008E001207047012090
:1011600004E0012002E0012000E0002038BD012061
:10117000FCE70120FAE70120F8E70120F6E701206B
:10118000F4E70120F2E70120F0E700BF0044025835
:101190000CFCFFFF0700FFFF744B1B6903F03803D3
:1011A000102B00F0DE80182B10D00BB17048704768
:1011B0006E4B1B6813F0200F00F0D5806B4B186846
:1011C000C0F3C1006B4B23FA00F0704710B4674ABC
:1011D000916A01F00301946AC4F30510D36A03F025
:1011E000010C536BC3F3CC030CFB03F307EE903AF3
:1011F000F8EE677A14F47C7F00F09380012965D0C3
:10120000022900F09180E1B107EE100AF8EE476A7A
:101210009FED596A86EE267A544B1B6BC3F3080385
:1012200006EE903AF8EE666A9FED546A67EE867AAB
:1012300076EEA77AF7EE006A77EEA67A27EE277A9F
:1012400060E0136813F0200F23D011461268C2F338
:10125000C102484BD34007EE103AF8EE476A07EE5A
:10126000100AB8EE476A86EE867A0B6BC3F3080362
:1012700006EE903AF8EE666A9FED406A67EE867A6F
:1012800076EEA77AF7EE006A77EEA67A27EE277A4F
:1012900038E007EE100AF8EE476A9FED396A86EEED
:1012A000267A324B1B6BC3F3080306EE903AF8EE36
:1012B000666A9FED326A67EE867A76EEA77AF7EE77
:1012C000006A77EEA67A27EE277A1BE007EE100A6F
:1012D000F8EE476A9FED286A86EE267A234B1B6B51
:1012E000C3F3080306EE903AF8EE666A9FED236AB0
:1012F00067EE867A76EEA77AF7EE006A77EEA67A40
:1013000027EE277A194B1B6BC3F34623013307EEF5
:10131000903AF8EE677AC7EE276AFCEEE67A17EEA7
:10132000900A5DF8044B704707EE100AF8EE476A22
:101330009FED146A86EE267A0C4B1B6BC3F30803F1
:1013400006EE903AF8EE666A9FED0C6A67EE867AD2
:1013500076EEA77AF7EE006A77EEA67A27EE277A7E
:10136000D0E7094870470348704700BF004402585F
:1013700000093D000090D0030024744A00000039A9
:101380000024744C0024F44A00127A00002800F073
:10139000328170B50D4604469B4B1B6803F00F036A
:1013A0008B420BD2984A136823F00F030B43136050
:1013B000136803F00F038B4240F01F81236813F082
:1013C000040F0CD02269914B9B6903F070039A4281
:1013D00005D98E498B6923F070031A438A6123680B
:1013E00013F0080F0CD06269884BDB6903F07003BF
:1013F0009A4205D98549CB6923F070031A43CA6123
:10140000236813F0100F0CD0A269804BDB6903F442
:10141000E0639A4205D97D49CB6923F4E0631A431E
:10142000CA61236813F0200F0CD0E269774B1B6A66
:1014300003F070039A4205D974490B6A23F07003D4
:101440001A430A62236813F0020F0CD0E2686F4B54
:101450009B6903F00F039A4205D96C498B6923F00D
:101460000F031A438A61236813F0010F41D0674AC2
:10147000936923F47063A1680B4393616368022B43
:101480000AD0032B27D0012B2CD0604A126812F00F
:10149000040F06D10120ADE0126812F4003F00F005
:1014A000AE805A490A6922F0070213430B6101F02A
:1014B00091FA0646554B1B6903F038036268B3EB9B
:1014C000C20F16D001F086FA801B41F28833984291
:1014D000F0D903208EE04D4A126812F0007FE0D16F
:1014E000012087E0494A126812F4807FD9D1012097
:1014F00080E0236813F0020F0CD0E268434B9B6935
:1015000003F00F039A4205D240498B6923F00F0381
:101510001A438A613C4B1B6803F00F03AB420AD9A4
:10152000394A136823F00F032B431360136803F049
:101530000F03AB4265D1236813F0040F0CD022696E
:10154000324B9B6903F070039A4205D22F498B6995
:1015500023F070031A438A61236813F0080F0CD03C
:1015600062692A4BDB6903F070039A4205D227496E
:10157000CB6923F070031A43CA61236813F0100F7C
:101580000CD0A269214BDB6903F4E0639A4205D2D7
:101590001E49CB6923F4E0631A43CA61236813F040
:1015A000200F0CD0E269194B1B6A03F070039A42BA
:1015B00005D216490B6A23F070031A430A62FFF73B
:1015C000EBFD12498B69C3F30323114AD35C03F08B
:1015D0001F03D8408B6903F00F03D35C03F01F0394
:1015E00020FA03F30B4A13600B4B18600B4B18687F
:1015F00002F026FA70BD012070470120FAE70120B1
:10160000F8E70120F6E700BF00200052004402582E
:10161000304A00080C0000200800002004000020D0
:1016200008B5FFF7B9FD0B4A9369C3F303230A49D1
:10163000CB5C03F01F0320FA03F3926902F00F0260
:10164000885C00F01F0023FA00F0044A1060044A8E
:10165000136008BD00440258304A00080C00002006
:101660000800002008B5FFF7DBFF054BDB69C3F37B
:101670000213044AD35C03F01F03D84008BD00BF27
:1016800000440258304A000808B5FFF7C9FF054B6F
:10169000DB69C3F30223044AD35C03F01F03D84081
:1016A00008BD00BF00440258304A00083F230360D1
:1016B000114B1A6902F0070242609A6902F47062E3
:1016C00082609A6902F00F02C2609A6902F07002A9
:1016D0000261DA6902F070024261DA6902F4E062E2
:1016E00082611B6A03F07003C361044B1B6803F043
:1016F0000F030B60704700BF0044025800200052E7
:10170000404B9B6A03F00303032B79D070B5054669
:101710000E463C4A136823F08063136001F05AF9C7
:101720000446384B1B6813F0006F06D001F052F9E5
:10173000031B022BF5D9032070BD324B9A6A22F4A9
:101740007C32296842EA01329A626A68013AC2F33D
:101750000802A9680139490289B20A43E9680139D6
:10176000090401F4FE010A4329690139090601F05F
:10177000FE410A439A63DA6A22F0C00269690A43A9
:10178000DA62DA6A22F02002A9690A43DA62DA6AC6
:1017900022F01002DA62D96B1B4A0A40E96942EA78
:1017A000C102DA63DA6A42F01002DA62C6B91A4696
:1017B000DB6A43F40023D362124A136843F0806368
:1017C000136001F007F904460E4B1B6813F0006F1D
:1017D00014D101F0FFF8001B0228F5D90320ABE774
:1017E000012E05D0074AD36A43F40013D362E3E71E
:1017F000044AD36A43F48013D362DDE700209BE7F9
:1018000001207047004402580700FFFF404B9B6ACD
:1018100003F00303032B79D070B505460E463C4A0E
:10182000136823F08053136001F0D4F80446384B5A
:101830001B6813F0005F06D001F0CCF8031B022BED
:10184000F5D9032070BD324B9A6A22F07C72296868
:1018500042EA01529A626A68013AC2F30802A96830
:101860000139490289B20A43E9680139090401F4DE
:10187000FE010A4329690139090601F0FE410A43C4
:101880001A64DA6A22F4406269690A43DA62DA6A3F
:1018900022F40072A9690A43DA62DA6A22F48072D9
:1018A000DA62596C1B4A0A40E96942EAC1025A6489
:1018B000DA6A42F48072DA62C6B91A46DB6A43F425
:1018C0008003D362124A136843F08053136001F01F
:1018D00081F804460E4B1B6813F0005F14D101F031
:1018E00079F8001B0228F5D90320ABE7012E05D0BB
:1018F000074AD36A43F08073D362E3E7044AD36AAA
:1019000043F40003D362DDE700209BE7012070472A
:10191000004402580700FFFFF8B50446036813F0BF
:10192000006F30D0436EB3F5001F26D00ED8EBB158
:10193000B3F5801F07D102210430FFF7E1FE054611
:1019400045B12E4621E0012635461EE0B3F5401F85
:1019500009D10025954A136D23F44013616E0B43A2
:101960001365002611E0012635460EE08F4AD36A42
:1019700043F40033D3620025ECE702212430FFF763
:1019800045FF0546DCE700263546236813F4807FD3
:1019900014D0636D042B30D8DFE803F0032228084D
:1019A0000800824AD36A43F40033D36245BB7F4ABE
:1019B000136D23F00703616D0B431365236813F464
:1019C000007F2FD0A36D802B49D01ED8002B40D094
:1019D000402B17D10021201DFFF792FE054619E08C
:1019E0000021201DFFF78CFE0546DFE7002104F1F2
:1019F0002400FFF70BFF0546D8E701263546DDE753
:101A00002E46DBE7012635460CE0C02B02D0B3F5AD
:101A1000807F1BD155BB654A136D23F4E073A16D24
:101A20000B431365236813F4806F45D0D4F8A430BA
:101A3000B3F5800F38D01ED883B3B3F5001F17D18C
:101A40000021201DFFF75CFE05461AE00126354601
:101A5000E8E7564AD36A43F40033D362DAE7002159
:101A600004F12400FFF7D2FE0546D3E72E46D9E75E
:101A70000126354620E0B3F5C00F02D0B3F5000FC4
:101A800009D1C5B9494A936D23F46003D4F8A41071
:101A90000B43936510E0012635460DE0434AD36AB7
:101AA00043F40033D362ECE7002104F12400FFF794
:101AB000ADFE0546E5E72E46236813F4006F23D0FC
:101AC000D4F8A830B3F1007F41D00DD8002B38D026
:101AD000B3F1807F05D10021201DFFF711FE0546DF
:101AE00008E0012635460FE0B3F1407F02D0B3F1A4
:101AF000806F23D1002D31D12C4A936D23F0E06308
:101B0000D4F8A8100B439365236813F0007F2ED000
:101B1000A36C202B3FD026D833B1102B20D1234AE1
:101B2000D36A43F40033D362002D3AD11F4AD36CF9
:101B300023F03003A16C0B43D36418E00126354633
:101B4000E2E71A4AD36A43F40033D362D2E70021B2
:101B500004F12400FFF75AFE0546CBE72E46D3E7F3
:101B60000126354603E0302BDED0012635462368BA
:101B700013F4805F2BD0E36DB3F5005F4CD017D822
:101B8000002B43D0B3F5805F0DD10021201DFFF75E
:101B9000B7FD054612E00221201DFFF7B1FD054605
:101BA000C2E72E46E3E70126354610E0004402581E
:101BB000B3F5405F02D0B3F5804F24D1002D32D170
:101BC000754A136D23F4E043E16D0B4313652368FD
:101BD00013F4005F37D0236EB3F5003F51D027D800
:101BE0003BB1B3F5803F20D10121201DFFF788FDD7
:101BF0000546002D4CD1684A136D23F4E023216E75
:101C00000B4313651FE001263546E0E7624AD36ABD
:101C100043F40033D362D1E7002104F12400FFF73D
:101C2000F5FD0546CAE72E46D1E7012635460AE00E
:101C3000B3F5802FDDD0B3F5A02FDAD0B3F5403F58
:101C4000D7D001263546236813F4804F30D0D4F81E
:101C5000AC30B3F1005F44D01FD83BB1B3F1805F2B
:101C600018D10121201DFFF74BFD0546002D3FD166
:101C7000494A936D23F0E043D4F8AC100B439365CD
:101C800016E0012104F12400FFF7C0FD0546B0E78E
:101C90002E46D8E7012635460AE0B3F1804FE5D05D
:101CA000B3F1A04FE2D0B3F1405FDFD0012635465B
:101CB000236813F4004F09D0E36EB3F1805F19D0AD
:101CC000B3F1005F24D0D3B101263546236813F069
:101CD000807F32D0636C032B59D8DFE803F02621D4
:101CE0005226012104F12400FFF790FD0546BDE7CF
:101CF0002E46DDE7284AD36A43F40033D3626DB938
:101D0000254A136D23F04053E16E0B431365DDE765
:101D10000121201DFFF7F4FC0546F0E72E46D5E72C
:101D20001D4AD36A43F40033D3629DBB1A4AD36C75
:101D300023F00303616C0B43D364236813F4800F17
:101D40002CD1236813F0010F00F0A380A36F282B80
:101D500000F29D80DFE803F08B9B9B9B9B9B9B9BF2
:101D6000869B9B9B9B9B9B9B949B9B9B9B9B9B9BDF
:101D70008B9B9B9B9B9B9B9B8B9B9B9B9B9B9B9BD3
:101D80008B000221201DFFF7BBFC0546CDE7012695
:101D90003546D2E72E46D0E7004402588F4A1368F2
:101DA00043F48073136000F015FE07468B4B1B68ED
:101DB00013F4807F05D100F00DFEC01B6428F5D917
:101DC0000325002D4AD1864B1B6FD4F8B020534019
:101DD00013F4407F0CD0824B1A6F22F44072196FBB
:101DE00041F480311967196F21F4803119671A673E
:101DF000D4F8B030B3F5807F15D08DBBD4F8B030B7
:101E000003F44072B2F5407F1ED0754A136923F483
:101E10007C53136172490B6FD4F8B020C2F30B02EC
:101E200013430B678DE700F0D5FD07466C4B1B6F26
:101E300013F0020FE1D100F0CDFDC01B41F2883359
:101E40009842F3D90325D8E76548026922F47C5209
:101E5000644901EA131313430361DBE72E4670E77D
:101E60002E466EE70121201DFFF74AFC0546E5B925
:101E70005B4A536D23F03803A16F0B43536508E0B1
:101E8000012104F12400FFF7C1FC0546EFE701261C
:101E90003546236813F0020F16D0636F052B27D841
:101EA000DFE803F00A051F0A0A0A2E46F1E70121BE
:101EB000201DFFF725FC0546EDB9494A536D23F077
:101EC0000703616F0B435365236813F0040F22D09F
:101ED000D4F89030052B43D8DFE803F0140F3B14FF
:101EE0001414012104F12400FFF790FC0546E3E7F8
:101EF00001263546E8E72E46E6E70121201DFFF7DB
:101F0000FFFB05467DBB364A936D23F00703D4F8EB
:101F100090100B439365236813F0200F33D0D4F84F
:101F20008C30B3F1005F4CD022D83BB1B3F1805F6D
:101F30001BD10021201DFFF7E3FB0546002D47D1F3
:101F4000274A536D23F0E043D4F88C100B435365BC
:101F500019E0012104F12400FFF758FC0546D1E700
:101F600001263546D7E72E46D5E7012635460AE055
:101F7000B3F1804FE2D0B3F1A04FDFD0B3F1405FB7
:101F8000DCD001263546236813F0400F37D0D4F853
:101F90009830B3F5006F52D026D83BB1B3F5806FBF
:101FA00018D10021201DFFF7ABFB0546002D4DD1B8
:101FB0000B4A936D23F4E053D4F898100B439365C8
:101FC0001DE0022104F12400FFF720FC0546B5E7DF
:101FD0002E46D8E70126354611E000BF00480258DA
:101FE00000440258CFFFFF00B3F5805FDED0B3F5A9
:101FF000A05FDBD0B3F5406FD8D00126354623680B
:1020000013F0800F32D0D4F89C30B3F5804F00F03D
:102010009D8020D83BB1B3F5005F19D10021201D70
:10202000FFF76EFB0546002D40F09780A54A936DA3
:1020300023F46043D4F89C100B43936516E002210F
:1020400004F12400FFF7E2FB0546AFE72E46D6E792
:10205000012635460AE0B3F5004FE4D0B3F5204F32
:10206000E1D0B3F5C04FDED001263546236813F02A
:10207000080F0CD0D4F88030B3F5805F6FD0914A50
:10208000536D23F44053D4F880100B4353652368F9
:1020900013F0100F0CD0D4F89430B3F5807F67D0D4
:1020A000884A936D23F44073D4F894100B439365DE
:1020B000236813F4002F0BD0D4F8A030B3F5803F81
:1020C0006ED0B3F5003F61D0002B5AD001263546C3
:1020D000236813F4802F0CD0D4F88430B3F5001F9C
:1020E00076D0B3F5401F69D0B3F5801F61D00126CB
:1020F0003546236813F4803F07D0E36C002B70D083
:10210000B3F5803F7BD001263546236813F0005F8E
:102110007DD1236813F4003F00F08680E36FB3F5B0
:10212000807F00F0C6807CD9B3F5007F03D0B3F583
:10213000407F40F0BC80002D40F0C180614A536D6B
:1021400023F44073E16F0B4353656DE0022104F10A
:102150002400FFF75BFB054665E72E4686E7022174
:1021600004F12400FFF752FB002888D0012686E7FF
:10217000022104F12400FFF749FB002890D001263A
:102180008EE70021201DFFF7BBFA05467DB94D4AB9
:10219000936D23F44033D4F8A0100B43936597E775
:1021A000022104F12400FFF731FB0546EEE72E463D
:1021B0008EE7444AD36A43F40033D3627DB9414A7F
:1021C000536D23F44013D4F884100B43536590E708
:1021D000012104F12400FFF719FB0546EEE72E4626
:1021E00087E7384AD36A43F40033D3626DB9354A7E
:1021F000D36C23F48033E16C0B43D36485E7022175
:10220000201DFFF77DFA0546F0E72E467DE7022107
:1022100004F12400FFF7FAFA00283FF47AAF012610
:1022200077E7002B87D00126236813F4801F06D0A0
:10223000244A136D23F00043216F0B431365236879
:1022400013F0805F07D01F4A136923F48043D4F84A
:10225000B4100B431361236813F4001F06D0194A0E
:10226000136D23F08073A16E0B431365236813F085
:10227000804F09D0134B1A6922F400421A611A697F
:10228000D4F8B8100A431A612368002B1CDB2368BA
:1022900013F4000F07D00B4A536D23F44003D4F816
:1022A00088100B43536506B101263046F8BD012660
:1022B000BAE7044AD36A43F40033D3623BE72E46BD
:1022C000B2E700BF00440258034AD36C23F04053E6
:1022D000216D0B43D364DAE70044025808B5FFF7D9
:1022E0009FF9054B1B6AC3F30213044AD35C03F046
:1022F0001F03D84008BD00BF00440258304A000800
:1023000010B5774A916A946AC4F3053ED36AC3F361
:10231000001CD36BC3F3CC030CFB03F314F47C3F1E
:1023200000F0D88001F0030107EE903AF8EE677AEA
:10233000012965D0022900F0B080E1B107EE10EA72
:10234000B8EE477A9FED676AC6EE076A644B9B6BEF
:10235000C3F3080307EE103AB8EE477A9FED626ABE
:1023600067EE867A77EE277AB7EE007A77EE877A8D
:1023700066EEA76A60E0136813F0200F23D01146C1
:102380001268C2F3C102594BD34007EE103AB8EEBF
:10239000477A06EE90EAB8EE666AC7EE066A8B6B7D
:1023A000C3F3080307EE103AB8EE477A9FED4E6A82
:1023B00067EE867A77EE277AB7EE007A77EE877A3D
:1023C00066EEA76A38E007EE10EAB8EE477A9FEDAE
:1023D000486AC6EE076A424B9B6BC3F3080307EEDD
:1023E000103AB8EE477A9FED406A67EE867A77EE4C
:1023F000277AB7EE007A77EE877A66EEA76A1BE057
:1024000007EE10EAB8EE477A9FED366AC6EE076A25
:10241000334B9B6BC3F3080307EE103AB8EE477AD1
:102420009FED316A67EE867A77EE277AB7EE007A0B
:1024300077EE877A66EEA76A294A936BC3F3462341
:1024400007EE103AB8EE477AB7EE006A37EE067A32
:10245000C6EE877AFCEEE77AC0ED007A936BC3F3A1
:10246000064307EE103AB8EE477A37EE067AC6EE24
:10247000877AFCEEE77AC0ED017A936BC3F30663CB
:1024800007EE903AF8EE677A77EE867A86EEA77ACC
:10249000BCEEC77A80ED027A10BD07EE10EAB8EE06
:1024A000477A9FED146AC6EE076A0D4B9B6BC3F328
:1024B000080307EE103AB8EE477A9FED0B6A67EE15
:1024C000867A77EE277AB7EE007A77EE877A66EE2D
:1024D000A76AB1E70023036043608360DCE700BFC5
:1024E000004402580024744A000000390090D003D0
:1024F0000024744C0024F44A10B5774A916A946A17
:10250000C4F3055ED36AC3F3002C536CC3F3CC034E
:102510000CFB03F314F07C7F00F0D88001F0030182
:1025200007EE903AF8EE677A012965D0022900F0AB
:10253000B080E1B107EE10EAB8EE477A9FED676A26
:10254000C6EE076A644B1B6CC3F3080307EE103A30
:10255000B8EE477A9FED626A67EE867A77EE277A61
:10256000B7EE007A77EE877A66EEA76A60E01368C6
:1025700013F0200F23D011461268C2F3C102594B49
:10258000D34007EE103AB8EE477A06EE90EAB8EE7E
:10259000666AC7EE066A0B6CC3F3080307EE103ACF
:1025A000B8EE477A9FED4E6A67EE867A77EE277A25
:1025B000B7EE007A77EE877A66EEA76A38E007EE24
:1025C00010EAB8EE477A9FED486AC6EE076A424BBA
:1025D0001B6CC3F3080307EE103AB8EE477A9FED81
:1025E000406A67EE867A77EE277AB7EE007A77EE62
:1025F000877A66EEA76A1BE007EE10EAB8EE477A24
:102600009FED366AC6EE076A334B1B6CC3F30803B3
:1026100007EE103AB8EE477A9FED316A67EE867A98
:1026200077EE277AB7EE007A77EE877A66EEA76ABA
:10263000294A136CC3F3462307EE103AB8EE477AE3
:10264000B7EE006A37EE067AC6EE877AFCEEE77AD6
:10265000C0ED007A136CC3F3064307EE103AB8EEF0
:10266000477A37EE067AC6EE877AFCEEE77AC0ED57
:10267000017A136CC3F3066307EE903AF8EE677ABB
:1026800077EE867A86EEA77ABCEEC77A80ED027A7C
:1026900010BD07EE10EAB8EE477A9FED146AC6EE59
:1026A000076A0D4B1B6CC3F3080307EE103AB8EE34
:1026B000477A9FED0B6A67EE867A77EE277AB7EE58
:1026C000007A77EE877A66EEA76AB1E700230360A7
:1026D00043608360DCE700BF004402580024744A72
:1026E000000000390090D0030024744C0024F44A08
:1026F000F0B583B0002340E0092400E00024B4409A
:1027000044EA0C040235764E46F825404FF0B044BA
:10271000D4F88050D44325EA02064F6817F4803F6E
:1027200001D042EA05064FF0B045C5F88060D5F803
:10273000845004EA05064F6817F4003F01D042EACE
:1027400005064FF0B045C5F884602D6804EA05061B
:102750004F6817F4801F01D042EA05064FF0B045DC
:102760002E606D682C404E6816F4001F01D042EABE
:1027700005044FF0B042546001330A6832FA03F4A2
:1027800000F0AB804FF0010C0CFA03FC1CEA0202D3
:10279000F2D04C68651E112C18BF012D01D9122CE6
:1027A00013D185685E000324B44025EA0405CC6893
:1027B000B4402C438460446824EA0C0C4C68C4F395
:1027C00000149C4044EA0C044460C6684FEA430C81
:1027D000032505FA0CF5EC4326EA050E8D6805FA8B
:1027E0000CF545EA0E05C5604D68122D18BF022D87
:1027F00012D1DE08083650F8267003F007054FEABC
:10280000850E0F2505FA0EF527EA05070D6905FA6D
:102810000EF53D4340F82650056825404C6804F00D
:10282000030404FA0CF42C4304604C6814F0805F39
:10283000A2D02C4CD4F8F45045F00205C4F8F45062
:10284000D4F8F44004F002040194019C9D08AE1CED
:10285000234C54F8267003F00304A6000F24B44060
:1028600027EA040C204CA0423FF448AF04F58064F2
:10287000A04222D004F58064A04220D004F58064F8
:10288000A0421ED004F58064A0421CD004F58064F0
:10289000A0421AD004F58064A04218D004F58064E8
:1028A000A04216D004F58064A04214D004F58064E0
:1028B000A0423FF421AF0A2421E701241FE70224AC
:1028C0001DE703241BE7042419E7052417E7062462
:1028D00015E7072413E7082411E703B0F0BD00BF94
:1028E0000004005800440258000002580AB18161F7
:1028F0007047090481617047436901EA030221EAD4
:10290000030141EA0241816170470000134BDB681B
:1029100013F0040F07D1114BDB6803F00703834268
:102920001AD00120704710B50C4AD36823F0070372
:102930001843D06000F04EF80446084B5B6813F46F
:10294000005F07D100F046F8001BB0F57A7FF4D99C
:10295000012000E0002010BD002070470048025810
:1029600010B50320FEF79EF8FEF716FC0F498B69A1
:10297000C3F303230E4AD35C03F01F03D8408B69D3
:1029800003F00F03D35C03F01F0320FA03F3094A9B
:102990001360094B18600F2001F052F810B10124A8
:1029A000204610BD0446FEF763F8F9E700440258DC
:1029B000304A00080C00002008000020034B1B7860
:1029C000034A11680B441360704700BF00000020E9
:1029D00010010020014B1868704700BF1001002053
:1029E000014B1868000C70470010005C30B40A6896
:1029F00050F8223023F0010340F822308B68082B76
:102A000030D000244A6822431343CA6813430A693A
:102A100013434A6913438A691343CA6913430A6A11
:102A200013434A6A13438A6A1343CA6A13430A6BFD
:102A300013434A6B13438A6B13430C6850F82450BA
:102A40000E4A2A401A4340F824200B6BB3F5801F2E
:102A50000AD00B681BB103684A6B13430360002064
:102A600030BC70474024CDE70A68002AF1D00268E4
:102A700022F4801213430360EBE700BF8004C0FF21
:102A800010B5013250F8223003F0404C0B684C680E
:102A900043EA04138C6843EA0423CC6843EA044302
:102AA0000C6904F1FF3E43EA0E534C69A4F1020E97
:102AB00043EA0E638C6923434CEA030340F8223057
:102AC000036813F4801F0BD0436823F470030A6972
:102AD000013A43EA0252436823F47003134343600C
:102AE000002010BDB3F5804F05D06FF0704340F863
:102AF00022300020704730B450F82230094C1C407E
:102B00000B684D6843EA05138D6843EA05238D6918
:102B10002B43C96843EA0143234340F82230002095
:102B200030BC70470000F0CF68B370B50E46154654
:102B3000044690F845300BB3214651F8080BFFF7D7
:102B400055FFA26831462068FFF79AFFE36AA26842
:102B500029466068FFF7C6FF2268A16852F8213055
:102B600043F0010342F82130084A136843F0004360
:102B70001360012384F84530002070BD80F8443094
:102B8000FDF7E6FED8E70120704700BF0040005285
:102B90007047000090F83D30DBB2012B36D10223A4
:102BA00080F83D300268D36843F00103D3600368C6
:102BB000184AB3F1804F18BF934219D0A2F57C4256
:102BC000934215D002F58062934211D002F58062E3
:102BD00093420DD002F57842934209D0A2F56C429F
:102BE000934205D01A6842F001021A600020704733
:102BF0009968094A0A40062A18BFB2F5803F07D0F3
:102C00001A6842F001021A600020704701207047E4
:102C10000020704700000140070001007047704726
:102C20007047704710B5044603681A6912F0020F26
:102C300011D0DA6812F0020F0DD06FF002021A61A3
:102C40000123037703689B6913F0030F79D0FFF723
:102C5000E6FF0023237723681A6912F0040F12D0CD
:102C6000DA6812F0040F0ED06FF004021A6102232A
:102C7000237723689B6913F4407F68D02046FFF7D1
:102C8000CEFF0023237723681A6912F0080F12D0B1
:102C9000DA6812F0080F0ED06FF008021A610423F0
:102CA00023772368DB6913F0030F57D02046FFF723
:102CB000B6FF0023237723681A6912F0100F12D091
:102CC000DA6812F0100F0ED06FF010021A610823AC
:102CD00023772368DB6913F4407F46D02046FFF753
:102CE0009EFF0023237723681A6912F0010F03D097
:102CF000DA6812F0010F3FD123681A6912F0800FD1
:102D000003D0DA6812F0800F3DD123681A6912F4FB
:102D1000807F03D0DA6812F0800F3BD123681A69F4
:102D200012F0400F03D0DA6812F0400F39D1236857
:102D30001A6912F0200F03D0DA6812F0200F37D191
:102D400010BDFFF76BFF2046FFF76AFF81E72046C3
:102D5000FFF764FF2046FFF763FF92E72046FFF787
:102D60005DFF2046FFF75CFFA3E72046FFF756FF15
:102D70002046FFF755FFB4E76FF001021A612046C5
:102D8000FDF730FCB8E76FF080021A61204600F0D2
:102D9000CAF8BAE76FF480721A61204600F0C4F8EE
:102DA000BCE76FF040021A612046FFF73AFFBEE72A
:102DB0006FF020021A61204600F0B4F8C0E700006E
:102DC00030B50368394A904214BF4FF0000E4FF0FF
:102DD000010EB0F1804F14BF72464EF00102AAB945
:102DE000334CA04214BF00240124324DA8420DD020
:102DF00064B904F1804404F58234A04214BF002475
:102E0000012405F50065A84200D01CB123F0700331
:102E10004C68234312BB264A904214BF0022012271
:102E2000244CA0421AD0CAB902F1804202F5823283
:102E3000904214BF0022012204F50064A0420DD08C
:102E400062B91D4A904214BF0022012204F59A344F
:102E5000A04203D012B9194A904204D123F4407C15
:102E6000CB6843EA0C0323F080034A6913430360F1
:102E70008A68C2620A688262114A904214BF73462D
:102E80004EF0010363B90C4B984214BF0023012399
:102E900002F57052904203D013B9084B984201D109
:102EA0000B6903630123436130BD00BF0000014093
:102EB0000008004000040040004401400048014078
:102EC0000004014060B310B5044690F83D3013B3E0
:102ED000022384F83D30214651F8040BFFF770FFC0
:102EE000012384F8483084F83E3084F83F3084F879
:102EF000403084F8413084F8423084F8433084F81C
:102F0000443084F8453084F8463084F8473084F8FB
:102F10003D30002010BD80F83C30FFF739FED7E788
:102F200001207047704770477047000070B586B049
:102F30000446016883680269134342691343C26906
:102F400013430868884A024013430B6022685368A1
:102F500023F44053E1680B435360A1692268834B1B
:102F60009A4201D0236A19439068814B03400B4376
:102F700093602268D36A23F00F03616A0B43D36224
:102F800022687C4B9A4221D07B4B9A4200F08C8085
:102F90007A4B9A4200F0A280794B9A4200F0B580B9
:102FA000784B9A4200F0C880774B9A4200F0F48048
:102FB000764B9A4200F01981754B9A4200F02C81B1
:102FC0006A4B9A4200F03F81802333E0714B5B6D86
:102FD00003F03803282B65D8DFE813F029006400DC
:102FE0006400640064006400640064004D016400D7
:102FF0006400640064006400640064002B006400EA
:103000006400640064006400640064005E006400A6
:103010006400640064006400640064006000640094
:1030200064006400640064006400640062000123C2
:1030300000E008234D498A4200F02F81E069B0F595
:10304000004F00F0AF81202B00F20782202B00F20E
:103050005182DFE813F01E0224024F024F022702C2
:103060004F024F024F022C024F024F024F024F02FB
:103070004F024F024F0231024F024F024F024F02E6
:103080004F024F024F024F024F024F024F024F02B8
:103090004F024F024F023D021023CBE72023C9E726
:1030A0004023C7E78023C5E73A4B5B6D03F0070376
:1030B000052B11D8DFE813F00600E10008000A0034
:1030C0000C000E000023B5E70823B3E71023B1E797
:1030D0002023AFE74023ADE78023ABE72D4B5B6DAB
:1030E00003F00703052B0ED8DFE803F003C905073B
:1030F000090B00239EE708239CE710239AE720236F
:1031000098E7402396E7802394E7224B5B6D03F01A
:103110000703052B0ED8DFE803F003B40507090BFE
:10312000002387E7082385E7102383E7202381E72F
:1031300040237FE780237DE7164B5B6D03F0070399
:10314000052B0ED8DFE803F0039F0507090B0023CA
:1031500070E708236EE710236CE720236AE740231B
:1031600068E7802366E700BFF369FFCF000C0058D3
:10317000FFF4FF11001001400044004000480040EF
:10318000004C004000500040001401400078004016
:10319000007C0040004402587D4B5B6D03F0380317
:1031A000282B20D8DFE803F0151F1F1F1F1F1F1F2C
:1031B000711F1F1F1F1F1F1F171F1F1F1F1F1F1FD5
:1031C000191F1F1F1F1F1F1F1B1F1F1F1F1F1F1F19
:1031D0001D0001232EE708232CE710232AE72023D4
:1031E00028E7402326E7802324E7694B5B6D03F043
:1031F0000703052B0ED8DFE803F0034A0507090B88
:10320000002317E7082315E7102313E7202311E70E
:1032100040230FE780230DE75D4B5B6D03F0070351
:10322000052B0ED8DFE803F003350507090B002353
:1032300000E70823FEE61023FCE62023FAE64023FD
:10324000F8E68023F6E603F50E339B6D03F00703E3
:10325000052B0ED8DFE803F0031F0507090B022337
:10326000E8E60823E6E61023E4E62023E2E640232E
:10327000E0E68023DEE60423DCE60423DAE604232A
:10328000D8E60423D6E60423D4E60423D2E60423B6
:10329000D0E60423CEE60423CCE6202B27D8022B4D
:1032A000C0F01A81023B1E2B00F21881DFE813F0F8
:1032B0005000160156001601160116015B0016019A
:1032C00016011601160116011601160160001601FD
:1032D0001601160116011601160116011601160136
:1032E0001601160116011601160116016C00402B7D
:1032F0002CD14FF40040626A264B33F81220B0FB09
:10330000F2F3656805EB4501994200F2E980B3EB01
:10331000053F00F2E780002633463146FCF7E0FF28
:10332000090241EA106100026B08C0182A463346C0
:1033300041F10001FCF7D4FFA0F54072164B9A4210
:1033400000F2D2802368D8603046D4E00120D2E079
:10335000FEF7C4FF0028CED10020CCE003A8FEF782
:10336000CFFF0498F6E76846FFF7C6F80198F1E743
:10337000074B1B6813F0200F08D0054B1B68C3F3E5
:10338000C1030648D840E5E70548B4E70348B2E77B
:1033900000440258084A0008FFFC0F000090D003C8
:1033A00000093D00202B15D8202B00F29F80DFE87C
:1033B00003F031379D9D3A9D9D9D3F9D9D9D9D9D17
:1033C0009D9D449D9D9D9D9D9D9D9D9D9D9D9D9D86
:1033D0009D9D5000402B1BD1626A4D4B33F812303B
:1033E000B0FBF3F06268530803EB4000B0FBF2F06F
:1033F00080B2A0F110024FF6EF739A4278D820F015
:103400000F03C0F3420018432368D860002072E025
:10341000012070E0FEF726F90028DDD100206AE0E7
:10342000FEF732F9F8E703A8FEF76AFF0498F3E71E
:103430006846FFF761F80198EEE7364B1B6813F01A
:10344000200F08D0334B1B68C3F3C1033248D84068
:10345000E2E73248C0E73048BEE7402B17D14FF4CF
:103460000040626A2A4B33F81230B0FBF3F0636815
:1034700000EB5300B0FBF3F080B2A0F110024FF666
:10348000EF739A4241D82368D860002033E00120CE
:1034900031E0FEF7E7F80028E3D100202BE0FEF74B
:1034A000F3F8F8E703A8FEF72BFF0498F3E7684664
:1034B000FFF722F80198EEE7164B1B6813F0200F78
:1034C00008D0144B1B68C3F3C1031348D840E2E78C
:1034D0001248C6E71048C4E701200CE001200AE0CA
:1034E000012008E0012006E0012004E0012002E0C4
:1034F000012000E001200123A4F86A30A4F868301C
:1035000000232367636706B070BD0120F3E700BFA7
:10351000084A0008004402580090D00300093D000A
:10352000836A13F0010F06D00268536823F4003356
:10353000C16A0B435360836A13F0020F06D002681E
:10354000536823F48033016B0B435360836A13F099
:10355000040F06D00268536823F48023416B0B43A9
:103560005360836A13F0080F06D00268536823F48F
:103570000043816B0B435360836A13F0100F06D036
:103580000268936823F48053C16B0B439360836A92
:1035900013F0200F06D00268936823F40053016CE7
:1035A0000B439360836A13F0400F0AD0026853689C
:1035B00023F48013416C0B435360436CB3F5801FBD
:1035C0000BD0836A13F0800F06D00268536823F48F
:1035D0000023C16C0B43536070470268536823F4A7
:1035E000C003816C0B435360EBE72DE9F8430546BC
:1035F0000F4616469946DDF820802C68E46937EAC4
:1036000004030CBF4FF0010C4FF0000CB44541D146
:10361000B8F1FF3FF1D0FFF7DDF9A0EB090040451D
:1036200024D8B8F1000F21D02B681A6812F0040FCB
:10363000E3D0DA6912F4006FDFD04FF400621A624F
:103640002A68136823F4D07313602A68936823F000
:10365000010393602023C5F88430C5F88830C5F88D
:103660008C30002385F88030032014E02A6813682A
:1036700023F4D07313602A68936823F001039360E6
:103680002023C5F88430C5F88830002385F88030C1
:10369000032000E00020BDE8F88330B583B0044685
:1036A0000023C0F88C30FFF795F9054622681268B0
:1036B00012F0080F0FD123681B6813F0040F18D104
:1036C0002023C4F88430C4F888300020E06684F8F1
:1036D000800003B030BD6FF07E43009303460022AC
:1036E0004FF400112046FFF780FF0028E3D00320AD
:1036F000EFE76FF07E4300932B4600224FF48001EA
:103700002046FFF772FF0028DAD00320E1E778B304
:1037100010B50446D0F884300BB32423C4F88430A9
:103720002268136823F0010313602046FFF7FEFBB5
:10373000012813D0A36ABBB92268536823F49043CD
:1037400053602268936823F02A0393602268136809
:1037500043F0010313602046FFF79FFF10BD80F880
:103760008030FDF72DF9D8E72046FFF7D9FEE3E7D3
:1037700001207047436E2BB90123A0F86A30A0F8EE
:103780006830704730B403689A68C2F3426299683F
:10379000490F094D6B5C1B01084C615C93FBF1F315
:1037A000A0F86A30AB5C1B01A25C93FBF2F3A0F8BB
:1037B000683030BC704700BF284A0008204A000823
:1037C00090F88030012B18D0012380F8803024231A
:1037D000C0F8843003681A68196821F00101196083
:1037E00022F000520023436601680A602022C0F8DC
:1037F000842080F88030184670470220704738B522
:1038000090F88030012B1DD00446012380F88030D1
:103810002423C0F8843003681D681A6822F001026E
:103820001A600268936823F0604319439160FFF7C0
:10383000A1FF23681D602023C4F88430002084F891
:10384000800038BD0220FCE738B590F88030012BAD
:103850001DD00446012380F880302423C0F8843032
:1038600003681D681A6822F001021A6002689368F2
:1038700023F0606319439160FFF77CFF23681D60AC
:103880002023C4F88430002084F8800038BD022052
:10389000FCE70000294AD2F8883043F47003C2F8EC
:1038A0008830274B1B6803F00F03062B06D8244AE9
:1038B000136823F00F0343F007031360214B1A68CA
:1038C00042F001021A6000221A6119681E4A0A4079
:1038D0001A601B4B1B6813F0080F06D0184A1368B8
:1038E00023F00F0343F007031360164B00229A6185
:1038F000DA611A62154999621549D9621549196345
:103900005A639963DA6319645A64196821F480214F
:1039100019601A66104B1A68104B1340B3F1005F20
:1039200003D20F4B0122C3F808210E4B43F2D202FF
:103930001A60024B4FF000629A60704700ED00E0A1
:1039400000200052004402587FEDF6EA0002020215
:103950000000FF01800201010010005C0000FFFF79
:10396000008000510040005208B501210348FEF7D5
:10397000C3FF4FF4FA7000F003FDF6E700040258AD
:1039800008B502210348FEF7B7FF40F2DC5000F013
:10399000F7FCF6E70004025808B5012000F0F0FC3F
:1039A000FBE77047034B0360034B0B6080231360FE
:1039B000704700BF200300202001002010B596B002
:1039C0001B4C0DF13C0CA646BEE80F00ACE80F0006
:1039D0009EE807008CE8070000210FA800F09BFC80
:1039E000144B18600DF1200C04F11C0EBEE80F0002
:1039F000ACE80F009EE807008CE80700002108A84B
:103A000000F089FC0C4B18600DF1040E04F1380C29
:103A1000BCE80F00AEE80F009CE807008EE8070046
:103A2000002101A800F077FC044B186016B010BD0F
:103A3000B44900081C0100201801002014010020D6
:103A40000F2801D90120704710B58AB00446002222
:103A500001462D20FDF738F82D20FDF76BF81A4BA5
:103A60001C601A4BD3F8E82042F48072C3F8E820B7
:103A7000D3F8E83003F480730093009B01A902A8F7
:103A8000FDF714FE079BBBB9FDF7ECFD034610489C
:103A9000A0FB03239B0C013B0E480F4A026040F23F
:103AA000E732C2604360002303618360FFF70AFAD4
:103AB00030B101200AB010BDFDF7D4FD4300E6E7A8
:103AC0000448FFF767F8F5E70400002000440258B7
:103AD00083DE1B43740300200020004000F1080334
:103AE00043604FF0FF328260C360036100230360D4
:103AF000704700230361704743684B609A688A608F
:103B0000516099600861036801330360704730B405
:103B10000D68B5F1FF3F11D000F108031C465B684A
:103B20001A68AA42FAD963684B6099608C60616038
:103B3000086103680133036030BC70470469F2E731
:103B40000369416882688A60416851605A688242AC
:103B500006D0002202611A68013A1A60186870479C
:103B600082685A60F5E70000084B1B681B6823B9A0
:103B7000074B4FF0FF321A607047044B1B68DB683D
:103B8000DB685A68024B1A60704700BFC40300200C
:103B9000980400202DE9F04707469846089DDDF877
:103BA00024900A9C266B6FF04043134406EB830677
:103BB00026F0070600293AD08E464FF0000CBCF1E3
:103BC0000F0F0BD81EF80C2004EB0C0383F83420E5
:103BD0001EF80C3013B10CF1010CF0E7002384F84F
:103BE0004330062D00D90625E56265644FF0000AD2
:103BF000C4F848A0201DFFF77CFF04F11800FFF770
:103C000078FF2461C5F10705A5616462C4F84CA082
:103C100084F850A042463946304600F017FD206037
:103C2000B9F1000F01D0C9F80040BDE8F0870023CA
:103C300084F83430D5E7000038B5002407E004EB01
:103C4000840293000E481844FFF748FF0134062C05
:103C5000F5D90C4D2846FFF741FF0B4C2046FFF7E6
:103C60003DFF0A48FFF73AFF0948FFF737FF0948C9
:103C7000FFF734FF084B1D60084B1C6038BD00BFC8
:103C8000CC0300206C04002080040020A404002049
:103C9000D0040020BC040020C4030020C80300207E
:103CA00010B5044600F0FEFC214A1368013313608E
:103CB000204B1B685BB1204B1B686BB91D4B1B680D
:103CC000DA6AE36A9A4207D81A4B1C6004E0194B7F
:103CD0001C601368012B28D0184A13680133136045
:103CE000E06A01238340164A11680B43136000EB1E
:103CF0008000211D134B03EB8000FFF7FDFE00F059
:103D0000F3FC0D4B1B687BB10A4B1B68DA6AE36A54
:103D10009A4209D24FF0E0234FF08052C3F8042DAD
:103D2000BFF34F8FBFF36F8F10BDFFF785FFD3E752
:103D300058040020C0030020B804002064040020C0
:103D400068040020CC03002010B5044690F85130E0
:103D500063B1012B11D0022B0ED04FF0500383F32F
:103D60001188BFF36F8FBFF34F8FFEE7006B00F03A
:103D7000F1FB204600F0EEFB10BD00F0EBFBFBE793
:103D80000F4B1B68D3B110B500F08CFC0D4BDB68FA
:103D9000DC68201DFFF7D4FE0B4A1368013B13605B
:103DA000074A1368013B136000F09EFC2046FFF7B2
:103DB000CBFF034B1B68002BE6D110BD704700BF43
:103DC0005C040020D00400205804002008B5FFF750
:103DD000D7FF074B1B68012BF9D94FF0E0234FF0B9
:103DE0008052C3F8042DBFF34F8FBFF36F8FEEE700
:103DF000CC03002070B504460D461F4B1E681F4BB8
:103E000018680430FFF79CFE50B91C4B1B68DA6A37
:103E1000012303FA02F21A490B6823EA02030B603A
:103E2000B4F1FF3F14BF00230123002D08BF00237E
:103E30006BB93444114B1B685C60A6420ED9114B20
:103E400018680E4B19680431FFF761FE70BD0B4B0B
:103E5000196804310C48FFF74FFEF7E70B4B186861
:103E6000064B19680431FFF752FE094B1B68A34249
:103E7000ECD9074B1C60E9E7E4040020C0030020F4
:103E800068040020C8030020BC040020C4030020F4
:103E90009804002030B587B00B9C7CB10C9DB5B167
:103EA00054250495049D542D1AD04FF0500383F3EC
:103EB0001188BFF36F8FBFF34F8FFEE74FF05003B2
:103EC00083F31188BFF36F8FBFF34F8FFEE74FF07F
:103ED000500383F31188BFF36F8FBFF34F8FFEE75B
:103EE000049D0C9D2C63022485F85140002403940A
:103EF000029505AC01940A9C0094FFF74BFE0C98C8
:103F0000FFF7CEFE059807B030BD2DE9F04385B030
:103F10000746884614461E46900000F09DFA00B3FE
:103F20008146542000F098FA0546B0B1C0F83090B0
:103F3000E5B1002385F85130039302950D9B019361
:103F40000C9B00933346224641463846FFF722FE3B
:103F50002846FFF7A5FE012005E0484600F0FAFAE2
:103F6000E6E74FF0FF3005B0BDE8F0834FF0FF30DB
:103F7000F9E7000010B588B000240594069407AA5C
:103F800006A905A8FFF70EFD059B0293069B01936A
:103F900000942346079A0E490E48FFF77BFF0E4B0D
:103FA000186090B14FF0500383F31188BFF36F8F07
:103FB000BFF34F8F094B4FF0FF321A60084B0122BD
:103FC0001A60084B1C6000F007FC08B010BD00BF71
:103FD0005C4A0008CD3D00089404002098040020AD
:103FE000B8040020E4040020024A1368013313607F
:103FF000704700BF60040020F8B53F4B1B68002BE2
:1040000070D13E4B1D6801351D60C5B93C4B1B6826
:104010001B6843B14FF0500383F31188BFF36F8FD8
:10402000BFF34F8FFEE7364A1168364B18681060B1
:104030001960354A136801331360FFF795FD334B60
:104040001B68AB4241D90027314B1B68DB6A03EB8D
:1040500083039A002F4B9B58012B00D901272E4B2D
:104060001B68002B3BD02D4B1B68002B41D0012738
:104070003FE00127224B1B681B6843B3204B1B68A2
:10408000DB68DC6863689D4226D3261D3046FFF757
:1040900057FDA36A1BB104F11800FFF751FDE36A55
:1040A00001229A401E49086802430A6003EB830319
:1040B0009A00314617481044FFF71EFDE26A144B80
:1040C0001B68DB6A9A42D4D2D4E70027D2E70F4BB1
:1040D0004FF0FF321A60B7E70C4A1360B4E7FFF7FE
:1040E00060FCC0E70C4A136801331360FFF759FC0A
:1040F00000273846F8BD00BF60040020E40400201B
:10410000C4030020C80300209C0400209804002061
:10411000C0030020CC030020A0040020E8040020FD
:104120006804002038B5354B1B6843B94FF0500385
:1041300083F31188BFF36F8FBFF34F8FFEE700F05B
:10414000B1FA2E4B1A68013A1A601B68002B4FD146
:104150002B4B1B680BB900244BE00024294B1B6838
:104160001BB3284BDB68DC6804F11800FFF7E8FCA0
:10417000251D2846FFF7E4FCE06A01238340224A1C
:1041800011680B43136000EB800029461F4B03EBC3
:104190008000FFF7B1FCE26A1D4B1B68DB6A9A42A4
:1041A000DCD31C4B01221A60D8E70CB1FFF7DCFC12
:1041B000194B1C6884B9174B1C68D4B14FF0E0232D
:1041C0004FF08052C3F8042DBFF34F8FBFF36F8FB2
:1041D00001240EE0013C07D0FFF70EFF0028F9D0C4
:1041E0000C4B01221A60F5E70B4B00221A60E2E744
:1041F000002400F079FA204638BD00BF600400209A
:1042000058040020A404002068040020CC030020EF
:10421000C0030020E8040020A004002010B5A8B1CD
:104220000446104B1B6843B14FF0500383F31188D1
:10423000BFF36F8FBFF34F8FFEE7FFF7D5FE00216F
:104240002046FFF7D7FDFFF76DFF48B94FF0E02399
:104250004FF08052C3F8042DBFF34F8FBFF36F8F21
:1042600010BD00BF60040020204B1B681BB1204B19
:1042700001221A6070471E4B00221A601D4B1B68FA
:10428000B3FA83F3DBB2C3F11F0303EB83018A00AC
:1042900019498A5842B94FF0500383F31188BFF38C
:1042A0006F8FBFF34F8FFEE7134903EB830082004C
:1042B0000A4450684068506003EB830C4FEA8C025C
:1042C00008321144884209D003EB83039A000A4B59
:1042D00013445B68DA68094B1A60704740686246AD
:1042E0009100054A0A445060EEE700BF60040020D8
:1042F000E804002068040020CC030020C003002054
:10430000842801D0033070470020704708B5FFF7BC
:1043100031FE002008BD2DE9F04387B004460F466A
:104320004569BDB18669AEB1D0F80480D0F800907F
:10433000B0F90800FFF7E4FF0296019500903B46B4
:10434000226949464046FFF7A5FD0590059807B04C
:10435000BDE8F08365682668D4F81080B4F90800D9
:10436000FFF7CEFF05AB019300903B461FFA88F2A2
:1043700031462846FFF7C9FD0128E7D00020E6E7CF
:1043800008B500B90120FFF749FF002008BD000073
:10439000124A12F0070F1ED0D11D21F00701C1F5FE
:1043A000705313440A460E480260002141601344D2
:1043B000083B23F007030B48036059601960991A02
:1043C00051601360084B1960084B1960084B4FF09F
:1043D00000421A6070474FF47053E4E7F004002085
:1043E00004410020EC040020F8400020F4400020AC
:1043F000F0400020164B1A461B688342FBD35168DD
:1044000002EB010C844509D0416800EB010C6345C7
:1044100009D00360904219D0106070474068014491
:1044200051601046F0E710B40A4C2468A3420BD048
:104430005B681944416013681B680360904200D0B8
:1044400010605DF8044B70470460F7E7704700BFE9
:1044500004410020EC04002070B50546FFF7C4FDC0
:10446000364B1B68A3B1364B1B681D424ED135B18C
:10447000083515F0070F02D025F007050835002D87
:1044800046D0304B1B68AB4251D32F4A146804E02E
:10449000FFF77EFFE7E722461C466368AB4202D285
:1044A0002368002BF7D1254B1B68A34241D0166827
:1044B00008362368136063685B1B102B10D96019E2
:1044C00010F0070F08D04FF0500383F31188BFF3AB
:1044D0006F8FBFF34F8FFEE743606560FFF78AFF82
:1044E000626818490B689B1A0B60184909688B426F
:1044F00001D216490B60124B1B6813436360002303
:104500002360134A13680133136002E0002600E0C1
:104510000026FFF707FE16F0070F0CD04FF05003F0
:1045200083F31188BFF36F8FBFF34F8FFEE7002631
:10453000EFE70026EDE7304670BD00BFEC04002039
:10454000F0400020F440002004410020F84000200A
:10455000FC400020002834D038B50446A0F10805FE
:1045600050F8043C174A1268134208D14FF0500328
:1045700083F31188BFF36F8FBFF34F8FFEE750F8BF
:10458000081C41B14FF0500383F31188BFF36F8FC4
:10459000BFF34F8FFEE723EA020340F8043CFFF726
:1045A00023FD54F8041C084A13680B441360284682
:1045B000FFF720FF054A136801331360FFF7B2FDD0
:1045C00038BD7047F0400020F4400020004100203A
:1045D00082B0002301930D4B1B68B3F1FF3F08D05D
:1045E0004FF0500383F31188BFF36F8FBFF34F8FEA
:1045F000FEE74FF0500383F31188BFF36F8FBFF3D3
:104600004F8F019B002BFCD002B0704710000020A0
:1046100008480068006880F308884FF0000080F3C5
:10462000148862B661B6BFF34F8FBFF36F8F00DFA0
:1046300000BF000008ED00E0DFF80C00016841F465
:10464000700101607047000088ED00E04FF080735A
:1046500040F8043C21F0010140F8081C054B40F8EB
:104660000C3C40F8202C6FF0020340F8243C443806
:10467000704700BFD14500080000000000000000A6
:10468000074B19680868B0E8F04F80F30988BFF35A
:104690006F8F4FF0000080F311887047AFF30080F8
:1046A000C00300204FF0500383F31188BFF36F8FD6
:1046B000BFF34F8F0B4A136801331360012B00D0F7
:1046C00070474FF0E023D3F8043D13F0FF0FF7D00D
:1046D0004FF0500383F31188BFF36F8FBFF34F8FF9
:1046E000FEE700BF10000020094B1B6843B94FF0E4
:1046F000500383F31188BFF36F8FBFF34F8FFEE733
:10470000013B034A13600BB983F31188704700BF64
:104710001000002000000000000000000000000069
:10472000EFF30980BFF36F8F154B1A681EF0100F5F
:1047300008BF20ED108A20E9F04F10602DE9090034
:104740004FF0500080F31188BFF34F8FBFF36F8F8E
:10475000FFF78AFD4FF0000080F3118809BC19684B
:104760000868B0E8F04F1EF0100F08BFB0EC108AD8
:1047700080F30988BFF36F8F704700BFAFF30080ED
:10478000C003002008B54FF0500383F31188BFF336
:104790006F8FBFF34F8FFFF72FFC28B14FF0E0234F
:1047A0004FF08052C3F8042D002383F3118808BD15
:1047B0004FF0E022002313619361054B1B6805490C
:1047C000A1FB03139B09013B53610723136170474E
:1047D00008000020D34D62104FF0E023D3F8002DE5
:1047E0003D4B9A421CD04FF0E023D3F8002D3B4BB9
:1047F0009A421ED030B583B0394B1A78D2B20192AA
:10480000FF221A701B78DBB28DF803309DF803305D
:1048100003F05003334A1370334B07221A601BE036
:104820004FF0500383F31188BFF36F8FBFF34F8FA7
:10483000FEE74FF0500383F31188BFF36F8FBFF390
:104840004F8FFEE7284A1368013B13609DF8033041
:104850005B00DBB28DF803309DF8033013F0800F5E
:10486000F0D1214B1B68032B08D04FF0500383F38A
:104870001188BFF36F8FBFF34F8FFEE71B021A4AF9
:10488000136003F4E0631360019BDBB2144A1370FE
:104890004FF0E024D4F8203D43F47003C4F8203DE9
:1048A000D4F8203D43F07043C4F8203DFFF780FF6B
:1048B00000250E4B1D60FFF7BFFED4F8343F43F0D8
:1048C0004043C4F8343FFFF7A3FEFFF7CDFCFFF7EA
:1048D0007FFE284603B030BD71C20F4170C20F4148
:1048E00000E400E00C4100201041002010000020F6
:1048F000DFF834D0FEF7CEFF0C480D490D4A0023F7
:1049000002E0D458C4500433C4188C42F9D30A4A84
:104910000A4C002301E013600432A242FBD300F0F2
:1049200011F8FBF7CDFE70470000022000000020C8
:1049300014000020744A00081400002014410020D4
:10494000FEE7000070B50D4D0D4C641BA410002651
:10495000A64209D10B4D0C4C00F020F8641BA410AA
:104960000026A64205D170BD55F8043B9847013694
:10497000EEE755F8043B98470136F2E76C4A000829
:104980006C4A00086C4A0008704A0008024403465A
:10499000934200D1704703F8011BF9E7F8B500BF57
:1049A000F8BC08BC9E467047F8B500BFF8BC08BC10
:0449B0009E46704768
:1049B400404A000899390008000000000000000087
:1049C4008000000000000000000000004C4A0008C5
:1049D40069390008000000000000000080000000A9
:1049E4000000000000000000544A0008813900085B
:1049F4000000000000000000800000000000000033
:104A040000000000010002000400060008000A0083
:104A14000C00100020004000800000010804020483
:104A24000801010101010103070100000000000069
:104A340001020304010203040607080964656661B0
:104A4400756C745461736B00626C696E6B0000006A
:104A5400626C696E6B32000049444C4500000000F2
:084A6400ACB8FF7F0100000067
:044A6C00C502000877
:044A7000A102000897
:104A740001000000100000000090D0030090D0035B
:044A8400AAAAAAAA86
:04000005080048F1B6
:00000001FF
