:020000040800F2
:1000000000500020F5260008A5080008A7080008F1
:10001000A9080008AB080008AD08000800000000AF
:10002000000000000000000000000000AF08000811
:10003000B108000800000000B3080008B508000877
:100040003D2700083D2700083D2700083D27000800
:100050003D2700083D2700083D2700083D270008F0
:100060003D2700083D2700083D2700083D270008E0
:100070003D2700083D2700083D270008BD0800086F
:100080003D2700083D2700083D2700083D270008C0
:100090003D2700083D2700083D2700083D270008B0
:1000A0003D2700083D2700083D2700083D270008A0
:1000B0003D2700083D2700083D2700083D27000890
:1000C0003D2700083D2700083D2700083D27000880
:1000D0003D2700083D2700083D2700083D27000870
:1000E0003D2700083D2700083D27000800000000CC
:1000F0000000000000000000000000000000000000
:0C01000000000000000000005FF808F1A3
:1001100010B5054C237833B9044B13B10448AFF341
:1001200000800123237010BD0C000020000000009F
:100130009827000808B5034B1BB103490348AFF3E8
:10014000008008BD00000000100000209827000873
:1001500070B54FF0FF0C4CF4E06C1CEA11541DBF5D
:100160001CEA135594EA0C0F95EA0C0F00F0DEF828
:100170002C4481EA030621EA4C5123EA4C5350EA0D
:10018000013518BF52EA033541F4801143F480135E
:1001900038D0A0FB02CE4FF00005E1FB02E506F0EF
:1001A0000042E0FB03E54FF00006E1FB03569CF044
:1001B000000F18BF4EF0010EA4F1FF04B6F5007F4A
:1001C00064F5407404D25FEA4E0E6D4146EB0606BC
:1001D00042EAC62141EA55514FEAC52040EA5E5045
:1001E0004FEACE2EB4F1FD0C88BFBCF5E06F1ED8EF
:1001F000BEF1004F08BF5FEA500E50F1000041EB26
:10020000045170BD06F0004646EA010140EA0200D2
:1002100081EA0301B4EB5C04C2BFD4EB0C0541EAF4
:10022000045170BD41F480114FF0000E013C00F309
:10023000AB8014F1360FDEBF002001F0004170BD2D
:10024000C4F10004203C35DA0C341BDC04F1140446
:10025000C4F1200500FA05F320FA04F001FA05F2D2
:1002600040EA020001F0004221F0004110EBD3709F
:1002700021FA04F642EB06015EEA430E08BF20EACB
:10028000D37070BDC4F10C04C4F1200500FA04F36E
:1002900020FA05F001FA04F240EA020001F0004100
:1002A00010EBD37041F100015EEA430E08BF20EA73
:1002B000D37070BDC4F1200500FA05F24EEA020EBB
:1002C00020FA04F301FA05F243EA020321FA04F0EA
:1002D00001F0004121FA04F220EA020000EBD370A1
:1002E0005EEA430E08BF20EAD37070BD94F0000FA1
:1002F0000FD101F00046400041EB010111F4801FD5
:1003000008BF013CF7D041EA060195F0000F18BF85
:10031000704703F00046520043EB030313F4801FC1
:1003200008BF013DF7D043EA0603704794EA0C0F7B
:100330000CEA135518BF95EA0C0F0CD050EA410691
:1003400018BF52EA4306D1D181EA030101F000410E
:100350004FF0000070BD50EA410606BF1046194636
:1003600052EA430619D094EA0C0F02D150EA013642
:1003700013D195EA0C0F05D152EA03361CBF104683
:1003800019460AD181EA030101F0004141F0FE4122
:1003900041F470014FF0000070BD41F0FE4141F4A6
:1003A000780170BD81F0004102E000BF83F000439E
:1003B00030B54FEA41044FEA430594EA050F08BF00
:1003C00090EA020F1FBF54EA000C55EA020C7FEAC4
:1003D000645C7FEA655C00F0E2804FEA5454D4EB41
:1003E0005555B8BF6D420CDD2C4480EA020281EA0B
:1003F000030382EA000083EA010180EA020281EA43
:100400000303362D88BF30BD11F0004F4FEA013194
:100410004FF4801C4CEA113102D0404261EB4101A3
:1004200013F0004F4FEA03334CEA133302D0524229
:1004300063EB430394EA050F00F0A780A4F10104E5
:10044000D5F1200E0DDB02FA0EFC22FA05F280181F
:1004500041F1000103FA0EF2801843FA05F3594105
:100460000EE0A5F120050EF1200E012A03FA0EFC84
:1004700028BF4CF0020C43FA05F3C01851EBE371AE
:1004800001F0004507D54FF0000EDCF1000C7EEBCB
:1004900000006EEB0101B1F5801F1BD3B1F5001F09
:1004A0000CD349085FEA30004FEA3C0C04F1010428
:1004B0004FEA445212F5800F80F09A80BCF1004F51
:1004C00008BF5FEA500C50F1000041EB045141EAD3
:1004D000050130BD5FEA4C0C404141EB0101013C9C
:1004E00028BFB1F5801FE9D291F0000F04BF01468B
:1004F0000020B1FA81F308BF2033A3F10B03B3F15D
:1005000020020CDA0C3208DD02F1140CC2F10C02EC
:1005100001FA0CF021FA02F10CE002F11402D8BF4A
:10052000C2F1200C01FA02F120FA0CFCDCBF41EA16
:100530000C019040E41AA2BF01EB0451294330BDE5
:100540006FEA04041F3C1CDA0C340EDC04F11404C2
:10055000C4F1200220FA04F001FA02F340EA030099
:1005600021FA04F345EA030130BDC4F10C04C4F1DF
:10057000200220FA02F001FA04F340EA03002946BF
:1005800030BD21FA04F0294630BD94F0000F83F409
:10059000801306BF81F480110134013D4EE77FEAEC
:1005A000645C18BF7FEA655C29D094EA050F08BF38
:1005B00090EA020F05D054EA000C04BF1946104619
:1005C00030BD91EA030F1EBF0021002030BD5FEA5D
:1005D000545C05D14000494128BF41F0004130BD85
:1005E00014F580043CBF01F5801130BD01F00045D9
:1005F00045F0FE4141F470014FF0000030BD7FEA4C
:10060000645C1ABF194610467FEA655C1CBF0B4646
:10061000024650EA013406BF52EA033591EA030F5D
:1006200041F4002130BD00BF90F0000F04BF002155
:10063000704730B54FF4806404F132044FF0000588
:100640004FF0000150E700BF90F0000F04BF002101
:10065000704730B54FF4806404F1320410F0004567
:1006600048BF40424FF000013EE700BF42004FEA62
:10067000E2014FEA31014FEA02701FBF12F07F43DF
:1006800093F07F4F81F06051704732F07F4208BF96
:10069000704793F07F4F04BF41F40021704730B59D
:1006A0004FF4607401F0004521F000411CE700BFE9
:1006B00050EA010208BF704730B54FF000050AE06C
:1006C00050EA010208BF704730B511F0004502D56D
:1006D000404261EB41014FF4806404F132045FEA6F
:1006E000915C3FF4D8AE4FF003025FEADC0C18BF18
:1006F00003325FEADC0C18BF033202EBDC02C2F10A
:10070000200300FA03FC20FA02F001FA03FE40EA9B
:100710000E0021FA02F11444BDE600BF4A0011D2D6
:1007200012F5001211D20DD56FF47873B3EB62524B
:100730000ED44FEAC12343F0004343EA505323FA57
:1007400002F070474FF00000704750EA013002D1CC
:100750004FF0FF3070474FF000007047704772B69F
:10076000FEE700B591B02822002106A802F00CF89F
:1007700000230193029303930493059301220692AD
:100780004FF4803307930A9202220D920E934FF496
:10079000E0130F9306A800F09BFD80B90F2301938F
:1007A00002210291002303934FF480620492059387
:1007B00001A800F0CBFF20B911B05DF804FBFFF7F2
:1007C000CEFFFFF7CCFF08B500F034FDFFF7C9FFFF
:1007D00000F00EF801F020FE01F042FB01F034FFC2
:1007E00001F0BCFE01F0BAFB142001F075FDFBE73F
:1007F0002DE9F04188B000240494059406940794F0
:10080000254B9A6942F010029A619A6902F010022F
:100810000092009A9A6942F020029A619A6902F065
:1008200020020192019A9A6942F004029A619A693F
:1008300002F004020292029A9A6942F008029A6156
:100840009B6903F008030393039BDFF850800122A8
:100850004FF40051404601F067F9114D2246202126
:10086000284601F061F94FF40053049301270597DE
:1008700006940226079604A9404601F043F8202377
:10088000049305970694079604A9284601F03AF8C0
:1008900008B0BDE8F08100BF001002400010014028
:1008A000000C0140FEE7FEE7FEE7FEE7FEE77047CB
:1008B0007047704708B500F0CFFC08BD08B5024886
:1008C00001F0BEF908BD00BFBC04002082B00E4B91
:1008D0009A6942F001029A619A6902F0010200925B
:1008E000009ADA6942F08052DA61DB6903F08053E2
:1008F0000193019B054A536823F0E06343F00073C2
:10090000536002B0704700BF001002400000014079
:1009100070B4036A23F001030362036A46688269C4
:1009200022F073020C6844EA020523F002028B688D
:1009300013430D4CA04209D00B4CA0420DD0466091
:1009400085614A684263036270BC704723F0080304
:10095000CA68134323F00403EEE726F440764A699D
:1009600032438E691643EAE7002C014030B4036A33
:1009700023F480730362036A4568C26922F073023C
:100980000C68224323F400738C6843EA04230F4C61
:10099000A04209D00D4CA0420ED04560C2614A6809
:1009A000C263036230BC704723F40063CC6843EA3F
:1009B000042323F48063EDE725F440554C6945EAB0
:1009C00004158C6945EA0415E7E700BF002C0140D7
:1009D00030B4036A23F480530362036A4468C26933
:1009E00022F4E6420D6842EA052223F400538D68A2
:1009F00043EA0533074DA84206D04460C2614A6805
:100A00000264036230BC704724F480444D6944EAB8
:100A10008514F2E7002C014010B4036A046A24F044
:100A200001040462846924F0F00C4CEA021223F001
:100A30000A030B438261036210BC704710B4046A5E
:100A400024F0100404628469036A24F4704C4CEAB4
:100A5000023223F0A00343EA01138261036210BC57
:100A60007047836823F070030B4343F007038360F0
:100A70007047704710B5446A636A83420ED0A36A18
:100A8000834214D0E36A83421AD0236B834220D07E
:100A90002046FFF763FE0023237710BD0123237751
:100AA0008369002BF4D1012384F83E30F0E7022360
:100AB00023778369002BEBD1012384F83F30E7E7EC
:100AC000042323778369002BE2D1012384F840308B
:100AD000DEE7082323778369002BD9D1012384F82B
:100AE0004130D5E7704710B5446A636A83420BD042
:100AF000A36A834210D0E36A834210D0236B8342FF
:100B000004D10823237701E0012323772046FFF750
:100B1000E9FF0023237710BD02232377F6E70423A0
:100B20002377F3E7704710B5446A636A83420CD0B9
:100B3000A36A834213D0E36A834216D0236B8342B5
:100B400019D0012384F83D3003E00123237784F892
:100B50003E302046FFF7E6FF0023237710BD022337
:100B60002377012384F83F30F3E70423237701231D
:100B700084F84030EDE708232377012384F84130DF
:100B8000E7E7000003681B4A90420AD0B0F1804FAB
:100B900007D0A2F59432904203D002F580629042D1
:100BA00003D123F070034A681343124A90420AD0DB
:100BB000B0F1804F07D0A2F59432904203D002F5F5
:100BC0008062904203D123F44073CA68134323F038
:100BD00080034A69134303608B68C3620B688362B6
:100BE000044B984202D00123436170470B690363B1
:100BF000F9E700BF002C014040B310B5044690F85F
:100C00003D30F3B1022384F83D30214651F8040B06
:100C1000FFF7B8FF012384F8463084F83E3084F8AB
:100C20003F3084F8403084F8413084F8423084F812
:100C3000433084F8443084F8453084F83D30002057
:100C400010BD80F83C3001F001FCDBE7012070476B
:100C500040B310B5044690F83D30F3B1022384F858
:100C60003D30214651F8040BFFF78CFF012384F837
:100C7000463084F83E3084F83F3084F8403084F8C1
:100C8000413084F8423084F8433084F8443084F8AA
:100C9000453084F83D30002010BD80F83C30FFF72F
:100CA000E8FEDBE70120704730B4036A23F010034D
:100CB0000362036A4468826922F4E6420D6842EAEC
:100CC000052223F020038D6843EA05130E4DA84248
:100CD00009D00D4DA8420ED0446082614A688263FB
:100CE000036230BC704723F08003CD6843EA0513EC
:100CF00023F04003EDE724F440644D6944EA8504A1
:100D00008D6944EA8504E7E7002C014038B590F886
:100D10003C30012B60D004460D46012380F83C3066
:100D20000C2A1AD8DFE802F0071919191D19191928
:100D30003119191944000068FFF7EAFD2268936928
:100D400043F0080393612268936923F004039361DD
:100D50002268936929690B439361002084F83C0061
:100D600038BD0068FFF7A0FF2268936943F4006371
:100D700093612268936923F4806393612268936985
:100D8000296943EA01239361E7E70068FFF7EEFD75
:100D90002268D36943F00803D3612268D36923F042
:100DA0000403D3612268D36929690B43D361D4E773
:100DB0000068FFF70DFE2268D36943F40063D36136
:100DC0002268D36923F48063D3612268D3692969D7
:100DD00043EA0123D361C0E70220C1E710B484686D
:100DE00024F47F4C42EA03220A4342EA0C02826066
:100DF00010BC704790F83C30012B66D010B504460B
:100E0000012380F83C30022380F83D30026893686B
:100E100023F47F4323F0770393600B68602B40D06B
:100E200022D8402B47D00BD9502B0ED1CA68496825
:100E30000068FFF7F1FD50212068FFF712FE04E083
:100E4000202B0CD008D9302B09D0012384F83D3059
:100E5000002084F83C0010BD0BB1102BF5D11946D1
:100E60002068FFF7FEFDF0E7702B0ED0B3F5005FB2
:100E7000EBD1CB684A6889680068FFF7AFFF22684A
:100E8000936843F480439360DFE7CB684A688968DE
:100E90000068FFF7A3FF2268936843F0770393602D
:100EA000D3E7CA6849680068FFF7C8FD6021206879
:100EB000FFF7D7FDC9E7CA6849680068FFF7ACFDCE
:100EC00040212068FFF7CDFDBFE70220704701F009
:100ED0001F01012303FA01FC036A23EA0C030362E6
:100EE000036A02FA01F10B430362704770B50446CE
:100EF00016460D4600292DD190F83E00C0B20228BA
:100F000014BF00200120002840F0F880002D3DD1C2
:100F100094F83E20D2B2012A14BF00220122002AF6
:100F200000F0EE80002E4DD0002D4FD1022284F82B
:100F30003E200C2D70D8DFE815F059006F006F00CF
:100F40006F008D006F006F006F00A4006F006F00D6
:100F50006F00BB00042909D008290FD090F8410088
:100F6000C0B2022814BF00200120CCE790F83F0057
:100F7000C0B2022814BF00200120C4E790F840004E
:100F8000C0B2022814BF00200120BCE7042D09D004
:100F9000082D0FD094F84120D2B2012A14BF0022AC
:100FA0000122BCE794F83F20D2B2012A14BF0022EC
:100FB0000122B4E794F84020D2B2012A14BF0022E3
:100FC0000122ACE7002BAFD001209AE0042D05D020
:100FD000082D07D0022284F84120AAE7022284F8D3
:100FE0003F20A6E7022284F84020A2E7626A4A492D
:100FF0009162626A4949D162626A49491163226811
:1010000034323146606A00F0E1FD00287AD122686E
:10101000D36843F40073D360012229462068FFF7A8
:1010200056FF23683F4A934258D023683D4A934273
:1010300059D0B3F1804F56D0A2F59432934252D09A
:1010400002F5806293424ED01A6842F001021A60A3
:10105000002056E0A26A30499162A26A2F49D1620B
:10106000A26A2F491163226838323146A06A00F023
:10107000ADFD002848D12268D36843F48063D36073
:10108000CAE7E26A24499162E26A2449D162E26ACB
:101090002349116322683C323146E06A00F096FD34
:1010A000002833D12268D36843F40063D360B3E7E8
:1010B000226B19499162226B1849D162226B18493F
:1010C0001163226840323146206B00F07FFDF8B991
:1010D0002268D36843F48053D3609DE75A6C42F48E
:1010E00000425A64A1E79A6802F00702062A11D06A
:1010F0001A6842F001021A60002002E0022000E0BB
:10110000012070BD0120FCE70120FAE70120F8E78B
:101110000120F6E70020F4E7750A0008E70A000856
:10112000270B0008002C014090F83C30012B2CD0FC
:1011300010B4012380F83C30022380F83D3003686E
:101140005A689C6822F0700C0A6842EA0C025A60E5
:1011500003680F4A93420AD0B3F1804F07D0A2F53B
:101160009432934203D002F58062934204D124F07A
:1011700080044A6814439C60012380F83D300023BA
:1011800080F83C30184610BC70470220704700BF02
:10119000002C014090F83C30012B22D0012380F834
:1011A0003C30CB6823F440738A68134323F4806394
:1011B0004A68134323F400630A68134323F48053FB
:1011C0000A69134323F400534A69134323F4804309
:1011D000CA69134302685364002380F83C30184600
:1011E000704702207047000010B504460E4B187877
:1011F0004FF47A73B3FBF0F30C4A1068B0FBF3F0D2
:1012000000F018FE68B90F2C01D901200AE0002275
:1012100021464FF0FF3000F0C7FD054B1C60002059
:1012200000E0012010BD00BF0000002008000020E9
:101230000400002008B5074A136843F01003136048
:10124000032000F09FFD0020FFF7CEFFFFF73EFBDD
:10125000002008BD00200240034A1168034B1B78A0
:101260000B441360704700BF2800002000000020DE
:10127000014B1868704700BF2800002038B50446AD
:10128000FFF7F6FF0546B4F1FF3F02D0044B1B7891
:101290001C44FFF7EDFF401BA042FAD338BD00BF4E
:1012A0000000002082B0084B1B68084AA2FB032301
:1012B0005B0A00FB03F3019300BF019B5A1E0192DE
:1012C000002BF9D102B0704708000020D34D621006
:1012D000002800F0F18170B582B00446036813F075
:1012E000010F2CD0994B5B6803F00C03042B1DD02D
:1012F000964B5B6803F00C03082B12D06368B3F5C0
:10130000803F41D0002B55D103F1804303F50433D6
:101310001A6822F480321A601A6822F480221A6055
:1013200037E08A4B5B6813F4803FE7D0874B1B683C
:1013300013F4003F03D06368002B00F0BF812368E3
:1013400013F0020F75D0814B5B6813F00C0F5FD068
:101350007E4B5B6803F00C03082B54D02369002BF1
:1013600000F08A807A4B01221A60FFF781FF054660
:10137000764B1B6813F0020F75D1FFF779FF401B06
:101380000228F5D903209EE1704A136843F48033A4
:101390001360636843B3FFF76BFF05466B4B1B6835
:1013A00013F4003FCBD1FFF763FF401B6428F5D94E
:1013B000032088E1B3F5A02F09D0644B1A6822F40A
:1013C00080321A601A6822F480221A60E1E703F181
:1013D0008043A3F53C331A6842F480221A601A68ED
:1013E00042F480321A60D4E7FFF742FF0546574BBC
:1013F0001B6813F4003FA2D0FFF73AFF401B64289C
:10140000F5D903205FE1514B5B6813F4803FA5D110
:101410004E4B1B6813F0020F03D02369012B40F0E1
:101420004F814A4A136823F0F803616943EAC10314
:101430001360236813F0080F33D0A369002B5CD02E
:10144000434B0122C3F88024FFF712FF05463F4BB0
:101450005B6A13F0020F21D1FFF70AFF401B02283D
:10146000F5D903202FE1394A136823F0F8036169A5
:1014700043EAC1031360DCE7354B00221A60FFF733
:10148000F7FE0546314B1B6813F0020FD1D0FFF772
:10149000EFFE401B0228F5D9032014E10120FFF7DD
:1014A00001FF236813F0040F00F09680274BDB69DF
:1014B00013F0805F34D1254BDA6942F08052DA6153
:1014C000DB6903F080530193019B0125214B1B68CD
:1014D00013F4807F26D0E368012B3DD0002B53D13D
:1014E00003F1804303F504331A6A22F001021A6201
:1014F0001A6A22F004021A6233E0154B0022C3F884
:101500008024FFF7B5FE0546104B5B6A13F0020F0F
:10151000C7D0FFF7ADFE401B0228F5D90320D2E06B
:101520000025D3E70B4A136843F480731360FFF779
:101530009FFE0646074B1B6813F4807FCBD1FFF755
:1015400097FE801B6428F5D90320BCE00010024000
:1015500000004242007000405F4A136A43F00103FA
:101560001362E36833B3FFF783FE06465A4B1B6AE8
:1015700013F0020F2FD1FFF77BFE801B41F288335F
:101580009842F3D903209EE0052B09D0524B1A6AEA
:1015900022F001021A621A6A22F004021A62E0E7DB
:1015A0004D4B1A6A42F004021A621A6A42F00102B2
:1015B0001A62D6E7FFF75CFE0646474B1B6A13F03C
:1015C000020F08D0FFF754FE801B41F28833984287
:1015D000F3D9032077E0E5B9E369002B72D03E4AE6
:1015E000526802F00C02082A56D0022B17D03B4B4F
:1015F00000221A66FFF73CFE0446374B1B6813F0C7
:10160000007F47D0FFF734FE001B0228F5D90320E6
:1016100059E0314AD36923F08053D361DCE72F4B83
:1016200000221A66FFF724FE05462B4B1B6813F0B9
:10163000007F06D0FFF71CFE401B0228F5D90320CF
:1016400041E0236AB3F5803F1AD023494B6823F465
:101650007413226A606A024313434B601F4B0122DA
:101660001A66FFF705FE04461B4B1B6813F0007F4C
:101670000ED1FFF7FDFD001B0228F5D9032022E063
:10168000154A536823F40033A1680B435360DCE729
:10169000002018E0002016E0012B16D00E4B5B68EE
:1016A00003F48031226A914211D103F47013626A0B
:1016B00093420ED1002006E001207047012002E095
:1016C000012000E0002002B070BD0120FBE70120F6
:1016D000F9E70120F7E700BF001002400000424296
:1016E00086B0164B0FCB0DF1180C0CE90F0040F231
:1016F0000123ADF80430124B5B6803F00C02082A9A
:1017000002D0104806B07047C3F38342624412F817
:10171000100C13F4803F0CD0094B5B68C3F34043BB
:10172000634413F8143C074A02FB00F0B0FBF3F0EB
:10173000E8E7054B03FB00F0E4E700BFB027000833
:101740000010024000127A0000093D00002800F05D
:10175000A08070B50D460446524B1B6803F007038A
:101760008B420BD24F4A136823F007030B431360DD
:10177000136803F007038B4240F08D80236813F059
:10178000020F17D013F0040F04D0474A536843F4F4
:10179000E0635360236813F0080F04D0424A536893
:1017A00043F460535360404A536823F0F003A16848
:1017B0000B435360236813F0010F31D06368012B92
:1017C00020D0022B25D0384A126812F0020F64D0C4
:1017D00035494A6822F0030213434B60FFF748FD86
:1017E0000646314B5B6803F00C036268B3EB820F73
:1017F00016D0FFF73DFD801B41F288339842F0D9A7
:10180000032045E0284A126812F4003FE0D101208D
:101810003EE0254A126812F0007FD9D1012037E05E
:10182000204B1B6803F00703AB420AD91D4A13681B
:1018300023F007032B431360136803F00703AB4245
:101840002DD1236813F0040F06D0174A536823F4F0
:10185000E063E1680B435360236813F0080F07D07F
:10186000114A536823F46053216943EAC10353606A
:10187000FFF736FF0C4B5B68C3F303130B4AD35CD3
:10188000D8400B4B18600B4B1868FFF7ADFC0020DD
:1018900070BD012070470120FAE70120F8E7012020
:1018A000F6E700BF0020024000100240C4270008F5
:1018B0000800002004000020014B1868704700BF9A
:1018C0000800002008B5FFF7F7FF044B5B68C3F37F
:1018D0000223034AD35CD84008BD00BF0010024079
:1018E000D427000808B5FFF7E7FF044B5B68C3F394
:1018F000C223034AD35CD84008BD00BF0010024099
:10190000D427000870B582B00024A446A6E0804D1C
:10191000AA4210D007D97F4DAA420CD005F58035D8
:10192000AA4208D013E0A5F58015AA4203D005F518
:101930007025AA4207D18A68002A58D0012A51D0BE
:101940004361082403E0A5F58015AA42F3D0BEF157
:10195000FF0F4ED80646BEF1FF0F4CD84FEA8C025F
:1019600033680F25954023EA050304FA02F2134376
:1019700033604B6813F0805F6ED0674B9A6942F01A
:1019800001029A619B6903F001030193019B4FEAF5
:101990009C02951C614B53F825600CF003039D00DD
:1019A0000F23AB4026EA03065D4B984229D003F58E
:1019B0008063984200F08E8003F58063984200F0C7
:1019C0008B8003F58063984219D004231AE0CC6819
:1019D000BDE7CC680434BAE7CC680834B7E7CC6814
:1019E0000C34B4E703610824B1E70024AFE7042412
:1019F000ADE7061DAFE7ACF108029200B0E70323A4
:101A000000E00023AB4033430232444D45F822301E
:101A10004B6813F4803F61D0424A136843EA0E03D7
:101A200013604B6813F4003F5ED03E4A536843EAAC
:101A30000E0353604B6813F4801F5BD0394A9368E0
:101A400043EA0E0393604B6813F4001F58D0354AE5
:101A5000D36843EA0E03D3600CF1010C0A6832FA32
:101A60000CF353D0012303FA0CF302EA030E33EA1A
:101A70000202F1D14A68122A3FF649AF122A3FF614
:101A800066AF01A555F822F037190008CF190008F4
:101A9000D9190008EB1900084F1900084F19000860
:101AA0004F1900084F1900084F1900084F19000876
:101AB0004F1900084F1900084F1900084F19000866
:101AC0004F1900084F1900084F190008D3190008D2
:101AD000DF190008012395E7022393E7114A1368F1
:101AE00023EA0E0313609CE70E4A536823EA0E03B1
:101AF00053609FE70B4A936823EA0E039360A2E7C3
:101B0000084AD36823EA0E03D360A5E702B070BD8C
:101B100000002210000031100010024000000140BF
:101B200000080140000401400AB101617047090446
:101B30000161704730B40124056CAC40C56B6C602A
:101B4000046863604368102B05D0036899600368DC
:101B5000DA6030BC704703689A600368D960F8E7C0
:101B600060B310B402460168154B0B441548A0FB46
:101B700003031B099B001364134BD363022382F8F6
:101B80002130086820F47F5020F0300053689468BA
:101B90002343D4682343146923435469234394693A
:101BA0002343D469234303430B6000209063012344
:101BB00082F8213082F8200010BC70470120704765
:101BC000F8FFFDBFCDCCCCCC0000024038B50446B8
:101BD00090F82000012831D0012084F8200094F8EA
:101BE0002100012804D0002384F82030022038BDD1
:101BF000022084F821000020A0632568286820F0D6
:101C0000010028602046FFF795FFE36A5BB1226878
:101C1000136843F00E0313602268136843F0010356
:101C200013600020E3E72268136823F004031360C5
:101C30002268136843F00A031360EDE70220D6E739
:101C400038B5C36B1A6804682568016C04238B409F
:101C5000134235D015F0040F32D0236813F0200F53
:101C600003D1236823F0040323600368434A9342AB
:101C700014D01432934218D01432934217D0143235
:101C8000934217D01432934217D01432934202D0A9
:101C90004FF0806203E04FF4800200E00422384BF2
:101CA0005A60C36A03B1984738BD4022F7E74FF442
:101CB0008062F4E74FF48042F1E74FF48022EEE7D0
:101CC00002238B4013423CD015F0020F39D0236819
:101CD00013F0200F06D1236823F00A0323600123A9
:101CE00080F821300368254A934214D0143293427D
:101CF0001CD0143293421BD0143293421BD01432A6
:101D000093421BD01432934202D04FF0007203E092
:101D10004FF4001200E00222194B5A60002380F8B1
:101D20002030836A002BBFD09847BDE72022F3E71D
:101D30004FF40072F0E74FF40052EDE74FF4003239
:101D4000EAE7082303FA01F11142ADD015F0080FBC
:101D5000AAD0236823F00E032360026CC16B012319
:101D600003FA02F24A60836380F82130002380F88E
:101D70002030036B002B97D0984795E7080002406E
:101D800000000240074AD36823F4E0631B041B0CE5
:101D9000000200F4E060034343F0BF6343F4003308
:101DA000D360704700ED00E000B5194BDB68C3F36A
:101DB0000223C3F1070CBCF1040F28BF4FF0040C41
:101DC00003F1040EBEF1060F18D9033B4FF0FF3E9E
:101DD0000EFA0CFC21EA0C0199400EFA03F322EAF8
:101DE0000303194300280BDB0901C9B200F160406D
:101DF00000F5614080F800135DF804FB0023E5E77F
:101E000000F00F000901C9B2024B1954F4E700BFFA
:101E100000ED00E014ED00E0002807DB00F01F02F9
:101E2000400901239340024A42F82030704700BF26
:101E300000E100E00138B0F1807F0BD24FF0E023E9
:101E40005861054AF02182F823100020986107228A
:101E50001A6170470120704700ED00E070470000F4
:101E600008B50A480A4B03604FF4E133436000238E
:101E70008360C36003610C2242618361C36100F02F
:101E80009BFA00B908BDFEF76AFCFBE72C000020B6
:101E90000038014010B586B00023029303930493E9
:101EA00005930268174B9A4201D006B010BD03F5A6
:101EB00058439A6942F480429A619A6902F48042D6
:101EC0000092009A9A6942F004029A619B6903F0B9
:101ED00004030193019B4FF40073029302230393C5
:101EE00003230593084C02A92046FFF70BFD4FF48E
:101EF0008063029300230393049302A92046FFF713
:101F000001FDD2E7003801400008014010B5044649
:101F1000FFF7D2FC084BA3FB0030800CFFF78AFFD1
:101F2000601EFFF7ABF9FFF7C7FC044BA3FB0030C3
:101F30008009FFF77FFF10BD83DE1B43D34D621086
:101F400008B540F22623034A00210348FEF7CEFFDE
:101F500008BD00BF700000204805002008B5002320
:101F600005E00C4A012122F813100B449BB2B3F593
:101F7000F07FF6D34FF4F07305E0064A002122F813
:101F8000131001339BB240F225229342F5D9FFF79B
:101F9000D7FF08BD7000002000B54FF0000C09E02D
:101FA0004FF0040E03F80CE04900C9B20CF1010C2B
:101FB0001FFA8CFCBCF1070F05D811F0800FEFD190
:101FC0004FF0010EEEE7002109E04FF0040E01F1A1
:101FD000080C03F80CE04000C0B2013189B20729B7
:101FE00005D810F0800FF0D14FF0010EEFE700217F
:101FF00009E04FF0040C01F1100003F800C052009A
:10200000D2B2013189B2072905D812F0800FF0D180
:102010004FF0010CEFE75DF804FB000010B586B04F
:102020000446084611461A466B46FFF7B5FF0023E3
:102030000BE004EB440203EBC20206A9194411F8B9
:10204000180C054921F812000133172BF1DDFFF7B9
:1020500077FF06B010BD00BF700000200000000038
:1020600010B503460C46FF2841D9A0F58072FF2A1F
:102070005ED9A0F50072FF2A72D9A0F54072FF2A3E
:1020800077D9A0F58062FF2A40F29680A0F5A06281
:10209000FF2A40F2B580A0F5C062FF2A40F2CE8050
:1020A000A0F5E062FF2A40F2EB80A0F50062FF2A73
:1020B0001CD80022FF2A19D8D9B28A4200F0EA803F
:1020C000013292B2F6E7FEF7AFFA00227E4BFEF73E
:1020D0003FF875A3D3E90023FEF73AF8FEF71EFB9D
:1020E0000023C2B2FF21E0B2FFF798FF10BD00222B
:1020F000FF2AFBD8D8B28242E5D0013292B2F7E78C
:10210000FEF792FA0022704BFEF722F800226F4B86
:10211000FEF71EF864A3D3E90023FEF749F9FEF7A2
:10212000FDFA0023C2B2FF21E0B2FFF777FFDDE73F
:102130000022FF2ADAD8D8B28242E1D0013292B22C
:10214000F7E7013292B2FF2AD0D8D9B28A42F8D149
:10215000D9430023FF22C9B2E0B2FFF75FFFC5E712
:102160000022F0E70B46FF220021E0B2FFF756FF06
:10217000BCE70022FF2AB9D8D9B28A42F2D0013294
:1021800092B2F7E7FEF750FA00224F4BFDF7E0FF5F
:1021900000224F4BFDF7DCFF02460B4644A1D1E97C
:1021A0000001FEF703F9FEF7B9FAFF23C2B20021DE
:1021B000E0B2FFF733FF99E70022FF2A96D8D8B2A2
:1021C0008242DFD0013292B2F7E7FEF72DFA002209
:1021D0003D4BFDF7BDFF38A3D3E90023FDF7B8FF62
:1021E00002460B4634A1D1E90001FEF7DFF8FEF705
:1021F00095FAFF23C2B20021E0B2FFF70FFF75E7A7
:102200000022FF2A3FF672AFD8B28242DDD00132FF
:1022100092B2F6E7FEF708FA00222B4BFDF798FF83
:1022200027A3D3E90023FDF793FFFEF777FAFF23F7
:102230000022C1B2E0B2FFF7F1FE57E70022FF2A09
:102240003FF654AFD8B28242E4D0013292B2F6E700
:10225000FEF7EAF900221C4BFDF77AFF00221D4B26
:10226000FDF776FF16A3D3E90023FEF7A1F8FEF7EA
:1022700055FAFF230022C1B2E0B2FFF7CFFE35E7E7
:102280000022FF2A3FF632AFD8B28242E0D00132BC
:1022900092B2F6E7DB43DBB20022FF21E0B2FFF7A8
:1022A000BDFE23E7AFF300800000000000A0644003
:1022B0000000000000E06F400000000000C05F4030
:1022C0000000000000E060400000703F00805640C9
:1022D0000000604000005E4070B50546002619E031
:1022E000C4EB042393FBF5F303EBD37306EB630317
:1022F0000B48A0FB0320400A00EBC000A1B2A3EBF7
:102300000020FFF7ADFE6420FFF700FE0134A54278
:10231000E6DC0136B6F5106F01D20024F7E770BD98
:10232000398EE33810B504460268136923F440532C
:10233000C1680B43136183680269134342691A43FE
:102340000168CB6823F4B05323F00C031343CB6034
:102350000268536923F4407381690B435361026837
:10236000134B9A4220D0FFF7ADFA024602EB8202ED
:1023700002EB820263689B00B2FBF3F20D48A0FB04
:1023800002314909642303FB11231B013233A0FBF3
:1023900003235B0903F0F00202EB011203F00F03C9
:1023A000216813448B6010BDFFF79CFA0246DDE7FD
:1023B000003801401F85EB5158B310B5044690F822
:1023C0003D300BB3242384F83D302268D36823F4D6
:1023D0000053D3602046FFF7A5FF2268136923F45A
:1023E000904313612268536923F02A0353612268E2
:1023F000D36843F40053D36000202064202384F882
:102400003D3084F83E3010BD80F83C30FFF742FD8F
:10241000D8E701207047000000B583B00A4B5A6925
:1024200042F001025A615B6903F001030193019BD1
:10243000002211460F20FFF7B7FC0F20FFF7ECFC3E
:1024400003B05DF804FB00BF0010024010B582B07D
:1024500003681D4A934205D00446B3F1804F0CD067
:1024600002B010BD194B9A6942F400629A619B69EF
:1024700003F400630093009BF2E703F50433DA6989
:1024800042F00102DA61DB6903F001030193019B71
:102490000F48104B036010234360002383608022A9
:1024A000C2604FF4807202614FF480624261202268
:1024B0008261C361FFF754FB18B9054B63625C622C
:1024C000CEE7FEF74CF9F8E7002C0140001002407F
:1024D000BC0400205800024000B587B000230293DE
:1024E0000393049305930368194A934205D0B3F10B
:1024F000804F17D007B05DF804FB164B9A6942F085
:1025000004029A619B6903F004030093009B4FF45B
:102510008073029302230393059302A90E48FFF7E9
:10252000F1F9E7E703F504339A6942F004029A618E
:102530009B6903F004030193019B0123029302238F
:102540000393059302A90448FFF7DCF9D2E700BF23
:10255000002C0140001002400008014010B596B068
:1025600000241294139414941594109411940994C3
:102570000A940B940C940D940E940F9420222146EF
:1025800001A800F001F92E482E4B03604723436059
:10259000846040F2E733C360046144618461FEF704
:1025A0002BFB00283AD14FF48053129312A92448F0
:1025B000FEF720FC002834D12148FEF749FB002813
:1025C00032D100231093119310A91D48FEF7ACFDE2
:1025D00000282CD1602309934FF4FA730A93002248
:1025E0000B920C920D920E920F9209A91448FEF7CD
:1025F0008DFBF8B900230193029303930493059391
:102600004FF400520692089301A90D48FEF7C2FD4F
:1026100098B90B48FFF760FF16B010BDFEF79FF8A2
:10262000C1E7FEF79CF8C7E7FEF799F8C9E7FEF7A0
:1026300096F8CFE7FEF793F8DCE7FEF790F8E8E7C7
:1026400000050020002C014000B58FB000230A9344
:102650000B930C930D9308930993019302930393A7
:10266000049305930693079321484FF0804202603C
:102670001122426083600422C26003618361FEF71D
:10268000BBFA30BB4FF480530A930AA91848FEF7EF
:10269000B1FB08BB1648FEF7DBFA00BB002308932A
:1026A000099308A91248FEF73FFDD8B960230193AA
:1026B0004FF47A73029300220392059201A90C4809
:1026C000FEF724FB88B90A48FFF706FF0FB05DF854
:1026D00004FBFEF744F8D5E7FEF741F8DAE7FEF72A
:1026E0003EF8DBE7FEF73BF8E0E7FEF738F8EAE70D
:1026F000480500200C480D490D4A002302E0D4583B
:10270000C4500433C4188C42F9D30A4A0A4C00233B
:1027100001E013600432A242FBD3FFF79FFB00F0FD
:102720000FF8FEF750F87047000000200C00002062
:10273000E42700080C00002090050020FEE70000C0
:1027400070B500260C4D0D4C641BA410A64209D197
:1027500000F022F800260A4D0A4C641BA410A64281
:1027600005D170BD55F8043B98470136EEE755F8A2
:10277000043B98470136F2E7DC270008DC27000815
:10278000DC270008E027000803460244934200D1FA
:10279000704703F8011BF9E7F8B500BFF8BC08BCA7
:1027A0009E467047F8B500BFF8BC08BC9E4670470F
:1027B00002030405060708090A0B0C0D0E0F101082
:1027C00000000000000000000000000001020304FF
:0C27D000060708090000000001020304D5
:0427DC0035010008BB
:0427E00011010008DB
:0C27E40001000000100000000024F400C0
:04000005080026F5D4
:00000001FF
